{
  "address": "0xc21D353FF4ee73C572425697f4F5aaD2109fe35b",
  "abi": [
    {
      "inputs": [
        {
          "internalType": "contract IMintableERC20",
          "name": "_token",
          "type": "address"
        },
        {
          "internalType": "contract IMintableERC20",
          "name": "_xtoken",
          "type": "address"
        },
        {
          "internalType": "address",
          "name": "_governance",
          "type": "address"
        },
        {
          "internalType": "address",
          "name": "_sentinel",
          "type": "address"
        }
      ],
      "stateMutability": "nonpayable",
      "type": "constructor"
    },
    {
      "anonymous": false,
      "inputs": [
        {
          "indexed": true,
          "internalType": "contract IVaultAdapter",
          "name": "adapter",
          "type": "address"
        }
      ],
      "name": "ActiveVaultUpdated",
      "type": "event"
    },
    {
      "anonymous": false,
      "inputs": [
        {
          "indexed": false,
          "internalType": "uint256",
          "name": "limit",
          "type": "uint256"
        }
      ],
      "name": "CollateralizationLimitUpdated",
      "type": "event"
    },
    {
      "anonymous": false,
      "inputs": [
        {
          "indexed": false,
          "internalType": "bool",
          "name": "status",
          "type": "bool"
        }
      ],
      "name": "EmergencyExitUpdated",
      "type": "event"
    },
    {
      "anonymous": false,
      "inputs": [
        {
          "indexed": false,
          "internalType": "uint256",
          "name": "amount",
          "type": "uint256"
        }
      ],
      "name": "FundsFlushed",
      "type": "event"
    },
    {
      "anonymous": false,
      "inputs": [
        {
          "indexed": false,
          "internalType": "uint256",
          "name": "withdrawnAmount",
          "type": "uint256"
        },
        {
          "indexed": false,
          "internalType": "uint256",
          "name": "decreasedValue",
          "type": "uint256"
        }
      ],
      "name": "FundsHarvested",
      "type": "event"
    },
    {
      "anonymous": false,
      "inputs": [
        {
          "indexed": true,
          "internalType": "uint256",
          "name": "vaultId",
          "type": "uint256"
        },
        {
          "indexed": false,
          "internalType": "uint256",
          "name": "withdrawnAmount",
          "type": "uint256"
        },
        {
          "indexed": false,
          "internalType": "uint256",
          "name": "decreasedValue",
          "type": "uint256"
        }
      ],
      "name": "FundsRecalled",
      "type": "event"
    },
    {
      "anonymous": false,
      "inputs": [
        {
          "indexed": false,
          "internalType": "address",
          "name": "governance",
          "type": "address"
        }
      ],
      "name": "GovernanceUpdated",
      "type": "event"
    },
    {
      "anonymous": false,
      "inputs": [
        {
          "indexed": false,
          "internalType": "uint256",
          "name": "fee",
          "type": "uint256"
        }
      ],
      "name": "HarvestFeeUpdated",
      "type": "event"
    },
    {
      "anonymous": false,
      "inputs": [
        {
          "indexed": false,
          "internalType": "address",
          "name": "pendingGovernance",
          "type": "address"
        }
      ],
      "name": "PendingGovernanceUpdated",
      "type": "event"
    },
    {
      "anonymous": false,
      "inputs": [
        {
          "indexed": false,
          "internalType": "address",
          "name": "treasury",
          "type": "address"
        }
      ],
      "name": "RewardsUpdated",
      "type": "event"
    },
    {
      "anonymous": false,
      "inputs": [
        {
          "indexed": false,
          "internalType": "address",
          "name": "sentinel",
          "type": "address"
        }
      ],
      "name": "SentinelUpdated",
      "type": "event"
    },
    {
      "anonymous": false,
      "inputs": [
        {
          "indexed": true,
          "internalType": "address",
          "name": "account",
          "type": "address"
        },
        {
          "indexed": false,
          "internalType": "uint256",
          "name": "amount",
          "type": "uint256"
        }
      ],
      "name": "TokensDeposited",
      "type": "event"
    },
    {
      "anonymous": false,
      "inputs": [
        {
          "indexed": true,
          "internalType": "address",
          "name": "account",
          "type": "address"
        },
        {
          "indexed": false,
          "internalType": "uint256",
          "name": "requestedAmount",
          "type": "uint256"
        },
        {
          "indexed": false,
          "internalType": "uint256",
          "name": "withdrawnAmount",
          "type": "uint256"
        },
        {
          "indexed": false,
          "internalType": "uint256",
          "name": "decreasedValue",
          "type": "uint256"
        }
      ],
      "name": "TokensLiquidated",
      "type": "event"
    },
    {
      "anonymous": false,
      "inputs": [
        {
          "indexed": true,
          "internalType": "address",
          "name": "account",
          "type": "address"
        },
        {
          "indexed": false,
          "internalType": "uint256",
          "name": "parentAmount",
          "type": "uint256"
        },
        {
          "indexed": false,
          "internalType": "uint256",
          "name": "childAmount",
          "type": "uint256"
        }
      ],
      "name": "TokensRepaid",
      "type": "event"
    },
    {
      "anonymous": false,
      "inputs": [
        {
          "indexed": true,
          "internalType": "address",
          "name": "account",
          "type": "address"
        },
        {
          "indexed": false,
          "internalType": "uint256",
          "name": "requestedAmount",
          "type": "uint256"
        },
        {
          "indexed": false,
          "internalType": "uint256",
          "name": "withdrawnAmount",
          "type": "uint256"
        },
        {
          "indexed": false,
          "internalType": "uint256",
          "name": "decreasedValue",
          "type": "uint256"
        }
      ],
      "name": "TokensWithdrawn",
      "type": "event"
    },
    {
      "anonymous": false,
      "inputs": [
        {
          "indexed": false,
          "internalType": "address",
          "name": "transmuter",
          "type": "address"
        }
      ],
      "name": "TransmuterUpdated",
      "type": "event"
    },
    {
      "inputs": [],
      "name": "MAXIMUM_COLLATERALIZATION_LIMIT",
      "outputs": [
        {
          "internalType": "uint256",
          "name": "",
          "type": "uint256"
        }
      ],
      "stateMutability": "view",
      "type": "function"
    },
    {
      "inputs": [],
      "name": "MINIMUM_COLLATERALIZATION_LIMIT",
      "outputs": [
        {
          "internalType": "uint256",
          "name": "",
          "type": "uint256"
        }
      ],
      "stateMutability": "view",
      "type": "function"
    },
    {
      "inputs": [],
      "name": "PERCENT_RESOLUTION",
      "outputs": [
        {
          "internalType": "uint256",
          "name": "",
          "type": "uint256"
        }
      ],
      "stateMutability": "view",
      "type": "function"
    },
    {
      "inputs": [],
      "name": "ZERO_ADDRESS",
      "outputs": [
        {
          "internalType": "address",
          "name": "",
          "type": "address"
        }
      ],
      "stateMutability": "view",
      "type": "function"
    },
    {
      "inputs": [],
      "name": "_linkGasOracle",
      "outputs": [
        {
          "internalType": "address",
          "name": "",
          "type": "address"
        }
      ],
      "stateMutability": "view",
      "type": "function"
    },
    {
      "inputs": [],
      "name": "acceptGovernance",
      "outputs": [],
      "stateMutability": "nonpayable",
      "type": "function"
    },
    {
      "inputs": [],
      "name": "collateralizationLimit",
      "outputs": [
        {
          "components": [
            {
              "internalType": "uint256",
              "name": "x",
              "type": "uint256"
            }
          ],
          "internalType": "struct FixedPointMath.FixedDecimal",
          "name": "",
          "type": "tuple"
        }
      ],
      "stateMutability": "view",
      "type": "function"
    },
    {
      "inputs": [
        {
          "internalType": "uint256",
          "name": "_amount",
          "type": "uint256"
        }
      ],
      "name": "deposit",
      "outputs": [],
      "stateMutability": "nonpayable",
      "type": "function"
    },
    {
      "inputs": [],
      "name": "emergencyExit",
      "outputs": [
        {
          "internalType": "bool",
          "name": "",
          "type": "bool"
        }
      ],
      "stateMutability": "view",
      "type": "function"
    },
    {
      "inputs": [],
      "name": "flush",
      "outputs": [
        {
          "internalType": "uint256",
          "name": "",
          "type": "uint256"
        }
      ],
      "stateMutability": "nonpayable",
      "type": "function"
    },
    {
      "inputs": [],
      "name": "flushActivator",
      "outputs": [
        {
          "internalType": "uint256",
          "name": "",
          "type": "uint256"
        }
      ],
      "stateMutability": "view",
      "type": "function"
    },
    {
      "inputs": [
        {
          "internalType": "address",
          "name": "_account",
          "type": "address"
        }
      ],
      "name": "getCdpLastDeposit",
      "outputs": [
        {
          "internalType": "uint256",
          "name": "",
          "type": "uint256"
        }
      ],
      "stateMutability": "view",
      "type": "function"
    },
    {
      "inputs": [
        {
          "internalType": "address",
          "name": "_account",
          "type": "address"
        }
      ],
      "name": "getCdpTotalCredit",
      "outputs": [
        {
          "internalType": "uint256",
          "name": "",
          "type": "uint256"
        }
      ],
      "stateMutability": "view",
      "type": "function"
    },
    {
      "inputs": [
        {
          "internalType": "address",
          "name": "_account",
          "type": "address"
        }
      ],
      "name": "getCdpTotalDebt",
      "outputs": [
        {
          "internalType": "uint256",
          "name": "",
          "type": "uint256"
        }
      ],
      "stateMutability": "view",
      "type": "function"
    },
    {
      "inputs": [
        {
          "internalType": "address",
          "name": "_account",
          "type": "address"
        }
      ],
      "name": "getCdpTotalDeposited",
      "outputs": [
        {
          "internalType": "uint256",
          "name": "",
          "type": "uint256"
        }
      ],
      "stateMutability": "view",
      "type": "function"
    },
    {
      "inputs": [
        {
          "internalType": "uint256",
          "name": "_vaultId",
          "type": "uint256"
        }
      ],
      "name": "getVaultAdapter",
      "outputs": [
        {
          "internalType": "contract IVaultAdapter",
          "name": "",
          "type": "address"
        }
      ],
      "stateMutability": "view",
      "type": "function"
    },
    {
      "inputs": [
        {
          "internalType": "uint256",
          "name": "_vaultId",
          "type": "uint256"
        }
      ],
      "name": "getVaultTotalDeposited",
      "outputs": [
        {
          "internalType": "uint256",
          "name": "",
          "type": "uint256"
        }
      ],
      "stateMutability": "view",
      "type": "function"
    },
    {
      "inputs": [],
      "name": "governance",
      "outputs": [
        {
          "internalType": "address",
          "name": "",
          "type": "address"
        }
      ],
      "stateMutability": "view",
      "type": "function"
    },
    {
      "inputs": [
        {
          "internalType": "uint256",
          "name": "_vaultId",
          "type": "uint256"
        }
      ],
      "name": "harvest",
      "outputs": [
        {
          "internalType": "uint256",
          "name": "",
          "type": "uint256"
        },
        {
          "internalType": "uint256",
          "name": "",
          "type": "uint256"
        }
      ],
      "stateMutability": "nonpayable",
      "type": "function"
    },
    {
      "inputs": [],
      "name": "harvestFee",
      "outputs": [
        {
          "internalType": "uint256",
          "name": "",
          "type": "uint256"
        }
      ],
      "stateMutability": "view",
      "type": "function"
    },
    {
      "inputs": [
        {
          "internalType": "contract IVaultAdapter",
          "name": "_adapter",
          "type": "address"
        }
      ],
      "name": "initialize",
      "outputs": [],
      "stateMutability": "nonpayable",
      "type": "function"
    },
    {
      "inputs": [],
      "name": "initialized",
      "outputs": [
        {
          "internalType": "bool",
          "name": "",
          "type": "bool"
        }
      ],
      "stateMutability": "view",
      "type": "function"
    },
    {
      "inputs": [
        {
          "internalType": "uint256",
          "name": "_amount",
          "type": "uint256"
        }
      ],
      "name": "liquidate",
      "outputs": [
        {
          "internalType": "uint256",
          "name": "",
          "type": "uint256"
        },
        {
          "internalType": "uint256",
          "name": "",
          "type": "uint256"
        }
      ],
      "stateMutability": "nonpayable",
      "type": "function"
    },
    {
      "inputs": [
        {
          "internalType": "contract IVaultAdapter",
          "name": "_adapter",
          "type": "address"
        }
      ],
      "name": "migrate",
      "outputs": [],
      "stateMutability": "nonpayable",
      "type": "function"
    },
    {
      "inputs": [
        {
          "internalType": "uint256",
          "name": "_amount",
          "type": "uint256"
        }
      ],
      "name": "mint",
      "outputs": [],
      "stateMutability": "nonpayable",
      "type": "function"
    },
    {
      "inputs": [],
      "name": "pegMinimum",
      "outputs": [
        {
          "internalType": "uint256",
          "name": "",
          "type": "uint256"
        }
      ],
      "stateMutability": "view",
      "type": "function"
    },
    {
      "inputs": [],
      "name": "pendingGovernance",
      "outputs": [
        {
          "internalType": "address",
          "name": "",
          "type": "address"
        }
      ],
      "stateMutability": "view",
      "type": "function"
    },
    {
      "inputs": [
        {
          "internalType": "uint256",
          "name": "_vaultId",
          "type": "uint256"
        },
        {
          "internalType": "uint256",
          "name": "_amount",
          "type": "uint256"
        }
      ],
      "name": "recall",
      "outputs": [
        {
          "internalType": "uint256",
          "name": "",
          "type": "uint256"
        },
        {
          "internalType": "uint256",
          "name": "",
          "type": "uint256"
        }
      ],
      "stateMutability": "nonpayable",
      "type": "function"
    },
    {
      "inputs": [
        {
          "internalType": "uint256",
          "name": "_vaultId",
          "type": "uint256"
        }
      ],
      "name": "recallAll",
      "outputs": [
        {
          "internalType": "uint256",
          "name": "",
          "type": "uint256"
        },
        {
          "internalType": "uint256",
          "name": "",
          "type": "uint256"
        }
      ],
      "stateMutability": "nonpayable",
      "type": "function"
    },
    {
      "inputs": [
        {
          "internalType": "uint256",
          "name": "_parentAmount",
          "type": "uint256"
        },
        {
          "internalType": "uint256",
          "name": "_childAmount",
          "type": "uint256"
        }
      ],
      "name": "repay",
      "outputs": [],
      "stateMutability": "nonpayable",
      "type": "function"
    },
    {
      "inputs": [],
      "name": "rewards",
      "outputs": [
        {
          "internalType": "address",
          "name": "",
          "type": "address"
        }
      ],
      "stateMutability": "view",
      "type": "function"
    },
    {
      "inputs": [],
      "name": "sentinel",
      "outputs": [
        {
          "internalType": "address",
          "name": "",
          "type": "address"
        }
      ],
      "stateMutability": "view",
      "type": "function"
    },
    {
      "inputs": [
        {
          "internalType": "uint256",
          "name": "_limit",
          "type": "uint256"
        }
      ],
      "name": "setCollateralizationLimit",
      "outputs": [],
      "stateMutability": "nonpayable",
      "type": "function"
    },
    {
      "inputs": [
        {
          "internalType": "bool",
          "name": "_emergencyExit",
          "type": "bool"
        }
      ],
      "name": "setEmergencyExit",
      "outputs": [],
      "stateMutability": "nonpayable",
      "type": "function"
    },
    {
      "inputs": [
        {
          "internalType": "uint256",
          "name": "_flushActivator",
          "type": "uint256"
        }
      ],
      "name": "setFlushActivator",
      "outputs": [],
      "stateMutability": "nonpayable",
      "type": "function"
    },
    {
      "inputs": [
        {
          "internalType": "uint256",
          "name": "_harvestFee",
          "type": "uint256"
        }
      ],
      "name": "setHarvestFee",
      "outputs": [],
      "stateMutability": "nonpayable",
      "type": "function"
    },
    {
      "inputs": [
        {
          "internalType": "address",
          "name": "Oracle",
          "type": "address"
        },
        {
          "internalType": "uint256",
          "name": "peg",
          "type": "uint256"
        }
      ],
      "name": "setOracleAddress",
      "outputs": [],
      "stateMutability": "nonpayable",
      "type": "function"
    },
    {
      "inputs": [
        {
          "internalType": "address",
          "name": "_pendingGovernance",
          "type": "address"
        }
      ],
      "name": "setPendingGovernance",
      "outputs": [],
      "stateMutability": "nonpayable",
      "type": "function"
    },
    {
      "inputs": [
        {
          "internalType": "address",
          "name": "_rewards",
          "type": "address"
        }
      ],
      "name": "setRewards",
      "outputs": [],
      "stateMutability": "nonpayable",
      "type": "function"
    },
    {
      "inputs": [
        {
          "internalType": "address",
          "name": "_sentinel",
          "type": "address"
        }
      ],
      "name": "setSentinel",
      "outputs": [],
      "stateMutability": "nonpayable",
      "type": "function"
    },
    {
      "inputs": [
        {
          "internalType": "address",
          "name": "_transmuter",
          "type": "address"
        }
      ],
      "name": "setTransmuter",
      "outputs": [],
      "stateMutability": "nonpayable",
      "type": "function"
    },
    {
      "inputs": [],
      "name": "token",
      "outputs": [
        {
          "internalType": "contract IMintableERC20",
          "name": "",
          "type": "address"
        }
      ],
      "stateMutability": "view",
      "type": "function"
    },
    {
      "inputs": [],
      "name": "totalDeposited",
      "outputs": [
        {
          "internalType": "uint256",
          "name": "",
          "type": "uint256"
        }
      ],
      "stateMutability": "view",
      "type": "function"
    },
    {
      "inputs": [],
      "name": "transmuter",
      "outputs": [
        {
          "internalType": "address",
          "name": "",
          "type": "address"
        }
      ],
      "stateMutability": "view",
      "type": "function"
    },
    {
      "inputs": [],
      "name": "vaultCount",
      "outputs": [
        {
          "internalType": "uint256",
          "name": "",
          "type": "uint256"
        }
      ],
      "stateMutability": "view",
      "type": "function"
    },
    {
      "inputs": [
        {
          "internalType": "uint256",
          "name": "_amount",
          "type": "uint256"
        }
      ],
      "name": "withdraw",
      "outputs": [
        {
          "internalType": "uint256",
          "name": "",
          "type": "uint256"
        },
        {
          "internalType": "uint256",
          "name": "",
          "type": "uint256"
        }
      ],
      "stateMutability": "nonpayable",
      "type": "function"
    },
    {
      "inputs": [],
      "name": "xtoken",
      "outputs": [
        {
          "internalType": "contract IMintableERC20",
          "name": "",
          "type": "address"
        }
      ],
      "stateMutability": "view",
      "type": "function"
    }
  ],
  "transactionHash": "0xd6b72dbae05bcd006fee5c3ac8207a5499298924c6dccf6359fdf8f7ad14e240",
  "args": [
    "0x6B175474E89094C44Da98b954EedeAC495271d0F",
    "0xBC6DA0FE9aD5f3b0d58160288917AA56653660E9",
    "0x51e029a5Ef288Fb87C5e8Dd46895c353ad9AaAeC",
    "0xf4B5b84b8f39bC556ed230FA91A0A89Bb5E8559b"
  ],
  "solcInputHash": "a885e78562f5bae54a8e3e04018de494",
  "bytecode": "0x60806040523480156200001157600080fd5b50604051620045453803806200454583398101604081905262000034916200018a565b60016000556001600160a01b0382166200006b5760405162461bcd60e51b81526004016200006290620001f1565b60405180910390fd5b6001600160a01b038116620000945760405162461bcd60e51b815260040162000062906200027e565b600180546001600160a01b03199081166001600160a01b03878116919091179092556002805482168684161781556003805483168685161790556005805490921692841692909217905569152d02c7e14af6800000600a556000906200011090670de0b6b3a76400009062000141602090811b6200233c17901c565b604080516020808201835290839052600c9290925580519182019052600090819052600d5550620002e19350505050565b600082620001525750600062000184565b828202828482816200016057fe5b0414620001815760405162461bcd60e51b815260040162000062906200023d565b90505b92915050565b60008060008060808587031215620001a0578384fd5b8451620001ad81620002c8565b6020860151909450620001c081620002c8565b6040860151909350620001d381620002c8565b6060860151909250620001e681620002c8565b939692955090935050565b6020808252602c908201527f416c6368656d6973743a20676f7665726e616e6365206164647265737320636160408201526b373737ba10313290183c181760a11b606082015260800190565b60208082526021908201527f536166654d6174683a206d756c7469706c69636174696f6e206f766572666c6f6040820152607760f81b606082015260800190565b6020808252602a908201527f416c6368656d6973743a2073656e74696e656c20616464726573732063616e6e60408201526937ba10313290183c181760b11b606082015260800190565b6001600160a01b0381168114620002de57600080fd5b50565b61425480620002f16000396000f3fe608060405234801561001057600080fd5b50600436106103155760003560e01c8063792b55b6116101a7578063c4d66de8116100ee578063f39c38a011610097578063fc0c546a11610071578063fc0c546a146105cf578063fefdc5d1146105d7578063ff50abdc146105ea57610315565b8063f39c38a0146105ac578063f58c251c146105b4578063fc00e8a0146105bc57610315565b8063ddc63262116100c8578063ddc632621461057e578063ec38a86214610591578063f0d787a3146105a457610315565b8063c4d66de814610545578063ce5494bb14610558578063d8aed1451461056b57610315565b8063a7c6a10011610150578063adb4a9ad1161012a578063adb4a9ad14610517578063b59629171461052a578063b6b55f251461053257610315565b8063a7c6a100146104e9578063aa6e0434146104f1578063aaf166601461050457610315565b8063a005fda311610181578063a005fda3146104bb578063a0712d68146104c3578063a1e401a9146104d657610315565b8063792b55b61461048d5780639a9af221146104a05780639ec5a894146104b357610315565b8063415f12401161026b57806353ffa18b116102145780635aa6e675116101ee5780635aa6e675146104755780636b9f96ea1461047d5780637239d2b91461048557610315565b806353ffa18b146104475780635641ec031461045a5780635a9b5e921461046257610315565b80634aaf7c65116102455780634aaf7c65146104175780634c3a8e021461042c578063538ba4f91461043f57610315565b8063415f1240146103e957806345ee0755146103fc57806345f867b31461040f57610315565b806322c37b75116102cd5780632e1a7d4d116102a75780632e1a7d4d146103b857806330d4d190146103d95780633847f038146103e157610315565b806322c37b751461038a578063238efcbc1461039d5780632670fdd8146103a557610315565b80630abb6035116102fe5780630abb60351461034d578063158ef93e146103605780631718a68f1461037557610315565b80630510111e1461031a57806309dac06114610338575b600080fd5b6103226105f2565b60405161032f919061413d565b60405180910390f35b61034b6103463660046137e6565b6105fe565b005b61034b61035b3660046137e6565b610720565b61036861082e565b60405161032f9190613966565b61037d610837565b60405161032f91906138ee565b61034b610398366004613899565b610853565b61034b6108a9565b61037d6103b3366004613899565b610970565b6103cb6103c6366004613899565b61099c565b60405161032f929190614146565b610322610bb2565b610322610bbe565b6103cb6103f7366004613899565b610bc4565b61034b61040a36600461382d565b610e3a565b610322610f0d565b61041f610f13565b60405161032f9190614133565b6103cb61043a366004613899565b610f2f565b61037d610fdd565b61034b610455366004613899565b610fe2565b6103686110f7565b61034b610470366004613802565b611105565b61037d6111a1565b6103226111bd565b61037d611291565b61034b61049b366004613899565b6112ad565b6103226104ae3660046137e6565b61136f565b61037d61139a565b61037d6113b6565b61034b6104d1366004613899565b6113d2565b6103226104e43660046137e6565b6116ba565b6103226116e2565b6103226104ff3660046137e6565b6116f3565b610322610512366004613899565b61172a565b61034b6105253660046137e6565b611743565b610322611851565b61034b610540366004613899565b611857565b61034b6105533660046137e6565b611a1b565b61034b6105663660046137e6565b611b7e565b61034b6105793660046138b1565b611c17565b6103cb61058c366004613899565b611fb3565b61034b61059f3660046137e6565b612113565b610322612221565b61037d612227565b61037d612243565b6103226105ca3660046137e6565b61225f565b61037d61228f565b6103cb6105e53660046138b1565b6122ab565b610322612336565b673782dace9d90000081565b60035473ffffffffffffffffffffffffffffffffffffffff163314610658576040517f08c379a000000000000000000000000000000000000000000000000000000000815260040161064f90613c93565b60405180910390fd5b73ffffffffffffffffffffffffffffffffffffffff81166106a5576040517f08c379a000000000000000000000000000000000000000000000000000000000815260040161064f90613f77565b600580547fffffffffffffffffffffffff00000000000000000000000000000000000000001673ffffffffffffffffffffffffffffffffffffffff83161790556040517fdc117600f93282860144d2cd2745f8e2e15c3ca2a32b4290c30f7cd1ae7ffcb9906107159083906138ee565b60405180910390a150565b60035473ffffffffffffffffffffffffffffffffffffffff163314610771576040517f08c379a000000000000000000000000000000000000000000000000000000000815260040161064f90613c93565b73ffffffffffffffffffffffffffffffffffffffff81166107be576040517f08c379a000000000000000000000000000000000000000000000000000000000815260040161064f90613a1f565b600480547fffffffffffffffffffffffff00000000000000000000000000000000000000001673ffffffffffffffffffffffffffffffffffffffff83161790556040517fc9e2377236eab4280090ce8f2317332649736d92f00dcf20a8dd6684ec5e7839906107159083906138ee565b600b5460ff1681565b60025473ffffffffffffffffffffffffffffffffffffffff1681565b60035473ffffffffffffffffffffffffffffffffffffffff1633146108a4576040517f08c379a000000000000000000000000000000000000000000000000000000000815260040161064f90613c93565b600a55565b60045473ffffffffffffffffffffffffffffffffffffffff1633146108fa576040517f08c379a000000000000000000000000000000000000000000000000000000000815260040161064f90613d84565b600454600380547fffffffffffffffffffffffff00000000000000000000000000000000000000001673ffffffffffffffffffffffffffffffffffffffff90921691821790556040517f9d3e522e1e47a2f6009739342b9cc7b252a1888154e843ab55ee1c81745795ab906107159083906138ee565b60008061097e600f84612399565b5473ffffffffffffffffffffffffffffffffffffffff169392505050565b600080600260005414156109dc576040517f08c379a000000000000000000000000000000000000000000000000000000000815260040161064f90613fd4565b60026000556109ea336123c0565b1580156109f657503332145b610a2c576040517f08c379a000000000000000000000000000000000000000000000000000000000815260040161064f90613b6d565b600b5460ff16610a68576040517f08c379a000000000000000000000000000000000000000000000000000000000815260040161064f90613ee3565b336000908152600e6020526040902060038101544311610ab4576040517f08c379a000000000000000000000000000000000000000000000000000000000815260040161064f90613dbb565b610abf81600c6123c6565b600080610acc3387612422565b60408051808201909152601b81527f4578636565647320776974686472617761626c6520616d6f756e74000000000060208201528554929450909250610b149190839061258d565b835560408051606081019091526031808252610b3d91600c916141c760208301398591906125d3565b600a548610610b5057610b4e61261c565b505b3373ffffffffffffffffffffffffffffffffffffffff167fb3ad69dc1d2c6b1f5f5b0927ffd8ee8f1437a156253c8f6dccc75e6f8e4fd38b878484604051610b9a93929190614154565b60405180910390a26001600055909590945092505050565b670de0b6b3a764000081565b60115481565b60008060026000541415610c04576040517f08c379a000000000000000000000000000000000000000000000000000000000815260040161064f90613fd4565b6002600055610c12336123c0565b158015610c1e57503332145b610c54576040517f08c379a000000000000000000000000000000000000000000000000000000000815260040161064f90613b6d565b60115415610d3e57601054604080517f50d25bcd000000000000000000000000000000000000000000000000000000008152905160009273ffffffffffffffffffffffffffffffffffffffff16916350d25bcd916004808301926020929190829003018186803b158015610cc757600080fd5b505afa158015610cdb573d6000803e3d6000fd5b505050506040513d601f19601f82011682018060405250810190610cff9190613881565b90506011548111610d3c576040517f08c379a000000000000000000000000000000000000000000000000000000000815260040161064f9061409f565b505b600b5460ff16610d7a576040517f08c379a000000000000000000000000000000000000000000000000000000000815260040161064f90613ee3565b336000908152600e60205260409020610d9481600c6123c6565b8060010154841115610da857806001015493505b600080610db53087612422565b91509150610dc282612675565b6040805160208101909152600081528354610dde91839061258d565b83556040805160208101909152600081526001840154610dff91849061258d565b600184015560405133907f3ea051727656be6fd11c2260f244f29ff3c70d1fb077bfa73e89d554e9bb95c790610b9a90899086908690614154565b60035473ffffffffffffffffffffffffffffffffffffffff16331480610e77575060055473ffffffffffffffffffffffffffffffffffffffff1633145b610ead576040517f08c379a000000000000000000000000000000000000000000000000000000000815260040161064f90613dbb565b600b80547fffffffffffffffffffffffffffffffffffffffffffffffffffffffffffff00ff16610100831515021790556040517ff0064f2efd0da4bc63eecf2e75590fe8a308eaa526a51c334e50eec09a71104990610715908390613966565b61271081565b610f1b6137d3565b506040805160208101909152600c54815290565b60008060026000541415610f6f576040517f08c379a000000000000000000000000000000000000000000000000000000000815260040161064f90613fd4565b6002600055600b5460ff16610fb0576040517f08c379a000000000000000000000000000000000000000000000000000000000815260040161064f90613ee3565b6000610fbd600f85612399565b9050610fcd848260010154612839565b6001600055909590945092505050565b600081565b60035473ffffffffffffffffffffffffffffffffffffffff163314611033576040517f08c379a000000000000000000000000000000000000000000000000000000000815260040161064f90613c93565b670de0b6b3a7640000811015611075576040517f08c379a000000000000000000000000000000000000000000000000000000000815260040161064f90613bd9565b673782dace9d9000008111156110b7576040517f08c379a000000000000000000000000000000000000000000000000000000000815260040161064f90613c36565b60408051602081018252829052600c829055517ff78180bc708b1292177c888900951cd66a39faf48dc7b6d111e93285dbbe55a09061071590839061413d565b600b54610100900460ff1681565b60035473ffffffffffffffffffffffffffffffffffffffff163314611156576040517f08c379a000000000000000000000000000000000000000000000000000000000815260040161064f90613c93565b601080547fffffffffffffffffffffffff00000000000000000000000000000000000000001673ffffffffffffffffffffffffffffffffffffffff9390931692909217909155601155565b60035473ffffffffffffffffffffffffffffffffffffffff1681565b6000600260005414156111fc576040517f08c379a000000000000000000000000000000000000000000000000000000000815260040161064f90613fd4565b6002600055600b5460ff1661123d576040517f08c379a000000000000000000000000000000000000000000000000000000000815260040161064f90613ee3565b600b54610100900460ff161561127f576040517f08c379a000000000000000000000000000000000000000000000000000000000815260040161064f90613dcc565b61128761261c565b9050600160005590565b60065473ffffffffffffffffffffffffffffffffffffffff1681565b60035473ffffffffffffffffffffffffffffffffffffffff1633146112fe576040517f08c379a000000000000000000000000000000000000000000000000000000000815260040161064f90613c93565b61271081111561133a576040517f08c379a000000000000000000000000000000000000000000000000000000000815260040161064f90613d27565b60088190556040517fc36862a253ff42cc71f4f200d3c62e8e5eaaece01041fc6900aeace64ade72a89061071590839061413d565b73ffffffffffffffffffffffffffffffffffffffff166000908152600e602052604090206003015490565b60075473ffffffffffffffffffffffffffffffffffffffff1681565b60105473ffffffffffffffffffffffffffffffffffffffff1681565b6002600054141561140f576040517f08c379a000000000000000000000000000000000000000000000000000000000815260040161064f90613fd4565b600260005561141d336123c0565b15801561142957503332145b61145f576040517f08c379a000000000000000000000000000000000000000000000000000000000815260040161064f90613b6d565b6011541561154957601054604080517f50d25bcd000000000000000000000000000000000000000000000000000000008152905160009273ffffffffffffffffffffffffffffffffffffffff16916350d25bcd916004808301926020929190829003018186803b1580156114d257600080fd5b505afa1580156114e6573d6000803e3d6000fd5b505050506040513d601f19601f8201168201806040525081019061150a9190613881565b90506011548111611547576040517f08c379a000000000000000000000000000000000000000000000000000000000815260040161064f9061409f565b505b600b5460ff16611585576040517f08c379a000000000000000000000000000000000000000000000000000000000815260040161064f90613ee3565b336000908152600e6020526040902061159f81600c6123c6565b6002810154828110156116035760006115b8848361291c565b60018401549091506115ca908261295e565b600184015560006002840155604080516060810190915260278082526115fd91600c916141f860208301398591906125d3565b50611613565b61160d818461291c565b60028301555b6002546040517f40c10f1900000000000000000000000000000000000000000000000000000000815273ffffffffffffffffffffffffffffffffffffffff909116906340c10f199061166b903390879060040161390f565b600060405180830381600087803b15801561168557600080fd5b505af1158015611699573d6000803e3d6000fd5b50505050600a5483106116b0576116ae61261c565b505b5050600160005550565b73ffffffffffffffffffffffffffffffffffffffff166000908152600e602052604090205490565b60006116ee600f61299d565b905090565b73ffffffffffffffffffffffffffffffffffffffff81166000908152600e6020526040812061172381600c6129a1565b9392505050565b600080611738600f84612399565b600101549392505050565b60035473ffffffffffffffffffffffffffffffffffffffff163314611794576040517f08c379a000000000000000000000000000000000000000000000000000000000815260040161064f90613c93565b73ffffffffffffffffffffffffffffffffffffffff81166117e1576040517f08c379a000000000000000000000000000000000000000000000000000000000815260040161064f906139c2565b600680547fffffffffffffffffffffffff00000000000000000000000000000000000000001673ffffffffffffffffffffffffffffffffffffffff83161790556040517fe42bb1780117f5788c6e0042e955291223819875891ddf465b8e4fbb85a933e9906107159083906138ee565b60085481565b60026000541415611894576040517f08c379a000000000000000000000000000000000000000000000000000000000815260040161064f90613fd4565b60026000556118a2336123c0565b1580156118ae57503332145b6118e4576040517f08c379a000000000000000000000000000000000000000000000000000000000815260040161064f90613b6d565b600b5460ff16611920576040517f08c379a000000000000000000000000000000000000000000000000000000000815260040161064f90613ee3565b600b54610100900460ff1615611962576040517f08c379a000000000000000000000000000000000000000000000000000000000815260040161064f90613dcc565b336000908152600e6020526040902061197c81600c6123c6565b6001546119a19073ffffffffffffffffffffffffffffffffffffffff163330856129e0565b600a5482106119b4576119b261261c565b505b6009546119c1908361295e565b60095580546119d0908361295e565b815543600382015560405133907f59062170a285eb80e8c6b8ced60428442a51910635005233fc4ce084a475845e90611a0a90859061413d565b60405180910390a250506001600055565b60035473ffffffffffffffffffffffffffffffffffffffff163314611a6c576040517f08c379a000000000000000000000000000000000000000000000000000000000815260040161064f90613c93565b600b5460ff1615611aa9576040517f08c379a000000000000000000000000000000000000000000000000000000000815260040161064f90613ba2565b60065473ffffffffffffffffffffffffffffffffffffffff16611af8576040517f08c379a000000000000000000000000000000000000000000000000000000000815260040161064f90613a7c565b60075473ffffffffffffffffffffffffffffffffffffffff16611b47576040517f08c379a000000000000000000000000000000000000000000000000000000000815260040161064f90613b10565b611b5081612a83565b50600b80547fffffffffffffffffffffffffffffffffffffffffffffffffffffffffffffff00166001179055565b600b5460ff16611bba576040517f08c379a000000000000000000000000000000000000000000000000000000000815260040161064f90613ee3565b60035473ffffffffffffffffffffffffffffffffffffffff163314611c0b576040517f08c379a000000000000000000000000000000000000000000000000000000000815260040161064f90613c93565b611c1481612a83565b50565b60026000541415611c54576040517f08c379a000000000000000000000000000000000000000000000000000000000815260040161064f90613fd4565b6002600055611c62336123c0565b158015611c6e57503332145b611ca4576040517f08c379a000000000000000000000000000000000000000000000000000000000815260040161064f90613b6d565b60115415611d8e57601054604080517f50d25bcd000000000000000000000000000000000000000000000000000000008152905160009273ffffffffffffffffffffffffffffffffffffffff16916350d25bcd916004808301926020929190829003018186803b158015611d1757600080fd5b505afa158015611d2b573d6000803e3d6000fd5b505050506040513d601f19601f82011682018060405250810190611d4f9190613881565b90506011548111611d8c576040517f08c379a000000000000000000000000000000000000000000000000000000000815260040161064f9061409f565b505b600b5460ff16611dca576040517f08c379a000000000000000000000000000000000000000000000000000000000815260040161064f90613ee3565b336000908152600e60205260409020611de481600c6123c6565b8215611e1857600154611e0f9073ffffffffffffffffffffffffffffffffffffffff163330866129e0565b611e1883612675565b8115611f31576002546040517f79cc679000000000000000000000000000000000000000000000000000000000815273ffffffffffffffffffffffffffffffffffffffff909116906379cc679090611e76903390869060040161390f565b600060405180830381600087803b158015611e9057600080fd5b505af1158015611ea4573d6000803e3d6000fd5b50506002546040517f288aafcb00000000000000000000000000000000000000000000000000000000815273ffffffffffffffffffffffffffffffffffffffff909116925063288aafcb9150611efe90859060040161413d565b600060405180830381600087803b158015611f1857600080fd5b505af1158015611f2c573d6000803e3d6000fd5b505050505b6000611f3d848461295e565b9050611f678160405180602001604052806000815250846001015461258d9092919063ffffffff16565b600183015560405133907fbade234341a40ca3c71df59b3ca02b8bb65b491a098af970953228b4f4a5d38f90611fa09087908790614146565b60405180910390a2505060016000555050565b600b54600090819060ff16611ff4576040517f08c379a000000000000000000000000000000000000000000000000000000000815260040161064f90613ee3565b6000612001600f85612399565b90506000806120108330612c3c565b909250905081156120cf57600061203e6127106120386008548661233c90919063ffffffff16565b90612c8f565b9050600061204c848361291c565b90506120566137d3565b61206b60095461206584612cd1565b90612d13565b6040805160208101909152600d5481529091506120889082612d47565b51600d5582156120bc576007546001546120bc9173ffffffffffffffffffffffffffffffffffffffff918216911685612d77565b81156120cb576120cb82612675565b5050505b7f11d2034f4471d11a13f0f1798ceaf0c9db2812d450a0681958ce7d4f2fb97f098282604051612100929190614146565b60405180910390a1909350915050915091565b60035473ffffffffffffffffffffffffffffffffffffffff163314612164576040517f08c379a000000000000000000000000000000000000000000000000000000000815260040161064f90613c93565b73ffffffffffffffffffffffffffffffffffffffff81166121b1576040517f08c379a000000000000000000000000000000000000000000000000000000000815260040161064f906140d6565b600780547fffffffffffffffffffffffff00000000000000000000000000000000000000001673ffffffffffffffffffffffffffffffffffffffff83161790556040517f05f3326e0527f309d4015dee3bc3f36e650b53fc823bab69c99847814acfafdf906107159083906138ee565b600a5481565b60045473ffffffffffffffffffffffffffffffffffffffff1681565b60055473ffffffffffffffffffffffffffffffffffffffff1681565b73ffffffffffffffffffffffffffffffffffffffff81166000908152600e6020526040812061172381600c612d9b565b60015473ffffffffffffffffffffffffffffffffffffffff1681565b600080600260005414156122eb576040517f08c379a000000000000000000000000000000000000000000000000000000000815260040161064f90613fd4565b6002600055600b5460ff1661232c576040517f08c379a000000000000000000000000000000000000000000000000000000000815260040161064f90613ee3565b610fcd8484612839565b60095481565b60008261234b57506000612393565b8282028284828161235857fe5b0414612390576040517f08c379a000000000000000000000000000000000000000000000000000000000815260040161064f90613cca565b90505b92915050565b60008260000182815481106123aa57fe5b9060005260206000209060020201905092915050565b3b151590565b60006123d28383612de2565b905082600101548111156124005760018301805460009091556123f5828261291c565b600285015550612415565b600183015461240f908261291c565b60018401555b5060010154600490910155565b6001546040517f70a08231000000000000000000000000000000000000000000000000000000008152600091829182916124d891869173ffffffffffffffffffffffffffffffffffffffff16906370a08231906124839030906004016138ee565b60206040518083038186803b15801561249b57600080fd5b505afa1580156124af573d6000803e3d6000fd5b505050506040513d601f19601f820116820180604052508101906124d39190613881565b612e5b565b905073ffffffffffffffffffffffffffffffffffffffff8516301461251b5760015461251b9073ffffffffffffffffffffffffffffffffffffffff168683612d77565b80806000612529878361291c565b9050801561256e57600061253d600f612e71565b905060008061254d838c86612e9c565b909250905061255c868361295e565b9550612568858261295e565b94505050505b60095461257b908361291c565b600955509093509150505b9250929050565b600081848411156125cb576040517f08c379a000000000000000000000000000000000000000000000000000000000815260040161064f9190613971565b505050900390565b6125dd8383612ed2565b8190612616576040517f08c379a000000000000000000000000000000000000000000000000000000000815260040161064f9190613971565b50505050565b600080612629600f612e71565b9050600061263682612f00565b90507f860f4701faa0ecdeecd9e9eaae11a8612bbd01c663081f7c0c4e4873df653d6981604051612667919061413d565b60405180910390a191505090565b6001546006546040517f095ea7b300000000000000000000000000000000000000000000000000000000815273ffffffffffffffffffffffffffffffffffffffff9283169263095ea7b3926126d192911690859060040161390f565b602060405180830381600087803b1580156126eb57600080fd5b505af11580156126ff573d6000803e3d6000fd5b505050506040513d601f19601f820116820180604052508101906127239190613849565b506006546040517ffb93210800000000000000000000000000000000000000000000000000000000815273ffffffffffffffffffffffffffffffffffffffff9091169063fb9321089061277c903090859060040161390f565b600060405180830381600087803b15801561279657600080fd5b505af11580156127aa573d6000803e3d6000fd5b50506002546040517f288aafcb00000000000000000000000000000000000000000000000000000000815273ffffffffffffffffffffffffffffffffffffffff909116925063288aafcb915061280490849060040161413d565b600060405180830381600087803b15801561281e57600080fd5b505af1158015612832573d6000803e3d6000fd5b5050505050565b600b546000908190610100900460ff168061286b575060035473ffffffffffffffffffffffffffffffffffffffff1633145b8061287f575061287b600f612fa1565b8414155b6128b5576040517f08c379a000000000000000000000000000000000000000000000000000000000815260040161064f90613e3a565b60006128c2600f86612399565b90506000806128d2833088612e9c565b91509150867fccbd929f935422b28ee209a0db0556280b0a3d9bc4da58f1d3f0ab4f8a4996478383604051612908929190614146565b60405180910390a290969095509350505050565b600061239083836040518060400160405280601e81526020017f536166654d6174683a207375627472616374696f6e206f766572666c6f77000081525061258d565b600082820183811015612390576040517f08c379a000000000000000000000000000000000000000000000000000000000815260040161064f90613ad9565b5490565b6000806129ae8484612de2565b9050806129c15750506001820154612393565b60018401548082106129d857600092505050612393565b039392505050565b612616846323b872dd60e01b858585604051602401612a0193929190613935565b604080517fffffffffffffffffffffffffffffffffffffffffffffffffffffffffffffffe08184030181529190526020810180517bffffffffffffffffffffffffffffffffffffffffffffffffffffffff167fffffffff0000000000000000000000000000000000000000000000000000000090931692909217909152612ffa565b73ffffffffffffffffffffffffffffffffffffffff8116612ad0576040517f08c379a000000000000000000000000000000000000000000000000000000000815260040161064f90614042565b600154604080517ffc0c546a000000000000000000000000000000000000000000000000000000008152905173ffffffffffffffffffffffffffffffffffffffff9283169284169163fc0c546a916004808301926020929190829003018186803b158015612b3d57600080fd5b505afa158015612b51573d6000803e3d6000fd5b505050506040513d601f19601f82011682018060405250810190612b759190613865565b73ffffffffffffffffffffffffffffffffffffffff1614612bc2576040517f08c379a000000000000000000000000000000000000000000000000000000000815260040161064f9061400b565b6040805180820190915273ffffffffffffffffffffffffffffffffffffffff8216815260006020820152612bf890600f906130b0565b60405173ffffffffffffffffffffffffffffffffffffffff8216907f0821015de34e20b0878a40f6f165801417f53b2017016d7321cacee989c8cfa790600090a250565b6000808360010154612c4d85613118565b11612c5d57506000905080612586565b6000612c768560010154612c7087613118565b9061291c565b9050612c838585836131ba565b92509250509250929050565b600061239083836040518060400160405280601a81526020017f536166654d6174683a206469766973696f6e206279207a65726f0000000000008152506133cd565b612cd96137d3565b6000821580612cf6575050670de0b6b3a764000082810290810483145b612cff57600080fd5b604080516020810190915290815292915050565b612d1b6137d3565b81612d2557600080fd5b604051806020016040528083856000015181612d3d57fe5b0490529392505050565b612d4f6137d3565b82518251810190811015612d6257600080fd5b60408051602081019091529081529392505050565b612d968363a9059cbb60e01b8484604051602401612a0192919061390f565b505050565b600080612da88484612de2565b905080612dbb5750506002820154612393565b6001840154808211612dd257600092505050612393565b6002850154910301905092915050565b6000612dec6137d3565b50604080516020810190915260018301548152612e076137d3565b50604080516020810190915260048501548152612e24828261341e565b612e3357600092505050612393565b8454612e5290612e4d90612e47858561346d565b90613488565b6134b6565b95945050505050565b6000818310612e6a5781612390565b5090919050565b600081612e7d81612fa1565b81548110612e8757fe5b90600052602060002090600202019050919050565b6000808080612eac8787876131ba565b60018901549193509150612ec0908261291c565b60018801559092509050935093915050565b600080612ef7612ee285856134c5565b6040805160208101909152855481529061341e565b13159392505050565b600080612f0c83613509565b90506117238173ffffffffffffffffffffffffffffffffffffffff166370a08231306040518263ffffffff1660e01b8152600401612f4a91906138ee565b60206040518083038186803b158015612f6257600080fd5b505afa158015612f76573d6000803e3d6000fd5b505050506040513d601f19601f82011682018060405250810190612f9a9190613881565b84906135ab565b600080612fad8361299d565b905061172360016040518060400160405280601181526020017f5661756c742e4c6973743a20656d7074790000000000000000000000000000008152508361258d9092919063ffffffff16565b606061305c826040518060400160405280602081526020017f5361666545524332303a206c6f772d6c6576656c2063616c6c206661696c65648152508573ffffffffffffffffffffffffffffffffffffffff166136859092919063ffffffff16565b805190915015612d96578080602001905181019061307a9190613849565b612d96576040517f08c379a000000000000000000000000000000000000000000000000000000000815260040161064f90613f1a565b8154600180820184556000938452602093849020835160029093020180547fffffffffffffffffffffffff00000000000000000000000000000000000000001673ffffffffffffffffffffffffffffffffffffffff9093169290921782559190920151910155565b8054604080517fd4c3eea0000000000000000000000000000000000000000000000000000000008152905160009273ffffffffffffffffffffffffffffffffffffffff169163d4c3eea0916004808301926020929190829003018186803b15801561318257600080fd5b505afa158015613196573d6000803e3d6000fd5b505050506040513d601f19601f820116820180604052508101906123939190613881565b60008060006131c886613509565b905060008173ffffffffffffffffffffffffffffffffffffffff166370a08231876040518263ffffffff1660e01b815260040161320591906138ee565b60206040518083038186803b15801561321d57600080fd5b505afa158015613231573d6000803e3d6000fd5b505050506040513d601f19601f820116820180604052508101906132559190613881565b9050600061326288613118565b88546040517ff3fef3a300000000000000000000000000000000000000000000000000000000815291925073ffffffffffffffffffffffffffffffffffffffff169063f3fef3a3906132ba908a908a9060040161390f565b600060405180830381600087803b1580156132d457600080fd5b505af11580156132e8573d6000803e3d6000fd5b50506040517f70a082310000000000000000000000000000000000000000000000000000000081526000925073ffffffffffffffffffffffffffffffffffffffff861691506370a0823190613341908b906004016138ee565b60206040518083038186803b15801561335957600080fd5b505afa15801561336d573d6000803e3d6000fd5b505050506040513d601f19601f820116820180604052508101906133919190613881565b9050600061339f828561291c565b905060006133ac8b613118565b905060006133ba858361291c565b929c929b50919950505050505050505050565b60008183613408576040517f08c379a000000000000000000000000000000000000000000000000000000000815260040161064f9190613971565b50600083858161341457fe5b0495945050505050565b80518251600091111561345257507fffffffffffffffffffffffffffffffffffffffffffffffffffffffffffffffff612393565b81518351111561346457506001612393565b50600092915050565b6134756137d3565b82518251810390811115612d6257600080fd5b6134906137d3565b60008215806134ad5750508251828102908382816134aa57fe5b04145b612d6257600080fd5b51670de0b6b3a7640000900490565b6134cd6137d3565b60006134d984846129a1565b9050806134f0576134e8613694565b915050612393565b613501816120658660000154612cd1565b949350505050565b8054604080517ffc0c546a000000000000000000000000000000000000000000000000000000008152905160009273ffffffffffffffffffffffffffffffffffffffff169163fc0c546a916004808301926020929190829003018186803b15801561357357600080fd5b505afa158015613587573d6000803e3d6000fd5b505050506040513d601f19601f820116820180604052508101906123939190613865565b6000806135b784613509565b84549091506135e09073ffffffffffffffffffffffffffffffffffffffff808416911685612d77565b83546040517fb6b55f2500000000000000000000000000000000000000000000000000000000815273ffffffffffffffffffffffffffffffffffffffff9091169063b6b55f259061363590869060040161413d565b600060405180830381600087803b15801561364f57600080fd5b505af1158015613663573d6000803e3d6000fd5b505050600185015461367691508461295e565b60018501555081905092915050565b606061350184846000856136ce565b61369c6137d3565b5060408051602081019091527fffffffffffffffffffffffffffffffffffffffffffffffffffffffffffffffff815290565b60606136d9856123c0565b61370f576040517f08c379a000000000000000000000000000000000000000000000000000000000815260040161064f90613e03565b600060608673ffffffffffffffffffffffffffffffffffffffff16858760405161373991906138d2565b60006040518083038185875af1925050503d8060008114613776576040519150601f19603f3d011682016040523d82523d6000602084013e61377b565b606091505b5091509150811561378f5791506135019050565b80511561379f5780518082602001fd5b836040517f08c379a000000000000000000000000000000000000000000000000000000000815260040161064f9190613971565b6040518060200160405280600081525090565b6000602082840312156137f7578081fd5b813561239081614196565b60008060408385031215613814578081fd5b823561381f81614196565b946020939093013593505050565b60006020828403121561383e578081fd5b8135612390816141b8565b60006020828403121561385a578081fd5b8151612390816141b8565b600060208284031215613876578081fd5b815161239081614196565b600060208284031215613892578081fd5b5051919050565b6000602082840312156138aa578081fd5b5035919050565b600080604083850312156138c3578182fd5b50508035926020909101359150565b600082516138e481846020870161416a565b9190910192915050565b73ffffffffffffffffffffffffffffffffffffffff91909116815260200190565b73ffffffffffffffffffffffffffffffffffffffff929092168252602082015260400190565b73ffffffffffffffffffffffffffffffffffffffff9384168152919092166020820152604081019190915260600190565b901515815260200190565b600060208252825180602084015261399081604085016020870161416a565b601f017fffffffffffffffffffffffffffffffffffffffffffffffffffffffffffffffe0169190910160400192915050565b6020808252602c908201527f416c6368656d6973743a207472616e736d75746572206164647265737320636160408201527f6e6e6f74206265203078302e0000000000000000000000000000000000000000606082015260800190565b6020808252602c908201527f416c6368656d6973743a20676f7665726e616e6365206164647265737320636160408201527f6e6e6f74206265203078302e0000000000000000000000000000000000000000606082015260800190565b60208082526036908201527f416c6368656d6973743a2063616e6e6f7420696e697469616c697a652074726160408201527f6e736d75746572206164647265737320746f2030783000000000000000000000606082015260800190565b6020808252601b908201527f536166654d6174683a206164646974696f6e206f766572666c6f770000000000604082015260600190565b60208082526033908201527f416c6368656d6973743a2063616e6e6f7420696e697469616c697a652072657760408201527f61726473206164647265737320746f2030783000000000000000000000000000606082015260800190565b6020808252818101527f536f72727920776520646f206e6f742061636365707420636f6e747261637421604082015260600190565b6020808252601e908201527f416c6368656d6973743a20616c726561647920696e697469616c697a65640000604082015260600190565b60208082526031908201527f416c6368656d6973743a20636f6c6c61746572616c697a6174696f6e206c696d60408201527f69742062656c6f77206d696e696d756d2e000000000000000000000000000000606082015260800190565b60208082526031908201527f416c6368656d6973743a20636f6c6c61746572616c697a6174696f6e206c696d60408201527f69742061626f7665206d6178696d756d2e000000000000000000000000000000606082015260800190565b6020808252601b908201527f416c6368656d6973743a206f6e6c7920676f7665726e616e63652e0000000000604082015260600190565b60208082526021908201527f536166654d6174683a206d756c7469706c69636174696f6e206f766572666c6f60408201527f7700000000000000000000000000000000000000000000000000000000000000606082015260800190565b60208082526025908201527f416c6368656d6973743a2068617276657374206665652061626f7665206d617860408201527f696d756d2e000000000000000000000000000000000000000000000000000000606082015260800190565b6020808252601f908201527f73656e646572206973206e6f742070656e64696e67476f7665726e616e636500604082015260600190565b602080825260009082015260400190565b60208082526017908201527f656d657267656e637920706175736520656e61626c6564000000000000000000604082015260600190565b6020808252601d908201527f416464726573733a2063616c6c20746f206e6f6e2d636f6e7472616374000000604082015260600190565b60208082526070908201527f416c6368656d6973743a206e6f7420616e20656d657267656e63792c206e6f7460408201527f20676f7665726e616e63652c20616e64207573657220646f6573206e6f74206860608201527f617665207065726d697373696f6e20746f20726563616c6c2066756e6473206660808201527f726f6d20616374697665207661756c740000000000000000000000000000000060a082015260c00190565b6020808252601b908201527f416c6368656d6973743a206e6f7420696e697469616c697a65642e0000000000604082015260600190565b6020808252602a908201527f5361666545524332303a204552433230206f7065726174696f6e20646964206e60408201527f6f74207375636365656400000000000000000000000000000000000000000000606082015260800190565b6020808252602a908201527f416c6368656d6973743a2073656e74696e656c20616464726573732063616e6e60408201527f6f74206265203078302e00000000000000000000000000000000000000000000606082015260800190565b6020808252601f908201527f5265656e7472616e637947756172643a207265656e7472616e742063616c6c00604082015260600190565b6020808252601a908201527f416c6368656d6973743a20746f6b656e206d69736d617463682e000000000000604082015260600190565b6020808252602e908201527f416c6368656d6973743a20616374697665207661756c7420616464726573732060408201527f63616e6e6f74206265203078302e000000000000000000000000000000000000606082015260800190565b60208082526012908201527f6f666620706567206c696d69746174696f6e0000000000000000000000000000604082015260600190565b60208082526029908201527f416c6368656d6973743a207265776172647320616464726573732063616e6e6f60408201527f74206265203078302e0000000000000000000000000000000000000000000000606082015260800190565b9051815260200190565b90815260200190565b918252602082015260400190565b9283526020830191909152604082015260600190565b60005b8381101561418557818101518382015260200161416d565b838111156126165750506000910152565b73ffffffffffffffffffffffffffffffffffffffff81168114611c1457600080fd5b8015158114611c1457600080fdfe416374696f6e20626c6f636b65643a20756e6865616c74687920636f6c6c61746572616c697a6174696f6e20726174696f416c6368656d6973743a204c6f616e2d746f2d76616c756520726174696f206272656163686564a2646970667358221220d99fdb9242b1ab3bfeb0a8d91b27fda9dc4024164347d0fe71e57fc3631594ac64736f6c634300060c0033",
  "devdoc": {
    "kind": "dev",
    "methods": {
      "acceptGovernance()": {
        "details": "Accepts the role as governance. This function reverts if the caller is not the new pending governance."
      },
      "collateralizationLimit()": {
        "details": "Gets the collateralization limit. The collateralization limit is the minimum ratio of collateral to debt that is allowed by the system.",
        "returns": {
          "_0": "the collateralization limit."
        }
      },
      "deposit(uint256)": {
        "details": "Deposits collateral into a CDP. This function reverts if an emergency exit is active. This is in place to prevent the potential loss of additional funds.",
        "params": {
          "_amount": "the amount of collateral to deposit."
        }
      },
      "flush()": {
        "details": "Flushes buffered tokens to the active vault. This function reverts if an emergency exit is active. This is in place to prevent the potential loss of additional funds.",
        "returns": {
          "_0": "the amount of tokens flushed to the active vault."
        }
      },
      "getCdpLastDeposit(address)": {
        "details": "Gets the last recorded block of when a user made a deposit into their CDP.",
        "params": {
          "_account": "the user account of the CDP to query."
        },
        "returns": {
          "_0": "the block number of the last deposit."
        }
      },
      "getCdpTotalCredit(address)": {
        "details": "Get the total amount of credit that a CDP has.",
        "params": {
          "_account": "the user account of the CDP to query."
        },
        "returns": {
          "_0": "the amount of credit."
        }
      },
      "getCdpTotalDebt(address)": {
        "details": "Get the total amount of alchemic tokens borrowed from a CDP.",
        "params": {
          "_account": "the user account of the CDP to query."
        },
        "returns": {
          "_0": "the borrowed amount of tokens."
        }
      },
      "getCdpTotalDeposited(address)": {
        "details": "Get the total amount of collateral deposited into a CDP.",
        "params": {
          "_account": "the user account of the CDP to query."
        },
        "returns": {
          "_0": "the deposited amount of tokens."
        }
      },
      "getVaultAdapter(uint256)": {
        "details": "Get the adapter of a vault.",
        "params": {
          "_vaultId": "the identifier of the vault."
        },
        "returns": {
          "_0": "the vault adapter."
        }
      },
      "getVaultTotalDeposited(uint256)": {
        "details": "Get the total amount of the parent asset that has been deposited into a vault.",
        "params": {
          "_vaultId": "the identifier of the vault."
        },
        "returns": {
          "_0": "the total amount of deposited tokens."
        }
      },
      "harvest(uint256)": {
        "details": "Harvests yield from a vault.",
        "params": {
          "_vaultId": "the identifier of the vault to harvest from."
        },
        "returns": {
          "_0": "the amount of funds that were harvested from the vault."
        }
      },
      "initialize(address)": {
        "details": "Initializes the contract. This function checks that the transmuter and rewards have been set and sets up the active vault.",
        "params": {
          "_adapter": "the vault adapter of the active vault."
        }
      },
      "liquidate(uint256)": {
        "details": "Attempts to liquidate part of a CDP's collateral to pay back its debt.",
        "params": {
          "_amount": "the amount of collateral to attempt to liquidate."
        }
      },
      "migrate(address)": {
        "details": "Migrates the system to a new vault. This function reverts if the vault adapter is the zero address, if the token that the vault adapter accepts is not the token that this contract defines as the parent asset, or if the contract has not yet been initialized.",
        "params": {
          "_adapter": "the adapter for the vault the system will migrate to."
        }
      },
      "mint(uint256)": {
        "details": "Mints synthetic tokens by either claiming credit or increasing the debt. Claiming credit will take priority over increasing the debt. This function reverts if the debt is increased and the CDP health check fails.",
        "params": {
          "_amount": "the amount of alchemic tokens to borrow."
        }
      },
      "recall(uint256,uint256)": {
        "details": "Recalls an amount of deposited funds from a vault to this contract.",
        "params": {
          "_vaultId": "the identifier of the recall funds from."
        },
        "returns": {
          "_0": "the amount of funds that were recalled from the vault to this contract and the decreased vault value."
        }
      },
      "recallAll(uint256)": {
        "details": "Recalls all the deposited funds from a vault to this contract.",
        "params": {
          "_vaultId": "the identifier of the recall funds from."
        },
        "returns": {
          "_0": "the amount of funds that were recalled from the vault to this contract and the decreased vault value."
        }
      },
      "repay(uint256,uint256)": {
        "details": "Repays debt with the native and or synthetic token. An approval is required to transfer native tokens to the transmuter."
      },
      "setCollateralizationLimit(uint256)": {
        "details": "Sets the collateralization limit. This function reverts if the caller is not the current governance or if the collateralization limit is outside of the accepted bounds.",
        "params": {
          "_limit": "the new collateralization limit."
        }
      },
      "setEmergencyExit(bool)": {
        "details": "Sets if the contract should enter emergency exit mode.",
        "params": {
          "_emergencyExit": "if the contract should enter emergency exit mode."
        }
      },
      "setFlushActivator(uint256)": {
        "details": "Sets the flushActivator.",
        "params": {
          "_flushActivator": "the new flushActivator."
        }
      },
      "setHarvestFee(uint256)": {
        "details": "Sets the harvest fee. This function reverts if the caller is not the current governance.",
        "params": {
          "_harvestFee": "the new harvest fee."
        }
      },
      "setOracleAddress(address,uint256)": {
        "details": "Set oracle."
      },
      "setPendingGovernance(address)": {
        "details": "Sets the pending governance. This function reverts if the new pending governance is the zero address or the caller is not the current governance. This is to prevent the contract governance being set to the zero address which would deadlock privileged contract functionality.",
        "params": {
          "_pendingGovernance": "the new pending governance."
        }
      },
      "setRewards(address)": {
        "details": "Sets the rewards contract. This function reverts if the new rewards contract is the zero address or the caller is not the current governance.",
        "params": {
          "_rewards": "the new rewards contract."
        }
      },
      "setTransmuter(address)": {
        "details": "Sets the transmuter. This function reverts if the new transmuter is the zero address or the caller is not the current governance.",
        "params": {
          "_transmuter": "the new transmuter."
        }
      },
      "vaultCount()": {
        "details": "Gets the number of vaults in the vault list.",
        "returns": {
          "_0": "the vault count."
        }
      },
      "withdraw(uint256)": {
        "details": "Attempts to withdraw part of a CDP's collateral. This function reverts if a deposit into the CDP was made in the same block. This is to prevent flash loan attacks on other internal or external systems.",
        "params": {
          "_amount": "the amount of collateral to withdraw."
        }
      }
    },
    "stateVariables": {
      "MAXIMUM_COLLATERALIZATION_LIMIT": {
        "details": "The maximum value that the collateralization limit can be set to by the governance. This is a safety rail to prevent the collateralization from being set to a value which breaks the system. This value is equal to 400%. IMPORTANT: This constant is a raw FixedPointMath.FixedDecimal value and assumes a resolution of 64 bits. If the            resolution for the FixedPointMath library changes this constant must change as well."
      },
      "MINIMUM_COLLATERALIZATION_LIMIT": {
        "details": "The minimum value that the collateralization limit can be set to by the governance. This is a safety rail to prevent the collateralization from being set to a value which breaks the system. This value is equal to 100%. IMPORTANT: This constant is a raw FixedPointMath.FixedDecimal value and assumes a resolution of 64 bits. If the            resolution for the FixedPointMath library changes this constant must change as well."
      },
      "PERCENT_RESOLUTION": {
        "details": "Resolution for all fixed point numeric parameters which represent percents. The resolution allows for a granularity of 0.01% increments."
      },
      "_cdps": {
        "details": "A mapping of all of the user CDPs. If a user wishes to have multiple CDPs they will have to either create a new address or set up a proxy contract that interfaces with this contract."
      },
      "_ctx": {
        "details": "The context shared between the CDPs."
      },
      "_linkGasOracle": {
        "details": "The address of the link oracle."
      },
      "_vaults": {
        "details": "A list of all of the vaults. The last element of the list is the vault that is currently being used for deposits and withdraws. Vaults before the last element are considered inactive and are expected to be cleared."
      },
      "emergencyExit": {
        "details": "A flag indicating if deposits and flushes should be halted and if all parties should be able to recall from the active vault."
      },
      "flushActivator": {
        "details": "when movemetns are bigger than this number flush is activated."
      },
      "governance": {
        "details": "The address of the account which currently has administrative capabilities over this contract."
      },
      "harvestFee": {
        "details": "The percent of each profitable harvest that will go to the rewards contract."
      },
      "initialized": {
        "details": "A flag indicating if the contract has been initialized yet."
      },
      "pegMinimum": {
        "details": "The minimum returned amount needed to be on peg according to the oracle."
      },
      "pendingGovernance": {
        "details": "The address of the pending governance."
      },
      "rewards": {
        "details": "The address of the contract which will receive fees."
      },
      "sentinel": {
        "details": "The address of the account which can initiate an emergency withdraw of funds in a vault."
      },
      "token": {
        "details": "The token that this contract is using as the parent asset."
      },
      "totalDeposited": {
        "details": "The total amount the native token deposited into the system that is owned by external users."
      },
      "transmuter": {
        "details": "The address of the contract which will transmute synthetic tokens back into native tokens."
      },
      "xtoken": {
        "details": "The token that this contract is using as the child asset."
      }
    },
    "version": 1
  },
  "userdoc": {
    "kind": "user",
    "methods": {},
    "version": 1
  },
  "storageLayout": {
    "storage": [
      {
        "astId": 2082,
        "contract": "contracts/Alchemist.sol:Alchemist",
        "label": "_status",
        "offset": 0,
        "slot": "0",
        "type": "t_uint256"
      },
      {
        "astId": 2625,
        "contract": "contracts/Alchemist.sol:Alchemist",
        "label": "token",
        "offset": 0,
        "slot": "1",
        "type": "t_contract(IMintableERC20)8054"
      },
      {
        "astId": 2628,
        "contract": "contracts/Alchemist.sol:Alchemist",
        "label": "xtoken",
        "offset": 0,
        "slot": "2",
        "type": "t_contract(IMintableERC20)8054"
      },
      {
        "astId": 2631,
        "contract": "contracts/Alchemist.sol:Alchemist",
        "label": "governance",
        "offset": 0,
        "slot": "3",
        "type": "t_address"
      },
      {
        "astId": 2634,
        "contract": "contracts/Alchemist.sol:Alchemist",
        "label": "pendingGovernance",
        "offset": 0,
        "slot": "4",
        "type": "t_address"
      },
      {
        "astId": 2637,
        "contract": "contracts/Alchemist.sol:Alchemist",
        "label": "sentinel",
        "offset": 0,
        "slot": "5",
        "type": "t_address"
      },
      {
        "astId": 2640,
        "contract": "contracts/Alchemist.sol:Alchemist",
        "label": "transmuter",
        "offset": 0,
        "slot": "6",
        "type": "t_address"
      },
      {
        "astId": 2643,
        "contract": "contracts/Alchemist.sol:Alchemist",
        "label": "rewards",
        "offset": 0,
        "slot": "7",
        "type": "t_address"
      },
      {
        "astId": 2646,
        "contract": "contracts/Alchemist.sol:Alchemist",
        "label": "harvestFee",
        "offset": 0,
        "slot": "8",
        "type": "t_uint256"
      },
      {
        "astId": 2649,
        "contract": "contracts/Alchemist.sol:Alchemist",
        "label": "totalDeposited",
        "offset": 0,
        "slot": "9",
        "type": "t_uint256"
      },
      {
        "astId": 2652,
        "contract": "contracts/Alchemist.sol:Alchemist",
        "label": "flushActivator",
        "offset": 0,
        "slot": "10",
        "type": "t_uint256"
      },
      {
        "astId": 2655,
        "contract": "contracts/Alchemist.sol:Alchemist",
        "label": "initialized",
        "offset": 0,
        "slot": "11",
        "type": "t_bool"
      },
      {
        "astId": 2658,
        "contract": "contracts/Alchemist.sol:Alchemist",
        "label": "emergencyExit",
        "offset": 1,
        "slot": "11",
        "type": "t_bool"
      },
      {
        "astId": 2661,
        "contract": "contracts/Alchemist.sol:Alchemist",
        "label": "_ctx",
        "offset": 0,
        "slot": "12",
        "type": "t_struct(Context)8717_storage"
      },
      {
        "astId": 2666,
        "contract": "contracts/Alchemist.sol:Alchemist",
        "label": "_cdps",
        "offset": 0,
        "slot": "14",
        "type": "t_mapping(t_address,t_struct(Data)8728_storage)"
      },
      {
        "astId": 2669,
        "contract": "contracts/Alchemist.sol:Alchemist",
        "label": "_vaults",
        "offset": 0,
        "slot": "15",
        "type": "t_struct(List)9032_storage"
      },
      {
        "astId": 2672,
        "contract": "contracts/Alchemist.sol:Alchemist",
        "label": "_linkGasOracle",
        "offset": 0,
        "slot": "16",
        "type": "t_address"
      },
      {
        "astId": 2675,
        "contract": "contracts/Alchemist.sol:Alchemist",
        "label": "pegMinimum",
        "offset": 0,
        "slot": "17",
        "type": "t_uint256"
      }
    ],
    "types": {
      "t_address": {
        "encoding": "inplace",
        "label": "address",
        "numberOfBytes": "20"
      },
      "t_array(t_struct(Data)9028_storage)dyn_storage": {
        "base": "t_struct(Data)9028_storage",
        "encoding": "dynamic_array",
        "label": "struct Vault.Data[]",
        "numberOfBytes": "32"
      },
      "t_bool": {
        "encoding": "inplace",
        "label": "bool",
        "numberOfBytes": "1"
      },
      "t_contract(IMintableERC20)8054": {
        "encoding": "inplace",
        "label": "contract IMintableERC20",
        "numberOfBytes": "20"
      },
      "t_contract(IVaultAdapter)8096": {
        "encoding": "inplace",
        "label": "contract IVaultAdapter",
        "numberOfBytes": "20"
      },
      "t_mapping(t_address,t_struct(Data)8728_storage)": {
        "encoding": "mapping",
        "key": "t_address",
        "label": "mapping(address => struct CDP.Data)",
        "numberOfBytes": "32",
        "value": "t_struct(Data)8728_storage"
      },
      "t_struct(Context)8717_storage": {
        "encoding": "inplace",
        "label": "struct CDP.Context",
        "members": [
          {
            "astId": 8714,
            "contract": "contracts/Alchemist.sol:Alchemist",
            "label": "collateralizationLimit",
            "offset": 0,
            "slot": "0",
            "type": "t_struct(FixedDecimal)8440_storage"
          },
          {
            "astId": 8716,
            "contract": "contracts/Alchemist.sol:Alchemist",
            "label": "accumulatedYieldWeight",
            "offset": 0,
            "slot": "1",
            "type": "t_struct(FixedDecimal)8440_storage"
          }
        ],
        "numberOfBytes": "64"
      },
      "t_struct(Data)8728_storage": {
        "encoding": "inplace",
        "label": "struct CDP.Data",
        "members": [
          {
            "astId": 8719,
            "contract": "contracts/Alchemist.sol:Alchemist",
            "label": "totalDeposited",
            "offset": 0,
            "slot": "0",
            "type": "t_uint256"
          },
          {
            "astId": 8721,
            "contract": "contracts/Alchemist.sol:Alchemist",
            "label": "totalDebt",
            "offset": 0,
            "slot": "1",
            "type": "t_uint256"
          },
          {
            "astId": 8723,
            "contract": "contracts/Alchemist.sol:Alchemist",
            "label": "totalCredit",
            "offset": 0,
            "slot": "2",
            "type": "t_uint256"
          },
          {
            "astId": 8725,
            "contract": "contracts/Alchemist.sol:Alchemist",
            "label": "lastDeposit",
            "offset": 0,
            "slot": "3",
            "type": "t_uint256"
          },
          {
            "astId": 8727,
            "contract": "contracts/Alchemist.sol:Alchemist",
            "label": "lastAccumulatedYieldWeight",
            "offset": 0,
            "slot": "4",
            "type": "t_struct(FixedDecimal)8440_storage"
          }
        ],
        "numberOfBytes": "160"
      },
      "t_struct(Data)9028_storage": {
        "encoding": "inplace",
        "label": "struct Vault.Data",
        "members": [
          {
            "astId": 9025,
            "contract": "contracts/Alchemist.sol:Alchemist",
            "label": "adapter",
            "offset": 0,
            "slot": "0",
            "type": "t_contract(IVaultAdapter)8096"
          },
          {
            "astId": 9027,
            "contract": "contracts/Alchemist.sol:Alchemist",
            "label": "totalDeposited",
            "offset": 0,
            "slot": "1",
            "type": "t_uint256"
          }
        ],
        "numberOfBytes": "64"
      },
      "t_struct(FixedDecimal)8440_storage": {
        "encoding": "inplace",
        "label": "struct FixedPointMath.FixedDecimal",
        "members": [
          {
            "astId": 8439,
            "contract": "contracts/Alchemist.sol:Alchemist",
            "label": "x",
            "offset": 0,
            "slot": "0",
            "type": "t_uint256"
          }
        ],
        "numberOfBytes": "32"
      },
      "t_struct(List)9032_storage": {
        "encoding": "inplace",
        "label": "struct Vault.List",
        "members": [
          {
            "astId": 9031,
            "contract": "contracts/Alchemist.sol:Alchemist",
            "label": "elements",
            "offset": 0,
            "slot": "0",
            "type": "t_array(t_struct(Data)9028_storage)dyn_storage"
          }
        ],
        "numberOfBytes": "32"
      },
      "t_uint256": {
        "encoding": "inplace",
        "label": "uint256",
        "numberOfBytes": "32"
      }
    }
  }
}