{
  "address": "0x13b8447C3399bB44375DFc014eDEA906799b26Ae",
  "abi": [
    {
      "inputs": [
        {
          "internalType": "contract IMintableERC20",
          "name": "_token",
          "type": "address"
        },
        {
          "internalType": "contract AlEth",
          "name": "_xtoken",
          "type": "address"
        },
        {
          "internalType": "address",
          "name": "_governance",
          "type": "address"
        },
        {
          "internalType": "address",
          "name": "_sentinel",
          "type": "address"
        }
      ],
      "stateMutability": "nonpayable",
      "type": "constructor"
    },
    {
      "inputs": [],
      "name": "ZERO_ADDRESS",
      "outputs": [
        {
          "internalType": "address",
          "name": "",
          "type": "address"
        }
      ],
      "stateMutability": "view",
      "type": "function"
    },
    {
      "inputs": [],
      "name": "acceptGovernance",
      "outputs": [],
      "stateMutability": "nonpayable",
      "type": "function"
    },
    {
      "inputs": [
        {
          "internalType": "uint256",
          "name": "_amount",
          "type": "uint256"
        },
        {
          "internalType": "bool",
          "name": "asEth",
          "type": "bool"
        }
      ],
      "name": "convert",
      "outputs": [],
      "stateMutability": "payable",
      "type": "function"
    },
    {
      "inputs": [],
      "name": "emergencyExit",
      "outputs": [
        {
          "internalType": "bool",
          "name": "",
          "type": "bool"
        }
      ],
      "stateMutability": "view",
      "type": "function"
    },
    {
      "inputs": [],
      "name": "governance",
      "outputs": [
        {
          "internalType": "address",
          "name": "",
          "type": "address"
        }
      ],
      "stateMutability": "view",
      "type": "function"
    },
    {
      "inputs": [],
      "name": "pauseConvert",
      "outputs": [
        {
          "internalType": "bool",
          "name": "",
          "type": "bool"
        }
      ],
      "stateMutability": "view",
      "type": "function"
    },
    {
      "inputs": [],
      "name": "pendingGovernance",
      "outputs": [
        {
          "internalType": "address",
          "name": "",
          "type": "address"
        }
      ],
      "stateMutability": "view",
      "type": "function"
    },
    {
      "inputs": [],
      "name": "sentinel",
      "outputs": [
        {
          "internalType": "address",
          "name": "",
          "type": "address"
        }
      ],
      "stateMutability": "view",
      "type": "function"
    },
    {
      "inputs": [
        {
          "internalType": "bool",
          "name": "_pauseConvert",
          "type": "bool"
        }
      ],
      "name": "setPauseConvert",
      "outputs": [],
      "stateMutability": "nonpayable",
      "type": "function"
    },
    {
      "inputs": [
        {
          "internalType": "address",
          "name": "_pendingGovernance",
          "type": "address"
        }
      ],
      "name": "setPendingGovernance",
      "outputs": [],
      "stateMutability": "nonpayable",
      "type": "function"
    },
    {
      "inputs": [
        {
          "internalType": "address",
          "name": "_sentinel",
          "type": "address"
        }
      ],
      "name": "setSentinel",
      "outputs": [],
      "stateMutability": "nonpayable",
      "type": "function"
    },
    {
      "inputs": [
        {
          "internalType": "address",
          "name": "_transmuter",
          "type": "address"
        }
      ],
      "name": "setTransmuter",
      "outputs": [],
      "stateMutability": "nonpayable",
      "type": "function"
    },
    {
      "inputs": [],
      "name": "token",
      "outputs": [
        {
          "internalType": "contract IMintableERC20",
          "name": "",
          "type": "address"
        }
      ],
      "stateMutability": "view",
      "type": "function"
    },
    {
      "inputs": [],
      "name": "transmuter",
      "outputs": [
        {
          "internalType": "address",
          "name": "",
          "type": "address"
        }
      ],
      "stateMutability": "view",
      "type": "function"
    },
    {
      "inputs": [],
      "name": "weth",
      "outputs": [
        {
          "internalType": "address",
          "name": "",
          "type": "address"
        }
      ],
      "stateMutability": "view",
      "type": "function"
    },
    {
      "inputs": [],
      "name": "xtoken",
      "outputs": [
        {
          "internalType": "contract AlEth",
          "name": "",
          "type": "address"
        }
      ],
      "stateMutability": "view",
      "type": "function"
    },
    {
      "stateMutability": "payable",
      "type": "receive"
    }
  ],
  "transactionHash": "0x051fe0019ed4bef1ba818d41962edc967bcb59c046136384d3a16887f3c70127",
  "args": [
    "0xC02aaA39b223FE8D0A0e5C4F27eAD9083C756Cc2",
    "0x0100546F2cD4C9D97f798fFC9755E47865FF7Ee6",
    "0x0e78588283aA9CcBeC277b40fB8eDfa8Cc2155a7",
    "0xf4B5b84b8f39bC556ed230FA91A0A89Bb5E8559b"
  ],
  "solcInputHash": "9c5e46c2b58371dd0e45450e03449588",
  "bytecode": "0x60806040523480156200001157600080fd5b506040516200186b3803806200186b833981016040819052620000349162000111565b60016000556001600160a01b0382166200006b5760405162461bcd60e51b8152600401620000629062000178565b60405180910390fd5b6001600160a01b038116620000945760405162461bcd60e51b81526004016200006290620001c4565b600280546001600160a01b039586166001600160a01b0319918216811790925560018054821690921790915560038054948616948216949094179093556004805492851692841692909217909155600680549190931691161790556007805460ff60a81b1960ff60a01b19909116600160a01b1716905562000227565b6000806000806080858703121562000127578384fd5b845162000134816200020e565b602086015190945062000147816200020e565b60408601519093506200015a816200020e565b60608601519092506200016d816200020e565b939692955090935050565b6020808252602c908201527f416c6368656d6973743a20676f7665726e616e6365206164647265737320636160408201526b373737ba10313290183c181760a11b606082015260800190565b6020808252602a908201527f416c6368656d6973743a2073656e74696e656c20616464726573732063616e6e60408201526937ba10313290183c181760b11b606082015260800190565b6001600160a01b03811681146200022457600080fd5b50565b61163480620002376000396000f3fe6080604052600436106100f75760003560e01c80635aa6e6751161008a578063adb4a9ad11610059578063adb4a9ad14610243578063f39c38a014610263578063f58c251c14610278578063fc0c546a1461028d576100fe565b80635aa6e675146101e65780637239d2b9146101fb57806399da775b146102105780639a5ef36914610230576100fe565b80633fc8cef3116100c65780633fc8cef314610185578063411d6fb51461019a578063538ba4f9146101bc5780635641ec03146101d1576100fe565b806309dac061146101035780630abb6035146101255780631718a68f14610145578063238efcbc14610170576100fe565b366100fe57005b600080fd5b34801561010f57600080fd5b5061012361011e366004611040565b6102a2565b005b34801561013157600080fd5b50610123610140366004611040565b610390565b34801561015157600080fd5b5061015a610475565b604051610167919061110f565b60405180910390f35b34801561017c57600080fd5b50610123610491565b34801561019157600080fd5b5061015a61052b565b3480156101a657600080fd5b506101af610547565b6040516101679190611187565b3480156101c857600080fd5b5061015a610569565b3480156101dd57600080fd5b506101af61056e565b3480156101f257600080fd5b5061015a61058f565b34801561020757600080fd5b5061015a6105ab565b34801561021c57600080fd5b5061012361022b366004611074565b6105c7565b61012361023e3660046110c4565b610685565b34801561024f57600080fd5b5061012361025e366004611040565b610a6b565b34801561026f57600080fd5b5061015a610b50565b34801561028457600080fd5b5061015a610b6c565b34801561029957600080fd5b5061015a610b88565b60045473ffffffffffffffffffffffffffffffffffffffff1633146102fc576040517f08c379a00000000000000000000000000000000000000000000000000000000081526004016102f390611331565b60405180910390fd5b73ffffffffffffffffffffffffffffffffffffffff8116610349576040517f08c379a00000000000000000000000000000000000000000000000000000000081526004016102f39061155b565b600680547fffffffffffffffffffffffff00000000000000000000000000000000000000001673ffffffffffffffffffffffffffffffffffffffff92909216919091179055565b60045473ffffffffffffffffffffffffffffffffffffffff1633146103e1576040517f08c379a00000000000000000000000000000000000000000000000000000000081526004016102f390611331565b73ffffffffffffffffffffffffffffffffffffffff811661042e576040517f08c379a00000000000000000000000000000000000000000000000000000000081526004016102f390611240565b600580547fffffffffffffffffffffffff00000000000000000000000000000000000000001673ffffffffffffffffffffffffffffffffffffffff92909216919091179055565b60035473ffffffffffffffffffffffffffffffffffffffff1681565b60055473ffffffffffffffffffffffffffffffffffffffff1633146104e2576040517f08c379a00000000000000000000000000000000000000000000000000000000081526004016102f3906113c5565b600554600480547fffffffffffffffffffffffff00000000000000000000000000000000000000001673ffffffffffffffffffffffffffffffffffffffff909216919091179055565b60025473ffffffffffffffffffffffffffffffffffffffff1681565b6007547501000000000000000000000000000000000000000000900460ff1681565b600081565b60075474010000000000000000000000000000000000000000900460ff1681565b60045473ffffffffffffffffffffffffffffffffffffffff1681565b60075473ffffffffffffffffffffffffffffffffffffffff1681565b60045473ffffffffffffffffffffffffffffffffffffffff16331480610604575060065473ffffffffffffffffffffffffffffffffffffffff1633145b61063a576040517f08c379a00000000000000000000000000000000000000000000000000000000081526004016102f3906113fc565b600780549115157501000000000000000000000000000000000000000000027fffffffffffffffffffff00ffffffffffffffffffffffffffffffffffffffffff909216919091179055565b60045473ffffffffffffffffffffffffffffffffffffffff1633146106d6576040517f08c379a00000000000000000000000000000000000000000000000000000000081526004016102f390611331565b6007547501000000000000000000000000000000000000000000900460ff161561072c576040517f08c379a00000000000000000000000000000000000000000000000000000000081526004016102f390611368565b80156107f35734821461076b576040517f08c379a00000000000000000000000000000000000000000000000000000000081526004016102f3906114c7565b600260009054906101000a900473ffffffffffffffffffffffffffffffffffffffff1673ffffffffffffffffffffffffffffffffffffffff1663d0e30db0836040518263ffffffff1660e01b81526004016000604051808303818588803b1580156107d557600080fd5b505af11580156107e9573d6000803e3d6000fd5b5050505050610850565b341561082b576040517f08c379a00000000000000000000000000000000000000000000000000000000081526004016102f39061129d565b6001546108509073ffffffffffffffffffffffffffffffffffffffff16333085610ba4565b6003546040517f40c10f1900000000000000000000000000000000000000000000000000000000815273ffffffffffffffffffffffffffffffffffffffff909116906340c10f19906108a89033908690600401611130565b600060405180830381600087803b1580156108c257600080fd5b505af11580156108d6573d6000803e3d6000fd5b505050506108e382610c4d565b6003546040517f1ac997e000000000000000000000000000000000000000000000000000000000815273ffffffffffffffffffffffffffffffffffffffff90911690631ac997e09061093990309060040161110f565b60206040518083038186803b15801561095157600080fd5b505afa158015610965573d6000803e3d6000fd5b505050506040513d601f19601f8201168201806040525081019061098991906110ac565b6003546040517f38e21cce00000000000000000000000000000000000000000000000000000000815273ffffffffffffffffffffffffffffffffffffffff909116906338e21cce906109df90309060040161110f565b60206040518083038186803b1580156109f757600080fd5b505afa158015610a0b573d6000803e3d6000fd5b505050506040513d601f19601f82011682018060405250810190610a2f91906110ac565b1115610a67576040517f08c379a00000000000000000000000000000000000000000000000000000000081526004016102f390611433565b5050565b60045473ffffffffffffffffffffffffffffffffffffffff163314610abc576040517f08c379a00000000000000000000000000000000000000000000000000000000081526004016102f390611331565b73ffffffffffffffffffffffffffffffffffffffff8116610b09576040517f08c379a00000000000000000000000000000000000000000000000000000000081526004016102f3906111e3565b600780547fffffffffffffffffffffffff00000000000000000000000000000000000000001673ffffffffffffffffffffffffffffffffffffffff92909216919091179055565b60055473ffffffffffffffffffffffffffffffffffffffff1681565b60065473ffffffffffffffffffffffffffffffffffffffff1681565b60015473ffffffffffffffffffffffffffffffffffffffff1681565b610c47846323b872dd60e01b858585604051602401610bc593929190611156565b604080517fffffffffffffffffffffffffffffffffffffffffffffffffffffffffffffffe08184030181529190526020810180517bffffffffffffffffffffffffffffffffffffffffffffffffffffffff167fffffffff0000000000000000000000000000000000000000000000000000000090931692909217909152610e11565b50505050565b6001546007546040517f095ea7b300000000000000000000000000000000000000000000000000000000815273ffffffffffffffffffffffffffffffffffffffff9283169263095ea7b392610ca9929116908590600401611130565b602060405180830381600087803b158015610cc357600080fd5b505af1158015610cd7573d6000803e3d6000fd5b505050506040513d601f19601f82011682018060405250810190610cfb9190611090565b506007546040517ffb93210800000000000000000000000000000000000000000000000000000000815273ffffffffffffffffffffffffffffffffffffffff9091169063fb93210890610d549030908590600401611130565b600060405180830381600087803b158015610d6e57600080fd5b505af1158015610d82573d6000803e3d6000fd5b50506003546040517f288aafcb00000000000000000000000000000000000000000000000000000000815273ffffffffffffffffffffffffffffffffffffffff909116925063288aafcb9150610ddc9084906004016115b8565b600060405180830381600087803b158015610df657600080fd5b505af1158015610e0a573d6000803e3d6000fd5b5050505050565b6060610e73826040518060400160405280602081526020017f5361666545524332303a206c6f772d6c6576656c2063616c6c206661696c65648152508573ffffffffffffffffffffffffffffffffffffffff16610ecc9092919063ffffffff16565b805190915015610ec75780806020019051810190610e919190611090565b610ec7576040517f08c379a00000000000000000000000000000000000000000000000000000000081526004016102f3906114fe565b505050565b6060610edb8484600085610ee5565b90505b9392505050565b606082471015610f21576040517f08c379a00000000000000000000000000000000000000000000000000000000081526004016102f3906112d4565b610f2a85610fe7565b610f60576040517f08c379a00000000000000000000000000000000000000000000000000000000081526004016102f390611490565b600060608673ffffffffffffffffffffffffffffffffffffffff168587604051610f8a91906110f3565b60006040518083038185875af1925050503d8060008114610fc7576040519150601f19603f3d011682016040523d82523d6000602084013e610fcc565b606091505b5091509150610fdc828286610fed565b979650505050505050565b3b151590565b60608315610ffc575081610ede565b82511561100c5782518084602001fd5b816040517f08c379a00000000000000000000000000000000000000000000000000000000081526004016102f39190611192565b600060208284031215611051578081fd5b813573ffffffffffffffffffffffffffffffffffffffff81168114610ede578182fd5b600060208284031215611085578081fd5b8135610ede816115ed565b6000602082840312156110a1578081fd5b8151610ede816115ed565b6000602082840312156110bd578081fd5b5051919050565b600080604083850312156110d6578081fd5b8235915060208301356110e8816115ed565b809150509250929050565b600082516111058184602087016115c1565b9190910192915050565b73ffffffffffffffffffffffffffffffffffffffff91909116815260200190565b73ffffffffffffffffffffffffffffffffffffffff929092168252602082015260400190565b73ffffffffffffffffffffffffffffffffffffffff9384168152919092166020820152604081019190915260600190565b901515815260200190565b60006020825282518060208401526111b18160408501602087016115c1565b601f017fffffffffffffffffffffffffffffffffffffffffffffffffffffffffffffffe0169190910160400192915050565b6020808252602c908201527f416c6368656d6973743a207472616e736d75746572206164647265737320636160408201527f6e6e6f74206265203078302e0000000000000000000000000000000000000000606082015260800190565b6020808252602c908201527f416c6368656d6973743a20676f7665726e616e6365206164647265737320636160408201527f6e6e6f74206265203078302e0000000000000000000000000000000000000000606082015260800190565b6020808252600e908201527f6d73672e76616c756520213d2030000000000000000000000000000000000000604082015260600190565b60208082526026908201527f416464726573733a20696e73756666696369656e742062616c616e636520666f60408201527f722063616c6c0000000000000000000000000000000000000000000000000000606082015260800190565b6020808252601b908201527f416c6368656d6973743a206f6e6c7920676f7665726e616e63652e0000000000604082015260600190565b60208082526022908201527f416c6368656d6973743a20636f6e76657273696f6e732061726520706175736560408201527f642e000000000000000000000000000000000000000000000000000000000000606082015260800190565b6020808252601f908201527f73656e646572206973206e6f742070656e64696e67476f7665726e616e636500604082015260600190565b60208082526018908201527f21676f7665726e616e6365202626202173656e74696e656c0000000000000000604082015260600190565b60208082526028908201527f416c4554483a20416c6368656d6973742773206365696c696e6720776173206260408201527f726561636865642e000000000000000000000000000000000000000000000000606082015260800190565b6020808252601d908201527f416464726573733a2063616c6c20746f206e6f6e2d636f6e7472616374000000604082015260600190565b60208082526014908201527f5f616d6f756e7420213d206d73672e76616c7565000000000000000000000000604082015260600190565b6020808252602a908201527f5361666545524332303a204552433230206f7065726174696f6e20646964206e60408201527f6f74207375636365656400000000000000000000000000000000000000000000606082015260800190565b6020808252602a908201527f416c6368656d6973743a2073656e74696e656c20616464726573732063616e6e60408201527f6f74206265203078302e00000000000000000000000000000000000000000000606082015260800190565b90815260200190565b60005b838110156115dc5781810151838201526020016115c4565b83811115610c475750506000910152565b80151581146115fb57600080fd5b5056fea2646970667358221220443a4ac37c420d41fc5b34c74b6b2e3bed14e02ab8451b4f9233760aec2b70e564736f6c634300060c0033",
  "devdoc": {
    "kind": "dev",
    "methods": {
      "acceptGovernance()": {
        "details": "Accepts the role as governance. This function reverts if the caller is not the new pending governance."
      },
      "convert(uint256,bool)": {
        "details": "Converts ETH/WETH to alETH",
        "params": {
          "_amount": "the amount of collateral to convert."
        }
      },
      "setPauseConvert(bool)": {
        "details": "Sets if the contract should pause conversions.",
        "params": {
          "_pauseConvert": "if the contract should pause conversions."
        }
      },
      "setPendingGovernance(address)": {
        "details": "Sets the pending governance. This function reverts if the new pending governance is the zero address or the caller is not the current governance. This is to prevent the contract governance being set to the zero address which would deadlock privileged contract functionality.",
        "params": {
          "_pendingGovernance": "the new pending governance."
        }
      },
      "setTransmuter(address)": {
        "details": "Sets the transmuter. This function reverts if the new transmuter is the zero address or the caller is not the current governance.",
        "params": {
          "_transmuter": "the new transmuter."
        }
      }
    },
    "stateVariables": {
      "emergencyExit": {
        "details": "A flag indicating if deposits and flushes should be halted and if all parties should be able to recall from the active vault."
      },
      "governance": {
        "details": "The address of the account which currently has administrative capabilities over this contract."
      },
      "pendingGovernance": {
        "details": "The address of the pending governance."
      },
      "sentinel": {
        "details": "The address of the account which can initiate an emergency withdraw of funds in a vault."
      },
      "token": {
        "details": "The token that this contract is using as the parent asset."
      },
      "transmuter": {
        "details": "The address of the contract which will transmute synthetic tokens back into native tokens."
      },
      "weth": {
        "details": "The address off the WETH contract."
      },
      "xtoken": {
        "details": "The token that this contract is using as the child asset."
      }
    },
    "version": 1
  },
  "userdoc": {
    "kind": "user",
    "methods": {},
    "version": 1
  },
  "storageLayout": {
    "storage": [
      {
        "astId": 2439,
        "contract": "contracts/AlchemistEthArb.sol:AlchemistEthArb",
        "label": "_status",
        "offset": 0,
        "slot": "0",
        "type": "t_uint256"
      },
      {
        "astId": 7000,
        "contract": "contracts/AlchemistEthArb.sol:AlchemistEthArb",
        "label": "token",
        "offset": 0,
        "slot": "1",
        "type": "t_contract(IMintableERC20)15977"
      },
      {
        "astId": 7003,
        "contract": "contracts/AlchemistEthArb.sol:AlchemistEthArb",
        "label": "weth",
        "offset": 0,
        "slot": "2",
        "type": "t_address"
      },
      {
        "astId": 7006,
        "contract": "contracts/AlchemistEthArb.sol:AlchemistEthArb",
        "label": "xtoken",
        "offset": 0,
        "slot": "3",
        "type": "t_contract(AlEth)2789"
      },
      {
        "astId": 7009,
        "contract": "contracts/AlchemistEthArb.sol:AlchemistEthArb",
        "label": "governance",
        "offset": 0,
        "slot": "4",
        "type": "t_address"
      },
      {
        "astId": 7012,
        "contract": "contracts/AlchemistEthArb.sol:AlchemistEthArb",
        "label": "pendingGovernance",
        "offset": 0,
        "slot": "5",
        "type": "t_address"
      },
      {
        "astId": 7015,
        "contract": "contracts/AlchemistEthArb.sol:AlchemistEthArb",
        "label": "sentinel",
        "offset": 0,
        "slot": "6",
        "type": "t_address"
      },
      {
        "astId": 7018,
        "contract": "contracts/AlchemistEthArb.sol:AlchemistEthArb",
        "label": "transmuter",
        "offset": 0,
        "slot": "7",
        "type": "t_address"
      },
      {
        "astId": 7021,
        "contract": "contracts/AlchemistEthArb.sol:AlchemistEthArb",
        "label": "emergencyExit",
        "offset": 20,
        "slot": "7",
        "type": "t_bool"
      },
      {
        "astId": 7023,
        "contract": "contracts/AlchemistEthArb.sol:AlchemistEthArb",
        "label": "pauseConvert",
        "offset": 21,
        "slot": "7",
        "type": "t_bool"
      }
    ],
    "types": {
      "t_address": {
        "encoding": "inplace",
        "label": "address",
        "numberOfBytes": "20"
      },
      "t_bool": {
        "encoding": "inplace",
        "label": "bool",
        "numberOfBytes": "1"
      },
      "t_contract(AlEth)2789": {
        "encoding": "inplace",
        "label": "contract AlEth",
        "numberOfBytes": "20"
      },
      "t_contract(IMintableERC20)15977": {
        "encoding": "inplace",
        "label": "contract IMintableERC20",
        "numberOfBytes": "20"
      },
      "t_uint256": {
        "encoding": "inplace",
        "label": "uint256",
        "numberOfBytes": "32"
      }
    }
  }
}