{
  "address": "0xf8317BD5F48B6fE608a52B48C856D3367540B73B",
  "abi": [
    {
      "inputs": [
        {
          "internalType": "contract IMintableERC20",
          "name": "_token",
          "type": "address"
        },
        {
          "internalType": "contract AlEth",
          "name": "_xtoken",
          "type": "address"
        },
        {
          "internalType": "address",
          "name": "_governance",
          "type": "address"
        },
        {
          "internalType": "address",
          "name": "_sentinel",
          "type": "address"
        }
      ],
      "stateMutability": "nonpayable",
      "type": "constructor"
    },
    {
      "anonymous": false,
      "inputs": [
        {
          "indexed": true,
          "internalType": "contract IVaultAdapter",
          "name": "adapter",
          "type": "address"
        }
      ],
      "name": "ActiveVaultUpdated",
      "type": "event"
    },
    {
      "anonymous": false,
      "inputs": [
        {
          "indexed": false,
          "internalType": "address",
          "name": "user",
          "type": "address"
        },
        {
          "indexed": false,
          "internalType": "uint256",
          "name": "covertedAmount",
          "type": "uint256"
        }
      ],
      "name": "CollateralConverted",
      "type": "event"
    },
    {
      "anonymous": false,
      "inputs": [
        {
          "indexed": false,
          "internalType": "uint256",
          "name": "limit",
          "type": "uint256"
        }
      ],
      "name": "CollateralizationLimitUpdated",
      "type": "event"
    },
    {
      "anonymous": false,
      "inputs": [
        {
          "indexed": false,
          "internalType": "bool",
          "name": "status",
          "type": "bool"
        }
      ],
      "name": "ConversionPauseUpdated",
      "type": "event"
    },
    {
      "anonymous": false,
      "inputs": [
        {
          "indexed": false,
          "internalType": "bool",
          "name": "status",
          "type": "bool"
        }
      ],
      "name": "EmergencyExitUpdated",
      "type": "event"
    },
    {
      "anonymous": false,
      "inputs": [
        {
          "indexed": false,
          "internalType": "uint256",
          "name": "amount",
          "type": "uint256"
        }
      ],
      "name": "FundsFlushed",
      "type": "event"
    },
    {
      "anonymous": false,
      "inputs": [
        {
          "indexed": false,
          "internalType": "uint256",
          "name": "withdrawnAmount",
          "type": "uint256"
        },
        {
          "indexed": false,
          "internalType": "uint256",
          "name": "decreasedValue",
          "type": "uint256"
        }
      ],
      "name": "FundsHarvested",
      "type": "event"
    },
    {
      "anonymous": false,
      "inputs": [
        {
          "indexed": true,
          "internalType": "uint256",
          "name": "vaultId",
          "type": "uint256"
        },
        {
          "indexed": false,
          "internalType": "uint256",
          "name": "withdrawnAmount",
          "type": "uint256"
        },
        {
          "indexed": false,
          "internalType": "uint256",
          "name": "decreasedValue",
          "type": "uint256"
        }
      ],
      "name": "FundsRecalled",
      "type": "event"
    },
    {
      "anonymous": false,
      "inputs": [
        {
          "indexed": false,
          "internalType": "address",
          "name": "governance",
          "type": "address"
        }
      ],
      "name": "GovernanceUpdated",
      "type": "event"
    },
    {
      "anonymous": false,
      "inputs": [
        {
          "indexed": false,
          "internalType": "uint256",
          "name": "fee",
          "type": "uint256"
        }
      ],
      "name": "HarvestFeeUpdated",
      "type": "event"
    },
    {
      "anonymous": false,
      "inputs": [
        {
          "indexed": false,
          "internalType": "address[]",
          "name": "accounts",
          "type": "address[]"
        },
        {
          "indexed": false,
          "internalType": "bool[]",
          "name": "flag",
          "type": "bool[]"
        }
      ],
      "name": "KeepersSet",
      "type": "event"
    },
    {
      "anonymous": false,
      "inputs": [
        {
          "indexed": true,
          "internalType": "address",
          "name": "account",
          "type": "address"
        },
        {
          "indexed": false,
          "internalType": "uint256",
          "name": "mintedAmount",
          "type": "uint256"
        },
        {
          "indexed": false,
          "internalType": "address",
          "name": "syntheticAddress",
          "type": "address"
        }
      ],
      "name": "LoanMinted",
      "type": "event"
    },
    {
      "anonymous": false,
      "inputs": [
        {
          "indexed": false,
          "internalType": "address",
          "name": "pendingGovernance",
          "type": "address"
        }
      ],
      "name": "PendingGovernanceUpdated",
      "type": "event"
    },
    {
      "anonymous": false,
      "inputs": [
        {
          "indexed": false,
          "internalType": "address",
          "name": "treasury",
          "type": "address"
        }
      ],
      "name": "RewardsUpdated",
      "type": "event"
    },
    {
      "anonymous": false,
      "inputs": [
        {
          "indexed": false,
          "internalType": "address",
          "name": "sentinel",
          "type": "address"
        }
      ],
      "name": "SentinelUpdated",
      "type": "event"
    },
    {
      "anonymous": false,
      "inputs": [
        {
          "indexed": true,
          "internalType": "address",
          "name": "account",
          "type": "address"
        },
        {
          "indexed": false,
          "internalType": "uint256",
          "name": "amount",
          "type": "uint256"
        }
      ],
      "name": "TokensDeposited",
      "type": "event"
    },
    {
      "anonymous": false,
      "inputs": [
        {
          "indexed": true,
          "internalType": "address",
          "name": "account",
          "type": "address"
        },
        {
          "indexed": false,
          "internalType": "uint256",
          "name": "requestedAmount",
          "type": "uint256"
        },
        {
          "indexed": false,
          "internalType": "uint256",
          "name": "withdrawnAmount",
          "type": "uint256"
        },
        {
          "indexed": false,
          "internalType": "uint256",
          "name": "decreasedValue",
          "type": "uint256"
        }
      ],
      "name": "TokensLiquidated",
      "type": "event"
    },
    {
      "anonymous": false,
      "inputs": [
        {
          "indexed": true,
          "internalType": "address",
          "name": "account",
          "type": "address"
        },
        {
          "indexed": false,
          "internalType": "uint256",
          "name": "parentAmount",
          "type": "uint256"
        },
        {
          "indexed": false,
          "internalType": "uint256",
          "name": "childAmount",
          "type": "uint256"
        }
      ],
      "name": "TokensRepaid",
      "type": "event"
    },
    {
      "anonymous": false,
      "inputs": [
        {
          "indexed": true,
          "internalType": "address",
          "name": "account",
          "type": "address"
        },
        {
          "indexed": false,
          "internalType": "uint256",
          "name": "requestedAmount",
          "type": "uint256"
        },
        {
          "indexed": false,
          "internalType": "uint256",
          "name": "withdrawnAmount",
          "type": "uint256"
        },
        {
          "indexed": false,
          "internalType": "uint256",
          "name": "decreasedValue",
          "type": "uint256"
        }
      ],
      "name": "TokensWithdrawn",
      "type": "event"
    },
    {
      "anonymous": false,
      "inputs": [
        {
          "indexed": false,
          "internalType": "address",
          "name": "transmuter",
          "type": "address"
        }
      ],
      "name": "TransmuterUpdated",
      "type": "event"
    },
    {
      "inputs": [],
      "name": "MAXIMUM_COLLATERALIZATION_LIMIT",
      "outputs": [
        {
          "internalType": "uint256",
          "name": "",
          "type": "uint256"
        }
      ],
      "stateMutability": "view",
      "type": "function"
    },
    {
      "inputs": [],
      "name": "MINIMUM_COLLATERALIZATION_LIMIT",
      "outputs": [
        {
          "internalType": "uint256",
          "name": "",
          "type": "uint256"
        }
      ],
      "stateMutability": "view",
      "type": "function"
    },
    {
      "inputs": [],
      "name": "PERCENT_RESOLUTION",
      "outputs": [
        {
          "internalType": "uint256",
          "name": "",
          "type": "uint256"
        }
      ],
      "stateMutability": "view",
      "type": "function"
    },
    {
      "inputs": [],
      "name": "ZERO_ADDRESS",
      "outputs": [
        {
          "internalType": "address",
          "name": "",
          "type": "address"
        }
      ],
      "stateMutability": "view",
      "type": "function"
    },
    {
      "inputs": [],
      "name": "acceptGovernance",
      "outputs": [],
      "stateMutability": "nonpayable",
      "type": "function"
    },
    {
      "inputs": [
        {
          "internalType": "address",
          "name": "",
          "type": "address"
        }
      ],
      "name": "adapters",
      "outputs": [
        {
          "internalType": "bool",
          "name": "",
          "type": "bool"
        }
      ],
      "stateMutability": "view",
      "type": "function"
    },
    {
      "inputs": [],
      "name": "collateralizationLimit",
      "outputs": [
        {
          "components": [
            {
              "internalType": "uint256",
              "name": "x",
              "type": "uint256"
            }
          ],
          "internalType": "struct FixedPointMath.FixedDecimal",
          "name": "",
          "type": "tuple"
        }
      ],
      "stateMutability": "view",
      "type": "function"
    },
    {
      "inputs": [
        {
          "internalType": "uint256",
          "name": "_amount",
          "type": "uint256"
        },
        {
          "internalType": "bool",
          "name": "asEth",
          "type": "bool"
        }
      ],
      "name": "convert",
      "outputs": [],
      "stateMutability": "payable",
      "type": "function"
    },
    {
      "inputs": [
        {
          "internalType": "uint256",
          "name": "_amount",
          "type": "uint256"
        },
        {
          "internalType": "bool",
          "name": "asEth",
          "type": "bool"
        }
      ],
      "name": "deposit",
      "outputs": [],
      "stateMutability": "payable",
      "type": "function"
    },
    {
      "inputs": [],
      "name": "emergencyExit",
      "outputs": [
        {
          "internalType": "bool",
          "name": "",
          "type": "bool"
        }
      ],
      "stateMutability": "view",
      "type": "function"
    },
    {
      "inputs": [],
      "name": "flush",
      "outputs": [
        {
          "internalType": "uint256",
          "name": "",
          "type": "uint256"
        }
      ],
      "stateMutability": "nonpayable",
      "type": "function"
    },
    {
      "inputs": [],
      "name": "flushActivator",
      "outputs": [
        {
          "internalType": "uint256",
          "name": "",
          "type": "uint256"
        }
      ],
      "stateMutability": "view",
      "type": "function"
    },
    {
      "inputs": [
        {
          "internalType": "address",
          "name": "_account",
          "type": "address"
        }
      ],
      "name": "getCdpLastDeposit",
      "outputs": [
        {
          "internalType": "uint256",
          "name": "",
          "type": "uint256"
        }
      ],
      "stateMutability": "view",
      "type": "function"
    },
    {
      "inputs": [
        {
          "internalType": "address",
          "name": "_account",
          "type": "address"
        }
      ],
      "name": "getCdpTotalCredit",
      "outputs": [
        {
          "internalType": "uint256",
          "name": "",
          "type": "uint256"
        }
      ],
      "stateMutability": "view",
      "type": "function"
    },
    {
      "inputs": [
        {
          "internalType": "address",
          "name": "_account",
          "type": "address"
        }
      ],
      "name": "getCdpTotalDebt",
      "outputs": [
        {
          "internalType": "uint256",
          "name": "",
          "type": "uint256"
        }
      ],
      "stateMutability": "view",
      "type": "function"
    },
    {
      "inputs": [
        {
          "internalType": "address",
          "name": "_account",
          "type": "address"
        }
      ],
      "name": "getCdpTotalDeposited",
      "outputs": [
        {
          "internalType": "uint256",
          "name": "",
          "type": "uint256"
        }
      ],
      "stateMutability": "view",
      "type": "function"
    },
    {
      "inputs": [
        {
          "internalType": "uint256",
          "name": "_vaultId",
          "type": "uint256"
        }
      ],
      "name": "getVaultAdapter",
      "outputs": [
        {
          "internalType": "contract IVaultAdapter",
          "name": "",
          "type": "address"
        }
      ],
      "stateMutability": "view",
      "type": "function"
    },
    {
      "inputs": [
        {
          "internalType": "uint256",
          "name": "_vaultId",
          "type": "uint256"
        }
      ],
      "name": "getVaultTotalDeposited",
      "outputs": [
        {
          "internalType": "uint256",
          "name": "",
          "type": "uint256"
        }
      ],
      "stateMutability": "view",
      "type": "function"
    },
    {
      "inputs": [],
      "name": "governance",
      "outputs": [
        {
          "internalType": "address",
          "name": "",
          "type": "address"
        }
      ],
      "stateMutability": "view",
      "type": "function"
    },
    {
      "inputs": [
        {
          "internalType": "uint256",
          "name": "_vaultId",
          "type": "uint256"
        }
      ],
      "name": "harvest",
      "outputs": [
        {
          "internalType": "uint256",
          "name": "",
          "type": "uint256"
        },
        {
          "internalType": "uint256",
          "name": "",
          "type": "uint256"
        }
      ],
      "stateMutability": "nonpayable",
      "type": "function"
    },
    {
      "inputs": [],
      "name": "harvestFee",
      "outputs": [
        {
          "internalType": "uint256",
          "name": "",
          "type": "uint256"
        }
      ],
      "stateMutability": "view",
      "type": "function"
    },
    {
      "inputs": [
        {
          "internalType": "contract IVaultAdapter",
          "name": "_adapter",
          "type": "address"
        }
      ],
      "name": "initialize",
      "outputs": [],
      "stateMutability": "nonpayable",
      "type": "function"
    },
    {
      "inputs": [],
      "name": "initialized",
      "outputs": [
        {
          "internalType": "bool",
          "name": "",
          "type": "bool"
        }
      ],
      "stateMutability": "view",
      "type": "function"
    },
    {
      "inputs": [
        {
          "internalType": "address",
          "name": "",
          "type": "address"
        }
      ],
      "name": "keepers",
      "outputs": [
        {
          "internalType": "bool",
          "name": "",
          "type": "bool"
        }
      ],
      "stateMutability": "view",
      "type": "function"
    },
    {
      "inputs": [
        {
          "internalType": "uint256",
          "name": "_amount",
          "type": "uint256"
        }
      ],
      "name": "liquidate",
      "outputs": [
        {
          "internalType": "uint256",
          "name": "",
          "type": "uint256"
        },
        {
          "internalType": "uint256",
          "name": "",
          "type": "uint256"
        }
      ],
      "stateMutability": "nonpayable",
      "type": "function"
    },
    {
      "inputs": [
        {
          "internalType": "contract IVaultAdapter",
          "name": "_adapter",
          "type": "address"
        }
      ],
      "name": "migrate",
      "outputs": [],
      "stateMutability": "nonpayable",
      "type": "function"
    },
    {
      "inputs": [
        {
          "internalType": "uint256",
          "name": "_amount",
          "type": "uint256"
        }
      ],
      "name": "mint",
      "outputs": [],
      "stateMutability": "nonpayable",
      "type": "function"
    },
    {
      "inputs": [],
      "name": "pauseConvert",
      "outputs": [
        {
          "internalType": "bool",
          "name": "",
          "type": "bool"
        }
      ],
      "stateMutability": "view",
      "type": "function"
    },
    {
      "inputs": [],
      "name": "pendingGovernance",
      "outputs": [
        {
          "internalType": "address",
          "name": "",
          "type": "address"
        }
      ],
      "stateMutability": "view",
      "type": "function"
    },
    {
      "inputs": [
        {
          "internalType": "uint256",
          "name": "_vaultId",
          "type": "uint256"
        },
        {
          "internalType": "uint256",
          "name": "_amount",
          "type": "uint256"
        }
      ],
      "name": "recall",
      "outputs": [
        {
          "internalType": "uint256",
          "name": "",
          "type": "uint256"
        },
        {
          "internalType": "uint256",
          "name": "",
          "type": "uint256"
        }
      ],
      "stateMutability": "nonpayable",
      "type": "function"
    },
    {
      "inputs": [
        {
          "internalType": "uint256",
          "name": "_vaultId",
          "type": "uint256"
        }
      ],
      "name": "recallAll",
      "outputs": [
        {
          "internalType": "uint256",
          "name": "",
          "type": "uint256"
        },
        {
          "internalType": "uint256",
          "name": "",
          "type": "uint256"
        }
      ],
      "stateMutability": "nonpayable",
      "type": "function"
    },
    {
      "inputs": [],
      "name": "recoverLostFunds",
      "outputs": [],
      "stateMutability": "nonpayable",
      "type": "function"
    },
    {
      "inputs": [
        {
          "internalType": "uint256",
          "name": "_collateralAmount",
          "type": "uint256"
        },
        {
          "internalType": "uint256",
          "name": "_syntheticAmount",
          "type": "uint256"
        },
        {
          "internalType": "bool",
          "name": "collateralAsEth",
          "type": "bool"
        }
      ],
      "name": "repay",
      "outputs": [],
      "stateMutability": "payable",
      "type": "function"
    },
    {
      "inputs": [],
      "name": "rewards",
      "outputs": [
        {
          "internalType": "address",
          "name": "",
          "type": "address"
        }
      ],
      "stateMutability": "view",
      "type": "function"
    },
    {
      "inputs": [],
      "name": "sentinel",
      "outputs": [
        {
          "internalType": "address",
          "name": "",
          "type": "address"
        }
      ],
      "stateMutability": "view",
      "type": "function"
    },
    {
      "inputs": [
        {
          "internalType": "uint256",
          "name": "_limit",
          "type": "uint256"
        }
      ],
      "name": "setCollateralizationLimit",
      "outputs": [],
      "stateMutability": "nonpayable",
      "type": "function"
    },
    {
      "inputs": [
        {
          "internalType": "bool",
          "name": "_emergencyExit",
          "type": "bool"
        }
      ],
      "name": "setEmergencyExit",
      "outputs": [],
      "stateMutability": "nonpayable",
      "type": "function"
    },
    {
      "inputs": [
        {
          "internalType": "uint256",
          "name": "_flushActivator",
          "type": "uint256"
        }
      ],
      "name": "setFlushActivator",
      "outputs": [],
      "stateMutability": "nonpayable",
      "type": "function"
    },
    {
      "inputs": [
        {
          "internalType": "uint256",
          "name": "_harvestFee",
          "type": "uint256"
        }
      ],
      "name": "setHarvestFee",
      "outputs": [],
      "stateMutability": "nonpayable",
      "type": "function"
    },
    {
      "inputs": [
        {
          "internalType": "address[]",
          "name": "accounts",
          "type": "address[]"
        },
        {
          "internalType": "bool[]",
          "name": "flags",
          "type": "bool[]"
        }
      ],
      "name": "setKeepers",
      "outputs": [],
      "stateMutability": "nonpayable",
      "type": "function"
    },
    {
      "inputs": [
        {
          "internalType": "bool",
          "name": "_pauseConvert",
          "type": "bool"
        }
      ],
      "name": "setPauseConvert",
      "outputs": [],
      "stateMutability": "nonpayable",
      "type": "function"
    },
    {
      "inputs": [
        {
          "internalType": "address",
          "name": "_pendingGovernance",
          "type": "address"
        }
      ],
      "name": "setPendingGovernance",
      "outputs": [],
      "stateMutability": "nonpayable",
      "type": "function"
    },
    {
      "inputs": [
        {
          "internalType": "address",
          "name": "_rewards",
          "type": "address"
        }
      ],
      "name": "setRewards",
      "outputs": [],
      "stateMutability": "nonpayable",
      "type": "function"
    },
    {
      "inputs": [
        {
          "internalType": "address",
          "name": "_sentinel",
          "type": "address"
        }
      ],
      "name": "setSentinel",
      "outputs": [],
      "stateMutability": "nonpayable",
      "type": "function"
    },
    {
      "inputs": [
        {
          "internalType": "address",
          "name": "_transmuter",
          "type": "address"
        }
      ],
      "name": "setTransmuter",
      "outputs": [],
      "stateMutability": "nonpayable",
      "type": "function"
    },
    {
      "inputs": [],
      "name": "token",
      "outputs": [
        {
          "internalType": "contract IMintableERC20",
          "name": "",
          "type": "address"
        }
      ],
      "stateMutability": "view",
      "type": "function"
    },
    {
      "inputs": [],
      "name": "totalDeposited",
      "outputs": [
        {
          "internalType": "uint256",
          "name": "",
          "type": "uint256"
        }
      ],
      "stateMutability": "view",
      "type": "function"
    },
    {
      "inputs": [],
      "name": "transmuter",
      "outputs": [
        {
          "internalType": "address",
          "name": "",
          "type": "address"
        }
      ],
      "stateMutability": "view",
      "type": "function"
    },
    {
      "inputs": [],
      "name": "vaultCount",
      "outputs": [
        {
          "internalType": "uint256",
          "name": "",
          "type": "uint256"
        }
      ],
      "stateMutability": "view",
      "type": "function"
    },
    {
      "inputs": [],
      "name": "weth",
      "outputs": [
        {
          "internalType": "address",
          "name": "",
          "type": "address"
        }
      ],
      "stateMutability": "view",
      "type": "function"
    },
    {
      "inputs": [
        {
          "internalType": "uint256",
          "name": "_amount",
          "type": "uint256"
        },
        {
          "internalType": "bool",
          "name": "asEth",
          "type": "bool"
        }
      ],
      "name": "withdraw",
      "outputs": [
        {
          "internalType": "uint256",
          "name": "",
          "type": "uint256"
        },
        {
          "internalType": "uint256",
          "name": "",
          "type": "uint256"
        }
      ],
      "stateMutability": "nonpayable",
      "type": "function"
    },
    {
      "inputs": [],
      "name": "xtoken",
      "outputs": [
        {
          "internalType": "contract AlEth",
          "name": "",
          "type": "address"
        }
      ],
      "stateMutability": "view",
      "type": "function"
    },
    {
      "stateMutability": "payable",
      "type": "receive"
    }
  ],
  "transactionHash": "0xc1ee59de7385d272b32d192bbc0fec2053de9660d6752627eb51d708d831502a",
  "args": [
    "0xC02aaA39b223FE8D0A0e5C4F27eAD9083C756Cc2",
    "0x0100546F2cD4C9D97f798fFC9755E47865FF7Ee6",
    "0x0e78588283aA9CcBeC277b40fB8eDfa8Cc2155a7",
    "0xf4B5b84b8f39bC556ed230FA91A0A89Bb5E8559b"
  ],
  "solcInputHash": "4166561e8247eae9594f858218117998",
  "bytecode": "0x60806040523480156200001157600080fd5b50604051620057cb380380620057cb8339810160408190526200003491620001b3565b60016000556001600160a01b0382166200006b5760405162461bcd60e51b815260040162000062906200021a565b60405180910390fd5b6001600160a01b038116620000945760405162461bcd60e51b81526004016200006290620002a7565b600280546001600160a01b03199081166001600160a01b0387811691821790935560018054831690911790556003805482168684161790556004805482168584161781556006805490921692841692909217905569021e19e0c9bab2400000600b55600c80546201000061010061ff00199092169190911762ff000019161790556000906200013990670de0b6b3a7640000906200016a602090811b62002ea717901c565b604080516020808201835290839052600d9290925580519182019052600090819052600e55506200030a9350505050565b6000826200017b57506000620001ad565b828202828482816200018957fe5b0414620001aa5760405162461bcd60e51b8152600401620000629062000266565b90505b92915050565b60008060008060808587031215620001c9578384fd5b8451620001d681620002f1565b6020860151909450620001e981620002f1565b6040860151909350620001fc81620002f1565b60608601519092506200020f81620002f1565b939692955090935050565b6020808252602c908201527f416c6368656d6973743a20676f7665726e616e6365206164647265737320636160408201526b373737ba10313290183c181760a11b606082015260800190565b60208082526021908201527f536166654d6174683a206d756c7469706c69636174696f6e206f766572666c6f6040820152607760f81b606082015260800190565b6020808252602a908201527f416c6368656d6973743a2073656e74696e656c20616464726573732063616e6e60408201526937ba10313290183c181760b11b606082015260800190565b6001600160a01b03811681146200030757600080fd5b50565b6154b1806200031a6000396000f3fe6080604052600436106103435760003560e01c8063792b55b6116101b0578063b5962917116100ec578063f0d787a311610095578063fc00e8a01161006f578063fc00e8a01461088e578063fc0c546a146108ae578063fefdc5d1146108c3578063ff50abdc146108e35761034a565b8063f0d787a31461084f578063f39c38a014610864578063f58c251c146108795761034a565b8063ddc63262116100c6578063ddc63262146107ef578063e5711ffc1461080f578063ec38a8621461082f5761034a565b8063b59629171461079a578063c4d66de8146107af578063ce5494bb146107cf5761034a565b8063a0712d6811610159578063a7c6a10011610133578063a7c6a10014610725578063aa6e04341461073a578063aaf166601461075a578063adb4a9ad1461077a5761034a565b8063a0712d68146106d0578063a1e401a9146106f0578063a59d6986146107105761034a565b80639a5ef3691161018a5780639a5ef369146106885780639a9af2211461069b5780639ec5a894146106bb5761034a565b8063792b55b61461063557806399da775b146106555780639a408321146106755761034a565b8063415f12401161027f57806353ffa18b116102285780636a4f4b05116102025780636a4f4b05146105d85780636b9f96ea146105f85780636fd522981461060d5780637239d2b9146106205761034a565b806353ffa18b1461058e5780635641ec03146105ae5780635aa6e675146105c35761034a565b80634aaf7c65116102595780634aaf7c65146105375780634c3a8e0214610559578063538ba4f9146105795761034a565b8063415f1240146104e257806345ee07551461050257806345f867b3146105225761034a565b8063238efcbc116102ec57806338d07436116102c657806338d074361461046a5780633bbd64bc146104985780633fc8cef3146104b8578063411d6fb5146104cd5761034a565b8063238efcbc146104205780632670fdd81461043557806330d4d190146104555761034a565b8063158ef93e1161031d578063158ef93e146103bc5780631718a68f146103de57806322c37b75146104005761034a565b80630510111e1461034f57806309dac0611461037a5780630abb60351461039c5761034a565b3661034a57005b600080fd5b34801561035b57600080fd5b506103646108f8565b6040516103719190615376565b60405180910390f35b34801561038657600080fd5b5061039a6103953660046145fb565b610904565b005b3480156103a857600080fd5b5061039a6103b73660046145fb565b610a26565b3480156103c857600080fd5b506103d1610b34565b60405161037191906148d0565b3480156103ea57600080fd5b506103f3610b3d565b60405161037191906147b2565b34801561040c57600080fd5b5061039a61041b3660046146d4565b610b59565b34801561042c57600080fd5b5061039a610baf565b34801561044157600080fd5b506103f36104503660046146d4565b610c76565b34801561046157600080fd5b50610364610ca2565b34801561047657600080fd5b5061048a610485366004614704565b610cae565b6040516103719291906153a3565b3480156104a457600080fd5b506103d16104b33660046145fb565b610eb3565b3480156104c457600080fd5b506103f3610ec8565b3480156104d957600080fd5b506103d1610ee4565b3480156104ee57600080fd5b5061048a6104fd3660046146d4565b610ef3565b34801561050e57600080fd5b5061039a61051d366004614680565b611099565b34801561052e57600080fd5b5061036461116c565b34801561054357600080fd5b5061054c611172565b604051610371919061536c565b34801561056557600080fd5b5061048a6105743660046146d4565b61118e565b34801561058557600080fd5b506103f361123c565b34801561059a57600080fd5b5061039a6105a93660046146d4565b611241565b3480156105ba57600080fd5b506103d1611356565b3480156105cf57600080fd5b506103f3611364565b3480156105e457600080fd5b5061039a6105f3366004614617565b611380565b34801561060457600080fd5b506103646114c3565b61039a61061b366004614754565b6115e0565b34801561062c57600080fd5b506103f3611997565b34801561064157600080fd5b5061039a6106503660046146d4565b6119b3565b34801561066157600080fd5b5061039a610670366004614680565b611a75565b61039a610683366004614704565b611b49565b61039a610696366004614704565b611e0d565b3480156106a757600080fd5b506103646106b63660046145fb565b612296565b3480156106c757600080fd5b506103f36122c1565b3480156106dc57600080fd5b5061039a6106eb3660046146d4565b6122dd565b3480156106fc57600080fd5b5061036461070b3660046145fb565b612690565b34801561071c57600080fd5b5061039a6126b8565b34801561073157600080fd5b50610364612752565b34801561074657600080fd5b506103646107553660046145fb565b612763565b34801561076657600080fd5b506103646107753660046146d4565b61279a565b34801561078657600080fd5b5061039a6107953660046145fb565b6127b3565b3480156107a657600080fd5b506103646128c1565b3480156107bb57600080fd5b5061039a6107ca3660046145fb565b6128c7565b3480156107db57600080fd5b5061039a6107ea3660046145fb565b612a2a565b3480156107fb57600080fd5b5061048a61080a3660046146d4565b612ac0565b34801561081b57600080fd5b506103d161082a3660046145fb565b612c69565b34801561083b57600080fd5b5061039a61084a3660046145fb565b612c7e565b34801561085b57600080fd5b50610364612d8c565b34801561087057600080fd5b506103f3612d92565b34801561088557600080fd5b506103f3612dae565b34801561089a57600080fd5b506103646108a93660046145fb565b612dca565b3480156108ba57600080fd5b506103f3612dfa565b3480156108cf57600080fd5b5061048a6108de366004614733565b612e16565b3480156108ef57600080fd5b50610364612ea1565b673782dace9d90000081565b60045473ffffffffffffffffffffffffffffffffffffffff16331461095e576040517f08c379a000000000000000000000000000000000000000000000000000000000815260040161095590614d6d565b60405180910390fd5b73ffffffffffffffffffffffffffffffffffffffff81166109ab576040517f08c379a0000000000000000000000000000000000000000000000000000000008152600401610955906151e7565b600680547fffffffffffffffffffffffff00000000000000000000000000000000000000001673ffffffffffffffffffffffffffffffffffffffff83161790556040517fdc117600f93282860144d2cd2745f8e2e15c3ca2a32b4290c30f7cd1ae7ffcb990610a1b9083906147b2565b60405180910390a150565b60045473ffffffffffffffffffffffffffffffffffffffff163314610a77576040517f08c379a000000000000000000000000000000000000000000000000000000000815260040161095590614d6d565b73ffffffffffffffffffffffffffffffffffffffff8116610ac4576040517f08c379a000000000000000000000000000000000000000000000000000000000815260040161095590614989565b600580547fffffffffffffffffffffffff00000000000000000000000000000000000000001673ffffffffffffffffffffffffffffffffffffffff83161790556040517fc9e2377236eab4280090ce8f2317332649736d92f00dcf20a8dd6684ec5e783990610a1b9083906147b2565b600c5460ff1681565b60035473ffffffffffffffffffffffffffffffffffffffff1681565b60045473ffffffffffffffffffffffffffffffffffffffff163314610baa576040517f08c379a000000000000000000000000000000000000000000000000000000000815260040161095590614d6d565b600b55565b60055473ffffffffffffffffffffffffffffffffffffffff163314610c00576040517f08c379a000000000000000000000000000000000000000000000000000000000815260040161095590614ef2565b600554600480547fffffffffffffffffffffffff00000000000000000000000000000000000000001673ffffffffffffffffffffffffffffffffffffffff90921691821790556040517f9d3e522e1e47a2f6009739342b9cc7b252a1888154e843ab55ee1c81745795ab90610a1b9083906147b2565b600080610c84601184612f04565b5473ffffffffffffffffffffffffffffffffffffffff169392505050565b670de0b6b3a764000081565b60008060026000541415610cee576040517f08c379a000000000000000000000000000000000000000000000000000000000815260040161095590615244565b6002600055610cfc33612f2b565b158015610d0857503332145b610d3e576040517f08c379a000000000000000000000000000000000000000000000000000000000815260040161095590614b0e565b600c5460ff16610d7a576040517f08c379a000000000000000000000000000000000000000000000000000000000815260040161095590615153565b336000908152600f6020526040902060038101544311610dc6576040517f08c379a000000000000000000000000000000000000000000000000000000000815260040161095590614fbd565b610dd181600d612f31565b600080610ddf338888612f8d565b60408051808201909152601b81527f4578636565647320776974686472617761626c6520616d6f756e74000000000060208201528554929450909250610e27919083906132b5565b835560408051606081019091526031808252610e5091600d9161542460208301398591906132fb565b3373ffffffffffffffffffffffffffffffffffffffff167fb3ad69dc1d2c6b1f5f5b0927ffd8ee8f1437a156253c8f6dccc75e6f8e4fd38b888484604051610e9a939291906153b1565b60405180910390a2600160005590969095509350505050565b60126020526000908152604090205460ff1681565b60025473ffffffffffffffffffffffffffffffffffffffff1681565b600c5462010000900460ff1681565b60008060026000541415610f33576040517f08c379a000000000000000000000000000000000000000000000000000000000815260040161095590615244565b6002600055610f4133612f2b565b158015610f4d57503332145b610f83576040517f08c379a000000000000000000000000000000000000000000000000000000000815260040161095590614b0e565b600c5460ff16610fbf576040517f08c379a000000000000000000000000000000000000000000000000000000000815260040161095590615153565b336000908152600f60205260409020610fd981600d612f31565b8060010154841115610fed57806001015493505b600080610ffc30876000612f8d565b9150915061100982613344565b60408051602081019091526000815283546110259183906132b5565b835560408051602081019091526000815260018401546110469184906132b5565b600184015560405133907f3ea051727656be6fd11c2260f244f29ff3c70d1fb077bfa73e89d554e9bb95c790611081908990869086906153b1565b60405180910390a26001600055909590945092505050565b60045473ffffffffffffffffffffffffffffffffffffffff163314806110d6575060065473ffffffffffffffffffffffffffffffffffffffff1633145b61110c576040517f08c379a000000000000000000000000000000000000000000000000000000000815260040161095590614f29565b600c80547fffffffffffffffffffffffffffffffffffffffffffffffffffffffffffff00ff16610100831515021790556040517ff0064f2efd0da4bc63eecf2e75590fe8a308eaa526a51c334e50eec09a71104990610a1b9083906148d0565b61271081565b61117a61459b565b506040805160208101909152600d54815290565b600080600260005414156111ce576040517f08c379a000000000000000000000000000000000000000000000000000000000815260040161095590615244565b6002600055600c5460ff1661120f576040517f08c379a000000000000000000000000000000000000000000000000000000000815260040161095590615153565b600061121c601185612f04565b905061122c848260010154613508565b6001600055909590945092505050565b600081565b60045473ffffffffffffffffffffffffffffffffffffffff163314611292576040517f08c379a000000000000000000000000000000000000000000000000000000000815260040161095590614d6d565b670de0b6b3a76400008110156112d4576040517f08c379a000000000000000000000000000000000000000000000000000000000815260040161095590614c7c565b673782dace9d900000811115611316576040517f08c379a000000000000000000000000000000000000000000000000000000000815260040161095590614cd9565b60408051602081018252829052600d829055517ff78180bc708b1292177c888900951cd66a39faf48dc7b6d111e93285dbbe55a090610a1b908390615376565b600c54610100900460ff1681565b60045473ffffffffffffffffffffffffffffffffffffffff1681565b60045473ffffffffffffffffffffffffffffffffffffffff1633146113d1576040517f08c379a000000000000000000000000000000000000000000000000000000000815260040161095590614d6d565b8260005b8181101561147e578383828181106113e957fe5b90506020020160208101906113fe9190614680565b6012600088888581811061140e57fe5b905060200201602081019061142391906145fb565b73ffffffffffffffffffffffffffffffffffffffff168152602081019190915260400160002080547fffffffffffffffffffffffffffffffffffffffffffffffffffffffffffffff00169115159190911790556001016113d5565b507fd1721b10ac5fe95d2627d512aa0f92c34ada0347c874adf414cf51af5760ff56858585856040516114b4949392919061482a565b60405180910390a15050505050565b600060026000541415611502576040517f08c379a000000000000000000000000000000000000000000000000000000000815260040161095590615244565b6002600055600c5460ff16611543576040517f08c379a000000000000000000000000000000000000000000000000000000000815260040161095590615153565b3360009081526012602052604090205460ff1661158c576040517f08c379a000000000000000000000000000000000000000000000000000000000815260040161095590614ad7565b600c54610100900460ff16156115ce576040517f08c379a000000000000000000000000000000000000000000000000000000000815260040161095590614fce565b6115d66135ed565b9050600160005590565b6002600054141561161d576040517f08c379a000000000000000000000000000000000000000000000000000000000815260040161095590615244565b600260005561162b33612f2b565b15801561163757503332145b61166d576040517f08c379a000000000000000000000000000000000000000000000000000000000815260040161095590614b0e565b600c5460ff166116a9576040517f08c379a000000000000000000000000000000000000000000000000000000000815260040161095590615153565b8015806116bc57508080156116bc575082155b80156116c757503415155b156116fe576040517f08c379a000000000000000000000000000000000000000000000000000000000815260040161095590614d36565b336000908152600f6020526040902061171881600d612f31565b83156118135781156117e55734841461175d576040517f08c379a00000000000000000000000000000000000000000000000000000000081526004016109559061511c565b600260009054906101000a900473ffffffffffffffffffffffffffffffffffffffff1673ffffffffffffffffffffffffffffffffffffffff1663d0e30db0856040518263ffffffff1660e01b81526004016000604051808303818588803b1580156117c757600080fd5b505af11580156117db573d6000803e3d6000fd5b505050505061180a565b60015461180a9073ffffffffffffffffffffffffffffffffffffffff16333087613646565b61181384613344565b821561192c576003546040517f79cc679000000000000000000000000000000000000000000000000000000000815273ffffffffffffffffffffffffffffffffffffffff909116906379cc67909061187190339087906004016147d3565b600060405180830381600087803b15801561188b57600080fd5b505af115801561189f573d6000803e3d6000fd5b50506003546040517f288aafcb00000000000000000000000000000000000000000000000000000000815273ffffffffffffffffffffffffffffffffffffffff909116925063288aafcb91506118f9908690600401615376565b600060405180830381600087803b15801561191357600080fd5b505af1158015611927573d6000803e3d6000fd5b505050505b600061193885856136e9565b600183015490915061194a9082613728565b600183015560405133907fbade234341a40ca3c71df59b3ca02b8bb65b491a098af970953228b4f4a5d38f9061198390889088906153a3565b60405180910390a250506001600055505050565b60075473ffffffffffffffffffffffffffffffffffffffff1681565b60045473ffffffffffffffffffffffffffffffffffffffff163314611a04576040517f08c379a000000000000000000000000000000000000000000000000000000000815260040161095590614d6d565b612710811115611a40576040517f08c379a000000000000000000000000000000000000000000000000000000000815260040161095590614e95565b60098190556040517fc36862a253ff42cc71f4f200d3c62e8e5eaaece01041fc6900aeace64ade72a890610a1b908390615376565b60045473ffffffffffffffffffffffffffffffffffffffff16331480611ab2575060065473ffffffffffffffffffffffffffffffffffffffff1633145b611ae8576040517f08c379a000000000000000000000000000000000000000000000000000000000815260040161095590614f29565b600c80547fffffffffffffffffffffffffffffffffffffffffffffffffffffffffff00ffff1662010000831515021790556040517fca5bdce9cd3e7e41a11035b530ba304b2e5d57e39872a18c079cb3fb7a48b6c290610a1b9083906148d0565b60026000541415611b86576040517f08c379a000000000000000000000000000000000000000000000000000000000815260040161095590615244565b6002600055611b9433612f2b565b158015611ba057503332145b611bd6576040517f08c379a000000000000000000000000000000000000000000000000000000000815260040161095590614b0e565b600c5460ff16611c12576040517f08c379a000000000000000000000000000000000000000000000000000000000815260040161095590615153565b600c54610100900460ff1615611c54576040517f08c379a000000000000000000000000000000000000000000000000000000000815260040161095590614fce565b336000908152600f60205260409020611c6e81600d612f31565b8115611d3557348314611cad576040517f08c379a00000000000000000000000000000000000000000000000000000000081526004016109559061503c565b600260009054906101000a900473ffffffffffffffffffffffffffffffffffffffff1673ffffffffffffffffffffffffffffffffffffffff1663d0e30db0846040518263ffffffff1660e01b81526004016000604051808303818588803b158015611d1757600080fd5b505af1158015611d2b573d6000803e3d6000fd5b5050505050611d92565b3415611d6d576040517f08c379a000000000000000000000000000000000000000000000000000000000815260040161095590614b7a565b600154611d929073ffffffffffffffffffffffffffffffffffffffff16333086613646565b600b548310611da557611da36135ed565b505b600a54611db290846136e9565b600a558054611dc190846136e9565b815543600382015560405133907f59062170a285eb80e8c6b8ced60428442a51910635005233fc4ce084a475845e90611dfb908690615376565b60405180910390a25050600160005550565b60026000541415611e4a576040517f08c379a000000000000000000000000000000000000000000000000000000000815260040161095590615244565b6002600055611e5833612f2b565b158015611e6457503332145b611e9a576040517f08c379a000000000000000000000000000000000000000000000000000000000815260040161095590614b0e565b600c5460ff16611ed6576040517f08c379a000000000000000000000000000000000000000000000000000000000815260040161095590615153565b600c5462010000900460ff1615611f19576040517f08c379a000000000000000000000000000000000000000000000000000000000815260040161095590614ddb565b8015611fe057348214611f58576040517f08c379a00000000000000000000000000000000000000000000000000000000081526004016109559061503c565b600260009054906101000a900473ffffffffffffffffffffffffffffffffffffffff1673ffffffffffffffffffffffffffffffffffffffff1663d0e30db0836040518263ffffffff1660e01b81526004016000604051808303818588803b158015611fc257600080fd5b505af1158015611fd6573d6000803e3d6000fd5b505050505061203d565b3415612018576040517f08c379a000000000000000000000000000000000000000000000000000000000815260040161095590614b7a565b60015461203d9073ffffffffffffffffffffffffffffffffffffffff16333085613646565b6003546040517f40c10f1900000000000000000000000000000000000000000000000000000000815273ffffffffffffffffffffffffffffffffffffffff909116906340c10f199061209590339086906004016147d3565b600060405180830381600087803b1580156120af57600080fd5b505af11580156120c3573d6000803e3d6000fd5b505050506120d082613344565b6003546040517f1ac997e000000000000000000000000000000000000000000000000000000000815273ffffffffffffffffffffffffffffffffffffffff90911690631ac997e0906121269030906004016147b2565b60206040518083038186803b15801561213e57600080fd5b505afa158015612152573d6000803e3d6000fd5b505050506040513d601f19601f8201168201806040525081019061217691906146ec565b6003546040517f38e21cce00000000000000000000000000000000000000000000000000000000815273ffffffffffffffffffffffffffffffffffffffff909116906338e21cce906121cc9030906004016147b2565b60206040518083038186803b1580156121e457600080fd5b505afa1580156121f8573d6000803e3d6000fd5b505050506040513d601f19601f8201168201806040525081019061221c91906146ec565b1115612254576040517f08c379a000000000000000000000000000000000000000000000000000000000815260040161095590614f60565b7fda3499e7f2a8b7272740278bd7e34f34f8643fd2dac543aeb2b2df98a2bedb5f33836040516122859291906147d3565b60405180910390a150506001600055565b73ffffffffffffffffffffffffffffffffffffffff166000908152600f602052604090206003015490565b60085473ffffffffffffffffffffffffffffffffffffffff1681565b6002600054141561231a576040517f08c379a000000000000000000000000000000000000000000000000000000000815260040161095590615244565b600260005561232833612f2b565b15801561233457503332145b61236a576040517f08c379a000000000000000000000000000000000000000000000000000000000815260040161095590614b0e565b600c5460ff166123a6576040517f08c379a000000000000000000000000000000000000000000000000000000000815260040161095590615153565b336000908152600f602052604090206123c081600d612f31565b6002810154828110156124245760006123d98483613728565b60018401549091506123eb90826136e9565b6001840155600060028401556040805160608101909152602780825261241e91600d9161545560208301398591906132fb565b50612434565b61242e8184613728565b60028301555b6003546040517f40c10f1900000000000000000000000000000000000000000000000000000000815273ffffffffffffffffffffffffffffffffffffffff909116906340c10f199061248c90339087906004016147d3565b600060405180830381600087803b1580156124a657600080fd5b505af11580156124ba573d6000803e3d6000fd5b50506003546040517f1ac997e000000000000000000000000000000000000000000000000000000000815273ffffffffffffffffffffffffffffffffffffffff9091169250631ac997e091506125149030906004016147b2565b60206040518083038186803b15801561252c57600080fd5b505afa158015612540573d6000803e3d6000fd5b505050506040513d601f19601f8201168201806040525081019061256491906146ec565b6003546040517f38e21cce00000000000000000000000000000000000000000000000000000000815273ffffffffffffffffffffffffffffffffffffffff909116906338e21cce906125ba9030906004016147b2565b60206040518083038186803b1580156125d257600080fd5b505afa1580156125e6573d6000803e3d6000fd5b505050506040513d601f19601f8201168201806040525081019061260a91906146ec565b1115612642576040517f08c379a000000000000000000000000000000000000000000000000000000000815260040161095590614f60565b60035460405133917f85334969bebc6a94eec30db9687223c52b4a36180ca90c27e42efa05a9202c7491611dfb91879173ffffffffffffffffffffffffffffffffffffffff9091169061537f565b73ffffffffffffffffffffffffffffffffffffffff166000908152600f602052604090205490565b60045473ffffffffffffffffffffffffffffffffffffffff163314612709576040517f08c379a000000000000000000000000000000000000000000000000000000000815260040161095590614d6d565b60045460405173ffffffffffffffffffffffffffffffffffffffff909116904780156108fc02916000818181858888f1935050505015801561274f573d6000803e3d6000fd5b50565b600061275e601161376a565b905090565b73ffffffffffffffffffffffffffffffffffffffff81166000908152600f6020526040812061279381600d61376e565b9392505050565b6000806127a8601184612f04565b600101549392505050565b60045473ffffffffffffffffffffffffffffffffffffffff163314612804576040517f08c379a000000000000000000000000000000000000000000000000000000000815260040161095590614d6d565b73ffffffffffffffffffffffffffffffffffffffff8116612851576040517f08c379a00000000000000000000000000000000000000000000000000000000081526004016109559061492c565b600780547fffffffffffffffffffffffff00000000000000000000000000000000000000001673ffffffffffffffffffffffffffffffffffffffff83161790556040517fe42bb1780117f5788c6e0042e955291223819875891ddf465b8e4fbb85a933e990610a1b9083906147b2565b60095481565b60045473ffffffffffffffffffffffffffffffffffffffff163314612918576040517f08c379a000000000000000000000000000000000000000000000000000000000815260040161095590614d6d565b600c5460ff1615612955576040517f08c379a000000000000000000000000000000000000000000000000000000000815260040161095590614b43565b60075473ffffffffffffffffffffffffffffffffffffffff166129a4576040517f08c379a0000000000000000000000000000000000000000000000000000000008152600401610955906149e6565b60085473ffffffffffffffffffffffffffffffffffffffff166129f3576040517f08c379a000000000000000000000000000000000000000000000000000000000815260040161095590614a7a565b6129fc816137ad565b50600c80547fffffffffffffffffffffffffffffffffffffffffffffffffffffffffffffff00166001179055565b600c5460ff16612a66576040517f08c379a000000000000000000000000000000000000000000000000000000000815260040161095590615153565b60045473ffffffffffffffffffffffffffffffffffffffff163314612ab7576040517f08c379a000000000000000000000000000000000000000000000000000000000815260040161095590614d6d565b61274f816137ad565b600c54600090819060ff16612b01576040517f08c379a000000000000000000000000000000000000000000000000000000000815260040161095590615153565b3360009081526012602052604090205460ff16612b4a576040517f08c379a000000000000000000000000000000000000000000000000000000000815260040161095590614ad7565b6000612b57601185612f04565b9050600080612b6683306139fb565b90925090508115612c25576000612b94612710612b8e60095486612ea790919063ffffffff16565b90613a4e565b90506000612ba28483613728565b9050612bac61459b565b612bc1600a54612bbb84613a9a565b90613adc565b6040805160208101909152600e548152909150612bde9082613b10565b51600e558215612c1257600854600154612c129173ffffffffffffffffffffffffffffffffffffffff918216911685613b40565b8115612c2157612c2182613344565b5050505b7f11d2034f4471d11a13f0f1798ceaf0c9db2812d450a0681958ce7d4f2fb97f098282604051612c569291906153a3565b60405180910390a1909350915050915091565b60106020526000908152604090205460ff1681565b60045473ffffffffffffffffffffffffffffffffffffffff163314612ccf576040517f08c379a000000000000000000000000000000000000000000000000000000000815260040161095590614d6d565b73ffffffffffffffffffffffffffffffffffffffff8116612d1c576040517f08c379a00000000000000000000000000000000000000000000000000000000081526004016109559061530f565b600880547fffffffffffffffffffffffff00000000000000000000000000000000000000001673ffffffffffffffffffffffffffffffffffffffff83161790556040517f05f3326e0527f309d4015dee3bc3f36e650b53fc823bab69c99847814acfafdf90610a1b9083906147b2565b600b5481565b60055473ffffffffffffffffffffffffffffffffffffffff1681565b60065473ffffffffffffffffffffffffffffffffffffffff1681565b73ffffffffffffffffffffffffffffffffffffffff81166000908152600f6020526040812061279381600d613b64565b60015473ffffffffffffffffffffffffffffffffffffffff1681565b60008060026000541415612e56576040517f08c379a000000000000000000000000000000000000000000000000000000000815260040161095590615244565b6002600055600c5460ff16612e97576040517f08c379a000000000000000000000000000000000000000000000000000000000815260040161095590615153565b61122c8484613508565b600a5481565b600082612eb657506000612efe565b82820282848281612ec357fe5b0414612efb576040517f08c379a000000000000000000000000000000000000000000000000000000000815260040161095590614e38565b90505b92915050565b6000826000018281548110612f1557fe5b9060005260206000209060020201905092915050565b3b151590565b6000612f3d8383613bab565b90508260010154811115612f6b576001830180546000909155612f608282613728565b600285015550612f80565b6001830154612f7a9082613728565b60018401555b5060010154600490910155565b6001546040517f70a082310000000000000000000000000000000000000000000000000000000081526000918291829161304391879173ffffffffffffffffffffffffffffffffffffffff16906370a0823190612fee9030906004016147b2565b60206040518083038186803b15801561300657600080fd5b505afa15801561301a573d6000803e3d6000fd5b505050506040513d601f19601f8201168201806040525081019061303e91906146ec565b613c24565b905073ffffffffffffffffffffffffffffffffffffffff8616301461315d578315613139576002546040517f2e1a7d4d00000000000000000000000000000000000000000000000000000000815273ffffffffffffffffffffffffffffffffffffffff90911690632e1a7d4d906130be908490600401615376565b600060405180830381600087803b1580156130d857600080fd5b505af11580156130ec573d6000803e3d6000fd5b505060405173ffffffffffffffffffffffffffffffffffffffff8916925083156108fc02915083906000818181858888f19350505050158015613133573d6000803e3d6000fd5b5061315d565b60015461315d9073ffffffffffffffffffffffffffffffffffffffff168783613b40565b8080600061316b8883613728565b9050801561329757600061317f6011613c3a565b9050600080891561326a57613195833086613c65565b6002546040517f2e1a7d4d00000000000000000000000000000000000000000000000000000000815292945090925073ffffffffffffffffffffffffffffffffffffffff1690632e1a7d4d906131ef908590600401615376565b600060405180830381600087803b15801561320957600080fd5b505af115801561321d573d6000803e3d6000fd5b505060405173ffffffffffffffffffffffffffffffffffffffff8f16925084156108fc02915084906000818181858888f19350505050158015613264573d6000803e3d6000fd5b5061327b565b613275838d86613c65565b90925090505b61328586836136e9565b955061329185826136e9565b94505050505b600a546132a49083613728565b600a55509097909650945050505050565b600081848411156132f3576040517f08c379a000000000000000000000000000000000000000000000000000000000815260040161095591906148db565b505050900390565b6133058383613c9b565b819061333e576040517f08c379a000000000000000000000000000000000000000000000000000000000815260040161095591906148db565b50505050565b6001546007546040517f095ea7b300000000000000000000000000000000000000000000000000000000815273ffffffffffffffffffffffffffffffffffffffff9283169263095ea7b3926133a09291169085906004016147d3565b602060405180830381600087803b1580156133ba57600080fd5b505af11580156133ce573d6000803e3d6000fd5b505050506040513d601f19601f820116820180604052508101906133f2919061469c565b506007546040517ffb93210800000000000000000000000000000000000000000000000000000000815273ffffffffffffffffffffffffffffffffffffffff9091169063fb9321089061344b90309085906004016147d3565b600060405180830381600087803b15801561346557600080fd5b505af1158015613479573d6000803e3d6000fd5b50506003546040517f288aafcb00000000000000000000000000000000000000000000000000000000815273ffffffffffffffffffffffffffffffffffffffff909116925063288aafcb91506134d3908490600401615376565b600060405180830381600087803b1580156134ed57600080fd5b505af1158015613501573d6000803e3d6000fd5b5050505050565b600c546000908190610100900460ff168061353a575060045473ffffffffffffffffffffffffffffffffffffffff1633145b8061354e575061354a6011613cc9565b8414155b613584576040517f08c379a000000000000000000000000000000000000000000000000000000000815260040161095590615073565b6000613591601186612f04565b90506000806135a1833088613c65565b91509150867fccbd929f935422b28ee209a0db0556280b0a3d9bc4da58f1d3f0ab4f8a49964783836040516135d79291906153a3565b60405180910390a29093509150505b9250929050565b6000806135fa6011613c3a565b9050600061360782613d22565b90507f860f4701faa0ecdeecd9e9eaae11a8612bbd01c663081f7c0c4e4873df653d69816040516136389190615376565b60405180910390a191505090565b61333e846323b872dd60e01b858585604051602401613667939291906147f9565b604080517fffffffffffffffffffffffffffffffffffffffffffffffffffffffffffffffe08184030181529190526020810180517bffffffffffffffffffffffffffffffffffffffffffffffffffffffff167fffffffff0000000000000000000000000000000000000000000000000000000090931692909217909152613dc3565b600082820183811015612efb576040517f08c379a000000000000000000000000000000000000000000000000000000000815260040161095590614a43565b600082821115613764576040517f08c379a000000000000000000000000000000000000000000000000000000000815260040161095590614bb1565b50900390565b5490565b60008061377b8484613bab565b90508061378e5750506001820154612efe565b60018401548082106137a557600092505050612efe565b039392505050565b73ffffffffffffffffffffffffffffffffffffffff81166137fa576040517f08c379a0000000000000000000000000000000000000000000000000000000008152600401610955906152b2565b600154604080517ffc0c546a000000000000000000000000000000000000000000000000000000008152905173ffffffffffffffffffffffffffffffffffffffff9283169284169163fc0c546a916004808301926020929190829003018186803b15801561386757600080fd5b505afa15801561387b573d6000803e3d6000fd5b505050506040513d601f19601f8201168201806040525081019061389f91906146b8565b73ffffffffffffffffffffffffffffffffffffffff16146138ec576040517f08c379a00000000000000000000000000000000000000000000000000000000081526004016109559061527b565b73ffffffffffffffffffffffffffffffffffffffff811660009081526010602052604090205460ff161561394c576040517f08c379a000000000000000000000000000000000000000000000000000000000815260040161095590614da4565b73ffffffffffffffffffffffffffffffffffffffff8116600081815260106020908152604080832080547fffffffffffffffffffffffffffffffffffffffffffffffffffffffffffffff0016600117905580518082019091529283528201526139b790601190613e79565b60405173ffffffffffffffffffffffffffffffffffffffff8216907f0821015de34e20b0878a40f6f165801417f53b2017016d7321cacee989c8cfa790600090a250565b6000808360010154613a0c85613ee1565b11613a1c575060009050806135e6565b6000613a358560010154613a2f87613ee1565b90613728565b9050613a42858583613f83565b92509250509250929050565b6000808211613a89576040517f08c379a000000000000000000000000000000000000000000000000000000000815260040161095590614c45565b818381613a9257fe5b049392505050565b613aa261459b565b6000821580613abf575050670de0b6b3a764000082810290810483145b613ac857600080fd5b604080516020810190915290815292915050565b613ae461459b565b81613aee57600080fd5b604051806020016040528083856000015181613b0657fe5b0490529392505050565b613b1861459b565b82518251810190811015613b2b57600080fd5b60408051602081019091529081529392505050565b613b5f8363a9059cbb60e01b84846040516024016136679291906147d3565b505050565b600080613b718484613bab565b905080613b845750506002820154612efe565b6001840154808211613b9b57600092505050612efe565b6002850154910301905092915050565b6000613bb561459b565b50604080516020810190915260018301548152613bd061459b565b50604080516020810190915260048501548152613bed8282614196565b613bfc57600092505050612efe565b8454613c1b90613c1690613c1085856141e5565b90614200565b61422e565b95945050505050565b6000818310613c335781612efb565b5090919050565b600081613c4681613cc9565b81548110613c5057fe5b90600052602060002090600202019050919050565b6000808080613c75878787613f83565b60018901549193509150613c899082613728565b60018801559092509050935093915050565b600080613cc0613cab858561423d565b60408051602081019091528554815290614196565b13159392505050565b600080613cd58361376a565b905061279360016040518060400160405280601181526020017f5661756c742e4c6973743a20656d707479000000000000000000000000000000815250836132b59092919063ffffffff16565b600080613d2e83614281565b90506127938173ffffffffffffffffffffffffffffffffffffffff166370a08231306040518263ffffffff1660e01b8152600401613d6c91906147b2565b60206040518083038186803b158015613d8457600080fd5b505afa158015613d98573d6000803e3d6000fd5b505050506040513d601f19601f82011682018060405250810190613dbc91906146ec565b8490614323565b6060613e25826040518060400160405280602081526020017f5361666545524332303a206c6f772d6c6576656c2063616c6c206661696c65648152508573ffffffffffffffffffffffffffffffffffffffff166143fd9092919063ffffffff16565b805190915015613b5f5780806020019051810190613e43919061469c565b613b5f576040517f08c379a00000000000000000000000000000000000000000000000000000000081526004016109559061518a565b8154600180820184556000938452602093849020835160029093020180547fffffffffffffffffffffffff00000000000000000000000000000000000000001673ffffffffffffffffffffffffffffffffffffffff9093169290921782559190920151910155565b8054604080517fd4c3eea0000000000000000000000000000000000000000000000000000000008152905160009273ffffffffffffffffffffffffffffffffffffffff169163d4c3eea0916004808301926020929190829003018186803b158015613f4b57600080fd5b505afa158015613f5f573d6000803e3d6000fd5b505050506040513d601f19601f82011682018060405250810190612efe91906146ec565b6000806000613f9186614281565b905060008173ffffffffffffffffffffffffffffffffffffffff166370a08231876040518263ffffffff1660e01b8152600401613fce91906147b2565b60206040518083038186803b158015613fe657600080fd5b505afa158015613ffa573d6000803e3d6000fd5b505050506040513d601f19601f8201168201806040525081019061401e91906146ec565b9050600061402b88613ee1565b88546040517ff3fef3a300000000000000000000000000000000000000000000000000000000815291925073ffffffffffffffffffffffffffffffffffffffff169063f3fef3a390614083908a908a906004016147d3565b600060405180830381600087803b15801561409d57600080fd5b505af11580156140b1573d6000803e3d6000fd5b50506040517f70a082310000000000000000000000000000000000000000000000000000000081526000925073ffffffffffffffffffffffffffffffffffffffff861691506370a082319061410a908b906004016147b2565b60206040518083038186803b15801561412257600080fd5b505afa158015614136573d6000803e3d6000fd5b505050506040513d601f19601f8201168201806040525081019061415a91906146ec565b905060006141688285613728565b905060006141758b613ee1565b905060006141838583613728565b929c929b50919950505050505050505050565b8051825160009111156141ca57507fffffffffffffffffffffffffffffffffffffffffffffffffffffffffffffffff612efe565b8151835111156141dc57506001612efe565b50600092915050565b6141ed61459b565b82518251810390811115613b2b57600080fd5b61420861459b565b600082158061422557505082518281029083828161422257fe5b04145b613b2b57600080fd5b51670de0b6b3a7640000900490565b61424561459b565b6000614251848461376e565b9050806142685761426061440c565b915050612efe565b61427981612bbb8660000154613a9a565b949350505050565b8054604080517ffc0c546a000000000000000000000000000000000000000000000000000000008152905160009273ffffffffffffffffffffffffffffffffffffffff169163fc0c546a916004808301926020929190829003018186803b1580156142eb57600080fd5b505afa1580156142ff573d6000803e3d6000fd5b505050506040513d601f19601f82011682018060405250810190612efe91906146b8565b60008061432f84614281565b84549091506143589073ffffffffffffffffffffffffffffffffffffffff808416911685613b40565b83546040517fb6b55f2500000000000000000000000000000000000000000000000000000000815273ffffffffffffffffffffffffffffffffffffffff9091169063b6b55f25906143ad908690600401615376565b600060405180830381600087803b1580156143c757600080fd5b505af11580156143db573d6000803e3d6000fd5b50505060018501546143ee9150846136e9565b60018501555081905092915050565b60606142798484600085614446565b61441461459b565b5060408051602081019091527fffffffffffffffffffffffffffffffffffffffffffffffffffffffffffffffff815290565b606082471015614482576040517f08c379a000000000000000000000000000000000000000000000000000000000815260040161095590614be8565b61448b85612f2b565b6144c1576040517f08c379a000000000000000000000000000000000000000000000000000000000815260040161095590615005565b600060608673ffffffffffffffffffffffffffffffffffffffff1685876040516144eb9190614796565b60006040518083038185875af1925050503d8060008114614528576040519150601f19603f3d011682016040523d82523d6000602084013e61452d565b606091505b509150915061453d828286614548565b979650505050505050565b60608315614557575081612793565b8251156145675782518084602001fd5b816040517f08c379a000000000000000000000000000000000000000000000000000000000815260040161095591906148db565b6040518060200160405280600081525090565b60008083601f8401126145bf578182fd5b50813567ffffffffffffffff8111156145d6578182fd5b60208301915083602080830285010111156135e657600080fd5b8035612efe81615415565b60006020828403121561460c578081fd5b8135612efb816153f3565b6000806000806040858703121561462c578283fd5b843567ffffffffffffffff80821115614643578485fd5b61464f888389016145ae565b90965094506020870135915080821115614667578384fd5b50614674878288016145ae565b95989497509550505050565b600060208284031215614691578081fd5b8135612efb81615415565b6000602082840312156146ad578081fd5b8151612efb81615415565b6000602082840312156146c9578081fd5b8151612efb816153f3565b6000602082840312156146e5578081fd5b5035919050565b6000602082840312156146fd578081fd5b5051919050565b60008060408385031215614716578182fd5b82359150602083013561472881615415565b809150509250929050565b60008060408385031215614745578182fd5b50508035926020909101359150565b600080600060608486031215614768578283fd5b8335925060208401359150604084013561478181615415565b809150509250925092565b1515815260200190565b600082516147a88184602087016153c7565b9190910192915050565b73ffffffffffffffffffffffffffffffffffffffff91909116815260200190565b73ffffffffffffffffffffffffffffffffffffffff929092168252602082015260400190565b73ffffffffffffffffffffffffffffffffffffffff9384168152919092166020820152604081019190915260600190565b6040808252810184905260008560608301825b8781101561487a5760208335614852816153f3565b73ffffffffffffffffffffffffffffffffffffffff168352928301929091019060010161483d565b506020915083810382850152806148918683615376565b9050869150835b868110156148c3578383016148b6836148b183876145f0565b61478c565b9093509150600101614898565b5098975050505050505050565b901515815260200190565b60006020825282518060208401526148fa8160408501602087016153c7565b601f017fffffffffffffffffffffffffffffffffffffffffffffffffffffffffffffffe0169190910160400192915050565b6020808252602c908201527f416c6368656d6973743a207472616e736d75746572206164647265737320636160408201527f6e6e6f74206265203078302e0000000000000000000000000000000000000000606082015260800190565b6020808252602c908201527f416c6368656d6973743a20676f7665726e616e6365206164647265737320636160408201527f6e6e6f74206265203078302e0000000000000000000000000000000000000000606082015260800190565b60208082526036908201527f416c6368656d6973743a2063616e6e6f7420696e697469616c697a652074726160408201527f6e736d75746572206164647265737320746f2030783000000000000000000000606082015260800190565b6020808252601b908201527f536166654d6174683a206164646974696f6e206f766572666c6f770000000000604082015260600190565b60208082526033908201527f416c6368656d6973743a2063616e6e6f7420696e697469616c697a652072657760408201527f61726473206164647265737320746f2030783000000000000000000000000000606082015260800190565b60208082526018908201527f416c6368656d6973743a206f6e6c79206b6565706572732e0000000000000000604082015260600190565b6020808252818101527f536f72727920776520646f206e6f742061636365707420636f6e747261637421604082015260600190565b6020808252601e908201527f416c6368656d6973743a20616c726561647920696e697469616c697a65640000604082015260600190565b6020808252600e908201527f6d73672e76616c756520213d2030000000000000000000000000000000000000604082015260600190565b6020808252601e908201527f536166654d6174683a207375627472616374696f6e206f766572666c6f770000604082015260600190565b60208082526026908201527f416464726573733a20696e73756666696369656e742062616c616e636520666f60408201527f722063616c6c0000000000000000000000000000000000000000000000000000606082015260800190565b6020808252601a908201527f536166654d6174683a206469766973696f6e206279207a65726f000000000000604082015260600190565b60208082526031908201527f416c6368656d6973743a20636f6c6c61746572616c697a6174696f6e206c696d60408201527f69742062656c6f77206d696e696d756d2e000000000000000000000000000000606082015260800190565b60208082526031908201527f416c6368656d6973743a20636f6c6c61746572616c697a6174696f6e206c696d60408201527f69742061626f7665206d6178696d756d2e000000000000000000000000000000606082015260800190565b6020808252600d908201527f626c61636b686f6c652045544800000000000000000000000000000000000000604082015260600190565b6020808252601b908201527f416c6368656d6973743a206f6e6c7920676f7665726e616e63652e0000000000604082015260600190565b60208082526016908201527f4164617074657220616c726561647920696e2075736500000000000000000000604082015260600190565b60208082526022908201527f416c6368656d6973743a20636f6e76657273696f6e732061726520706175736560408201527f642e000000000000000000000000000000000000000000000000000000000000606082015260800190565b60208082526021908201527f536166654d6174683a206d756c7469706c69636174696f6e206f766572666c6f60408201527f7700000000000000000000000000000000000000000000000000000000000000606082015260800190565b60208082526025908201527f416c6368656d6973743a2068617276657374206665652061626f7665206d617860408201527f696d756d2e000000000000000000000000000000000000000000000000000000606082015260800190565b6020808252601f908201527f73656e646572206973206e6f742070656e64696e67476f7665726e616e636500604082015260600190565b60208082526018908201527f21676f7665726e616e6365202626202173656e74696e656c0000000000000000604082015260600190565b60208082526028908201527f416c4554483a20416c6368656d6973742773206365696c696e6720776173206260408201527f726561636865642e000000000000000000000000000000000000000000000000606082015260800190565b602080825260009082015260400190565b60208082526017908201527f656d657267656e637920706175736520656e61626c6564000000000000000000604082015260600190565b6020808252601d908201527f416464726573733a2063616c6c20746f206e6f6e2d636f6e7472616374000000604082015260600190565b60208082526014908201527f5f616d6f756e7420213d206d73672e76616c7565000000000000000000000000604082015260600190565b60208082526070908201527f416c6368656d6973743a206e6f7420616e20656d657267656e63792c206e6f7460408201527f20676f7665726e616e63652c20616e64207573657220646f6573206e6f74206860608201527f617665207065726d697373696f6e20746f20726563616c6c2066756e6473206660808201527f726f6d20616374697665207661756c740000000000000000000000000000000060a082015260c00190565b6020808252601e908201527f5f636f6c6c61746572616c416d6f756e7420213d206d73672e76616c75650000604082015260600190565b6020808252601b908201527f416c6368656d6973743a206e6f7420696e697469616c697a65642e0000000000604082015260600190565b6020808252602a908201527f5361666545524332303a204552433230206f7065726174696f6e20646964206e60408201527f6f74207375636365656400000000000000000000000000000000000000000000606082015260800190565b6020808252602a908201527f416c6368656d6973743a2073656e74696e656c20616464726573732063616e6e60408201527f6f74206265203078302e00000000000000000000000000000000000000000000606082015260800190565b6020808252601f908201527f5265656e7472616e637947756172643a207265656e7472616e742063616c6c00604082015260600190565b6020808252601a908201527f416c6368656d6973743a20746f6b656e206d69736d617463682e000000000000604082015260600190565b6020808252602e908201527f416c6368656d6973743a20616374697665207661756c7420616464726573732060408201527f63616e6e6f74206265203078302e000000000000000000000000000000000000606082015260800190565b60208082526029908201527f416c6368656d6973743a207265776172647320616464726573732063616e6e6f60408201527f74206265203078302e0000000000000000000000000000000000000000000000606082015260800190565b9051815260200190565b90815260200190565b91825273ffffffffffffffffffffffffffffffffffffffff16602082015260400190565b918252602082015260400190565b9283526020830191909152604082015260600190565b60005b838110156153e25781810151838201526020016153ca565b8381111561333e5750506000910152565b73ffffffffffffffffffffffffffffffffffffffff8116811461274f57600080fd5b801515811461274f57600080fdfe416374696f6e20626c6f636b65643a20756e6865616c74687920636f6c6c61746572616c697a6174696f6e20726174696f416c6368656d6973743a204c6f616e2d746f2d76616c756520726174696f206272656163686564a2646970667358221220ac606f4f47d6a62065e11f2374342d0890a2149715b9b0dc8a108852fdc6cb1764736f6c634300060c0033",
  "devdoc": {
    "kind": "dev",
    "methods": {
      "acceptGovernance()": {
        "details": "Accepts the role as governance. This function reverts if the caller is not the new pending governance."
      },
      "collateralizationLimit()": {
        "details": "Gets the collateralization limit. The collateralization limit is the minimum ratio of collateral to debt that is allowed by the system.",
        "returns": {
          "_0": "the collateralization limit."
        }
      },
      "convert(uint256,bool)": {
        "details": "Converts ETH/WETH to alETH",
        "params": {
          "_amount": "the amount of collateral to convert."
        }
      },
      "deposit(uint256,bool)": {
        "details": "Deposits collateral into a CDP.",
        "params": {
          "_amount": "the amount of collateral to deposit."
        }
      },
      "flush()": {
        "details": "Flushes buffered tokens to the active vault. This function reverts if an emergency exit is active. This is in place to prevent the potential loss of additional funds.",
        "returns": {
          "_0": "the amount of tokens flushed to the active vault."
        }
      },
      "getCdpLastDeposit(address)": {
        "details": "Gets the last recorded block of when a user made a deposit into their CDP.",
        "params": {
          "_account": "the user account of the CDP to query."
        },
        "returns": {
          "_0": "the block number of the last deposit."
        }
      },
      "getCdpTotalCredit(address)": {
        "details": "Get the total amount of credit that a CDP has.",
        "params": {
          "_account": "the user account of the CDP to query."
        },
        "returns": {
          "_0": "the amount of credit."
        }
      },
      "getCdpTotalDebt(address)": {
        "details": "Get the total amount of alchemic tokens borrowed from a CDP.",
        "params": {
          "_account": "the user account of the CDP to query."
        },
        "returns": {
          "_0": "the borrowed amount of tokens."
        }
      },
      "getCdpTotalDeposited(address)": {
        "details": "Get the total amount of collateral deposited into a CDP.",
        "params": {
          "_account": "the user account of the CDP to query."
        },
        "returns": {
          "_0": "the deposited amount of tokens."
        }
      },
      "getVaultAdapter(uint256)": {
        "details": "Get the adapter of a vault.",
        "params": {
          "_vaultId": "the identifier of the vault."
        },
        "returns": {
          "_0": "the vault adapter."
        }
      },
      "getVaultTotalDeposited(uint256)": {
        "details": "Get the total amount of the parent asset that has been deposited into a vault.",
        "params": {
          "_vaultId": "the identifier of the vault."
        },
        "returns": {
          "_0": "the total amount of deposited tokens."
        }
      },
      "harvest(uint256)": {
        "details": "Harvests yield from a vault.",
        "params": {
          "_vaultId": "the identifier of the vault to harvest from."
        },
        "returns": {
          "_0": "the amount of funds that were harvested from the vault."
        }
      },
      "initialize(address)": {
        "details": "Initializes the contract. This function checks that the transmuter and rewards have been set and sets up the active vault.",
        "params": {
          "_adapter": "the vault adapter of the active vault."
        }
      },
      "liquidate(uint256)": {
        "details": "Attempts to liquidate part of a CDP's collateral to pay back its debt.",
        "params": {
          "_amount": "the amount of collateral to attempt to liquidate."
        }
      },
      "migrate(address)": {
        "details": "Migrates the system to a new vault. This function reverts if the vault adapter is the zero address, if the token that the vault adapter accepts is not the token that this contract defines as the parent asset, or if the contract has not yet been initialized.",
        "params": {
          "_adapter": "the adapter for the vault the system will migrate to."
        }
      },
      "mint(uint256)": {
        "details": "Mints synthetic tokens by either claiming credit or increasing the debt. Claiming credit will take priority over increasing the debt. This function reverts if the debt is increased and the CDP health check fails.",
        "params": {
          "_amount": "the amount of alchemic tokens to borrow."
        }
      },
      "recall(uint256,uint256)": {
        "details": "Recalls an amount of deposited funds from a vault to this contract.",
        "params": {
          "_vaultId": "the identifier of the recall funds from."
        },
        "returns": {
          "_0": "the amount of funds that were recalled from the vault to this contract and the decreased vault value."
        }
      },
      "recallAll(uint256)": {
        "details": "Recalls all the deposited funds from a vault to this contract.",
        "params": {
          "_vaultId": "the identifier of the recall funds from."
        },
        "returns": {
          "_0": "the amount of funds that were recalled from the vault to this contract and the decreased vault value."
        }
      },
      "recoverLostFunds()": {
        "details": "Recover eth sent directly to the Alchemist only callable by governance"
      },
      "repay(uint256,uint256,bool)": {
        "details": "Repays debt with the native and or synthetic token. An approval is required to transfer native tokens to the transmuter."
      },
      "setCollateralizationLimit(uint256)": {
        "details": "Sets the collateralization limit. This function reverts if the caller is not the current governance or if the collateralization limit is outside of the accepted bounds.",
        "params": {
          "_limit": "the new collateralization limit."
        }
      },
      "setEmergencyExit(bool)": {
        "details": "Sets if the contract should enter emergency exit mode.",
        "params": {
          "_emergencyExit": "if the contract should enter emergency exit mode."
        }
      },
      "setFlushActivator(uint256)": {
        "details": "Sets the flushActivator.",
        "params": {
          "_flushActivator": "the new flushActivator."
        }
      },
      "setHarvestFee(uint256)": {
        "details": "Sets the harvest fee. This function reverts if the caller is not the current governance.",
        "params": {
          "_harvestFee": "the new harvest fee."
        }
      },
      "setKeepers(address[],bool[])": {
        "details": "Sets the addresses of the keepers list.",
        "params": {
          "accounts": "the accounts to set.",
          "flags": "the flags for the accounts."
        }
      },
      "setPauseConvert(bool)": {
        "details": "Sets if the contract should pause conversions.",
        "params": {
          "_pauseConvert": "if the contract should pause conversions."
        }
      },
      "setPendingGovernance(address)": {
        "details": "Sets the pending governance. This function reverts if the new pending governance is the zero address or the caller is not the current governance. This is to prevent the contract governance being set to the zero address which would deadlock privileged contract functionality.",
        "params": {
          "_pendingGovernance": "the new pending governance."
        }
      },
      "setRewards(address)": {
        "details": "Sets the rewards contract. This function reverts if the new rewards contract is the zero address or the caller is not the current governance.",
        "params": {
          "_rewards": "the new rewards contract."
        }
      },
      "setTransmuter(address)": {
        "details": "Sets the transmuter. This function reverts if the new transmuter is the zero address or the caller is not the current governance.",
        "params": {
          "_transmuter": "the new transmuter."
        }
      },
      "vaultCount()": {
        "details": "Gets the number of vaults in the vault list.",
        "returns": {
          "_0": "the vault count."
        }
      },
      "withdraw(uint256,bool)": {
        "details": "Attempts to withdraw part of a CDP's collateral. This function reverts if a deposit into the CDP was made in the same block. This is to prevent flash loan attacks on other internal or external systems.",
        "params": {
          "_amount": "the amount of collateral to withdraw."
        }
      }
    },
    "stateVariables": {
      "MAXIMUM_COLLATERALIZATION_LIMIT": {
        "details": "The maximum value that the collateralization limit can be set to by the governance. This is a safety rail to prevent the collateralization from being set to a value which breaks the system. This value is equal to 400%. IMPORTANT: This constant is a raw FixedPointMath.FixedDecimal value and assumes a resolution of 64 bits. If the            resolution for the FixedPointMath library changes this constant must change as well."
      },
      "MINIMUM_COLLATERALIZATION_LIMIT": {
        "details": "The minimum value that the collateralization limit can be set to by the governance. This is a safety rail to prevent the collateralization from being set to a value which breaks the system. This value is equal to 100%. IMPORTANT: This constant is a raw FixedPointMath.FixedDecimal value and assumes a resolution of 64 bits. If the            resolution for the FixedPointMath library changes this constant must change as well."
      },
      "PERCENT_RESOLUTION": {
        "details": "Resolution for all fixed point numeric parameters which represent percents. The resolution allows for a granularity of 0.01% increments."
      },
      "_cdps": {
        "details": "A mapping of all of the user CDPs. If a user wishes to have multiple CDPs they will have to either create a new address or set up a proxy contract that interfaces with this contract."
      },
      "_ctx": {
        "details": "The context shared between the CDPs."
      },
      "_vaults": {
        "details": "A list of all of the vaults. The last element of the list is the vault that is currently being used for deposits and withdraws. Vaults before the last element are considered inactive and are expected to be cleared."
      },
      "adapters": {
        "details": "A mapping of adapter addresses to keep track of vault adapters that have already been added"
      },
      "emergencyExit": {
        "details": "A flag indicating if deposits and flushes should be halted and if all parties should be able to recall from the active vault."
      },
      "flushActivator": {
        "details": "when movemetns are bigger than this number flush is activated."
      },
      "governance": {
        "details": "The address of the account which currently has administrative capabilities over this contract."
      },
      "harvestFee": {
        "details": "The percent of each profitable harvest that will go to the rewards contract."
      },
      "initialized": {
        "details": "A flag indicating if the contract has been initialized yet."
      },
      "keepers": {
        "details": "A list of addresses that can call flush and harvest"
      },
      "pendingGovernance": {
        "details": "The address of the pending governance."
      },
      "rewards": {
        "details": "The address of the contract which will receive fees."
      },
      "sentinel": {
        "details": "The address of the account which can initiate an emergency withdraw of funds in a vault."
      },
      "token": {
        "details": "The token that this contract is using as the parent asset."
      },
      "totalDeposited": {
        "details": "The total amount the native token deposited into the system that is owned by external users."
      },
      "transmuter": {
        "details": "The address of the contract which will transmute synthetic tokens back into native tokens."
      },
      "weth": {
        "details": "The address off the WETH contract."
      },
      "xtoken": {
        "details": "The token that this contract is using as the child asset."
      }
    },
    "version": 1
  },
  "userdoc": {
    "kind": "user",
    "methods": {},
    "version": 1
  },
  "storageLayout": {
    "storage": [
      {
        "astId": 2439,
        "contract": "contracts/AlchemistEth.sol:AlchemistEth",
        "label": "_status",
        "offset": 0,
        "slot": "0",
        "type": "t_uint256"
      },
      {
        "astId": 5046,
        "contract": "contracts/AlchemistEth.sol:AlchemistEth",
        "label": "token",
        "offset": 0,
        "slot": "1",
        "type": "t_contract(IMintableERC20)15610"
      },
      {
        "astId": 5049,
        "contract": "contracts/AlchemistEth.sol:AlchemistEth",
        "label": "weth",
        "offset": 0,
        "slot": "2",
        "type": "t_address"
      },
      {
        "astId": 5052,
        "contract": "contracts/AlchemistEth.sol:AlchemistEth",
        "label": "xtoken",
        "offset": 0,
        "slot": "3",
        "type": "t_contract(AlEth)2789"
      },
      {
        "astId": 5055,
        "contract": "contracts/AlchemistEth.sol:AlchemistEth",
        "label": "governance",
        "offset": 0,
        "slot": "4",
        "type": "t_address"
      },
      {
        "astId": 5058,
        "contract": "contracts/AlchemistEth.sol:AlchemistEth",
        "label": "pendingGovernance",
        "offset": 0,
        "slot": "5",
        "type": "t_address"
      },
      {
        "astId": 5061,
        "contract": "contracts/AlchemistEth.sol:AlchemistEth",
        "label": "sentinel",
        "offset": 0,
        "slot": "6",
        "type": "t_address"
      },
      {
        "astId": 5064,
        "contract": "contracts/AlchemistEth.sol:AlchemistEth",
        "label": "transmuter",
        "offset": 0,
        "slot": "7",
        "type": "t_address"
      },
      {
        "astId": 5067,
        "contract": "contracts/AlchemistEth.sol:AlchemistEth",
        "label": "rewards",
        "offset": 0,
        "slot": "8",
        "type": "t_address"
      },
      {
        "astId": 5070,
        "contract": "contracts/AlchemistEth.sol:AlchemistEth",
        "label": "harvestFee",
        "offset": 0,
        "slot": "9",
        "type": "t_uint256"
      },
      {
        "astId": 5073,
        "contract": "contracts/AlchemistEth.sol:AlchemistEth",
        "label": "totalDeposited",
        "offset": 0,
        "slot": "10",
        "type": "t_uint256"
      },
      {
        "astId": 5076,
        "contract": "contracts/AlchemistEth.sol:AlchemistEth",
        "label": "flushActivator",
        "offset": 0,
        "slot": "11",
        "type": "t_uint256"
      },
      {
        "astId": 5079,
        "contract": "contracts/AlchemistEth.sol:AlchemistEth",
        "label": "initialized",
        "offset": 0,
        "slot": "12",
        "type": "t_bool"
      },
      {
        "astId": 5082,
        "contract": "contracts/AlchemistEth.sol:AlchemistEth",
        "label": "emergencyExit",
        "offset": 1,
        "slot": "12",
        "type": "t_bool"
      },
      {
        "astId": 5084,
        "contract": "contracts/AlchemistEth.sol:AlchemistEth",
        "label": "pauseConvert",
        "offset": 2,
        "slot": "12",
        "type": "t_bool"
      },
      {
        "astId": 5087,
        "contract": "contracts/AlchemistEth.sol:AlchemistEth",
        "label": "_ctx",
        "offset": 0,
        "slot": "13",
        "type": "t_struct(Context)16645_storage"
      },
      {
        "astId": 5092,
        "contract": "contracts/AlchemistEth.sol:AlchemistEth",
        "label": "_cdps",
        "offset": 0,
        "slot": "15",
        "type": "t_mapping(t_address,t_struct(Data)16656_storage)"
      },
      {
        "astId": 5097,
        "contract": "contracts/AlchemistEth.sol:AlchemistEth",
        "label": "adapters",
        "offset": 0,
        "slot": "16",
        "type": "t_mapping(t_address,t_bool)"
      },
      {
        "astId": 5100,
        "contract": "contracts/AlchemistEth.sol:AlchemistEth",
        "label": "_vaults",
        "offset": 0,
        "slot": "17",
        "type": "t_struct(List)16960_storage"
      },
      {
        "astId": 5105,
        "contract": "contracts/AlchemistEth.sol:AlchemistEth",
        "label": "keepers",
        "offset": 0,
        "slot": "18",
        "type": "t_mapping(t_address,t_bool)"
      }
    ],
    "types": {
      "t_address": {
        "encoding": "inplace",
        "label": "address",
        "numberOfBytes": "20"
      },
      "t_array(t_struct(Data)16956_storage)dyn_storage": {
        "base": "t_struct(Data)16956_storage",
        "encoding": "dynamic_array",
        "label": "struct Vault.Data[]",
        "numberOfBytes": "32"
      },
      "t_bool": {
        "encoding": "inplace",
        "label": "bool",
        "numberOfBytes": "1"
      },
      "t_contract(AlEth)2789": {
        "encoding": "inplace",
        "label": "contract AlEth",
        "numberOfBytes": "20"
      },
      "t_contract(IMintableERC20)15610": {
        "encoding": "inplace",
        "label": "contract IMintableERC20",
        "numberOfBytes": "20"
      },
      "t_contract(IVaultAdapter)15674": {
        "encoding": "inplace",
        "label": "contract IVaultAdapter",
        "numberOfBytes": "20"
      },
      "t_mapping(t_address,t_bool)": {
        "encoding": "mapping",
        "key": "t_address",
        "label": "mapping(address => bool)",
        "numberOfBytes": "32",
        "value": "t_bool"
      },
      "t_mapping(t_address,t_struct(Data)16656_storage)": {
        "encoding": "mapping",
        "key": "t_address",
        "label": "mapping(address => struct CDP.Data)",
        "numberOfBytes": "32",
        "value": "t_struct(Data)16656_storage"
      },
      "t_struct(Context)16645_storage": {
        "encoding": "inplace",
        "label": "struct CDP.Context",
        "members": [
          {
            "astId": 16642,
            "contract": "contracts/AlchemistEth.sol:AlchemistEth",
            "label": "collateralizationLimit",
            "offset": 0,
            "slot": "0",
            "type": "t_struct(FixedDecimal)16119_storage"
          },
          {
            "astId": 16644,
            "contract": "contracts/AlchemistEth.sol:AlchemistEth",
            "label": "accumulatedYieldWeight",
            "offset": 0,
            "slot": "1",
            "type": "t_struct(FixedDecimal)16119_storage"
          }
        ],
        "numberOfBytes": "64"
      },
      "t_struct(Data)16656_storage": {
        "encoding": "inplace",
        "label": "struct CDP.Data",
        "members": [
          {
            "astId": 16647,
            "contract": "contracts/AlchemistEth.sol:AlchemistEth",
            "label": "totalDeposited",
            "offset": 0,
            "slot": "0",
            "type": "t_uint256"
          },
          {
            "astId": 16649,
            "contract": "contracts/AlchemistEth.sol:AlchemistEth",
            "label": "totalDebt",
            "offset": 0,
            "slot": "1",
            "type": "t_uint256"
          },
          {
            "astId": 16651,
            "contract": "contracts/AlchemistEth.sol:AlchemistEth",
            "label": "totalCredit",
            "offset": 0,
            "slot": "2",
            "type": "t_uint256"
          },
          {
            "astId": 16653,
            "contract": "contracts/AlchemistEth.sol:AlchemistEth",
            "label": "lastDeposit",
            "offset": 0,
            "slot": "3",
            "type": "t_uint256"
          },
          {
            "astId": 16655,
            "contract": "contracts/AlchemistEth.sol:AlchemistEth",
            "label": "lastAccumulatedYieldWeight",
            "offset": 0,
            "slot": "4",
            "type": "t_struct(FixedDecimal)16119_storage"
          }
        ],
        "numberOfBytes": "160"
      },
      "t_struct(Data)16956_storage": {
        "encoding": "inplace",
        "label": "struct Vault.Data",
        "members": [
          {
            "astId": 16953,
            "contract": "contracts/AlchemistEth.sol:AlchemistEth",
            "label": "adapter",
            "offset": 0,
            "slot": "0",
            "type": "t_contract(IVaultAdapter)15674"
          },
          {
            "astId": 16955,
            "contract": "contracts/AlchemistEth.sol:AlchemistEth",
            "label": "totalDeposited",
            "offset": 0,
            "slot": "1",
            "type": "t_uint256"
          }
        ],
        "numberOfBytes": "64"
      },
      "t_struct(FixedDecimal)16119_storage": {
        "encoding": "inplace",
        "label": "struct FixedPointMath.FixedDecimal",
        "members": [
          {
            "astId": 16118,
            "contract": "contracts/AlchemistEth.sol:AlchemistEth",
            "label": "x",
            "offset": 0,
            "slot": "0",
            "type": "t_uint256"
          }
        ],
        "numberOfBytes": "32"
      },
      "t_struct(List)16960_storage": {
        "encoding": "inplace",
        "label": "struct Vault.List",
        "members": [
          {
            "astId": 16959,
            "contract": "contracts/AlchemistEth.sol:AlchemistEth",
            "label": "elements",
            "offset": 0,
            "slot": "0",
            "type": "t_array(t_struct(Data)16956_storage)dyn_storage"
          }
        ],
        "numberOfBytes": "32"
      },
      "t_uint256": {
        "encoding": "inplace",
        "label": "uint256",
        "numberOfBytes": "32"
      }
    }
  }
}