{
  "address": "0x0100546F2cD4C9D97f798fFC9755E47865FF7Ee6",
  "abi": [
    {
      "inputs": [],
      "stateMutability": "nonpayable",
      "type": "constructor"
    },
    {
      "anonymous": false,
      "inputs": [
        {
          "indexed": false,
          "internalType": "address",
          "name": "alchemistAddress",
          "type": "address"
        },
        {
          "indexed": false,
          "internalType": "bool",
          "name": "isPaused",
          "type": "bool"
        }
      ],
      "name": "AlchemistPaused",
      "type": "event"
    },
    {
      "anonymous": false,
      "inputs": [
        {
          "indexed": true,
          "internalType": "address",
          "name": "owner",
          "type": "address"
        },
        {
          "indexed": true,
          "internalType": "address",
          "name": "spender",
          "type": "address"
        },
        {
          "indexed": false,
          "internalType": "uint256",
          "name": "value",
          "type": "uint256"
        }
      ],
      "name": "Approval",
      "type": "event"
    },
    {
      "anonymous": false,
      "inputs": [
        {
          "indexed": true,
          "internalType": "bytes32",
          "name": "role",
          "type": "bytes32"
        },
        {
          "indexed": true,
          "internalType": "bytes32",
          "name": "previousAdminRole",
          "type": "bytes32"
        },
        {
          "indexed": true,
          "internalType": "bytes32",
          "name": "newAdminRole",
          "type": "bytes32"
        }
      ],
      "name": "RoleAdminChanged",
      "type": "event"
    },
    {
      "anonymous": false,
      "inputs": [
        {
          "indexed": true,
          "internalType": "bytes32",
          "name": "role",
          "type": "bytes32"
        },
        {
          "indexed": true,
          "internalType": "address",
          "name": "account",
          "type": "address"
        },
        {
          "indexed": true,
          "internalType": "address",
          "name": "sender",
          "type": "address"
        }
      ],
      "name": "RoleGranted",
      "type": "event"
    },
    {
      "anonymous": false,
      "inputs": [
        {
          "indexed": true,
          "internalType": "bytes32",
          "name": "role",
          "type": "bytes32"
        },
        {
          "indexed": true,
          "internalType": "address",
          "name": "account",
          "type": "address"
        },
        {
          "indexed": true,
          "internalType": "address",
          "name": "sender",
          "type": "address"
        }
      ],
      "name": "RoleRevoked",
      "type": "event"
    },
    {
      "anonymous": false,
      "inputs": [
        {
          "indexed": true,
          "internalType": "address",
          "name": "from",
          "type": "address"
        },
        {
          "indexed": true,
          "internalType": "address",
          "name": "to",
          "type": "address"
        },
        {
          "indexed": false,
          "internalType": "uint256",
          "name": "value",
          "type": "uint256"
        }
      ],
      "name": "Transfer",
      "type": "event"
    },
    {
      "inputs": [],
      "name": "ADMIN_ROLE",
      "outputs": [
        {
          "internalType": "bytes32",
          "name": "",
          "type": "bytes32"
        }
      ],
      "stateMutability": "view",
      "type": "function"
    },
    {
      "inputs": [],
      "name": "DEFAULT_ADMIN_ROLE",
      "outputs": [
        {
          "internalType": "bytes32",
          "name": "",
          "type": "bytes32"
        }
      ],
      "stateMutability": "view",
      "type": "function"
    },
    {
      "inputs": [],
      "name": "SENTINEL_ROLE",
      "outputs": [
        {
          "internalType": "bytes32",
          "name": "",
          "type": "bytes32"
        }
      ],
      "stateMutability": "view",
      "type": "function"
    },
    {
      "inputs": [
        {
          "internalType": "address",
          "name": "owner",
          "type": "address"
        },
        {
          "internalType": "address",
          "name": "spender",
          "type": "address"
        }
      ],
      "name": "allowance",
      "outputs": [
        {
          "internalType": "uint256",
          "name": "",
          "type": "uint256"
        }
      ],
      "stateMutability": "view",
      "type": "function"
    },
    {
      "inputs": [
        {
          "internalType": "address",
          "name": "spender",
          "type": "address"
        },
        {
          "internalType": "uint256",
          "name": "amount",
          "type": "uint256"
        }
      ],
      "name": "approve",
      "outputs": [
        {
          "internalType": "bool",
          "name": "",
          "type": "bool"
        }
      ],
      "stateMutability": "nonpayable",
      "type": "function"
    },
    {
      "inputs": [
        {
          "internalType": "address",
          "name": "account",
          "type": "address"
        }
      ],
      "name": "balanceOf",
      "outputs": [
        {
          "internalType": "uint256",
          "name": "",
          "type": "uint256"
        }
      ],
      "stateMutability": "view",
      "type": "function"
    },
    {
      "inputs": [
        {
          "internalType": "uint256",
          "name": "amount",
          "type": "uint256"
        }
      ],
      "name": "burn",
      "outputs": [],
      "stateMutability": "nonpayable",
      "type": "function"
    },
    {
      "inputs": [
        {
          "internalType": "address",
          "name": "account",
          "type": "address"
        },
        {
          "internalType": "uint256",
          "name": "amount",
          "type": "uint256"
        }
      ],
      "name": "burnFrom",
      "outputs": [],
      "stateMutability": "nonpayable",
      "type": "function"
    },
    {
      "inputs": [
        {
          "internalType": "address",
          "name": "",
          "type": "address"
        }
      ],
      "name": "ceiling",
      "outputs": [
        {
          "internalType": "uint256",
          "name": "",
          "type": "uint256"
        }
      ],
      "stateMutability": "view",
      "type": "function"
    },
    {
      "inputs": [],
      "name": "decimals",
      "outputs": [
        {
          "internalType": "uint8",
          "name": "",
          "type": "uint8"
        }
      ],
      "stateMutability": "view",
      "type": "function"
    },
    {
      "inputs": [
        {
          "internalType": "address",
          "name": "spender",
          "type": "address"
        },
        {
          "internalType": "uint256",
          "name": "subtractedValue",
          "type": "uint256"
        }
      ],
      "name": "decreaseAllowance",
      "outputs": [
        {
          "internalType": "bool",
          "name": "",
          "type": "bool"
        }
      ],
      "stateMutability": "nonpayable",
      "type": "function"
    },
    {
      "inputs": [
        {
          "internalType": "bytes32",
          "name": "role",
          "type": "bytes32"
        }
      ],
      "name": "getRoleAdmin",
      "outputs": [
        {
          "internalType": "bytes32",
          "name": "",
          "type": "bytes32"
        }
      ],
      "stateMutability": "view",
      "type": "function"
    },
    {
      "inputs": [
        {
          "internalType": "bytes32",
          "name": "role",
          "type": "bytes32"
        },
        {
          "internalType": "uint256",
          "name": "index",
          "type": "uint256"
        }
      ],
      "name": "getRoleMember",
      "outputs": [
        {
          "internalType": "address",
          "name": "",
          "type": "address"
        }
      ],
      "stateMutability": "view",
      "type": "function"
    },
    {
      "inputs": [
        {
          "internalType": "bytes32",
          "name": "role",
          "type": "bytes32"
        }
      ],
      "name": "getRoleMemberCount",
      "outputs": [
        {
          "internalType": "uint256",
          "name": "",
          "type": "uint256"
        }
      ],
      "stateMutability": "view",
      "type": "function"
    },
    {
      "inputs": [
        {
          "internalType": "bytes32",
          "name": "role",
          "type": "bytes32"
        },
        {
          "internalType": "address",
          "name": "account",
          "type": "address"
        }
      ],
      "name": "grantRole",
      "outputs": [],
      "stateMutability": "nonpayable",
      "type": "function"
    },
    {
      "inputs": [
        {
          "internalType": "address",
          "name": "",
          "type": "address"
        }
      ],
      "name": "hasMinted",
      "outputs": [
        {
          "internalType": "uint256",
          "name": "",
          "type": "uint256"
        }
      ],
      "stateMutability": "view",
      "type": "function"
    },
    {
      "inputs": [
        {
          "internalType": "bytes32",
          "name": "role",
          "type": "bytes32"
        },
        {
          "internalType": "address",
          "name": "account",
          "type": "address"
        }
      ],
      "name": "hasRole",
      "outputs": [
        {
          "internalType": "bool",
          "name": "",
          "type": "bool"
        }
      ],
      "stateMutability": "view",
      "type": "function"
    },
    {
      "inputs": [
        {
          "internalType": "address",
          "name": "spender",
          "type": "address"
        },
        {
          "internalType": "uint256",
          "name": "addedValue",
          "type": "uint256"
        }
      ],
      "name": "increaseAllowance",
      "outputs": [
        {
          "internalType": "bool",
          "name": "",
          "type": "bool"
        }
      ],
      "stateMutability": "nonpayable",
      "type": "function"
    },
    {
      "inputs": [
        {
          "internalType": "uint256",
          "name": "amount",
          "type": "uint256"
        }
      ],
      "name": "lowerHasMinted",
      "outputs": [],
      "stateMutability": "nonpayable",
      "type": "function"
    },
    {
      "inputs": [
        {
          "internalType": "address",
          "name": "_recipient",
          "type": "address"
        },
        {
          "internalType": "uint256",
          "name": "_amount",
          "type": "uint256"
        }
      ],
      "name": "mint",
      "outputs": [],
      "stateMutability": "nonpayable",
      "type": "function"
    },
    {
      "inputs": [],
      "name": "name",
      "outputs": [
        {
          "internalType": "string",
          "name": "",
          "type": "string"
        }
      ],
      "stateMutability": "view",
      "type": "function"
    },
    {
      "inputs": [
        {
          "internalType": "address",
          "name": "_toPause",
          "type": "address"
        },
        {
          "internalType": "bool",
          "name": "_state",
          "type": "bool"
        }
      ],
      "name": "pauseAlchemist",
      "outputs": [],
      "stateMutability": "nonpayable",
      "type": "function"
    },
    {
      "inputs": [
        {
          "internalType": "address",
          "name": "",
          "type": "address"
        }
      ],
      "name": "paused",
      "outputs": [
        {
          "internalType": "bool",
          "name": "",
          "type": "bool"
        }
      ],
      "stateMutability": "view",
      "type": "function"
    },
    {
      "inputs": [
        {
          "internalType": "bytes32",
          "name": "role",
          "type": "bytes32"
        },
        {
          "internalType": "address",
          "name": "account",
          "type": "address"
        }
      ],
      "name": "renounceRole",
      "outputs": [],
      "stateMutability": "nonpayable",
      "type": "function"
    },
    {
      "inputs": [
        {
          "internalType": "bytes32",
          "name": "role",
          "type": "bytes32"
        },
        {
          "internalType": "address",
          "name": "account",
          "type": "address"
        }
      ],
      "name": "revokeRole",
      "outputs": [],
      "stateMutability": "nonpayable",
      "type": "function"
    },
    {
      "inputs": [
        {
          "internalType": "address",
          "name": "_toSetCeiling",
          "type": "address"
        },
        {
          "internalType": "uint256",
          "name": "_ceiling",
          "type": "uint256"
        }
      ],
      "name": "setCeiling",
      "outputs": [],
      "stateMutability": "nonpayable",
      "type": "function"
    },
    {
      "inputs": [
        {
          "internalType": "address",
          "name": "_newSentinel",
          "type": "address"
        }
      ],
      "name": "setSentinel",
      "outputs": [],
      "stateMutability": "nonpayable",
      "type": "function"
    },
    {
      "inputs": [
        {
          "internalType": "address",
          "name": "_toWhitelist",
          "type": "address"
        },
        {
          "internalType": "bool",
          "name": "_state",
          "type": "bool"
        }
      ],
      "name": "setWhitelist",
      "outputs": [],
      "stateMutability": "nonpayable",
      "type": "function"
    },
    {
      "inputs": [],
      "name": "symbol",
      "outputs": [
        {
          "internalType": "string",
          "name": "",
          "type": "string"
        }
      ],
      "stateMutability": "view",
      "type": "function"
    },
    {
      "inputs": [],
      "name": "totalSupply",
      "outputs": [
        {
          "internalType": "uint256",
          "name": "",
          "type": "uint256"
        }
      ],
      "stateMutability": "view",
      "type": "function"
    },
    {
      "inputs": [
        {
          "internalType": "address",
          "name": "recipient",
          "type": "address"
        },
        {
          "internalType": "uint256",
          "name": "amount",
          "type": "uint256"
        }
      ],
      "name": "transfer",
      "outputs": [
        {
          "internalType": "bool",
          "name": "",
          "type": "bool"
        }
      ],
      "stateMutability": "nonpayable",
      "type": "function"
    },
    {
      "inputs": [
        {
          "internalType": "address",
          "name": "sender",
          "type": "address"
        },
        {
          "internalType": "address",
          "name": "recipient",
          "type": "address"
        },
        {
          "internalType": "uint256",
          "name": "amount",
          "type": "uint256"
        }
      ],
      "name": "transferFrom",
      "outputs": [
        {
          "internalType": "bool",
          "name": "",
          "type": "bool"
        }
      ],
      "stateMutability": "nonpayable",
      "type": "function"
    },
    {
      "inputs": [
        {
          "internalType": "address",
          "name": "",
          "type": "address"
        }
      ],
      "name": "whiteList",
      "outputs": [
        {
          "internalType": "bool",
          "name": "",
          "type": "bool"
        }
      ],
      "stateMutability": "view",
      "type": "function"
    }
  ],
  "transactionHash": "0xb22e57d901050757d91d36387fd1f547896ebbb1381ee9d604134b42e5c9067c",
  "args": [],
  "solcInputHash": "fb824b86ff3617d8e80613e0ab4458af",
  "bytecode": "0x60806040523480156200001157600080fd5b50604080518082018252600c81526b082d8c6d0cadad2f0408aa8960a31b6020808301918252835180850190945260058452640c2d88aa8960db1b908401528151919291620000639160049162000270565b5080516200007990600590602084019062000270565b50506006805460ff1916601217905550620000a4600080516020620022c6833981519152336200010a565b620000bf600080516020620022e6833981519152336200010a565b620000e9600080516020620022e6833981519152600080516020620022c68339815191526200011a565b62000104600080516020620022c6833981519152806200011a565b6200030c565b6200011682826200016c565b5050565b600082815260208190526040808220600201549051839285917fbd79b86ffe0ab8e8776151514217cd7cacd52c909f66475c3af44e129f0b00ff9190a460009182526020829052604090912060020155565b6000828152602081815260409091206200019191839062000e81620001e5821b17901c565b156200011657620001a162000205565b6001600160a01b0316816001600160a01b0316837f2f8788117e7eff1d82e926ec794901d17c78024a50270940304540a733656f0d60405160405180910390a45050565b6000620001fc836001600160a01b03841662000209565b90505b92915050565b3390565b600062000217838362000258565b6200024f57508154600181810184556000848152602080822090930184905584548482528286019093526040902091909155620001ff565b506000620001ff565b60009081526001919091016020526040902054151590565b828054600181600116156101000203166002900490600052602060002090601f016020900481019282601f10620002b357805160ff1916838001178555620002e3565b82800160010185558215620002e3579182015b82811115620002e3578251825591602001919060010190620002c6565b50620002f1929150620002f5565b5090565b5b80821115620002f15760008155600101620002f6565b611faa806200031c6000396000f3fe608060405234801561001057600080fd5b506004361061020b5760003560e01c806340c10f191161012a5780639010d07c116100bd578063a457c2d71161008c578063ca15c87311610071578063ca15c87314610449578063d547741f1461045c578063dd62ed3e1461046f5761020b565b8063a457c2d714610423578063a9059cbb146104365761020b565b80639010d07c146103e057806391d148541461040057806395d89b4114610413578063a217fddf1461041b5761020b565b80636c00c7f0116100f95780636c00c7f01461039f57806370a08231146103b257806375b238fc146103c557806379cc6790146103cd5761020b565b806340c10f191461035357806342966c681461036657806353d6fd59146103795780635ab96f7a1461038c5761020b565b8063288aafcb116101a257806336568abe1161017157806336568abe14610307578063372c12b11461031a57806338e21cce1461032d57806339509351146103405761020b565b8063288aafcb146102b95780632e48152c146102cc5780632f2ff15d146102df578063313ce567146102f25761020b565b806318160ddd116101de57806318160ddd146102785780631ac997e01461028057806323b872dd14610293578063248a9ca3146102a65761020b565b806306fdde0314610210578063095ea7b31461022e57806309dac0611461024e57806313430d9214610263575b600080fd5b610218610482565b6040516102259190611908565b60405180910390f35b61024161023c366004611824565b610536565b60405161022591906118f4565b61026161025c36600461175a565b610554565b005b61026b6105ea565b60405161022591906118ff565b61026b61060e565b61026b61028e36600461175a565b610614565b6102416102a13660046117a9565b610626565b61026b6102b436600461184e565b6106c7565b6102616102c736600461184e565b6106dc565b6102416102da36600461175a565b61077d565b6102616102ed366004611866565b610792565b6102fa6107f4565b6040516102259190611e8b565b610261610315366004611866565b6107fd565b61024161032836600461175a565b610873565b61026b61033b36600461175a565b610888565b61024161034e366004611824565b61089a565b610261610361366004611824565b6108f5565b61026161037436600461184e565b6109bc565b6102616103873660046117e9565b6109cd565b61026161039a3660046117e9565b610a83565b6102616103ad366004611824565b610b70565b61026b6103c036600461175a565b610bf9565b61026b610c21565b6102616103db366004611824565b610c45565b6103f36103ee36600461188a565b610c9a565b60405161022591906118ab565b61024161040e366004611866565b610cb9565b610218610cd1565b61026b610d50565b610241610431366004611824565b610d55565b610241610444366004611824565b610dca565b61026b61045736600461184e565b610dde565b61026161046a366004611866565b610df5565b61026b61047d366004611775565b610e49565b60048054604080516020601f60027fffffffffffffffffffffffffffffffffffffffffffffffffffffffffffffffff61010060018816150201909516949094049384018190048102820181019092528281526060939092909183018282801561052c5780601f106105015761010080835404028352916020019161052c565b820191906000526020600020905b81548152906001019060200180831161050f57829003601f168201915b5050505050905090565b600061054a610543610ea3565b8484610ea7565b5060015b92915050565b61057e7fdf8b4c520ffe197c5343c6f5aec59570151ef9a492f2c624fd45ddde6135ec4233610cb9565b6105bd576040517f08c379a00000000000000000000000000000000000000000000000000000000081526004016105b490611bde565b60405180910390fd5b6105e77fd3eedd6d69d410e954f4c622838ecc3acae9fdcd83cad412075c85b092770656826107e6565b50565b7fd3eedd6d69d410e954f4c622838ecc3acae9fdcd83cad412075c85b09277065681565b60035490565b60096020526000908152604090205481565b6000610633848484610fb6565b6106bd8461063f610ea3565b6106b885604051806060016040528060288152602001611f046028913973ffffffffffffffffffffffffffffffffffffffff8a1660009081526002602052604081209061068a610ea3565b73ffffffffffffffffffffffffffffffffffffffff1681526020810191909152604001600020549190611140565b610ea7565b5060019392505050565b60009081526020819052604090206002015490565b3360009081526007602052604090205460ff16610725576040517f08c379a00000000000000000000000000000000000000000000000000000000081526004016105b490611a90565b336000908152600a6020526040902054811061075057336000908152600a60205260408120556105e7565b336000908152600a602052604090205461076a9082611186565b336000908152600a602052604090205550565b60086020526000908152604090205460ff1681565b6000828152602081905260409020600201546107b09061040e610ea3565b6107e6576040517f08c379a00000000000000000000000000000000000000000000000000000000081526004016105b490611a33565b6107f082826111c8565b5050565b60065460ff1690565b610805610ea3565b73ffffffffffffffffffffffffffffffffffffffff168173ffffffffffffffffffffffffffffffffffffffff1614610869576040517f08c379a00000000000000000000000000000000000000000000000000000000081526004016105b490611dc0565b6107f0828261124b565b60076020526000908152604090205460ff1681565b600a6020526000908152604090205481565b600061054a6108a7610ea3565b846106b885600260006108b8610ea3565b73ffffffffffffffffffffffffffffffffffffffff908116825260208083019390935260409182016000908120918c1681529252902054906112ce565b3360009081526007602052604090205460ff1661093e576040517f08c379a00000000000000000000000000000000000000000000000000000000081526004016105b490611a90565b3360009081526008602052604090205460ff1615610988576040517f08c379a00000000000000000000000000000000000000000000000000000000081526004016105b490611b81565b336000908152600a60205260409020546109a290826112ce565b336000908152600a60205260409020556107f0828261130d565b6105e76109c7610ea3565b8261140e565b6109f77fdf8b4c520ffe197c5343c6f5aec59570151ef9a492f2c624fd45ddde6135ec4233610cb9565b610a2d576040517f08c379a00000000000000000000000000000000000000000000000000000000081526004016105b490611bde565b73ffffffffffffffffffffffffffffffffffffffff91909116600090815260076020526040902080547fffffffffffffffffffffffffffffffffffffffffffffffffffffffffffffff0016911515919091179055565b610aad7fd3eedd6d69d410e954f4c622838ecc3acae9fdcd83cad412075c85b09277065633610cb9565b610ae3576040517f08c379a00000000000000000000000000000000000000000000000000000000081526004016105b490611e54565b73ffffffffffffffffffffffffffffffffffffffff82166000908152600860205260409081902080547fffffffffffffffffffffffffffffffffffffffffffffffffffffffffffffff0016831515179055517fe3badfe0be4cf35cf5ea2564250c5b5031a67d4c25c8ab4174b84018abb3de6890610b6490849084906118cc565b60405180910390a15050565b610b9a7fdf8b4c520ffe197c5343c6f5aec59570151ef9a492f2c624fd45ddde6135ec4233610cb9565b610bd0576040517f08c379a00000000000000000000000000000000000000000000000000000000081526004016105b490611bde565b73ffffffffffffffffffffffffffffffffffffffff909116600090815260096020526040902055565b73ffffffffffffffffffffffffffffffffffffffff1660009081526001602052604090205490565b7fdf8b4c520ffe197c5343c6f5aec59570151ef9a492f2c624fd45ddde6135ec4281565b6000610c7782604051806060016040528060248152602001611f2c60249139610c708661047d610ea3565b9190611140565b9050610c8b83610c85610ea3565b83610ea7565b610c95838361140e565b505050565b6000828152602081905260408120610cb29083611532565b9392505050565b6000828152602081905260408120610cb2908361153e565b60058054604080516020601f60027fffffffffffffffffffffffffffffffffffffffffffffffffffffffffffffffff61010060018816150201909516949094049384018190048102820181019092528281526060939092909183018282801561052c5780601f106105015761010080835404028352916020019161052c565b600081565b600061054a610d62610ea3565b846106b885604051806060016040528060258152602001611f506025913960026000610d8c610ea3565b73ffffffffffffffffffffffffffffffffffffffff908116825260208083019390935260409182016000908120918d16815292529020549190611140565b600061054a610dd7610ea3565b8484610fb6565b600081815260208190526040812061054e90611560565b600082815260208190526040902060020154610e139061040e610ea3565b610869576040517f08c379a00000000000000000000000000000000000000000000000000000000081526004016105b490611c4c565b73ffffffffffffffffffffffffffffffffffffffff918216600090815260026020908152604080832093909416825291909152205490565b6000610cb28373ffffffffffffffffffffffffffffffffffffffff841661156b565b3390565b73ffffffffffffffffffffffffffffffffffffffff8316610ef4576040517f08c379a00000000000000000000000000000000000000000000000000000000081526004016105b490611d63565b73ffffffffffffffffffffffffffffffffffffffff8216610f41576040517f08c379a00000000000000000000000000000000000000000000000000000000081526004016105b490611aed565b73ffffffffffffffffffffffffffffffffffffffff80841660008181526002602090815260408083209487168084529490915290819020849055517f8c5be1e5ebec7d5bd14f71427d1e84f3dd0314c0f7b2291e5b200ac8c7c3b92590610fa99085906118ff565b60405180910390a3505050565b73ffffffffffffffffffffffffffffffffffffffff8316611003576040517f08c379a00000000000000000000000000000000000000000000000000000000081526004016105b490611d06565b73ffffffffffffffffffffffffffffffffffffffff8216611050576040517f08c379a00000000000000000000000000000000000000000000000000000000081526004016105b4906119d6565b61105b838383610c95565b6110a581604051806060016040528060268152602001611ede6026913973ffffffffffffffffffffffffffffffffffffffff86166000908152600160205260409020549190611140565b73ffffffffffffffffffffffffffffffffffffffff80851660009081526001602052604080822093909355908416815220546110e190826112ce565b73ffffffffffffffffffffffffffffffffffffffff80841660008181526001602052604090819020939093559151908516907fddf252ad1be2c89b69c2b068fc378daa952ba7f163c4a11628f55a4df523b3ef90610fa99085906118ff565b6000818484111561117e576040517f08c379a00000000000000000000000000000000000000000000000000000000081526004016105b49190611908565b505050900390565b6000828211156111c2576040517f08c379a00000000000000000000000000000000000000000000000000000000081526004016105b490611c15565b50900390565b60008281526020819052604090206111e09082610e81565b156107f0576111ed610ea3565b73ffffffffffffffffffffffffffffffffffffffff168173ffffffffffffffffffffffffffffffffffffffff16837f2f8788117e7eff1d82e926ec794901d17c78024a50270940304540a733656f0d60405160405180910390a45050565b600082815260208190526040902061126390826115b5565b156107f057611270610ea3565b73ffffffffffffffffffffffffffffffffffffffff168173ffffffffffffffffffffffffffffffffffffffff16837ff6391f5c32d9c69d2a47ea670b442974b53935d1edc7fd64eb21e047a839171b60405160405180910390a45050565b600082820183811015610cb2576040517f08c379a00000000000000000000000000000000000000000000000000000000081526004016105b490611b4a565b73ffffffffffffffffffffffffffffffffffffffff821661135a576040517f08c379a00000000000000000000000000000000000000000000000000000000081526004016105b490611e1d565b61136660008383610c95565b60035461137390826112ce565b60035573ffffffffffffffffffffffffffffffffffffffff82166000908152600160205260409020546113a690826112ce565b73ffffffffffffffffffffffffffffffffffffffff83166000818152600160205260408082209390935591519091907fddf252ad1be2c89b69c2b068fc378daa952ba7f163c4a11628f55a4df523b3ef906114029085906118ff565b60405180910390a35050565b73ffffffffffffffffffffffffffffffffffffffff821661145b576040517f08c379a00000000000000000000000000000000000000000000000000000000081526004016105b490611ca9565b61146782600083610c95565b6114b181604051806060016040528060228152602001611ebc6022913973ffffffffffffffffffffffffffffffffffffffff85166000908152600160205260409020549190611140565b73ffffffffffffffffffffffffffffffffffffffff83166000908152600160205260409020556003546114e49082611186565b60035560405160009073ffffffffffffffffffffffffffffffffffffffff8416907fddf252ad1be2c89b69c2b068fc378daa952ba7f163c4a11628f55a4df523b3ef906114029085906118ff565b6000610cb283836115d7565b6000610cb28373ffffffffffffffffffffffffffffffffffffffff8416611636565b600061054e8261164e565b60006115778383611636565b6115ad5750815460018181018455600084815260208082209093018490558454848252828601909352604090209190915561054e565b50600061054e565b6000610cb28373ffffffffffffffffffffffffffffffffffffffff8416611652565b81546000908210611614576040517f08c379a00000000000000000000000000000000000000000000000000000000081526004016105b490611979565b82600001828154811061162357fe5b9060005260206000200154905092915050565b60009081526001919091016020526040902054151590565b5490565b6000818152600183016020526040812054801561172c5783547fffffffffffffffffffffffffffffffffffffffffffffffffffffffffffffffff80830191908101906000908790839081106116a357fe5b90600052602060002001549050808760000184815481106116c057fe5b6000918252602080832090910192909255828152600189810190925260409020908401905586548790806116f057fe5b6001900381819060005260206000200160009055905586600101600087815260200190815260200160002060009055600194505050505061054e565b600091505061054e565b803573ffffffffffffffffffffffffffffffffffffffff8116811461054e57600080fd5b60006020828403121561176b578081fd5b610cb28383611736565b60008060408385031215611787578081fd5b6117918484611736565b91506117a08460208501611736565b90509250929050565b6000806000606084860312156117bd578081fd5b83356117c881611e99565b925060208401356117d881611e99565b929592945050506040919091013590565b600080604083850312156117fb578182fd5b6118058484611736565b915060208301358015158114611819578182fd5b809150509250929050565b60008060408385031215611836578182fd5b6118408484611736565b946020939093013593505050565b60006020828403121561185f578081fd5b5035919050565b60008060408385031215611878578182fd5b82359150602083013561181981611e99565b6000806040838503121561189c578182fd5b50508035926020909101359150565b73ffffffffffffffffffffffffffffffffffffffff91909116815260200190565b73ffffffffffffffffffffffffffffffffffffffff9290921682521515602082015260400190565b901515815260200190565b90815260200190565b6000602080835283518082850152825b8181101561193457858101830151858201604001528201611918565b818111156119455783604083870101525b50601f017fffffffffffffffffffffffffffffffffffffffffffffffffffffffffffffffe016929092016040019392505050565b60208082526022908201527f456e756d657261626c655365743a20696e646578206f7574206f6620626f756e60408201527f6473000000000000000000000000000000000000000000000000000000000000606082015260800190565b60208082526023908201527f45524332303a207472616e7366657220746f20746865207a65726f206164647260408201527f6573730000000000000000000000000000000000000000000000000000000000606082015260800190565b6020808252602f908201527f416363657373436f6e74726f6c3a2073656e646572206d75737420626520616e60408201527f2061646d696e20746f206772616e740000000000000000000000000000000000606082015260800190565b60208082526023908201527f416c4554483a20416c6368656d697374206973206e6f742077686974656c697360408201527f7465640000000000000000000000000000000000000000000000000000000000606082015260800190565b60208082526022908201527f45524332303a20617070726f766520746f20746865207a65726f20616464726560408201527f7373000000000000000000000000000000000000000000000000000000000000606082015260800190565b6020808252601b908201527f536166654d6174683a206164646974696f6e206f766572666c6f770000000000604082015260600190565b60208082526025908201527f416c4554483a20416c6368656d6973742069732063757272656e746c7920706160408201527f757365642e000000000000000000000000000000000000000000000000000000606082015260800190565b6020808252600a908201527f6f6e6c792061646d696e00000000000000000000000000000000000000000000604082015260600190565b6020808252601e908201527f536166654d6174683a207375627472616374696f6e206f766572666c6f770000604082015260600190565b60208082526030908201527f416363657373436f6e74726f6c3a2073656e646572206d75737420626520616e60408201527f2061646d696e20746f207265766f6b6500000000000000000000000000000000606082015260800190565b60208082526021908201527f45524332303a206275726e2066726f6d20746865207a65726f2061646472657360408201527f7300000000000000000000000000000000000000000000000000000000000000606082015260800190565b60208082526025908201527f45524332303a207472616e736665722066726f6d20746865207a65726f20616460408201527f6472657373000000000000000000000000000000000000000000000000000000606082015260800190565b60208082526024908201527f45524332303a20617070726f76652066726f6d20746865207a65726f2061646460408201527f7265737300000000000000000000000000000000000000000000000000000000606082015260800190565b6020808252602f908201527f416363657373436f6e74726f6c3a2063616e206f6e6c792072656e6f756e636560408201527f20726f6c657320666f722073656c660000000000000000000000000000000000606082015260800190565b6020808252601f908201527f45524332303a206d696e7420746f20746865207a65726f206164647265737300604082015260600190565b6020808252600d908201527f6f6e6c792073656e74696e656c00000000000000000000000000000000000000604082015260600190565b60ff91909116815260200190565b73ffffffffffffffffffffffffffffffffffffffff811681146105e757600080fdfe45524332303a206275726e20616d6f756e7420657863656564732062616c616e636545524332303a207472616e7366657220616d6f756e7420657863656564732062616c616e636545524332303a207472616e7366657220616d6f756e74206578636565647320616c6c6f77616e636545524332303a206275726e20616d6f756e74206578636565647320616c6c6f77616e636545524332303a2064656372656173656420616c6c6f77616e63652062656c6f77207a65726fa2646970667358221220848d4260cb9880fb8915fc5fd81ceeb2f5e3f5f40431e29f2bc9c29db03f396d64736f6c634300060c0033df8b4c520ffe197c5343c6f5aec59570151ef9a492f2c624fd45ddde6135ec42d3eedd6d69d410e954f4c622838ecc3acae9fdcd83cad412075c85b092770656",
  "devdoc": {
    "details": "This is the contract for the Alchemix utillity token usd. Initially, the contract deployer is given both the admin and minter role. This allows them to pre-mine tokens, transfer admin to a timelock contract, and lastly, grant the staking pools the minter role. After this is done, the deployer must revoke their admin role and minter role.",
    "kind": "dev",
    "methods": {
      "allowance(address,address)": {
        "details": "See {IERC20-allowance}."
      },
      "approve(address,uint256)": {
        "details": "See {IERC20-approve}. Requirements: - `spender` cannot be the zero address."
      },
      "balanceOf(address)": {
        "details": "See {IERC20-balanceOf}."
      },
      "burn(uint256)": {
        "details": "Destroys `amount` tokens from the caller. See {ERC20-_burn}."
      },
      "burnFrom(address,uint256)": {
        "details": "Destroys `amount` tokens from `account`, deducting from the caller's allowance. See {ERC20-_burn} and {ERC20-allowance}. Requirements: - the caller must have allowance for ``accounts``'s tokens of at least `amount`."
      },
      "decimals()": {
        "details": "Returns the number of decimals used to get its user representation. For example, if `decimals` equals `2`, a balance of `505` tokens should be displayed to a user as `5,05` (`505 / 10 ** 2`). Tokens usually opt for a value of 18, imitating the relationship between Ether and Wei. This is the value {ERC20} uses, unless {_setupDecimals} is called. NOTE: This information is only used for _display_ purposes: it in no way affects any of the arithmetic of the contract, including {IERC20-balanceOf} and {IERC20-transfer}."
      },
      "decreaseAllowance(address,uint256)": {
        "details": "Atomically decreases the allowance granted to `spender` by the caller. This is an alternative to {approve} that can be used as a mitigation for problems described in {IERC20-approve}. Emits an {Approval} event indicating the updated allowance. Requirements: - `spender` cannot be the zero address. - `spender` must have allowance for the caller of at least `subtractedValue`."
      },
      "getRoleAdmin(bytes32)": {
        "details": "Returns the admin role that controls `role`. See {grantRole} and {revokeRole}. To change a role's admin, use {_setRoleAdmin}."
      },
      "getRoleMember(bytes32,uint256)": {
        "details": "Returns one of the accounts that have `role`. `index` must be a value between 0 and {getRoleMemberCount}, non-inclusive. Role bearers are not sorted in any particular way, and their ordering may change at any point. WARNING: When using {getRoleMember} and {getRoleMemberCount}, make sure you perform all queries on the same block. See the following https://forum.openzeppelin.com/t/iterating-over-elements-on-enumerableset-in-openzeppelin-contracts/2296[forum post] for more information."
      },
      "getRoleMemberCount(bytes32)": {
        "details": "Returns the number of accounts that have `role`. Can be used together with {getRoleMember} to enumerate all bearers of a role."
      },
      "grantRole(bytes32,address)": {
        "details": "Grants `role` to `account`. If `account` had not been already granted `role`, emits a {RoleGranted} event. Requirements: - the caller must have ``role``'s admin role."
      },
      "hasRole(bytes32,address)": {
        "details": "Returns `true` if `account` has been granted `role`."
      },
      "increaseAllowance(address,uint256)": {
        "details": "Atomically increases the allowance granted to `spender` by the caller. This is an alternative to {approve} that can be used as a mitigation for problems described in {IERC20-approve}. Emits an {Approval} event indicating the updated allowance. Requirements: - `spender` cannot be the zero address."
      },
      "lowerHasMinted(uint256)": {
        "details": "lowers hasminted from the caller's allocation"
      },
      "mint(address,uint256)": {
        "details": "Mints tokens to a recipient. This function reverts if the caller does not have the minter role.",
        "params": {
          "_amount": "the amount of tokens to mint.",
          "_recipient": "the account to mint tokens to."
        }
      },
      "name()": {
        "details": "Returns the name of the token."
      },
      "renounceRole(bytes32,address)": {
        "details": "Revokes `role` from the calling account. Roles are often managed via {grantRole} and {revokeRole}: this function's purpose is to provide a mechanism for accounts to lose their privileges if they are compromised (such as when a trusted device is misplaced). If the calling account had been granted `role`, emits a {RoleRevoked} event. Requirements: - the caller must be `account`."
      },
      "revokeRole(bytes32,address)": {
        "details": "Revokes `role` from `account`. If `account` had been granted `role`, emits a {RoleRevoked} event. Requirements: - the caller must have ``role``'s admin role."
      },
      "setCeiling(address,uint256)": {
        "params": {
          "_ceiling": "the max amount of tokens the account is allowed to mint.",
          "_toSetCeiling": "the account set the ceiling off."
        }
      },
      "setSentinel(address)": {
        "params": {
          "_newSentinel": "the account to set as sentinel."
        }
      },
      "setWhitelist(address,bool)": {
        "params": {
          "_state": "the whitelist state.",
          "_toWhitelist": "the account to mint tokens to."
        }
      },
      "symbol()": {
        "details": "Returns the symbol of the token, usually a shorter version of the name."
      },
      "totalSupply()": {
        "details": "See {IERC20-totalSupply}."
      },
      "transfer(address,uint256)": {
        "details": "See {IERC20-transfer}. Requirements: - `recipient` cannot be the zero address. - the caller must have a balance of at least `amount`."
      },
      "transferFrom(address,address,uint256)": {
        "details": "See {IERC20-transferFrom}. Emits an {Approval} event indicating the updated allowance. This is not required by the EIP. See the note at the beginning of {ERC20}. Requirements: - `sender` and `recipient` cannot be the zero address. - `sender` must have a balance of at least `amount`. - the caller must have allowance for ``sender``'s tokens of at least `amount`."
      }
    },
    "stateVariables": {
      "ADMIN_ROLE": {
        "details": "The identifier of the role which maintains other roles."
      },
      "SENTINEL_ROLE": {
        "details": "The identifier of the role which allows accounts to mint tokens."
      },
      "ceiling": {
        "details": "ceiling per address for minting new tokens"
      },
      "hasMinted": {
        "details": "already minted amount per address to track the ceiling"
      },
      "paused": {
        "details": "addresses paused for minting new tokens"
      },
      "whiteList": {
        "details": "addresses whitelisted for minting new tokens"
      }
    },
    "title": "AlToken",
    "version": 1
  },
  "userdoc": {
    "kind": "user",
    "methods": {
      "pauseAlchemist(address,bool)": {
        "notice": "This function reverts if the caller does not have the sentinel role."
      },
      "setCeiling(address,uint256)": {
        "notice": "This function reverts if the caller does not have the admin role."
      },
      "setSentinel(address)": {
        "notice": "This function reverts if the caller does not have the admin role."
      },
      "setWhitelist(address,bool)": {
        "notice": "This function reverts if the caller does not have the admin role."
      }
    },
    "version": 1
  },
  "storageLayout": {
    "storage": [
      {
        "astId": 25,
        "contract": "contracts/AlEth.sol:AlEth",
        "label": "_roles",
        "offset": 0,
        "slot": "0",
        "type": "t_mapping(t_bytes32,t_struct(RoleData)21_storage)"
      },
      {
        "astId": 840,
        "contract": "contracts/AlEth.sol:AlEth",
        "label": "_balances",
        "offset": 0,
        "slot": "1",
        "type": "t_mapping(t_address,t_uint256)"
      },
      {
        "astId": 846,
        "contract": "contracts/AlEth.sol:AlEth",
        "label": "_allowances",
        "offset": 0,
        "slot": "2",
        "type": "t_mapping(t_address,t_mapping(t_address,t_uint256))"
      },
      {
        "astId": 848,
        "contract": "contracts/AlEth.sol:AlEth",
        "label": "_totalSupply",
        "offset": 0,
        "slot": "3",
        "type": "t_uint256"
      },
      {
        "astId": 850,
        "contract": "contracts/AlEth.sol:AlEth",
        "label": "_name",
        "offset": 0,
        "slot": "4",
        "type": "t_string_storage"
      },
      {
        "astId": 852,
        "contract": "contracts/AlEth.sol:AlEth",
        "label": "_symbol",
        "offset": 0,
        "slot": "5",
        "type": "t_string_storage"
      },
      {
        "astId": 854,
        "contract": "contracts/AlEth.sol:AlEth",
        "label": "_decimals",
        "offset": 0,
        "slot": "6",
        "type": "t_uint8"
      },
      {
        "astId": 2508,
        "contract": "contracts/AlEth.sol:AlEth",
        "label": "whiteList",
        "offset": 0,
        "slot": "7",
        "type": "t_mapping(t_address,t_bool)"
      },
      {
        "astId": 2513,
        "contract": "contracts/AlEth.sol:AlEth",
        "label": "paused",
        "offset": 0,
        "slot": "8",
        "type": "t_mapping(t_address,t_bool)"
      },
      {
        "astId": 2518,
        "contract": "contracts/AlEth.sol:AlEth",
        "label": "ceiling",
        "offset": 0,
        "slot": "9",
        "type": "t_mapping(t_address,t_uint256)"
      },
      {
        "astId": 2523,
        "contract": "contracts/AlEth.sol:AlEth",
        "label": "hasMinted",
        "offset": 0,
        "slot": "10",
        "type": "t_mapping(t_address,t_uint256)"
      }
    ],
    "types": {
      "t_address": {
        "encoding": "inplace",
        "label": "address",
        "numberOfBytes": "20"
      },
      "t_array(t_bytes32)dyn_storage": {
        "base": "t_bytes32",
        "encoding": "dynamic_array",
        "label": "bytes32[]",
        "numberOfBytes": "32"
      },
      "t_bool": {
        "encoding": "inplace",
        "label": "bool",
        "numberOfBytes": "1"
      },
      "t_bytes32": {
        "encoding": "inplace",
        "label": "bytes32",
        "numberOfBytes": "32"
      },
      "t_mapping(t_address,t_bool)": {
        "encoding": "mapping",
        "key": "t_address",
        "label": "mapping(address => bool)",
        "numberOfBytes": "32",
        "value": "t_bool"
      },
      "t_mapping(t_address,t_mapping(t_address,t_uint256))": {
        "encoding": "mapping",
        "key": "t_address",
        "label": "mapping(address => mapping(address => uint256))",
        "numberOfBytes": "32",
        "value": "t_mapping(t_address,t_uint256)"
      },
      "t_mapping(t_address,t_uint256)": {
        "encoding": "mapping",
        "key": "t_address",
        "label": "mapping(address => uint256)",
        "numberOfBytes": "32",
        "value": "t_uint256"
      },
      "t_mapping(t_bytes32,t_struct(RoleData)21_storage)": {
        "encoding": "mapping",
        "key": "t_bytes32",
        "label": "mapping(bytes32 => struct AccessControl.RoleData)",
        "numberOfBytes": "32",
        "value": "t_struct(RoleData)21_storage"
      },
      "t_mapping(t_bytes32,t_uint256)": {
        "encoding": "mapping",
        "key": "t_bytes32",
        "label": "mapping(bytes32 => uint256)",
        "numberOfBytes": "32",
        "value": "t_uint256"
      },
      "t_string_storage": {
        "encoding": "bytes",
        "label": "string",
        "numberOfBytes": "32"
      },
      "t_struct(AddressSet)2212_storage": {
        "encoding": "inplace",
        "label": "struct EnumerableSet.AddressSet",
        "members": [
          {
            "astId": 2211,
            "contract": "contracts/AlEth.sol:AlEth",
            "label": "_inner",
            "offset": 0,
            "slot": "0",
            "type": "t_struct(Set)1947_storage"
          }
        ],
        "numberOfBytes": "64"
      },
      "t_struct(RoleData)21_storage": {
        "encoding": "inplace",
        "label": "struct AccessControl.RoleData",
        "members": [
          {
            "astId": 18,
            "contract": "contracts/AlEth.sol:AlEth",
            "label": "members",
            "offset": 0,
            "slot": "0",
            "type": "t_struct(AddressSet)2212_storage"
          },
          {
            "astId": 20,
            "contract": "contracts/AlEth.sol:AlEth",
            "label": "adminRole",
            "offset": 0,
            "slot": "2",
            "type": "t_bytes32"
          }
        ],
        "numberOfBytes": "96"
      },
      "t_struct(Set)1947_storage": {
        "encoding": "inplace",
        "label": "struct EnumerableSet.Set",
        "members": [
          {
            "astId": 1942,
            "contract": "contracts/AlEth.sol:AlEth",
            "label": "_values",
            "offset": 0,
            "slot": "0",
            "type": "t_array(t_bytes32)dyn_storage"
          },
          {
            "astId": 1946,
            "contract": "contracts/AlEth.sol:AlEth",
            "label": "_indexes",
            "offset": 0,
            "slot": "1",
            "type": "t_mapping(t_bytes32,t_uint256)"
          }
        ],
        "numberOfBytes": "64"
      },
      "t_uint256": {
        "encoding": "inplace",
        "label": "uint256",
        "numberOfBytes": "32"
      },
      "t_uint8": {
        "encoding": "inplace",
        "label": "uint8",
        "numberOfBytes": "1"
      }
    }
  }
}