{
  "address": "0xBC6DA0FE9aD5f3b0d58160288917AA56653660E9",
  "abi": [
    {
      "inputs": [],
      "stateMutability": "nonpayable",
      "type": "constructor"
    },
    {
      "anonymous": false,
      "inputs": [
        {
          "indexed": true,
          "internalType": "address",
          "name": "owner",
          "type": "address"
        },
        {
          "indexed": true,
          "internalType": "address",
          "name": "spender",
          "type": "address"
        },
        {
          "indexed": false,
          "internalType": "uint256",
          "name": "value",
          "type": "uint256"
        }
      ],
      "name": "Approval",
      "type": "event"
    },
    {
      "anonymous": false,
      "inputs": [
        {
          "indexed": false,
          "internalType": "address",
          "name": "alchemistAddress",
          "type": "address"
        },
        {
          "indexed": false,
          "internalType": "bool",
          "name": "isPaused",
          "type": "bool"
        }
      ],
      "name": "Paused",
      "type": "event"
    },
    {
      "anonymous": false,
      "inputs": [
        {
          "indexed": true,
          "internalType": "bytes32",
          "name": "role",
          "type": "bytes32"
        },
        {
          "indexed": true,
          "internalType": "bytes32",
          "name": "previousAdminRole",
          "type": "bytes32"
        },
        {
          "indexed": true,
          "internalType": "bytes32",
          "name": "newAdminRole",
          "type": "bytes32"
        }
      ],
      "name": "RoleAdminChanged",
      "type": "event"
    },
    {
      "anonymous": false,
      "inputs": [
        {
          "indexed": true,
          "internalType": "bytes32",
          "name": "role",
          "type": "bytes32"
        },
        {
          "indexed": true,
          "internalType": "address",
          "name": "account",
          "type": "address"
        },
        {
          "indexed": true,
          "internalType": "address",
          "name": "sender",
          "type": "address"
        }
      ],
      "name": "RoleGranted",
      "type": "event"
    },
    {
      "anonymous": false,
      "inputs": [
        {
          "indexed": true,
          "internalType": "bytes32",
          "name": "role",
          "type": "bytes32"
        },
        {
          "indexed": true,
          "internalType": "address",
          "name": "account",
          "type": "address"
        },
        {
          "indexed": true,
          "internalType": "address",
          "name": "sender",
          "type": "address"
        }
      ],
      "name": "RoleRevoked",
      "type": "event"
    },
    {
      "anonymous": false,
      "inputs": [
        {
          "indexed": true,
          "internalType": "address",
          "name": "from",
          "type": "address"
        },
        {
          "indexed": true,
          "internalType": "address",
          "name": "to",
          "type": "address"
        },
        {
          "indexed": false,
          "internalType": "uint256",
          "name": "value",
          "type": "uint256"
        }
      ],
      "name": "Transfer",
      "type": "event"
    },
    {
      "inputs": [],
      "name": "ADMIN_ROLE",
      "outputs": [
        {
          "internalType": "bytes32",
          "name": "",
          "type": "bytes32"
        }
      ],
      "stateMutability": "view",
      "type": "function"
    },
    {
      "inputs": [],
      "name": "DEFAULT_ADMIN_ROLE",
      "outputs": [
        {
          "internalType": "bytes32",
          "name": "",
          "type": "bytes32"
        }
      ],
      "stateMutability": "view",
      "type": "function"
    },
    {
      "inputs": [],
      "name": "SENTINEL_ROLE",
      "outputs": [
        {
          "internalType": "bytes32",
          "name": "",
          "type": "bytes32"
        }
      ],
      "stateMutability": "view",
      "type": "function"
    },
    {
      "inputs": [
        {
          "internalType": "address",
          "name": "owner",
          "type": "address"
        },
        {
          "internalType": "address",
          "name": "spender",
          "type": "address"
        }
      ],
      "name": "allowance",
      "outputs": [
        {
          "internalType": "uint256",
          "name": "",
          "type": "uint256"
        }
      ],
      "stateMutability": "view",
      "type": "function"
    },
    {
      "inputs": [
        {
          "internalType": "address",
          "name": "spender",
          "type": "address"
        },
        {
          "internalType": "uint256",
          "name": "amount",
          "type": "uint256"
        }
      ],
      "name": "approve",
      "outputs": [
        {
          "internalType": "bool",
          "name": "",
          "type": "bool"
        }
      ],
      "stateMutability": "nonpayable",
      "type": "function"
    },
    {
      "inputs": [
        {
          "internalType": "address",
          "name": "account",
          "type": "address"
        }
      ],
      "name": "balanceOf",
      "outputs": [
        {
          "internalType": "uint256",
          "name": "",
          "type": "uint256"
        }
      ],
      "stateMutability": "view",
      "type": "function"
    },
    {
      "inputs": [
        {
          "internalType": "address",
          "name": "",
          "type": "address"
        }
      ],
      "name": "blacklist",
      "outputs": [
        {
          "internalType": "bool",
          "name": "",
          "type": "bool"
        }
      ],
      "stateMutability": "view",
      "type": "function"
    },
    {
      "inputs": [
        {
          "internalType": "uint256",
          "name": "amount",
          "type": "uint256"
        }
      ],
      "name": "burn",
      "outputs": [],
      "stateMutability": "nonpayable",
      "type": "function"
    },
    {
      "inputs": [
        {
          "internalType": "address",
          "name": "account",
          "type": "address"
        },
        {
          "internalType": "uint256",
          "name": "amount",
          "type": "uint256"
        }
      ],
      "name": "burnFrom",
      "outputs": [],
      "stateMutability": "nonpayable",
      "type": "function"
    },
    {
      "inputs": [
        {
          "internalType": "address",
          "name": "",
          "type": "address"
        }
      ],
      "name": "ceiling",
      "outputs": [
        {
          "internalType": "uint256",
          "name": "",
          "type": "uint256"
        }
      ],
      "stateMutability": "view",
      "type": "function"
    },
    {
      "inputs": [],
      "name": "decimals",
      "outputs": [
        {
          "internalType": "uint8",
          "name": "",
          "type": "uint8"
        }
      ],
      "stateMutability": "view",
      "type": "function"
    },
    {
      "inputs": [
        {
          "internalType": "address",
          "name": "spender",
          "type": "address"
        },
        {
          "internalType": "uint256",
          "name": "subtractedValue",
          "type": "uint256"
        }
      ],
      "name": "decreaseAllowance",
      "outputs": [
        {
          "internalType": "bool",
          "name": "",
          "type": "bool"
        }
      ],
      "stateMutability": "nonpayable",
      "type": "function"
    },
    {
      "inputs": [
        {
          "internalType": "bytes32",
          "name": "role",
          "type": "bytes32"
        }
      ],
      "name": "getRoleAdmin",
      "outputs": [
        {
          "internalType": "bytes32",
          "name": "",
          "type": "bytes32"
        }
      ],
      "stateMutability": "view",
      "type": "function"
    },
    {
      "inputs": [
        {
          "internalType": "bytes32",
          "name": "role",
          "type": "bytes32"
        },
        {
          "internalType": "uint256",
          "name": "index",
          "type": "uint256"
        }
      ],
      "name": "getRoleMember",
      "outputs": [
        {
          "internalType": "address",
          "name": "",
          "type": "address"
        }
      ],
      "stateMutability": "view",
      "type": "function"
    },
    {
      "inputs": [
        {
          "internalType": "bytes32",
          "name": "role",
          "type": "bytes32"
        }
      ],
      "name": "getRoleMemberCount",
      "outputs": [
        {
          "internalType": "uint256",
          "name": "",
          "type": "uint256"
        }
      ],
      "stateMutability": "view",
      "type": "function"
    },
    {
      "inputs": [
        {
          "internalType": "bytes32",
          "name": "role",
          "type": "bytes32"
        },
        {
          "internalType": "address",
          "name": "account",
          "type": "address"
        }
      ],
      "name": "grantRole",
      "outputs": [],
      "stateMutability": "nonpayable",
      "type": "function"
    },
    {
      "inputs": [
        {
          "internalType": "address",
          "name": "",
          "type": "address"
        }
      ],
      "name": "hasMinted",
      "outputs": [
        {
          "internalType": "uint256",
          "name": "",
          "type": "uint256"
        }
      ],
      "stateMutability": "view",
      "type": "function"
    },
    {
      "inputs": [
        {
          "internalType": "bytes32",
          "name": "role",
          "type": "bytes32"
        },
        {
          "internalType": "address",
          "name": "account",
          "type": "address"
        }
      ],
      "name": "hasRole",
      "outputs": [
        {
          "internalType": "bool",
          "name": "",
          "type": "bool"
        }
      ],
      "stateMutability": "view",
      "type": "function"
    },
    {
      "inputs": [
        {
          "internalType": "address",
          "name": "spender",
          "type": "address"
        },
        {
          "internalType": "uint256",
          "name": "addedValue",
          "type": "uint256"
        }
      ],
      "name": "increaseAllowance",
      "outputs": [
        {
          "internalType": "bool",
          "name": "",
          "type": "bool"
        }
      ],
      "stateMutability": "nonpayable",
      "type": "function"
    },
    {
      "inputs": [
        {
          "internalType": "uint256",
          "name": "amount",
          "type": "uint256"
        }
      ],
      "name": "lowerHasMinted",
      "outputs": [],
      "stateMutability": "nonpayable",
      "type": "function"
    },
    {
      "inputs": [
        {
          "internalType": "address",
          "name": "_recipient",
          "type": "address"
        },
        {
          "internalType": "uint256",
          "name": "_amount",
          "type": "uint256"
        }
      ],
      "name": "mint",
      "outputs": [],
      "stateMutability": "nonpayable",
      "type": "function"
    },
    {
      "inputs": [],
      "name": "name",
      "outputs": [
        {
          "internalType": "string",
          "name": "",
          "type": "string"
        }
      ],
      "stateMutability": "view",
      "type": "function"
    },
    {
      "inputs": [
        {
          "internalType": "address",
          "name": "_toPause",
          "type": "address"
        },
        {
          "internalType": "bool",
          "name": "_state",
          "type": "bool"
        }
      ],
      "name": "pauseAlchemist",
      "outputs": [],
      "stateMutability": "nonpayable",
      "type": "function"
    },
    {
      "inputs": [
        {
          "internalType": "address",
          "name": "",
          "type": "address"
        }
      ],
      "name": "paused",
      "outputs": [
        {
          "internalType": "bool",
          "name": "",
          "type": "bool"
        }
      ],
      "stateMutability": "view",
      "type": "function"
    },
    {
      "inputs": [
        {
          "internalType": "bytes32",
          "name": "role",
          "type": "bytes32"
        },
        {
          "internalType": "address",
          "name": "account",
          "type": "address"
        }
      ],
      "name": "renounceRole",
      "outputs": [],
      "stateMutability": "nonpayable",
      "type": "function"
    },
    {
      "inputs": [
        {
          "internalType": "bytes32",
          "name": "role",
          "type": "bytes32"
        },
        {
          "internalType": "address",
          "name": "account",
          "type": "address"
        }
      ],
      "name": "revokeRole",
      "outputs": [],
      "stateMutability": "nonpayable",
      "type": "function"
    },
    {
      "inputs": [
        {
          "internalType": "address",
          "name": "_toBlacklist",
          "type": "address"
        }
      ],
      "name": "setBlacklist",
      "outputs": [],
      "stateMutability": "nonpayable",
      "type": "function"
    },
    {
      "inputs": [
        {
          "internalType": "address",
          "name": "_toSetCeiling",
          "type": "address"
        },
        {
          "internalType": "uint256",
          "name": "_ceiling",
          "type": "uint256"
        }
      ],
      "name": "setCeiling",
      "outputs": [],
      "stateMutability": "nonpayable",
      "type": "function"
    },
    {
      "inputs": [
        {
          "internalType": "address",
          "name": "_newSentinel",
          "type": "address"
        }
      ],
      "name": "setSentinel",
      "outputs": [],
      "stateMutability": "nonpayable",
      "type": "function"
    },
    {
      "inputs": [
        {
          "internalType": "address",
          "name": "_toWhitelist",
          "type": "address"
        },
        {
          "internalType": "bool",
          "name": "_state",
          "type": "bool"
        }
      ],
      "name": "setWhitelist",
      "outputs": [],
      "stateMutability": "nonpayable",
      "type": "function"
    },
    {
      "inputs": [],
      "name": "symbol",
      "outputs": [
        {
          "internalType": "string",
          "name": "",
          "type": "string"
        }
      ],
      "stateMutability": "view",
      "type": "function"
    },
    {
      "inputs": [],
      "name": "totalSupply",
      "outputs": [
        {
          "internalType": "uint256",
          "name": "",
          "type": "uint256"
        }
      ],
      "stateMutability": "view",
      "type": "function"
    },
    {
      "inputs": [
        {
          "internalType": "address",
          "name": "recipient",
          "type": "address"
        },
        {
          "internalType": "uint256",
          "name": "amount",
          "type": "uint256"
        }
      ],
      "name": "transfer",
      "outputs": [
        {
          "internalType": "bool",
          "name": "",
          "type": "bool"
        }
      ],
      "stateMutability": "nonpayable",
      "type": "function"
    },
    {
      "inputs": [
        {
          "internalType": "address",
          "name": "sender",
          "type": "address"
        },
        {
          "internalType": "address",
          "name": "recipient",
          "type": "address"
        },
        {
          "internalType": "uint256",
          "name": "amount",
          "type": "uint256"
        }
      ],
      "name": "transferFrom",
      "outputs": [
        {
          "internalType": "bool",
          "name": "",
          "type": "bool"
        }
      ],
      "stateMutability": "nonpayable",
      "type": "function"
    },
    {
      "inputs": [
        {
          "internalType": "address",
          "name": "",
          "type": "address"
        }
      ],
      "name": "whiteList",
      "outputs": [
        {
          "internalType": "bool",
          "name": "",
          "type": "bool"
        }
      ],
      "stateMutability": "view",
      "type": "function"
    }
  ],
  "transactionHash": "0x24fccfed499deb2a492edae235fcfd3c3070dc5c4fd956e3dd12d5f2a2be6aa8",
  "args": [],
  "solcInputHash": "a885e78562f5bae54a8e3e04018de494",
  "bytecode": "0x60806040523480156200001157600080fd5b50604080518082018252600c81526b105b18da195b5a5e081554d160a21b602080830191825283518085019094526005845264185b1554d160da1b908401528151919291620000639160049162000270565b5080516200007990600590602084019062000270565b50506006805460ff1916601217905550620000a46000805160206200249f833981519152336200010a565b620000bf600080516020620024bf833981519152336200010a565b620000e9600080516020620024bf8339815191526000805160206200249f8339815191526200011a565b620001046000805160206200249f833981519152806200011a565b6200030c565b6200011682826200016c565b5050565b600082815260208190526040808220600201549051839285917fbd79b86ffe0ab8e8776151514217cd7cacd52c909f66475c3af44e129f0b00ff9190a460009182526020829052604090912060020155565b6000828152602081815260409091206200019191839062001027620001e5821b17901c565b156200011657620001a162000205565b6001600160a01b0316816001600160a01b0316837f2f8788117e7eff1d82e926ec794901d17c78024a50270940304540a733656f0d60405160405180910390a45050565b6000620001fc836001600160a01b03841662000209565b90505b92915050565b3390565b600062000217838362000258565b6200024f57508154600181810184556000848152602080822090930184905584548482528286019093526040902091909155620001ff565b506000620001ff565b60009081526001919091016020526040902054151590565b828054600181600116156101000203166002900490600052602060002090601f016020900481019282601f10620002b357805160ff1916838001178555620002e3565b82800160010185558215620002e3579182015b82811115620002e3578251825591602001919060010190620002c6565b50620002f1929150620002f5565b5090565b5b80821115620002f15760008155600101620002f6565b612183806200031c6000396000f3fe608060405234801561001057600080fd5b50600436106102415760003560e01c806342966c681161014557806391d14854116100bd578063a9059cbb1161008c578063d547741f11610071578063d547741f146104a5578063dd62ed3e146104b8578063f9f92be4146104cb57610241565b8063a9059cbb1461047f578063ca15c8731461049257610241565b806391d148541461044957806395d89b411461045c578063a217fddf14610464578063a457c2d71461046c57610241565b80636c00c7f01161011457806375b238fc116100f957806375b238fc1461040e57806379cc6790146104165780639010d07c1461042957610241565b80636c00c7f0146103e857806370a08231146103fb57610241565b806342966c681461039c5780634e054a67146103af57806353d6fd59146103c25780635ab96f7a146103d557610241565b8063288aafcb116101d857806336568abe116101a757806338e21cce1161018c57806338e21cce14610363578063395093511461037657806340c10f191461038957610241565b806336568abe1461033d578063372c12b11461035057610241565b8063288aafcb146102ef5780632e48152c146103025780632f2ff15d14610315578063313ce5671461032857610241565b806318160ddd1161021457806318160ddd146102ae5780631ac997e0146102b657806323b872dd146102c9578063248a9ca3146102dc57610241565b806306fdde0314610246578063095ea7b31461026457806309dac0611461028457806313430d9214610299575b600080fd5b61024e6104de565b60405161025b9190611aae565b60405180910390f35b6102776102723660046119ca565b610592565b60405161025b9190611a9a565b610297610292366004611900565b6105b0565b005b6102a1610646565b60405161025b9190611aa5565b6102a161066a565b6102a16102c4366004611900565b610670565b6102776102d736600461194f565b610682565b6102a16102ea3660046119f4565b610723565b6102976102fd3660046119f4565b610738565b610277610310366004611900565b6107ae565b610297610323366004611a0c565b6107c3565b610330610825565b60405161025b9190612064565b61029761034b366004611a0c565b61082e565b61027761035e366004611900565b6108a4565b6102a1610371366004611900565b6108b9565b6102776103843660046119ca565b6108cb565b6102976103973660046119ca565b610926565b6102976103aa3660046119f4565b610aa3565b6102976103bd366004611900565b610ab4565b6102976103d036600461198f565b610b63565b6102976103e336600461198f565b610c19565b6102976103f63660046119ca565b610d06565b6102a1610409366004611900565b610d8f565b6102a1610db7565b6102976104243660046119ca565b610ddb565b61043c610437366004611a30565b610e2b565b60405161025b9190611a51565b610277610457366004611a0c565b610e4a565b61024e610e62565b6102a1610ee1565b61027761047a3660046119ca565b610ee6565b61027761048d3660046119ca565b610f5b565b6102a16104a03660046119f4565b610f6f565b6102976104b3366004611a0c565b610f86565b6102a16104c636600461191b565b610fda565b6102776104d9366004611900565b611012565b60048054604080516020601f60027fffffffffffffffffffffffffffffffffffffffffffffffffffffffffffffffff6101006001881615020190951694909404938401819004810282018101909252828152606093909290918301828280156105885780601f1061055d57610100808354040283529160200191610588565b820191906000526020600020905b81548152906001019060200180831161056b57829003601f168201915b5050505050905090565b60006105a661059f611049565b848461104d565b5060015b92915050565b6105da7fdf8b4c520ffe197c5343c6f5aec59570151ef9a492f2c624fd45ddde6135ec4233610e4a565b610619576040517f08c379a000000000000000000000000000000000000000000000000000000000815260040161061090611cca565b60405180910390fd5b6106437fd3eedd6d69d410e954f4c622838ecc3acae9fdcd83cad412075c85b09277065682610817565b50565b7fd3eedd6d69d410e954f4c622838ecc3acae9fdcd83cad412075c85b09277065681565b60035490565b600a6020526000908152604090205481565b600061068f84848461115c565b6107198461069b611049565b610714856040518060600160405280602881526020016120dd6028913973ffffffffffffffffffffffffffffffffffffffff8a166000908152600260205260408120906106e6611049565b73ffffffffffffffffffffffffffffffffffffffff16815260208101919091526040016000205491906112e6565b61104d565b5060019392505050565b60009081526020819052604090206002015490565b3360009081526007602052604090205460ff16610781576040517f08c379a000000000000000000000000000000000000000000000000000000000815260040161061090611ed2565b336000908152600b602052604090205461079b908261132c565b336000908152600b602052604090205550565b60096020526000908152604090205460ff1681565b6000828152602081905260409020600201546107e190610457611049565b610817576040517f08c379a000000000000000000000000000000000000000000000000000000000815260040161061090611bd9565b610821828261136e565b5050565b60065460ff1690565b610836611049565b73ffffffffffffffffffffffffffffffffffffffff168173ffffffffffffffffffffffffffffffffffffffff161461089a576040517f08c379a000000000000000000000000000000000000000000000000000000000815260040161061090611f99565b61082182826113f1565b60076020526000908152604090205460ff1681565b600b6020526000908152604090205481565b60006105a66108d8611049565b8461071485600260006108e9611049565b73ffffffffffffffffffffffffffffffffffffffff908116825260208083019390935260409182016000908120918c168152925290205490611474565b3360009081526007602052604090205460ff1661096f576040517f08c379a000000000000000000000000000000000000000000000000000000000815260040161061090611ed2565b3360009081526008602052604090205460ff16156109b9576040517f08c379a000000000000000000000000000000000000000000000000000000000815260040161061090611f64565b336000908152600b60205260408120546109d4908390611474565b336000908152600a6020526040902054909150811115610a20576040517f08c379a000000000000000000000000000000000000000000000000000000000815260040161061090611e18565b3360009081526009602052604090205460ff1615610a6a576040517f08c379a000000000000000000000000000000000000000000000000000000000815260040161061090611f2f565b336000908152600b6020526040902054610a849083611474565b336000908152600b6020526040902055610a9e83836114b3565b505050565b610643610aae611049565b826115b4565b610ade7fd3eedd6d69d410e954f4c622838ecc3acae9fdcd83cad412075c85b09277065633610e4a565b610b14576040517f08c379a00000000000000000000000000000000000000000000000000000000081526004016106109061202d565b73ffffffffffffffffffffffffffffffffffffffff16600090815260086020526040902080547fffffffffffffffffffffffffffffffffffffffffffffffffffffffffffffff00166001179055565b610b8d7fdf8b4c520ffe197c5343c6f5aec59570151ef9a492f2c624fd45ddde6135ec4233610e4a565b610bc3576040517f08c379a000000000000000000000000000000000000000000000000000000000815260040161061090611cca565b73ffffffffffffffffffffffffffffffffffffffff91909116600090815260076020526040902080547fffffffffffffffffffffffffffffffffffffffffffffffffffffffffffffff0016911515919091179055565b610c437fd3eedd6d69d410e954f4c622838ecc3acae9fdcd83cad412075c85b09277065633610e4a565b610c79576040517f08c379a00000000000000000000000000000000000000000000000000000000081526004016106109061202d565b73ffffffffffffffffffffffffffffffffffffffff82166000908152600960205260409081902080547fffffffffffffffffffffffffffffffffffffffffffffffffffffffffffffff0016831515179055517fe8699cf681560fd07de85543bd994263f4557bdc5179dd702f256d15fd083e1d90610cfa9084908490611a72565b60405180910390a15050565b610d307fdf8b4c520ffe197c5343c6f5aec59570151ef9a492f2c624fd45ddde6135ec4233610e4a565b610d66576040517f08c379a000000000000000000000000000000000000000000000000000000000815260040161061090611cca565b73ffffffffffffffffffffffffffffffffffffffff9091166000908152600a6020526040902055565b73ffffffffffffffffffffffffffffffffffffffff1660009081526001602052604090205490565b7fdf8b4c520ffe197c5343c6f5aec59570151ef9a492f2c624fd45ddde6135ec4281565b6000610e0d8260405180606001604052806024815260200161210560249139610e06866104c6611049565b91906112e6565b9050610e2183610e1b611049565b8361104d565b610a9e83836115b4565b6000828152602081905260408120610e4390836116d8565b9392505050565b6000828152602081905260408120610e4390836116e4565b60058054604080516020601f60027fffffffffffffffffffffffffffffffffffffffffffffffffffffffffffffffff6101006001881615020190951694909404938401819004810282018101909252828152606093909290918301828280156105885780601f1061055d57610100808354040283529160200191610588565b600081565b60006105a6610ef3611049565b84610714856040518060600160405280602581526020016121296025913960026000610f1d611049565b73ffffffffffffffffffffffffffffffffffffffff908116825260208083019390935260409182016000908120918d168152925290205491906112e6565b60006105a6610f68611049565b848461115c565b60008181526020819052604081206105aa90611706565b600082815260208190526040902060020154610fa490610457611049565b61089a576040517f08c379a000000000000000000000000000000000000000000000000000000000815260040161061090611d01565b73ffffffffffffffffffffffffffffffffffffffff918216600090815260026020908152604080832093909416825291909152205490565b60086020526000908152604090205460ff1681565b6000610e438373ffffffffffffffffffffffffffffffffffffffff8416611711565b3390565b73ffffffffffffffffffffffffffffffffffffffff831661109a576040517f08c379a000000000000000000000000000000000000000000000000000000000815260040161061090611e75565b73ffffffffffffffffffffffffffffffffffffffff82166110e7576040517f08c379a000000000000000000000000000000000000000000000000000000000815260040161061090611c36565b73ffffffffffffffffffffffffffffffffffffffff80841660008181526002602090815260408083209487168084529490915290819020849055517f8c5be1e5ebec7d5bd14f71427d1e84f3dd0314c0f7b2291e5b200ac8c7c3b9259061114f908590611aa5565b60405180910390a3505050565b73ffffffffffffffffffffffffffffffffffffffff83166111a9576040517f08c379a000000000000000000000000000000000000000000000000000000000815260040161061090611dbb565b73ffffffffffffffffffffffffffffffffffffffff82166111f6576040517f08c379a000000000000000000000000000000000000000000000000000000000815260040161061090611b7c565b611201838383610a9e565b61124b816040518060600160405280602681526020016120b76026913973ffffffffffffffffffffffffffffffffffffffff861660009081526001602052604090205491906112e6565b73ffffffffffffffffffffffffffffffffffffffff80851660009081526001602052604080822093909355908416815220546112879082611474565b73ffffffffffffffffffffffffffffffffffffffff80841660008181526001602052604090819020939093559151908516907fddf252ad1be2c89b69c2b068fc378daa952ba7f163c4a11628f55a4df523b3ef9061114f908590611aa5565b60008184841115611324576040517f08c379a00000000000000000000000000000000000000000000000000000000081526004016106109190611aae565b505050900390565b6000610e4383836040518060400160405280601e81526020017f536166654d6174683a207375627472616374696f6e206f766572666c6f7700008152506112e6565b60008281526020819052604090206113869082611027565b1561082157611393611049565b73ffffffffffffffffffffffffffffffffffffffff168173ffffffffffffffffffffffffffffffffffffffff16837f2f8788117e7eff1d82e926ec794901d17c78024a50270940304540a733656f0d60405160405180910390a45050565b6000828152602081905260409020611409908261175b565b1561082157611416611049565b73ffffffffffffffffffffffffffffffffffffffff168173ffffffffffffffffffffffffffffffffffffffff16837ff6391f5c32d9c69d2a47ea670b442974b53935d1edc7fd64eb21e047a839171b60405160405180910390a45050565b600082820183811015610e43576040517f08c379a000000000000000000000000000000000000000000000000000000000815260040161061090611c93565b73ffffffffffffffffffffffffffffffffffffffff8216611500576040517f08c379a000000000000000000000000000000000000000000000000000000000815260040161061090611ff6565b61150c60008383610a9e565b6003546115199082611474565b60035573ffffffffffffffffffffffffffffffffffffffff821660009081526001602052604090205461154c9082611474565b73ffffffffffffffffffffffffffffffffffffffff83166000818152600160205260408082209390935591519091907fddf252ad1be2c89b69c2b068fc378daa952ba7f163c4a11628f55a4df523b3ef906115a8908590611aa5565b60405180910390a35050565b73ffffffffffffffffffffffffffffffffffffffff8216611601576040517f08c379a000000000000000000000000000000000000000000000000000000000815260040161061090611d5e565b61160d82600083610a9e565b611657816040518060600160405280602281526020016120956022913973ffffffffffffffffffffffffffffffffffffffff851660009081526001602052604090205491906112e6565b73ffffffffffffffffffffffffffffffffffffffff831660009081526001602052604090205560035461168a908261132c565b60035560405160009073ffffffffffffffffffffffffffffffffffffffff8416907fddf252ad1be2c89b69c2b068fc378daa952ba7f163c4a11628f55a4df523b3ef906115a8908590611aa5565b6000610e43838361177d565b6000610e438373ffffffffffffffffffffffffffffffffffffffff84166117dc565b60006105aa826117f4565b600061171d83836117dc565b611753575081546001818101845560008481526020808220909301849055845484825282860190935260409020919091556105aa565b5060006105aa565b6000610e438373ffffffffffffffffffffffffffffffffffffffff84166117f8565b815460009082106117ba576040517f08c379a000000000000000000000000000000000000000000000000000000000815260040161061090611b1f565b8260000182815481106117c957fe5b9060005260206000200154905092915050565b60009081526001919091016020526040902054151590565b5490565b600081815260018301602052604081205480156118d25783547fffffffffffffffffffffffffffffffffffffffffffffffffffffffffffffffff808301919081019060009087908390811061184957fe5b906000526020600020015490508087600001848154811061186657fe5b60009182526020808320909101929092558281526001898101909252604090209084019055865487908061189657fe5b600190038181906000526020600020016000905590558660010160008781526020019081526020016000206000905560019450505050506105aa565b60009150506105aa565b803573ffffffffffffffffffffffffffffffffffffffff811681146105aa57600080fd5b600060208284031215611911578081fd5b610e4383836118dc565b6000806040838503121561192d578081fd5b61193784846118dc565b915061194684602085016118dc565b90509250929050565b600080600060608486031215611963578081fd5b833561196e81612072565b9250602084013561197e81612072565b929592945050506040919091013590565b600080604083850312156119a1578182fd5b6119ab84846118dc565b9150602083013580151581146119bf578182fd5b809150509250929050565b600080604083850312156119dc578182fd5b6119e684846118dc565b946020939093013593505050565b600060208284031215611a05578081fd5b5035919050565b60008060408385031215611a1e578182fd5b8235915060208301356119bf81612072565b60008060408385031215611a42578182fd5b50508035926020909101359150565b73ffffffffffffffffffffffffffffffffffffffff91909116815260200190565b73ffffffffffffffffffffffffffffffffffffffff9290921682521515602082015260400190565b901515815260200190565b90815260200190565b6000602080835283518082850152825b81811015611ada57858101830151858201604001528201611abe565b81811115611aeb5783604083870101525b50601f017fffffffffffffffffffffffffffffffffffffffffffffffffffffffffffffffe016929092016040019392505050565b60208082526022908201527f456e756d657261626c655365743a20696e646578206f7574206f6620626f756e60408201527f6473000000000000000000000000000000000000000000000000000000000000606082015260800190565b60208082526023908201527f45524332303a207472616e7366657220746f20746865207a65726f206164647260408201527f6573730000000000000000000000000000000000000000000000000000000000606082015260800190565b6020808252602f908201527f416363657373436f6e74726f6c3a2073656e646572206d75737420626520616e60408201527f2061646d696e20746f206772616e740000000000000000000000000000000000606082015260800190565b60208082526022908201527f45524332303a20617070726f766520746f20746865207a65726f20616464726560408201527f7373000000000000000000000000000000000000000000000000000000000000606082015260800190565b6020808252601b908201527f536166654d6174683a206164646974696f6e206f766572666c6f770000000000604082015260600190565b6020808252600a908201527f6f6e6c792061646d696e00000000000000000000000000000000000000000000604082015260600190565b60208082526030908201527f416363657373436f6e74726f6c3a2073656e646572206d75737420626520616e60408201527f2061646d696e20746f207265766f6b6500000000000000000000000000000000606082015260800190565b60208082526021908201527f45524332303a206275726e2066726f6d20746865207a65726f2061646472657360408201527f7300000000000000000000000000000000000000000000000000000000000000606082015260800190565b60208082526025908201527f45524332303a207472616e736665722066726f6d20746865207a65726f20616460408201527f6472657373000000000000000000000000000000000000000000000000000000606082015260800190565b60208082526028908201527f416c5553443a20416c6368656d6973742773206365696c696e6720776173206260408201527f726561636865642e000000000000000000000000000000000000000000000000606082015260800190565b60208082526024908201527f45524332303a20617070726f76652066726f6d20746865207a65726f2061646460408201527f7265737300000000000000000000000000000000000000000000000000000000606082015260800190565b60208082526023908201527f416c5553443a20416c6368656d697374206973206e6f742077686974656c697360408201527f7465640000000000000000000000000000000000000000000000000000000000606082015260800190565b6020808252818101527f416c5553443a20757365722069732063757272656e746c79207061757365642e604082015260600190565b6020808252818101527f416c5553443a20416c6368656d69737420697320626c61636b6c69737465642e604082015260600190565b6020808252602f908201527f416363657373436f6e74726f6c3a2063616e206f6e6c792072656e6f756e636560408201527f20726f6c657320666f722073656c660000000000000000000000000000000000606082015260800190565b6020808252601f908201527f45524332303a206d696e7420746f20746865207a65726f206164647265737300604082015260600190565b6020808252600d908201527f6f6e6c792073656e74696e656c00000000000000000000000000000000000000604082015260600190565b60ff91909116815260200190565b73ffffffffffffffffffffffffffffffffffffffff8116811461064357600080fdfe45524332303a206275726e20616d6f756e7420657863656564732062616c616e636545524332303a207472616e7366657220616d6f756e7420657863656564732062616c616e636545524332303a207472616e7366657220616d6f756e74206578636565647320616c6c6f77616e636545524332303a206275726e20616d6f756e74206578636565647320616c6c6f77616e636545524332303a2064656372656173656420616c6c6f77616e63652062656c6f77207a65726fa2646970667358221220de2f4a9ed5e992614e65383e8b1cd5812f0f3e3945efa6a943d6ee188856122964736f6c634300060c0033df8b4c520ffe197c5343c6f5aec59570151ef9a492f2c624fd45ddde6135ec42d3eedd6d69d410e954f4c622838ecc3acae9fdcd83cad412075c85b092770656",
  "devdoc": {
    "details": "This is the contract for the Alchemix utillity token usd. Initially, the contract deployer is given both the admin and minter role. This allows them to pre-mine tokens, transfer admin to a timelock contract, and lastly, grant the staking pools the minter role. After this is done, the deployer must revoke their admin role and minter role.",
    "kind": "dev",
    "methods": {
      "allowance(address,address)": {
        "details": "See {IERC20-allowance}."
      },
      "approve(address,uint256)": {
        "details": "See {IERC20-approve}. Requirements: - `spender` cannot be the zero address."
      },
      "balanceOf(address)": {
        "details": "See {IERC20-balanceOf}."
      },
      "burn(uint256)": {
        "details": "Destroys `amount` tokens from the caller. See {ERC20-_burn}."
      },
      "burnFrom(address,uint256)": {
        "details": "Destroys `amount` tokens from `account`, deducting from the caller's allowance. See {ERC20-_burn} and {ERC20-allowance}. Requirements: - the caller must have allowance for ``accounts``'s tokens of at least `amount`."
      },
      "decimals()": {
        "details": "Returns the number of decimals used to get its user representation. For example, if `decimals` equals `2`, a balance of `505` tokens should be displayed to a user as `5,05` (`505 / 10 ** 2`). Tokens usually opt for a value of 18, imitating the relationship between Ether and Wei. This is the value {ERC20} uses, unless {_setupDecimals} is called. NOTE: This information is only used for _display_ purposes: it in no way affects any of the arithmetic of the contract, including {IERC20-balanceOf} and {IERC20-transfer}."
      },
      "decreaseAllowance(address,uint256)": {
        "details": "Atomically decreases the allowance granted to `spender` by the caller. This is an alternative to {approve} that can be used as a mitigation for problems described in {IERC20-approve}. Emits an {Approval} event indicating the updated allowance. Requirements: - `spender` cannot be the zero address. - `spender` must have allowance for the caller of at least `subtractedValue`."
      },
      "getRoleAdmin(bytes32)": {
        "details": "Returns the admin role that controls `role`. See {grantRole} and {revokeRole}. To change a role's admin, use {_setRoleAdmin}."
      },
      "getRoleMember(bytes32,uint256)": {
        "details": "Returns one of the accounts that have `role`. `index` must be a value between 0 and {getRoleMemberCount}, non-inclusive. Role bearers are not sorted in any particular way, and their ordering may change at any point. WARNING: When using {getRoleMember} and {getRoleMemberCount}, make sure you perform all queries on the same block. See the following https://forum.openzeppelin.com/t/iterating-over-elements-on-enumerableset-in-openzeppelin-contracts/2296[forum post] for more information."
      },
      "getRoleMemberCount(bytes32)": {
        "details": "Returns the number of accounts that have `role`. Can be used together with {getRoleMember} to enumerate all bearers of a role."
      },
      "grantRole(bytes32,address)": {
        "details": "Grants `role` to `account`. If `account` had not been already granted `role`, emits a {RoleGranted} event. Requirements: - the caller must have ``role``'s admin role."
      },
      "hasRole(bytes32,address)": {
        "details": "Returns `true` if `account` has been granted `role`."
      },
      "increaseAllowance(address,uint256)": {
        "details": "Atomically increases the allowance granted to `spender` by the caller. This is an alternative to {approve} that can be used as a mitigation for problems described in {IERC20-approve}. Emits an {Approval} event indicating the updated allowance. Requirements: - `spender` cannot be the zero address."
      },
      "lowerHasMinted(uint256)": {
        "details": "lowers hasminted from the caller's allocation"
      },
      "mint(address,uint256)": {
        "details": "Mints tokens to a recipient. This function reverts if the caller does not have the minter role.",
        "params": {
          "_amount": "the amount of tokens to mint.",
          "_recipient": "the account to mint tokens to."
        }
      },
      "name()": {
        "details": "Returns the name of the token."
      },
      "renounceRole(bytes32,address)": {
        "details": "Revokes `role` from the calling account. Roles are often managed via {grantRole} and {revokeRole}: this function's purpose is to provide a mechanism for accounts to lose their privileges if they are compromised (such as when a trusted device is misplaced). If the calling account had been granted `role`, emits a {RoleRevoked} event. Requirements: - the caller must be `account`."
      },
      "revokeRole(bytes32,address)": {
        "details": "Revokes `role` from `account`. If `account` had been granted `role`, emits a {RoleRevoked} event. Requirements: - the caller must have ``role``'s admin role."
      },
      "setBlacklist(address)": {
        "params": {
          "_toBlacklist": "the account to mint tokens to."
        }
      },
      "setCeiling(address,uint256)": {
        "params": {
          "_ceiling": "the max amount of tokens the account is allowed to mint.",
          "_toSetCeiling": "the account set the ceiling off."
        }
      },
      "setSentinel(address)": {
        "params": {
          "_newSentinel": "the account to set as sentinel."
        }
      },
      "setWhitelist(address,bool)": {
        "params": {
          "_state": "the whitelist state.",
          "_toWhitelist": "the account to mint tokens to."
        }
      },
      "symbol()": {
        "details": "Returns the symbol of the token, usually a shorter version of the name."
      },
      "totalSupply()": {
        "details": "See {IERC20-totalSupply}."
      },
      "transfer(address,uint256)": {
        "details": "See {IERC20-transfer}. Requirements: - `recipient` cannot be the zero address. - the caller must have a balance of at least `amount`."
      },
      "transferFrom(address,address,uint256)": {
        "details": "See {IERC20-transferFrom}. Emits an {Approval} event indicating the updated allowance. This is not required by the EIP. See the note at the beginning of {ERC20}; Requirements: - `sender` and `recipient` cannot be the zero address. - `sender` must have a balance of at least `amount`. - the caller must have allowance for ``sender``'s tokens of at least `amount`."
      }
    },
    "stateVariables": {
      "ADMIN_ROLE": {
        "details": "The identifier of the role which maintains other roles."
      },
      "SENTINEL_ROLE": {
        "details": "The identifier of the role which allows accounts to mint tokens."
      },
      "blacklist": {
        "details": "addresses blacklisted for minting new tokens"
      },
      "ceiling": {
        "details": "ceiling per address for minting new tokens"
      },
      "hasMinted": {
        "details": "already minted amount per address to track the ceiling"
      },
      "paused": {
        "details": "addresses paused for minting new tokens"
      },
      "whiteList": {
        "details": "addresses whitelisted for minting new tokens"
      }
    },
    "title": "AlToken",
    "version": 1
  },
  "userdoc": {
    "kind": "user",
    "methods": {
      "pauseAlchemist(address,bool)": {
        "notice": "This function reverts if the caller does not have the admin role."
      },
      "setBlacklist(address)": {
        "notice": "This function reverts if the caller does not have the admin role."
      },
      "setCeiling(address,uint256)": {
        "notice": "This function reverts if the caller does not have the admin role."
      },
      "setSentinel(address)": {
        "notice": "This function reverts if the caller does not have the admin role."
      },
      "setWhitelist(address,bool)": {
        "notice": "This function reverts if the caller does not have the admin role."
      }
    },
    "version": 1
  },
  "storageLayout": {
    "storage": [
      {
        "astId": 45,
        "contract": "contracts/AlToken.sol:AlToken",
        "label": "_roles",
        "offset": 0,
        "slot": "0",
        "type": "t_mapping(t_bytes32,t_struct(RoleData)41_storage)"
      },
      {
        "astId": 704,
        "contract": "contracts/AlToken.sol:AlToken",
        "label": "_balances",
        "offset": 0,
        "slot": "1",
        "type": "t_mapping(t_address,t_uint256)"
      },
      {
        "astId": 710,
        "contract": "contracts/AlToken.sol:AlToken",
        "label": "_allowances",
        "offset": 0,
        "slot": "2",
        "type": "t_mapping(t_address,t_mapping(t_address,t_uint256))"
      },
      {
        "astId": 712,
        "contract": "contracts/AlToken.sol:AlToken",
        "label": "_totalSupply",
        "offset": 0,
        "slot": "3",
        "type": "t_uint256"
      },
      {
        "astId": 714,
        "contract": "contracts/AlToken.sol:AlToken",
        "label": "_name",
        "offset": 0,
        "slot": "4",
        "type": "t_string_storage"
      },
      {
        "astId": 716,
        "contract": "contracts/AlToken.sol:AlToken",
        "label": "_symbol",
        "offset": 0,
        "slot": "5",
        "type": "t_string_storage"
      },
      {
        "astId": 718,
        "contract": "contracts/AlToken.sol:AlToken",
        "label": "_decimals",
        "offset": 0,
        "slot": "6",
        "type": "t_uint8"
      },
      {
        "astId": 2151,
        "contract": "contracts/AlToken.sol:AlToken",
        "label": "whiteList",
        "offset": 0,
        "slot": "7",
        "type": "t_mapping(t_address,t_bool)"
      },
      {
        "astId": 2156,
        "contract": "contracts/AlToken.sol:AlToken",
        "label": "blacklist",
        "offset": 0,
        "slot": "8",
        "type": "t_mapping(t_address,t_bool)"
      },
      {
        "astId": 2161,
        "contract": "contracts/AlToken.sol:AlToken",
        "label": "paused",
        "offset": 0,
        "slot": "9",
        "type": "t_mapping(t_address,t_bool)"
      },
      {
        "astId": 2166,
        "contract": "contracts/AlToken.sol:AlToken",
        "label": "ceiling",
        "offset": 0,
        "slot": "10",
        "type": "t_mapping(t_address,t_uint256)"
      },
      {
        "astId": 2171,
        "contract": "contracts/AlToken.sol:AlToken",
        "label": "hasMinted",
        "offset": 0,
        "slot": "11",
        "type": "t_mapping(t_address,t_uint256)"
      }
    ],
    "types": {
      "t_address": {
        "encoding": "inplace",
        "label": "address",
        "numberOfBytes": "20"
      },
      "t_array(t_bytes32)dyn_storage": {
        "base": "t_bytes32",
        "encoding": "dynamic_array",
        "label": "bytes32[]",
        "numberOfBytes": "32"
      },
      "t_bool": {
        "encoding": "inplace",
        "label": "bool",
        "numberOfBytes": "1"
      },
      "t_bytes32": {
        "encoding": "inplace",
        "label": "bytes32",
        "numberOfBytes": "32"
      },
      "t_mapping(t_address,t_bool)": {
        "encoding": "mapping",
        "key": "t_address",
        "label": "mapping(address => bool)",
        "numberOfBytes": "32",
        "value": "t_bool"
      },
      "t_mapping(t_address,t_mapping(t_address,t_uint256))": {
        "encoding": "mapping",
        "key": "t_address",
        "label": "mapping(address => mapping(address => uint256))",
        "numberOfBytes": "32",
        "value": "t_mapping(t_address,t_uint256)"
      },
      "t_mapping(t_address,t_uint256)": {
        "encoding": "mapping",
        "key": "t_address",
        "label": "mapping(address => uint256)",
        "numberOfBytes": "32",
        "value": "t_uint256"
      },
      "t_mapping(t_bytes32,t_struct(RoleData)41_storage)": {
        "encoding": "mapping",
        "key": "t_bytes32",
        "label": "mapping(bytes32 => struct AccessControl.RoleData)",
        "numberOfBytes": "32",
        "value": "t_struct(RoleData)41_storage"
      },
      "t_mapping(t_bytes32,t_uint256)": {
        "encoding": "mapping",
        "key": "t_bytes32",
        "label": "mapping(bytes32 => uint256)",
        "numberOfBytes": "32",
        "value": "t_uint256"
      },
      "t_string_storage": {
        "encoding": "bytes",
        "label": "string",
        "numberOfBytes": "32"
      },
      "t_struct(AddressSet)1867_storage": {
        "encoding": "inplace",
        "label": "struct EnumerableSet.AddressSet",
        "members": [
          {
            "astId": 1866,
            "contract": "contracts/AlToken.sol:AlToken",
            "label": "_inner",
            "offset": 0,
            "slot": "0",
            "type": "t_struct(Set)1687_storage"
          }
        ],
        "numberOfBytes": "64"
      },
      "t_struct(RoleData)41_storage": {
        "encoding": "inplace",
        "label": "struct AccessControl.RoleData",
        "members": [
          {
            "astId": 38,
            "contract": "contracts/AlToken.sol:AlToken",
            "label": "members",
            "offset": 0,
            "slot": "0",
            "type": "t_struct(AddressSet)1867_storage"
          },
          {
            "astId": 40,
            "contract": "contracts/AlToken.sol:AlToken",
            "label": "adminRole",
            "offset": 0,
            "slot": "2",
            "type": "t_bytes32"
          }
        ],
        "numberOfBytes": "96"
      },
      "t_struct(Set)1687_storage": {
        "encoding": "inplace",
        "label": "struct EnumerableSet.Set",
        "members": [
          {
            "astId": 1682,
            "contract": "contracts/AlToken.sol:AlToken",
            "label": "_values",
            "offset": 0,
            "slot": "0",
            "type": "t_array(t_bytes32)dyn_storage"
          },
          {
            "astId": 1686,
            "contract": "contracts/AlToken.sol:AlToken",
            "label": "_indexes",
            "offset": 0,
            "slot": "1",
            "type": "t_mapping(t_bytes32,t_uint256)"
          }
        ],
        "numberOfBytes": "64"
      },
      "t_uint256": {
        "encoding": "inplace",
        "label": "uint256",
        "numberOfBytes": "32"
      },
      "t_uint8": {
        "encoding": "inplace",
        "label": "uint8",
        "numberOfBytes": "1"
      }
    }
  }
}