{
  "address": "0xe66db0f190A0697F5d162caB5e65A4D3241CdCB8",
  "abi": [
    {
      "inputs": [
        {
          "internalType": "contract IDetailedERC20",
          "name": "_poolToken",
          "type": "address"
        },
        {
          "internalType": "contract IDetailedERC20",
          "name": "_token",
          "type": "address"
        },
        {
          "internalType": "contract IStakingPools",
          "name": "_stakingPools",
          "type": "address"
        },
        {
          "internalType": "address",
          "name": "_multisig",
          "type": "address"
        }
      ],
      "stateMutability": "nonpayable",
      "type": "constructor"
    },
    {
      "anonymous": false,
      "inputs": [
        {
          "indexed": true,
          "internalType": "bytes32",
          "name": "role",
          "type": "bytes32"
        },
        {
          "indexed": true,
          "internalType": "bytes32",
          "name": "previousAdminRole",
          "type": "bytes32"
        },
        {
          "indexed": true,
          "internalType": "bytes32",
          "name": "newAdminRole",
          "type": "bytes32"
        }
      ],
      "name": "RoleAdminChanged",
      "type": "event"
    },
    {
      "anonymous": false,
      "inputs": [
        {
          "indexed": true,
          "internalType": "bytes32",
          "name": "role",
          "type": "bytes32"
        },
        {
          "indexed": true,
          "internalType": "address",
          "name": "account",
          "type": "address"
        },
        {
          "indexed": true,
          "internalType": "address",
          "name": "sender",
          "type": "address"
        }
      ],
      "name": "RoleGranted",
      "type": "event"
    },
    {
      "anonymous": false,
      "inputs": [
        {
          "indexed": true,
          "internalType": "bytes32",
          "name": "role",
          "type": "bytes32"
        },
        {
          "indexed": true,
          "internalType": "address",
          "name": "account",
          "type": "address"
        },
        {
          "indexed": true,
          "internalType": "address",
          "name": "sender",
          "type": "address"
        }
      ],
      "name": "RoleRevoked",
      "type": "event"
    },
    {
      "inputs": [],
      "name": "ADMIN_ROLE",
      "outputs": [
        {
          "internalType": "bytes32",
          "name": "",
          "type": "bytes32"
        }
      ],
      "stateMutability": "view",
      "type": "function"
    },
    {
      "inputs": [],
      "name": "DEFAULT_ADMIN_ROLE",
      "outputs": [
        {
          "internalType": "bytes32",
          "name": "",
          "type": "bytes32"
        }
      ],
      "stateMutability": "view",
      "type": "function"
    },
    {
      "inputs": [],
      "name": "alchemixToken",
      "outputs": [
        {
          "internalType": "contract IDetailedERC20",
          "name": "",
          "type": "address"
        }
      ],
      "stateMutability": "view",
      "type": "function"
    },
    {
      "inputs": [
        {
          "internalType": "uint256",
          "name": "_amount",
          "type": "uint256"
        }
      ],
      "name": "approvePoolToken",
      "outputs": [],
      "stateMutability": "nonpayable",
      "type": "function"
    },
    {
      "inputs": [
        {
          "internalType": "uint256",
          "name": "_poolId",
          "type": "uint256"
        }
      ],
      "name": "claimAndFlush",
      "outputs": [],
      "stateMutability": "nonpayable",
      "type": "function"
    },
    {
      "inputs": [
        {
          "internalType": "uint256",
          "name": "_poolId",
          "type": "uint256"
        }
      ],
      "name": "claimFromStakingPools",
      "outputs": [],
      "stateMutability": "nonpayable",
      "type": "function"
    },
    {
      "inputs": [
        {
          "internalType": "uint256",
          "name": "_poolId",
          "type": "uint256"
        },
        {
          "internalType": "uint256",
          "name": "_withdrawAmount",
          "type": "uint256"
        }
      ],
      "name": "exitFromStakingPools",
      "outputs": [],
      "stateMutability": "nonpayable",
      "type": "function"
    },
    {
      "inputs": [],
      "name": "flushToMultisig",
      "outputs": [],
      "stateMutability": "nonpayable",
      "type": "function"
    },
    {
      "inputs": [
        {
          "internalType": "bytes32",
          "name": "role",
          "type": "bytes32"
        }
      ],
      "name": "getRoleAdmin",
      "outputs": [
        {
          "internalType": "bytes32",
          "name": "",
          "type": "bytes32"
        }
      ],
      "stateMutability": "view",
      "type": "function"
    },
    {
      "inputs": [
        {
          "internalType": "bytes32",
          "name": "role",
          "type": "bytes32"
        },
        {
          "internalType": "uint256",
          "name": "index",
          "type": "uint256"
        }
      ],
      "name": "getRoleMember",
      "outputs": [
        {
          "internalType": "address",
          "name": "",
          "type": "address"
        }
      ],
      "stateMutability": "view",
      "type": "function"
    },
    {
      "inputs": [
        {
          "internalType": "bytes32",
          "name": "role",
          "type": "bytes32"
        }
      ],
      "name": "getRoleMemberCount",
      "outputs": [
        {
          "internalType": "uint256",
          "name": "",
          "type": "uint256"
        }
      ],
      "stateMutability": "view",
      "type": "function"
    },
    {
      "inputs": [
        {
          "internalType": "bytes32",
          "name": "role",
          "type": "bytes32"
        },
        {
          "internalType": "address",
          "name": "account",
          "type": "address"
        }
      ],
      "name": "grantRole",
      "outputs": [],
      "stateMutability": "nonpayable",
      "type": "function"
    },
    {
      "inputs": [
        {
          "internalType": "bytes32",
          "name": "role",
          "type": "bytes32"
        },
        {
          "internalType": "address",
          "name": "account",
          "type": "address"
        }
      ],
      "name": "hasRole",
      "outputs": [
        {
          "internalType": "bool",
          "name": "",
          "type": "bool"
        }
      ],
      "stateMutability": "view",
      "type": "function"
    },
    {
      "inputs": [],
      "name": "multisig",
      "outputs": [
        {
          "internalType": "address",
          "name": "",
          "type": "address"
        }
      ],
      "stateMutability": "view",
      "type": "function"
    },
    {
      "inputs": [],
      "name": "poolToken",
      "outputs": [
        {
          "internalType": "contract IDetailedERC20",
          "name": "",
          "type": "address"
        }
      ],
      "stateMutability": "view",
      "type": "function"
    },
    {
      "inputs": [
        {
          "internalType": "bytes32",
          "name": "role",
          "type": "bytes32"
        },
        {
          "internalType": "address",
          "name": "account",
          "type": "address"
        }
      ],
      "name": "renounceRole",
      "outputs": [],
      "stateMutability": "nonpayable",
      "type": "function"
    },
    {
      "inputs": [
        {
          "internalType": "bytes32",
          "name": "role",
          "type": "bytes32"
        },
        {
          "internalType": "address",
          "name": "account",
          "type": "address"
        }
      ],
      "name": "revokeRole",
      "outputs": [],
      "stateMutability": "nonpayable",
      "type": "function"
    },
    {
      "inputs": [
        {
          "internalType": "uint256",
          "name": "_poolId",
          "type": "uint256"
        },
        {
          "internalType": "uint256",
          "name": "_depositAmount",
          "type": "uint256"
        }
      ],
      "name": "stakePoolToken",
      "outputs": [],
      "stateMutability": "nonpayable",
      "type": "function"
    },
    {
      "inputs": [],
      "name": "stakingPools",
      "outputs": [
        {
          "internalType": "contract IStakingPools",
          "name": "",
          "type": "address"
        }
      ],
      "stateMutability": "view",
      "type": "function"
    },
    {
      "inputs": [
        {
          "internalType": "contract IDetailedERC20",
          "name": "_token",
          "type": "address"
        },
        {
          "internalType": "uint256",
          "name": "_amount",
          "type": "uint256"
        }
      ],
      "name": "transferOut",
      "outputs": [],
      "stateMutability": "nonpayable",
      "type": "function"
    }
  ],
  "transactionHash": "0x4af4f3763e84cc18d368e1e8d59d7190cafcfe1e2b78e7f0307286fac3a8da53",
  "args": [
    "0x8A2F2E0FD65cAEe0622Ee7ba98B67F73717d1683",
    "0xdBdb4d16EdA451D0503b854CF79D55697F90c8DF",
    "0xAB8e74017a8Cc7c15FFcCd726603790d26d7DeCa",
    "0x8392F6669292fA56123F71949B52d883aE57e225"
  ],
  "solcInputHash": "6bb8695413dfe9a00398b00d06295c3d",
  "bytecode": "0x60806040523480156200001157600080fd5b506040516200152a3803806200152a833981016040819052620000349162000224565b6200004f6000805160206200150a83398151915233620000be565b6200006a6000805160206200150a83398151915280620000ce565b600180546001600160a01b039586166001600160a01b0319918216179091556002805494861694821694909417909355600480549285169284169290921790915560038054919093169116179055620002a4565b620000ca828262000120565b5050565b600082815260208190526040808220600201549051839285917fbd79b86ffe0ab8e8776151514217cd7cacd52c909f66475c3af44e129f0b00ff9190a460009182526020829052604090912060020155565b6000828152602081815260409091206200014591839062000be562000199821b17901c565b15620000ca5762000155620001b9565b6001600160a01b0316816001600160a01b0316837f2f8788117e7eff1d82e926ec794901d17c78024a50270940304540a733656f0d60405160405180910390a45050565b6000620001b0836001600160a01b038416620001bd565b90505b92915050565b3390565b6000620001cb83836200020c565b6200020357508154600181810184556000848152602080822090930184905584548482528286019093526040902091909155620001b3565b506000620001b3565b60009081526001919091016020526040902054151590565b600080600080608085870312156200023a578384fd5b845162000247816200028b565b60208601519094506200025a816200028b565b60408601519093506200026d816200028b565b606086015190925062000280816200028b565b939692955090935050565b6001600160a01b0381168114620002a157600080fd5b50565b61125680620002b46000396000f3fe608060405234801561001057600080fd5b506004361061016c5760003560e01c80638f8d9565116100cd578063b34e6d1311610081578063cbdf382c11610066578063cbdf382c146102af578063d05e0120146102b7578063d547741f146102bf5761016c565b8063b34e6d1314610289578063ca15c8731461029c5761016c565b806391d14854116100b257806391d148541461025957806398695b8e14610279578063a217fddf146102815761016c565b80638f8d9565146102335780639010d07c146102465761016c565b8063590384ae1161012457806375b238fc1161010957806375b238fc1461020557806376890c581461020d57806376bcd355146102205761016c565b8063590384ae146101df57806365d1b14c146101f25761016c565b806336568abe1161015557806336568abe146101af578063472e50d4146101c25780634783c35b146101d75761016c565b8063248a9ca3146101715780632f2ff15d1461019a575b600080fd5b61018461017f366004610f3c565b6102d2565b6040516101919190611039565b60405180910390f35b6101ad6101a8366004610f54565b6102e7565b005b6101ad6101bd366004610f54565b610352565b6101ca6103c8565b6040516101919190610fe7565b6101ca6103e4565b6101ad6101ed366004610f3c565b610400565b6101ad610200366004610f3c565b61048a565b61018461066f565b6101ad61021b366004610fa4565b610693565b6101ad61022e366004610f83565b61074d565b6101ad610241366004610f83565b61083a565b6101ca610254366004610f83565b6108f1565b61026c610267366004610f54565b610912565b604051610191919061102e565b6101ad61092a565b610184610a81565b6101ad610297366004610f3c565b610a86565b6101846102aa366004610f3c565b610b42565b6101ca610b59565b6101ca610b75565b6101ad6102cd366004610f54565b610b91565b60009081526020819052604090206002015490565b60008281526020819052604090206002015461030590610267610c07565b610344576040517f08c379a000000000000000000000000000000000000000000000000000000000815260040161033b9061109f565b60405180910390fd5b61034e8282610c0b565b5050565b61035a610c07565b73ffffffffffffffffffffffffffffffffffffffff168173ffffffffffffffffffffffffffffffffffffffff16146103be576040517f08c379a000000000000000000000000000000000000000000000000000000000815260040161033b90611190565b61034e8282610c8e565b60045473ffffffffffffffffffffffffffffffffffffffff1681565b60035473ffffffffffffffffffffffffffffffffffffffff1681565b600480546040517f379607f500000000000000000000000000000000000000000000000000000000815273ffffffffffffffffffffffffffffffffffffffff9091169163379607f59161045591859101611039565b600060405180830381600087803b15801561046f57600080fd5b505af1158015610483573d6000803e3d6000fd5b5050505050565b600480546040517f379607f500000000000000000000000000000000000000000000000000000000815273ffffffffffffffffffffffffffffffffffffffff9091169163379607f5916104df91859101611039565b600060405180830381600087803b1580156104f957600080fd5b505af115801561050d573d6000803e3d6000fd5b50506002546040517f70a082310000000000000000000000000000000000000000000000000000000081526000935073ffffffffffffffffffffffffffffffffffffffff90911691506370a082319061056a903090600401610fe7565b60206040518083038186803b15801561058257600080fd5b505afa158015610596573d6000803e3d6000fd5b505050506040513d601f19601f820116820180604052508101906105ba9190610fcf565b6002546003546040517fa9059cbb00000000000000000000000000000000000000000000000000000000815292935073ffffffffffffffffffffffffffffffffffffffff9182169263a9059cbb926106189216908590600401611008565b602060405180830381600087803b15801561063257600080fd5b505af1158015610646573d6000803e3d6000fd5b505050506040513d601f19601f8201168201806040525081019061066a9190610f15565b505050565b7fdf8b4c520ffe197c5343c6f5aec59570151ef9a492f2c624fd45ddde6135ec4281565b6106bd7fdf8b4c520ffe197c5343c6f5aec59570151ef9a492f2c624fd45ddde6135ec4233610912565b6106f3576040517f08c379a000000000000000000000000000000000000000000000000000000000815260040161033b90611159565b6003546040517fa9059cbb00000000000000000000000000000000000000000000000000000000815273ffffffffffffffffffffffffffffffffffffffff8481169263a9059cbb9261061892909116908590600401611008565b6107777fdf8b4c520ffe197c5343c6f5aec59570151ef9a492f2c624fd45ddde6135ec4233610912565b6107ad576040517f08c379a000000000000000000000000000000000000000000000000000000000815260040161033b90611159565b600480546040517fe2bbb15800000000000000000000000000000000000000000000000000000000815273ffffffffffffffffffffffffffffffffffffffff9091169163e2bbb158916108049186918691016111ed565b600060405180830381600087803b15801561081e57600080fd5b505af1158015610832573d6000803e3d6000fd5b505050505050565b6108647fdf8b4c520ffe197c5343c6f5aec59570151ef9a492f2c624fd45ddde6135ec4233610912565b61089a576040517f08c379a000000000000000000000000000000000000000000000000000000000815260040161033b90611159565b600480546040517f441a3e7000000000000000000000000000000000000000000000000000000000815273ffffffffffffffffffffffffffffffffffffffff9091169163441a3e70916108049186918691016111ed565b60008281526020819052604081206109099083610d11565b90505b92915050565b60008281526020819052604081206109099083610d1d565b6002546040517f70a0823100000000000000000000000000000000000000000000000000000000815260009173ffffffffffffffffffffffffffffffffffffffff16906370a0823190610981903090600401610fe7565b60206040518083038186803b15801561099957600080fd5b505afa1580156109ad573d6000803e3d6000fd5b505050506040513d601f19601f820116820180604052508101906109d19190610fcf565b6002546003546040517fa9059cbb00000000000000000000000000000000000000000000000000000000815292935073ffffffffffffffffffffffffffffffffffffffff9182169263a9059cbb92610a2f9216908590600401611008565b602060405180830381600087803b158015610a4957600080fd5b505af1158015610a5d573d6000803e3d6000fd5b505050506040513d601f19601f8201168201806040525081019061034e9190610f15565b600081565b610ab07fdf8b4c520ffe197c5343c6f5aec59570151ef9a492f2c624fd45ddde6135ec4233610912565b610ae6576040517f08c379a000000000000000000000000000000000000000000000000000000000815260040161033b90611159565b600154600480546040517f095ea7b300000000000000000000000000000000000000000000000000000000815273ffffffffffffffffffffffffffffffffffffffff9384169363095ea7b393610a2f9390911691869101611008565b600081815260208190526040812061090c90610d3f565b60015473ffffffffffffffffffffffffffffffffffffffff1681565b60025473ffffffffffffffffffffffffffffffffffffffff1681565b600082815260208190526040902060020154610baf90610267610c07565b6103be576040517f08c379a000000000000000000000000000000000000000000000000000000000815260040161033b906110fc565b60006109098373ffffffffffffffffffffffffffffffffffffffff8416610d4a565b3390565b6000828152602081905260409020610c239082610be5565b1561034e57610c30610c07565b73ffffffffffffffffffffffffffffffffffffffff168173ffffffffffffffffffffffffffffffffffffffff16837f2f8788117e7eff1d82e926ec794901d17c78024a50270940304540a733656f0d60405160405180910390a45050565b6000828152602081905260409020610ca69082610d94565b1561034e57610cb3610c07565b73ffffffffffffffffffffffffffffffffffffffff168173ffffffffffffffffffffffffffffffffffffffff16837ff6391f5c32d9c69d2a47ea670b442974b53935d1edc7fd64eb21e047a839171b60405160405180910390a45050565b60006109098383610db6565b60006109098373ffffffffffffffffffffffffffffffffffffffff8416610e15565b600061090c82610e2d565b6000610d568383610e15565b610d8c5750815460018181018455600084815260208082209093018490558454848252828601909352604090209190915561090c565b50600061090c565b60006109098373ffffffffffffffffffffffffffffffffffffffff8416610e31565b81546000908210610df3576040517f08c379a000000000000000000000000000000000000000000000000000000000815260040161033b90611042565b826000018281548110610e0257fe5b9060005260206000200154905092915050565b60009081526001919091016020526040902054151590565b5490565b60008181526001830160205260408120548015610f0b5783547fffffffffffffffffffffffffffffffffffffffffffffffffffffffffffffffff8083019190810190600090879083908110610e8257fe5b9060005260206000200154905080876000018481548110610e9f57fe5b600091825260208083209091019290925582815260018981019092526040902090840190558654879080610ecf57fe5b6001900381819060005260206000200160009055905586600101600087815260200190815260200160002060009055600194505050505061090c565b600091505061090c565b600060208284031215610f26578081fd5b81518015158114610f35578182fd5b9392505050565b600060208284031215610f4d578081fd5b5035919050565b60008060408385031215610f66578081fd5b823591506020830135610f78816111fb565b809150509250929050565b60008060408385031215610f95578182fd5b50508035926020909101359150565b60008060408385031215610fb6578182fd5b8235610fc1816111fb565b946020939093013593505050565b600060208284031215610fe0578081fd5b5051919050565b73ffffffffffffffffffffffffffffffffffffffff91909116815260200190565b73ffffffffffffffffffffffffffffffffffffffff929092168252602082015260400190565b901515815260200190565b90815260200190565b60208082526022908201527f456e756d657261626c655365743a20696e646578206f7574206f6620626f756e60408201527f6473000000000000000000000000000000000000000000000000000000000000606082015260800190565b6020808252602f908201527f416363657373436f6e74726f6c3a2073656e646572206d75737420626520616e60408201527f2061646d696e20746f206772616e740000000000000000000000000000000000606082015260800190565b60208082526030908201527f416363657373436f6e74726f6c3a2073656e646572206d75737420626520616e60408201527f2061646d696e20746f207265766f6b6500000000000000000000000000000000606082015260800190565b60208082526019908201527f416c6368656d6978546f6b656e3a206f6e6c792061646d696e00000000000000604082015260600190565b6020808252602f908201527f416363657373436f6e74726f6c3a2063616e206f6e6c792072656e6f756e636560408201527f20726f6c657320666f722073656c660000000000000000000000000000000000606082015260800190565b918252602082015260400190565b73ffffffffffffffffffffffffffffffffffffffff8116811461121d57600080fd5b5056fea2646970667358221220d8f356d56aef0511383b93138add1423f6758d64c7da4d6d670fbc5c17e7195e64736f6c634300060c0033df8b4c520ffe197c5343c6f5aec59570151ef9a492f2c624fd45ddde6135ec42",
  "devdoc": {
    "details": "This is the contract for the bridging of pool rewards to the  multisig. Initially, the contract deployer is given both the admin and minter role. This allows them to pre-mine tokens, transfer admin to a timelock contract, and lastly, the deployer must revoke their admin role and minter role.",
    "kind": "dev",
    "methods": {
      "approvePoolToken(uint256)": {
        "details": "approves poolToken for deposit. This function approves."
      },
      "claimAndFlush(uint256)": {
        "details": "claims tokens from stakingPools and sends them to the treasury. This function fetches tokens when available, and sends them to the treasury."
      },
      "claimFromStakingPools(uint256)": {
        "details": "fetches tokens from stakingPools. This function fetches tokens when available."
      },
      "exitFromStakingPools(uint256,uint256)": {
        "details": "exits poolTokens from stakingPools. This function exits tokens when available."
      },
      "getRoleAdmin(bytes32)": {
        "details": "Returns the admin role that controls `role`. See {grantRole} and {revokeRole}. To change a role's admin, use {_setRoleAdmin}."
      },
      "getRoleMember(bytes32,uint256)": {
        "details": "Returns one of the accounts that have `role`. `index` must be a value between 0 and {getRoleMemberCount}, non-inclusive. Role bearers are not sorted in any particular way, and their ordering may change at any point. WARNING: When using {getRoleMember} and {getRoleMemberCount}, make sure you perform all queries on the same block. See the following https://forum.openzeppelin.com/t/iterating-over-elements-on-enumerableset-in-openzeppelin-contracts/2296[forum post] for more information."
      },
      "getRoleMemberCount(bytes32)": {
        "details": "Returns the number of accounts that have `role`. Can be used together with {getRoleMember} to enumerate all bearers of a role."
      },
      "grantRole(bytes32,address)": {
        "details": "Grants `role` to `account`. If `account` had not been already granted `role`, emits a {RoleGranted} event. Requirements: - the caller must have ``role``'s admin role."
      },
      "hasRole(bytes32,address)": {
        "details": "Returns `true` if `account` has been granted `role`."
      },
      "renounceRole(bytes32,address)": {
        "details": "Revokes `role` from the calling account. Roles are often managed via {grantRole} and {revokeRole}: this function's purpose is to provide a mechanism for accounts to lose their privileges if they are compromised (such as when a trusted device is misplaced). If the calling account had been granted `role`, emits a {RoleRevoked} event. Requirements: - the caller must be `account`."
      },
      "revokeRole(bytes32,address)": {
        "details": "Revokes `role` from `account`. If `account` had been granted `role`, emits a {RoleRevoked} event. Requirements: - the caller must have ``role``'s admin role."
      },
      "stakePoolToken(uint256,uint256)": {
        "details": "deposits poolToken in stakingPools. This function stakes the token."
      },
      "transferOut(address,uint256)": {
        "details": "transfers out ERC20s. This function stakes the token."
      }
    },
    "stateVariables": {
      "ADMIN_ROLE": {
        "details": "The identifier of the role which maintains other roles."
      },
      "alchemixToken": {
        "details": "the ALCX address"
      },
      "multisig": {
        "details": "the multisig address"
      },
      "poolToken": {
        "details": "the poolToken address"
      },
      "stakingPools": {
        "details": "the stakingPools address"
      }
    },
    "title": "Pool Bridge",
    "version": 1
  },
  "userdoc": {
    "kind": "user",
    "methods": {
      "flushToMultisig()": {
        "notice": "This function provides."
      }
    },
    "version": 1
  },
  "storageLayout": {
    "storage": [
      {
        "astId": 25,
        "contract": "contracts/PoolBridge.sol:PoolBridge",
        "label": "_roles",
        "offset": 0,
        "slot": "0",
        "type": "t_mapping(t_bytes32,t_struct(RoleData)21_storage)"
      },
      {
        "astId": 7978,
        "contract": "contracts/PoolBridge.sol:PoolBridge",
        "label": "poolToken",
        "offset": 0,
        "slot": "1",
        "type": "t_contract(IDetailedERC20)14845"
      },
      {
        "astId": 7981,
        "contract": "contracts/PoolBridge.sol:PoolBridge",
        "label": "alchemixToken",
        "offset": 0,
        "slot": "2",
        "type": "t_contract(IDetailedERC20)14845"
      },
      {
        "astId": 7984,
        "contract": "contracts/PoolBridge.sol:PoolBridge",
        "label": "multisig",
        "offset": 0,
        "slot": "3",
        "type": "t_address"
      },
      {
        "astId": 7987,
        "contract": "contracts/PoolBridge.sol:PoolBridge",
        "label": "stakingPools",
        "offset": 0,
        "slot": "4",
        "type": "t_contract(IStakingPools)15027"
      }
    ],
    "types": {
      "t_address": {
        "encoding": "inplace",
        "label": "address",
        "numberOfBytes": "20"
      },
      "t_array(t_bytes32)dyn_storage": {
        "base": "t_bytes32",
        "encoding": "dynamic_array",
        "label": "bytes32[]",
        "numberOfBytes": "32"
      },
      "t_bytes32": {
        "encoding": "inplace",
        "label": "bytes32",
        "numberOfBytes": "32"
      },
      "t_contract(IDetailedERC20)14845": {
        "encoding": "inplace",
        "label": "contract IDetailedERC20",
        "numberOfBytes": "20"
      },
      "t_contract(IStakingPools)15027": {
        "encoding": "inplace",
        "label": "contract IStakingPools",
        "numberOfBytes": "20"
      },
      "t_mapping(t_bytes32,t_struct(RoleData)21_storage)": {
        "encoding": "mapping",
        "key": "t_bytes32",
        "label": "mapping(bytes32 => struct AccessControl.RoleData)",
        "numberOfBytes": "32",
        "value": "t_struct(RoleData)21_storage"
      },
      "t_mapping(t_bytes32,t_uint256)": {
        "encoding": "mapping",
        "key": "t_bytes32",
        "label": "mapping(bytes32 => uint256)",
        "numberOfBytes": "32",
        "value": "t_uint256"
      },
      "t_struct(AddressSet)2212_storage": {
        "encoding": "inplace",
        "label": "struct EnumerableSet.AddressSet",
        "members": [
          {
            "astId": 2211,
            "contract": "contracts/PoolBridge.sol:PoolBridge",
            "label": "_inner",
            "offset": 0,
            "slot": "0",
            "type": "t_struct(Set)1947_storage"
          }
        ],
        "numberOfBytes": "64"
      },
      "t_struct(RoleData)21_storage": {
        "encoding": "inplace",
        "label": "struct AccessControl.RoleData",
        "members": [
          {
            "astId": 18,
            "contract": "contracts/PoolBridge.sol:PoolBridge",
            "label": "members",
            "offset": 0,
            "slot": "0",
            "type": "t_struct(AddressSet)2212_storage"
          },
          {
            "astId": 20,
            "contract": "contracts/PoolBridge.sol:PoolBridge",
            "label": "adminRole",
            "offset": 0,
            "slot": "2",
            "type": "t_bytes32"
          }
        ],
        "numberOfBytes": "96"
      },
      "t_struct(Set)1947_storage": {
        "encoding": "inplace",
        "label": "struct EnumerableSet.Set",
        "members": [
          {
            "astId": 1942,
            "contract": "contracts/PoolBridge.sol:PoolBridge",
            "label": "_values",
            "offset": 0,
            "slot": "0",
            "type": "t_array(t_bytes32)dyn_storage"
          },
          {
            "astId": 1946,
            "contract": "contracts/PoolBridge.sol:PoolBridge",
            "label": "_indexes",
            "offset": 0,
            "slot": "1",
            "type": "t_mapping(t_bytes32,t_uint256)"
          }
        ],
        "numberOfBytes": "64"
      },
      "t_uint256": {
        "encoding": "inplace",
        "label": "uint256",
        "numberOfBytes": "32"
      }
    }
  }
}