{
  "address": "0xAB8e74017a8Cc7c15FFcCd726603790d26d7DeCa",
  "abi": [
    {
      "inputs": [
        {
          "internalType": "contract IMintableERC20",
          "name": "_reward",
          "type": "address"
        },
        {
          "internalType": "address",
          "name": "_governance",
          "type": "address"
        }
      ],
      "stateMutability": "nonpayable",
      "type": "constructor"
    },
    {
      "anonymous": false,
      "inputs": [
        {
          "indexed": false,
          "internalType": "address",
          "name": "governance",
          "type": "address"
        }
      ],
      "name": "GovernanceUpdated",
      "type": "event"
    },
    {
      "anonymous": false,
      "inputs": [
        {
          "indexed": false,
          "internalType": "address",
          "name": "pendingGovernance",
          "type": "address"
        }
      ],
      "name": "PendingGovernanceUpdated",
      "type": "event"
    },
    {
      "anonymous": false,
      "inputs": [
        {
          "indexed": true,
          "internalType": "uint256",
          "name": "poolId",
          "type": "uint256"
        },
        {
          "indexed": true,
          "internalType": "contract IERC20",
          "name": "token",
          "type": "address"
        }
      ],
      "name": "PoolCreated",
      "type": "event"
    },
    {
      "anonymous": false,
      "inputs": [
        {
          "indexed": true,
          "internalType": "uint256",
          "name": "poolId",
          "type": "uint256"
        },
        {
          "indexed": false,
          "internalType": "uint256",
          "name": "rewardWeight",
          "type": "uint256"
        }
      ],
      "name": "PoolRewardWeightUpdated",
      "type": "event"
    },
    {
      "anonymous": false,
      "inputs": [
        {
          "indexed": false,
          "internalType": "uint256",
          "name": "rewardRate",
          "type": "uint256"
        }
      ],
      "name": "RewardRateUpdated",
      "type": "event"
    },
    {
      "anonymous": false,
      "inputs": [
        {
          "indexed": true,
          "internalType": "address",
          "name": "user",
          "type": "address"
        },
        {
          "indexed": true,
          "internalType": "uint256",
          "name": "poolId",
          "type": "uint256"
        },
        {
          "indexed": false,
          "internalType": "uint256",
          "name": "amount",
          "type": "uint256"
        }
      ],
      "name": "TokensClaimed",
      "type": "event"
    },
    {
      "anonymous": false,
      "inputs": [
        {
          "indexed": true,
          "internalType": "address",
          "name": "user",
          "type": "address"
        },
        {
          "indexed": true,
          "internalType": "uint256",
          "name": "poolId",
          "type": "uint256"
        },
        {
          "indexed": false,
          "internalType": "uint256",
          "name": "amount",
          "type": "uint256"
        }
      ],
      "name": "TokensDeposited",
      "type": "event"
    },
    {
      "anonymous": false,
      "inputs": [
        {
          "indexed": true,
          "internalType": "address",
          "name": "user",
          "type": "address"
        },
        {
          "indexed": true,
          "internalType": "uint256",
          "name": "poolId",
          "type": "uint256"
        },
        {
          "indexed": false,
          "internalType": "uint256",
          "name": "amount",
          "type": "uint256"
        }
      ],
      "name": "TokensWithdrawn",
      "type": "event"
    },
    {
      "inputs": [],
      "name": "acceptGovernance",
      "outputs": [],
      "stateMutability": "nonpayable",
      "type": "function"
    },
    {
      "inputs": [
        {
          "internalType": "uint256",
          "name": "_poolId",
          "type": "uint256"
        }
      ],
      "name": "claim",
      "outputs": [],
      "stateMutability": "nonpayable",
      "type": "function"
    },
    {
      "inputs": [
        {
          "internalType": "contract IERC20",
          "name": "_token",
          "type": "address"
        }
      ],
      "name": "createPool",
      "outputs": [
        {
          "internalType": "uint256",
          "name": "",
          "type": "uint256"
        }
      ],
      "stateMutability": "nonpayable",
      "type": "function"
    },
    {
      "inputs": [
        {
          "internalType": "uint256",
          "name": "_poolId",
          "type": "uint256"
        },
        {
          "internalType": "uint256",
          "name": "_depositAmount",
          "type": "uint256"
        }
      ],
      "name": "deposit",
      "outputs": [],
      "stateMutability": "nonpayable",
      "type": "function"
    },
    {
      "inputs": [
        {
          "internalType": "uint256",
          "name": "_poolId",
          "type": "uint256"
        }
      ],
      "name": "exit",
      "outputs": [],
      "stateMutability": "nonpayable",
      "type": "function"
    },
    {
      "inputs": [
        {
          "internalType": "uint256",
          "name": "_poolId",
          "type": "uint256"
        }
      ],
      "name": "getPoolRewardRate",
      "outputs": [
        {
          "internalType": "uint256",
          "name": "",
          "type": "uint256"
        }
      ],
      "stateMutability": "view",
      "type": "function"
    },
    {
      "inputs": [
        {
          "internalType": "uint256",
          "name": "_poolId",
          "type": "uint256"
        }
      ],
      "name": "getPoolRewardWeight",
      "outputs": [
        {
          "internalType": "uint256",
          "name": "",
          "type": "uint256"
        }
      ],
      "stateMutability": "view",
      "type": "function"
    },
    {
      "inputs": [
        {
          "internalType": "uint256",
          "name": "_poolId",
          "type": "uint256"
        }
      ],
      "name": "getPoolToken",
      "outputs": [
        {
          "internalType": "contract IERC20",
          "name": "",
          "type": "address"
        }
      ],
      "stateMutability": "view",
      "type": "function"
    },
    {
      "inputs": [
        {
          "internalType": "uint256",
          "name": "_poolId",
          "type": "uint256"
        }
      ],
      "name": "getPoolTotalDeposited",
      "outputs": [
        {
          "internalType": "uint256",
          "name": "",
          "type": "uint256"
        }
      ],
      "stateMutability": "view",
      "type": "function"
    },
    {
      "inputs": [
        {
          "internalType": "address",
          "name": "_account",
          "type": "address"
        },
        {
          "internalType": "uint256",
          "name": "_poolId",
          "type": "uint256"
        }
      ],
      "name": "getStakeTotalDeposited",
      "outputs": [
        {
          "internalType": "uint256",
          "name": "",
          "type": "uint256"
        }
      ],
      "stateMutability": "view",
      "type": "function"
    },
    {
      "inputs": [
        {
          "internalType": "address",
          "name": "_account",
          "type": "address"
        },
        {
          "internalType": "uint256",
          "name": "_poolId",
          "type": "uint256"
        }
      ],
      "name": "getStakeTotalUnclaimed",
      "outputs": [
        {
          "internalType": "uint256",
          "name": "",
          "type": "uint256"
        }
      ],
      "stateMutability": "view",
      "type": "function"
    },
    {
      "inputs": [],
      "name": "governance",
      "outputs": [
        {
          "internalType": "address",
          "name": "",
          "type": "address"
        }
      ],
      "stateMutability": "view",
      "type": "function"
    },
    {
      "inputs": [],
      "name": "pendingGovernance",
      "outputs": [
        {
          "internalType": "address",
          "name": "",
          "type": "address"
        }
      ],
      "stateMutability": "view",
      "type": "function"
    },
    {
      "inputs": [],
      "name": "poolCount",
      "outputs": [
        {
          "internalType": "uint256",
          "name": "",
          "type": "uint256"
        }
      ],
      "stateMutability": "view",
      "type": "function"
    },
    {
      "inputs": [],
      "name": "reward",
      "outputs": [
        {
          "internalType": "contract IMintableERC20",
          "name": "",
          "type": "address"
        }
      ],
      "stateMutability": "view",
      "type": "function"
    },
    {
      "inputs": [],
      "name": "rewardRate",
      "outputs": [
        {
          "internalType": "uint256",
          "name": "",
          "type": "uint256"
        }
      ],
      "stateMutability": "view",
      "type": "function"
    },
    {
      "inputs": [
        {
          "internalType": "address",
          "name": "_pendingGovernance",
          "type": "address"
        }
      ],
      "name": "setPendingGovernance",
      "outputs": [],
      "stateMutability": "nonpayable",
      "type": "function"
    },
    {
      "inputs": [
        {
          "internalType": "uint256",
          "name": "_rewardRate",
          "type": "uint256"
        }
      ],
      "name": "setRewardRate",
      "outputs": [],
      "stateMutability": "nonpayable",
      "type": "function"
    },
    {
      "inputs": [
        {
          "internalType": "uint256[]",
          "name": "_rewardWeights",
          "type": "uint256[]"
        }
      ],
      "name": "setRewardWeights",
      "outputs": [],
      "stateMutability": "nonpayable",
      "type": "function"
    },
    {
      "inputs": [
        {
          "internalType": "contract IERC20",
          "name": "",
          "type": "address"
        }
      ],
      "name": "tokenPoolIds",
      "outputs": [
        {
          "internalType": "uint256",
          "name": "",
          "type": "uint256"
        }
      ],
      "stateMutability": "view",
      "type": "function"
    },
    {
      "inputs": [],
      "name": "totalRewardWeight",
      "outputs": [
        {
          "internalType": "uint256",
          "name": "",
          "type": "uint256"
        }
      ],
      "stateMutability": "view",
      "type": "function"
    },
    {
      "inputs": [
        {
          "internalType": "uint256",
          "name": "_poolId",
          "type": "uint256"
        },
        {
          "internalType": "uint256",
          "name": "_withdrawAmount",
          "type": "uint256"
        }
      ],
      "name": "withdraw",
      "outputs": [],
      "stateMutability": "nonpayable",
      "type": "function"
    }
  ],
  "transactionHash": "0x338fd703d597aaa9b3c5719eb16617842a8e773d014d6708fdd63deda7387182",
  "args": [
    "0xdBdb4d16EdA451D0503b854CF79D55697F90c8DF",
    "0x51e029a5Ef288Fb87C5e8Dd46895c353ad9AaAeC"
  ],
  "solcInputHash": "a885e78562f5bae54a8e3e04018de494",
  "bytecode": "0x60806040523480156200001157600080fd5b5060405162001e3638038062001e3683398101604081905262000034916200009d565b60016000556001600160a01b0381166200006b5760405162461bcd60e51b81526004016200006290620000db565b60405180910390fd5b600180546001600160a01b039384166001600160a01b0319918216179091556002805492909316911617905562000142565b60008060408385031215620000b0578182fd5b8251620000bd8162000129565b6020840151909250620000d08162000129565b809150509250929050565b6020808252602e908201527f5374616b696e67506f6f6c733a20676f7665726e616e6365206164647265737360408201526d02063616e6e6f74206265203078360941b606082015260800190565b6001600160a01b03811681146200013f57600080fd5b50565b611ce480620001526000396000f3fe608060405234801561001057600080fd5b50600436106101825760003560e01c80637f8661a1116100d8578063acfc5b6d1161008c578063eda7c59911610066578063eda7c599146102de578063f39c38a0146102f1578063f525cb68146102f957610182565b8063acfc5b6d146102b0578063d64b84b5146102c3578063e2bbb158146102cb57610182565b8063895a9e09116100bd578063895a9e09146102775780639049f9d21461028a5780639e447fc61461029d57610182565b80637f8661a1146102515780637fd115d71461026457610182565b806339664a311161013a5780635ac2f301116101145780635ac2f301146102235780636e5105c2146102365780637b0a47ee1461024957610182565b806339664a31146101e8578063441a3e70146102085780635aa6e6751461021b57610182565b8063228cb7331161016b578063228cb733146101af578063238efcbc146101cd578063379607f5146101d557610182565b80630361ca5a146101875780630abb60351461019c575b600080fd5b61019a6101953660046117a0565b610301565b005b61019a6101aa366004611759565b61049a565b6101b76105b3565b6040516101c49190611884565b60405180910390f35b61019a6105cf565b61019a6101e336600461182f565b610696565b6101fb6101f6366004611759565b61072b565b6040516101c49190611c57565b61019a610216366004611847565b61073d565b6101b76107dd565b6101fb61023136600461182f565b6107f9565b6101fb61024436600461182f565b610812565b6101fb61082b565b61019a61025f36600461182f565b610831565b6101fb610272366004611775565b6108ca565b6101fb61028536600461182f565b61091b565b6101fb610298366004611759565b61093d565b61019a6102ab36600461182f565b610ab5565b6101fb6102be366004611775565b610b43565b6101fb610b78565b61019a6102d9366004611847565b610b7e565b6101b76102ec36600461182f565b610c0a565b6101b7610c36565b6101fb610c52565b60025473ffffffffffffffffffffffffffffffffffffffff16331461035b576040517f08c379a0000000000000000000000000000000000000000000000000000000008152600401610352906119e1565b60405180910390fd5b6103656007610c63565b811461039d576040517f08c379a000000000000000000000000000000000000000000000000000000000815260040161035290611bc3565b6103a5610c67565b60065460005b6103b56007610c63565b8110156104925760006103c9600783610ca1565b60028101549091508585848181106103dd57fe5b905060200201358114156103f257505061048a565b61042186868581811061040157fe5b9050602002013561041b8387610cc890919063ffffffff16565b90610d0a565b935085858481811061042f57fe5b6020029190910135600284015550827f4ca01fb9384991e6b301fe0ac5263aa1e34e2ea1a96dc91393e5bf3e3c34c66487878381811061046b57fe5b9050602002013560405161047f9190611c57565b60405180910390a250505b6001016103ab565b506006555050565b60025473ffffffffffffffffffffffffffffffffffffffff1633146104eb576040517f08c379a0000000000000000000000000000000000000000000000000000000008152600401610352906119e1565b73ffffffffffffffffffffffffffffffffffffffff8116610538576040517f08c379a00000000000000000000000000000000000000000000000000000000081526004016103529061194d565b600380547fffffffffffffffffffffffff00000000000000000000000000000000000000001673ffffffffffffffffffffffffffffffffffffffff83161790556040517fc9e2377236eab4280090ce8f2317332649736d92f00dcf20a8dd6684ec5e7839906105a8908390611884565b60405180910390a150565b60015473ffffffffffffffffffffffffffffffffffffffff1681565b60035473ffffffffffffffffffffffffffffffffffffffff163314610620576040517f08c379a000000000000000000000000000000000000000000000000000000000815260040161035290611aac565b600354600280547fffffffffffffffffffffffff00000000000000000000000000000000000000001673ffffffffffffffffffffffffffffffffffffffff90921691821790556040517f9d3e522e1e47a2f6009739342b9cc7b252a1888154e843ab55ee1c81745795ab906105a8908390611884565b600260005414156106d3576040517f08c379a000000000000000000000000000000000000000000000000000000000815260040161035290611c20565b600260009081556106e5600783610ca1565b90506106f2816005610d49565b336000908152600860209081526040808320858452909152902061071881836005610d63565b61072183610d8b565b5050600160005550565b60046020526000908152604090205481565b6002600054141561077a576040517f08c379a000000000000000000000000000000000000000000000000000000000815260040161035290611c20565b6002600090815561078c600784610ca1565b9050610799816005610d49565b33600090815260086020908152604080832086845290915290206107bf81836005610d63565b6107c884610d8b565b6107d28484610e8c565b505060016000555050565b60025473ffffffffffffffffffffffffffffffffffffffff1681565b600080610807600784610ca1565b600201549392505050565b600080610820600784610ca1565b600101549392505050565b60055490565b6002600054141561086e576040517f08c379a000000000000000000000000000000000000000000000000000000000815260040161035290611c20565b60026000908155610880600783610ca1565b905061088d816005610d49565b33600090815260086020908152604080832085845290915290206108b381836005610d63565b6108bc83610d8b565b610721838260000154610e8c565b73ffffffffffffffffffffffffffffffffffffffff821660009081526008602090815260408083208484529091528120610911610908600785610ca1565b82906005610f51565b9150505b92915050565b600080610929600784610ca1565b9050610936816005610fdc565b9392505050565b60025460009073ffffffffffffffffffffffffffffffffffffffff163314610991576040517f08c379a0000000000000000000000000000000000000000000000000000000008152600401610352906119e1565b73ffffffffffffffffffffffffffffffffffffffff8216600090815260046020526040902054156109ee576040517f08c379a000000000000000000000000000000000000000000000000000000000815260040161035290611b09565b60006109fa6007610c63565b9050610a5d6040518060a001604052808573ffffffffffffffffffffffffffffffffffffffff168152602001600081526020016000815260200160405180602001604052806000815250815260200143815250600761100790919063ffffffff16565b73ffffffffffffffffffffffffffffffffffffffff83166000818152600460205260408082206001850190555183917f65fc0eb45954044fb55e1b01344d5d72fbfdf88e732d955f73bb7fb2bcc131e991a392915050565b60025473ffffffffffffffffffffffffffffffffffffffff163314610b06576040517f08c379a0000000000000000000000000000000000000000000000000000000008152600401610352906119e1565b610b0e610c67565b60058190556040517f41d466ebd06fb97e7786086ac8b69b7eb7da798592036251291d34e9791cde01906105a8908390611c57565b73ffffffffffffffffffffffffffffffffffffffff919091166000908152600860209081526040808320938352929052205490565b60065490565b60026000541415610bbb576040517f08c379a000000000000000000000000000000000000000000000000000000000815260040161035290611c20565b60026000908155610bcd600784610ca1565b9050610bda816005610d49565b3360009081526008602090815260408083208684529091529020610c0081836005610d63565b6107d28484611091565b600080610c18600784610ca1565b5473ffffffffffffffffffffffffffffffffffffffff169392505050565b60035473ffffffffffffffffffffffffffffffffffffffff1681565b6000610c5e6007610c63565b905090565b5490565b60005b610c746007610c63565b811015610c9e576000610c88600783610ca1565b9050610c95816005610d49565b50600101610c6a565b50565b6000826000018281548110610cb257fe5b9060005260206000209060050201905092915050565b600061093683836040518060400160405280601e81526020017f536166654d6174683a207375627472616374696f6e206f766572666c6f770000815250611149565b600082820183811015610936576040517f08c379a0000000000000000000000000000000000000000000000000000000008152600401610352906119aa565b610d53828261118f565b5160038301555043600490910155565b610d6e838383610f51565b6001840155610d7d828261118f565b516002909301929092555050565b336000818152600860209081526040808320858452909152808220600180820180549490555491517f40c10f19000000000000000000000000000000000000000000000000000000008152909373ffffffffffffffffffffffffffffffffffffffff909216916340c10f1991610e06919085906004016118a5565b600060405180830381600087803b158015610e2057600080fd5b505af1158015610e34573d6000803e3d6000fd5b50505050823373ffffffffffffffffffffffffffffffffffffffff167f9923b4306c6c030f2bdfbf156517d5983b87e15b96176da122cd4f2effa4ba7b83604051610e7f9190611c57565b60405180910390a3505050565b6000610e99600784610ca1565b3360009081526008602090815260408083208784529091529020600182015491925090610ec69084610cc8565b60018301558054610ed79084610cc8565b81558154610efc9073ffffffffffffffffffffffffffffffffffffffff16338561126d565b833373ffffffffffffffffffffffffffffffffffffffff167fffe903c0abe6b2dbb2f3474ef43d7a3c1fca49e5a774453423ca8e1952aabffa85604051610f439190611c57565b60405180910390a350505050565b6000610f5b611746565b610f65848461118f565b9050610f6f611746565b50604080516020810190915260028601548152610f8c8282611313565b610f9d575050506001830154610936565b8554600090610fbf90610fba90610fb48686611362565b90611392565b6113c0565b6001880154909150610fd19082610d0a565b979650505050505050565b60006109368260010154611001856002015485600001546113cf90919063ffffffff16565b90611423565b8154600180820184556000938452602093849020835160059093020180547fffffffffffffffffffffffff00000000000000000000000000000000000000001673ffffffffffffffffffffffffffffffffffffffff909316929092178255928201519281019290925560408101516002830155606081015151600383015560800151600490910155565b600061109e600784610ca1565b33600090815260086020908152604080832087845290915290206001820154919250906110cb9084610d0a565b600183015580546110dc9084610d0a565b815581546111029073ffffffffffffffffffffffffffffffffffffffff16333086611465565b833373ffffffffffffffffffffffffffffffffffffffff167ffdfdcf596161b0e81e3161597d46888dcc88bd83b22dcfb341c76377ca3bbc9e85604051610f439190611c57565b60008184841115611187576040517f08c379a000000000000000000000000000000000000000000000000000000000815260040161035291906118fc565b505050900390565b611197611746565b60018301546111b85750604080516020810190915260038301548152610915565b60006111d1846004015443610cc890919063ffffffff16565b9050806111f1575050604080516020810190915260038301548152610915565b60006111fd8585610fdc565b9050600061120b82846113cf565b90508061122f57505060408051602081019091526003850154815291506109159050565b611237611746565b61124e87600101546112488461148c565b906114ce565b604080516020810190915260038901548152909150610fd19082611502565b61130e8363a9059cbb60e01b848460405160240161128c9291906118a5565b604080517fffffffffffffffffffffffffffffffffffffffffffffffffffffffffffffffe08184030181529190526020810180517bffffffffffffffffffffffffffffffffffffffffffffffffffffffff167fffffffff000000000000000000000000000000000000000000000000000000009093169290921790915261151d565b505050565b80518251600091111561134757507fffffffffffffffffffffffffffffffffffffffffffffffffffffffffffffffff610915565b81518351111561135957506001610915565b50600092915050565b61136a611746565b8251825181039081111561137d57600080fd5b60408051602081019091529081529392505050565b61139a611746565b60008215806113b75750508251828102908382816113b457fe5b04145b61137d57600080fd5b51670de0b6b3a7640000900490565b6000826113de57506000610915565b828202828482816113eb57fe5b0414610936576040517f08c379a000000000000000000000000000000000000000000000000000000000815260040161035290611a18565b600061093683836040518060400160405280601a81526020017f536166654d6174683a206469766973696f6e206279207a65726f0000000000008152506115d3565b611486846323b872dd60e01b85858560405160240161128c939291906118cb565b50505050565b611494611746565b60008215806114b1575050670de0b6b3a764000082810290810483145b6114ba57600080fd5b604080516020810190915290815292915050565b6114d6611746565b816114e057600080fd5b6040518060200160405280838560000151816114f857fe5b0490529392505050565b61150a611746565b8251825181019081101561137d57600080fd5b606061157f826040518060400160405280602081526020017f5361666545524332303a206c6f772d6c6576656c2063616c6c206661696c65648152508573ffffffffffffffffffffffffffffffffffffffff166116249092919063ffffffff16565b80519091501561130e578080602001905181019061159d919061180f565b61130e576040517f08c379a000000000000000000000000000000000000000000000000000000000815260040161035290611b66565b6000818361160e576040517f08c379a000000000000000000000000000000000000000000000000000000000815260040161035291906118fc565b50600083858161161a57fe5b0495945050505050565b6060611633848460008561163b565b949350505050565b606061164685611740565b61167c576040517f08c379a000000000000000000000000000000000000000000000000000000000815260040161035290611a75565b600060608673ffffffffffffffffffffffffffffffffffffffff1685876040516116a69190611868565b60006040518083038185875af1925050503d80600081146116e3576040519150601f19603f3d011682016040523d82523d6000602084013e6116e8565b606091505b509150915081156116fc5791506116339050565b80511561170c5780518082602001fd5b836040517f08c379a000000000000000000000000000000000000000000000000000000000815260040161035291906118fc565b3b151590565b6040518060200160405280600081525090565b60006020828403121561176a578081fd5b813561093681611c8c565b60008060408385031215611787578081fd5b823561179281611c8c565b946020939093013593505050565b600080602083850312156117b2578182fd5b823567ffffffffffffffff808211156117c9578384fd5b818501915085601f8301126117dc578384fd5b8135818111156117ea578485fd5b86602080830285010111156117fd578485fd5b60209290920196919550909350505050565b600060208284031215611820578081fd5b81518015158114610936578182fd5b600060208284031215611840578081fd5b5035919050565b60008060408385031215611859578182fd5b50508035926020909101359150565b6000825161187a818460208701611c60565b9190910192915050565b73ffffffffffffffffffffffffffffffffffffffff91909116815260200190565b73ffffffffffffffffffffffffffffffffffffffff929092168252602082015260400190565b73ffffffffffffffffffffffffffffffffffffffff9384168152919092166020820152604081019190915260600190565b600060208252825180602084015261191b816040850160208701611c60565b601f017fffffffffffffffffffffffffffffffffffffffffffffffffffffffffffffffe0169190910160400192915050565b60208082526036908201527f5374616b696e67506f6f6c733a2070656e64696e6720676f7665726e616e636560408201527f20616464726573732063616e6e6f742062652030783000000000000000000000606082015260800190565b6020808252601b908201527f536166654d6174683a206164646974696f6e206f766572666c6f770000000000604082015260600190565b6020808252601d908201527f5374616b696e67506f6f6c733a206f6e6c7920676f7665726e616e6365000000604082015260600190565b60208082526021908201527f536166654d6174683a206d756c7469706c69636174696f6e206f766572666c6f60408201527f7700000000000000000000000000000000000000000000000000000000000000606082015260800190565b6020808252601d908201527f416464726573733a2063616c6c20746f206e6f6e2d636f6e7472616374000000604082015260600190565b60208082526025908201527f5374616b696e67506f6f6c733a206f6e6c792070656e64696e6720676f76657260408201527f6e616e6365000000000000000000000000000000000000000000000000000000606082015260800190565b60208082526026908201527f5374616b696e67506f6f6c733a20746f6b656e20616c7265616479206861732060408201527f6120706f6f6c0000000000000000000000000000000000000000000000000000606082015260800190565b6020808252602a908201527f5361666545524332303a204552433230206f7065726174696f6e20646964206e60408201527f6f74207375636365656400000000000000000000000000000000000000000000606082015260800190565b60208082526025908201527f5374616b696e67506f6f6c733a2077656967687473206c656e677468206d697360408201527f6d61746368000000000000000000000000000000000000000000000000000000606082015260800190565b6020808252601f908201527f5265656e7472616e637947756172643a207265656e7472616e742063616c6c00604082015260600190565b90815260200190565b60005b83811015611c7b578181015183820152602001611c63565b838111156114865750506000910152565b73ffffffffffffffffffffffffffffffffffffffff81168114610c9e57600080fdfea2646970667358221220de8fd1aff9f52d772780568178fabf6b4f5b11456f98f9e5aa464094d8fa874f64736f6c634300060c0033",
  "devdoc": {
    "details": "A contract which allows users to stake to farm tokens. This contract was inspired by Chef Nomi's 'MasterChef' contract which can be found in this repository: https://github.com/sushiswap/sushiswap.",
    "kind": "dev",
    "methods": {
      "claim(uint256)": {
        "details": "Claims all rewarded tokens from a pool.",
        "params": {
          "_poolId": "The pool to claim rewards from."
        }
      },
      "createPool(address)": {
        "details": "Creates a new pool. The created pool will need to have its reward weight initialized before it begins generating rewards.",
        "params": {
          "_token": "The token the pool will accept for staking."
        },
        "returns": {
          "_0": "the identifier for the newly created pool."
        }
      },
      "deposit(uint256,uint256)": {
        "details": "Stakes tokens into a pool.",
        "params": {
          "_depositAmount": "the amount of tokens to deposit.",
          "_poolId": "the pool to deposit tokens into."
        }
      },
      "exit(uint256)": {
        "details": "Claims all rewards from a pool and then withdraws all staked tokens.",
        "params": {
          "_poolId": "the pool to exit from."
        }
      },
      "getPoolRewardRate(uint256)": {
        "details": "Gets the amount of tokens per block being distributed to stakers for a pool.",
        "params": {
          "_poolId": "the identifier of the pool."
        },
        "returns": {
          "_0": "the pool reward rate."
        }
      },
      "getPoolRewardWeight(uint256)": {
        "details": "Gets the reward weight of a pool which determines how much of the total rewards it receives per block.",
        "params": {
          "_poolId": "the identifier of the pool."
        },
        "returns": {
          "_0": "the pool reward weight."
        }
      },
      "getPoolToken(uint256)": {
        "details": "Gets the token a pool accepts.",
        "params": {
          "_poolId": "the identifier of the pool."
        },
        "returns": {
          "_0": "the token."
        }
      },
      "getPoolTotalDeposited(uint256)": {
        "details": "Gets the total amount of funds staked in a pool.",
        "params": {
          "_poolId": "the identifier of the pool."
        },
        "returns": {
          "_0": "the total amount of staked or deposited tokens."
        }
      },
      "getStakeTotalDeposited(address,uint256)": {
        "details": "Gets the number of tokens a user has staked into a pool.",
        "params": {
          "_account": "The account to query.",
          "_poolId": "the identifier of the pool."
        },
        "returns": {
          "_0": "the amount of deposited tokens."
        }
      },
      "getStakeTotalUnclaimed(address,uint256)": {
        "details": "Gets the number of unclaimed reward tokens a user can claim from a pool.",
        "params": {
          "_account": "The account to get the unclaimed balance of.",
          "_poolId": "The pool to check for unclaimed rewards."
        },
        "returns": {
          "_0": "the amount of unclaimed reward tokens a user has in a pool."
        }
      },
      "poolCount()": {
        "details": "Gets the number of pools that exist.",
        "returns": {
          "_0": "the pool count."
        }
      },
      "rewardRate()": {
        "details": "Gets the rate at which tokens are minted to stakers for all pools.",
        "returns": {
          "_0": "the reward rate."
        }
      },
      "setPendingGovernance(address)": {
        "details": "Sets the governance. This function can only called by the current governance.",
        "params": {
          "_pendingGovernance": "the new pending governance."
        }
      },
      "setRewardRate(uint256)": {
        "details": "Sets the distribution reward rate. This will update all of the pools.",
        "params": {
          "_rewardRate": "The number of tokens to distribute per second."
        }
      },
      "setRewardWeights(uint256[])": {
        "details": "Sets the reward weights of all of the pools.",
        "params": {
          "_rewardWeights": "The reward weights of all of the pools."
        }
      },
      "totalRewardWeight()": {
        "details": "Gets the total reward weight between all the pools.",
        "returns": {
          "_0": "the total reward weight."
        }
      },
      "withdraw(uint256,uint256)": {
        "details": "Withdraws staked tokens from a pool.",
        "params": {
          "_poolId": "The pool to withdraw staked tokens from.",
          "_withdrawAmount": "The number of tokens to withdraw."
        }
      }
    },
    "stateVariables": {
      "_ctx": {
        "details": "The context shared between the pools."
      },
      "_pools": {
        "details": "A list of all of the pools."
      },
      "_stakes": {
        "details": "A mapping of all of the user stakes mapped first by pool and then by address."
      },
      "governance": {
        "details": "The address of the account which currently has administrative capabilities over this contract."
      },
      "reward": {
        "details": "The token which will be minted as a reward for staking."
      },
      "tokenPoolIds": {
        "details": "Tokens are mapped to their pool identifier plus one. Tokens that do not have an associated pool will return an identifier of zero."
      }
    },
    "version": 1
  },
  "userdoc": {
    "kind": "user",
    "methods": {
      "claim(uint256)": {
        "notice": "use this function to claim the tokens from a corresponding pool by ID."
      }
    },
    "version": 1
  },
  "storageLayout": {
    "storage": [
      {
        "astId": 2082,
        "contract": "contracts/StakingPools.sol:StakingPools",
        "label": "_status",
        "offset": 0,
        "slot": "0",
        "type": "t_uint256"
      },
      {
        "astId": 5624,
        "contract": "contracts/StakingPools.sol:StakingPools",
        "label": "reward",
        "offset": 0,
        "slot": "1",
        "type": "t_contract(IMintableERC20)8054"
      },
      {
        "astId": 5627,
        "contract": "contracts/StakingPools.sol:StakingPools",
        "label": "governance",
        "offset": 0,
        "slot": "2",
        "type": "t_address"
      },
      {
        "astId": 5629,
        "contract": "contracts/StakingPools.sol:StakingPools",
        "label": "pendingGovernance",
        "offset": 0,
        "slot": "3",
        "type": "t_address"
      },
      {
        "astId": 5634,
        "contract": "contracts/StakingPools.sol:StakingPools",
        "label": "tokenPoolIds",
        "offset": 0,
        "slot": "4",
        "type": "t_mapping(t_contract(IERC20)1268,t_uint256)"
      },
      {
        "astId": 5637,
        "contract": "contracts/StakingPools.sol:StakingPools",
        "label": "_ctx",
        "offset": 0,
        "slot": "5",
        "type": "t_struct(Context)9428_storage"
      },
      {
        "astId": 5640,
        "contract": "contracts/StakingPools.sol:StakingPools",
        "label": "_pools",
        "offset": 0,
        "slot": "7",
        "type": "t_struct(List)9443_storage"
      },
      {
        "astId": 5647,
        "contract": "contracts/StakingPools.sol:StakingPools",
        "label": "_stakes",
        "offset": 0,
        "slot": "8",
        "type": "t_mapping(t_address,t_mapping(t_uint256,t_struct(Data)9688_storage))"
      }
    ],
    "types": {
      "t_address": {
        "encoding": "inplace",
        "label": "address",
        "numberOfBytes": "20"
      },
      "t_array(t_struct(Data)9439_storage)dyn_storage": {
        "base": "t_struct(Data)9439_storage",
        "encoding": "dynamic_array",
        "label": "struct Pool.Data[]",
        "numberOfBytes": "32"
      },
      "t_contract(IERC20)1268": {
        "encoding": "inplace",
        "label": "contract IERC20",
        "numberOfBytes": "20"
      },
      "t_contract(IMintableERC20)8054": {
        "encoding": "inplace",
        "label": "contract IMintableERC20",
        "numberOfBytes": "20"
      },
      "t_mapping(t_address,t_mapping(t_uint256,t_struct(Data)9688_storage))": {
        "encoding": "mapping",
        "key": "t_address",
        "label": "mapping(address => mapping(uint256 => struct Stake.Data))",
        "numberOfBytes": "32",
        "value": "t_mapping(t_uint256,t_struct(Data)9688_storage)"
      },
      "t_mapping(t_contract(IERC20)1268,t_uint256)": {
        "encoding": "mapping",
        "key": "t_contract(IERC20)1268",
        "label": "mapping(contract IERC20 => uint256)",
        "numberOfBytes": "32",
        "value": "t_uint256"
      },
      "t_mapping(t_uint256,t_struct(Data)9688_storage)": {
        "encoding": "mapping",
        "key": "t_uint256",
        "label": "mapping(uint256 => struct Stake.Data)",
        "numberOfBytes": "32",
        "value": "t_struct(Data)9688_storage"
      },
      "t_struct(Context)9428_storage": {
        "encoding": "inplace",
        "label": "struct Pool.Context",
        "members": [
          {
            "astId": 9425,
            "contract": "contracts/StakingPools.sol:StakingPools",
            "label": "rewardRate",
            "offset": 0,
            "slot": "0",
            "type": "t_uint256"
          },
          {
            "astId": 9427,
            "contract": "contracts/StakingPools.sol:StakingPools",
            "label": "totalRewardWeight",
            "offset": 0,
            "slot": "1",
            "type": "t_uint256"
          }
        ],
        "numberOfBytes": "64"
      },
      "t_struct(Data)9439_storage": {
        "encoding": "inplace",
        "label": "struct Pool.Data",
        "members": [
          {
            "astId": 9430,
            "contract": "contracts/StakingPools.sol:StakingPools",
            "label": "token",
            "offset": 0,
            "slot": "0",
            "type": "t_contract(IERC20)1268"
          },
          {
            "astId": 9432,
            "contract": "contracts/StakingPools.sol:StakingPools",
            "label": "totalDeposited",
            "offset": 0,
            "slot": "1",
            "type": "t_uint256"
          },
          {
            "astId": 9434,
            "contract": "contracts/StakingPools.sol:StakingPools",
            "label": "rewardWeight",
            "offset": 0,
            "slot": "2",
            "type": "t_uint256"
          },
          {
            "astId": 9436,
            "contract": "contracts/StakingPools.sol:StakingPools",
            "label": "accumulatedRewardWeight",
            "offset": 0,
            "slot": "3",
            "type": "t_struct(FixedDecimal)8440_storage"
          },
          {
            "astId": 9438,
            "contract": "contracts/StakingPools.sol:StakingPools",
            "label": "lastUpdatedBlock",
            "offset": 0,
            "slot": "4",
            "type": "t_uint256"
          }
        ],
        "numberOfBytes": "160"
      },
      "t_struct(Data)9688_storage": {
        "encoding": "inplace",
        "label": "struct Stake.Data",
        "members": [
          {
            "astId": 9683,
            "contract": "contracts/StakingPools.sol:StakingPools",
            "label": "totalDeposited",
            "offset": 0,
            "slot": "0",
            "type": "t_uint256"
          },
          {
            "astId": 9685,
            "contract": "contracts/StakingPools.sol:StakingPools",
            "label": "totalUnclaimed",
            "offset": 0,
            "slot": "1",
            "type": "t_uint256"
          },
          {
            "astId": 9687,
            "contract": "contracts/StakingPools.sol:StakingPools",
            "label": "lastAccumulatedWeight",
            "offset": 0,
            "slot": "2",
            "type": "t_struct(FixedDecimal)8440_storage"
          }
        ],
        "numberOfBytes": "96"
      },
      "t_struct(FixedDecimal)8440_storage": {
        "encoding": "inplace",
        "label": "struct FixedPointMath.FixedDecimal",
        "members": [
          {
            "astId": 8439,
            "contract": "contracts/StakingPools.sol:StakingPools",
            "label": "x",
            "offset": 0,
            "slot": "0",
            "type": "t_uint256"
          }
        ],
        "numberOfBytes": "32"
      },
      "t_struct(List)9443_storage": {
        "encoding": "inplace",
        "label": "struct Pool.List",
        "members": [
          {
            "astId": 9442,
            "contract": "contracts/StakingPools.sol:StakingPools",
            "label": "elements",
            "offset": 0,
            "slot": "0",
            "type": "t_array(t_struct(Data)9439_storage)dyn_storage"
          }
        ],
        "numberOfBytes": "32"
      },
      "t_uint256": {
        "encoding": "inplace",
        "label": "uint256",
        "numberOfBytes": "32"
      }
    }
  }
}