{
  "address": "0xeE69BD81Bd056339368c97c4B2837B4Dc4b796E7",
  "abi": [
    {
      "inputs": [
        {
          "internalType": "address",
          "name": "_alToken",
          "type": "address"
        },
        {
          "internalType": "address",
          "name": "_token",
          "type": "address"
        },
        {
          "internalType": "address",
          "name": "_governance",
          "type": "address"
        }
      ],
      "stateMutability": "nonpayable",
      "type": "constructor"
    },
    {
      "anonymous": false,
      "inputs": [
        {
          "indexed": true,
          "internalType": "contract YearnVaultAdapterWithIndirection",
          "name": "adapter",
          "type": "address"
        }
      ],
      "name": "ActiveVaultUpdated",
      "type": "event"
    },
    {
      "anonymous": false,
      "inputs": [
        {
          "indexed": false,
          "internalType": "address",
          "name": "staker",
          "type": "address"
        },
        {
          "indexed": false,
          "internalType": "uint256",
          "name": "amountStaked",
          "type": "uint256"
        }
      ],
      "name": "AlUsdStaked",
      "type": "event"
    },
    {
      "anonymous": false,
      "inputs": [
        {
          "indexed": false,
          "internalType": "address",
          "name": "staker",
          "type": "address"
        },
        {
          "indexed": false,
          "internalType": "uint256",
          "name": "amountUnstaked",
          "type": "uint256"
        }
      ],
      "name": "AlUsdUnstaked",
      "type": "event"
    },
    {
      "anonymous": false,
      "inputs": [
        {
          "indexed": false,
          "internalType": "address",
          "name": "origin",
          "type": "address"
        },
        {
          "indexed": false,
          "internalType": "uint256",
          "name": "amount",
          "type": "uint256"
        }
      ],
      "name": "Distribution",
      "type": "event"
    },
    {
      "anonymous": false,
      "inputs": [
        {
          "indexed": false,
          "internalType": "address",
          "name": "transmutedBy",
          "type": "address"
        },
        {
          "indexed": false,
          "internalType": "address",
          "name": "transmutedTo",
          "type": "address"
        },
        {
          "indexed": false,
          "internalType": "uint256",
          "name": "amountTransmuted",
          "type": "uint256"
        }
      ],
      "name": "ForcedTransmutation",
      "type": "event"
    },
    {
      "anonymous": false,
      "inputs": [
        {
          "indexed": false,
          "internalType": "uint256",
          "name": "withdrawnAmount",
          "type": "uint256"
        },
        {
          "indexed": false,
          "internalType": "uint256",
          "name": "decreasedValue",
          "type": "uint256"
        }
      ],
      "name": "FundsHarvested",
      "type": "event"
    },
    {
      "anonymous": false,
      "inputs": [
        {
          "indexed": true,
          "internalType": "uint256",
          "name": "vaultId",
          "type": "uint256"
        },
        {
          "indexed": false,
          "internalType": "uint256",
          "name": "withdrawnAmount",
          "type": "uint256"
        },
        {
          "indexed": false,
          "internalType": "uint256",
          "name": "decreasedValue",
          "type": "uint256"
        }
      ],
      "name": "FundsRecalled",
      "type": "event"
    },
    {
      "anonymous": false,
      "inputs": [
        {
          "indexed": false,
          "internalType": "address",
          "name": "governance",
          "type": "address"
        }
      ],
      "name": "GovernanceUpdated",
      "type": "event"
    },
    {
      "anonymous": false,
      "inputs": [
        {
          "indexed": false,
          "internalType": "address[]",
          "name": "keepers",
          "type": "address[]"
        },
        {
          "indexed": false,
          "internalType": "bool[]",
          "name": "states",
          "type": "bool[]"
        }
      ],
      "name": "KeepersSet",
      "type": "event"
    },
    {
      "anonymous": false,
      "inputs": [
        {
          "indexed": false,
          "internalType": "address",
          "name": "migrateTo",
          "type": "address"
        },
        {
          "indexed": false,
          "internalType": "uint256",
          "name": "fundsMigrated",
          "type": "uint256"
        }
      ],
      "name": "MigrationComplete",
      "type": "event"
    },
    {
      "anonymous": false,
      "inputs": [
        {
          "indexed": false,
          "internalType": "uint256",
          "name": "minUserActionDelay",
          "type": "uint256"
        }
      ],
      "name": "MinUserActionDelayUpdated",
      "type": "event"
    },
    {
      "anonymous": false,
      "inputs": [
        {
          "indexed": false,
          "internalType": "bool",
          "name": "status",
          "type": "bool"
        }
      ],
      "name": "PauseUpdated",
      "type": "event"
    },
    {
      "anonymous": false,
      "inputs": [
        {
          "indexed": false,
          "internalType": "address",
          "name": "pendingGovernance",
          "type": "address"
        }
      ],
      "name": "PendingGovernanceUpdated",
      "type": "event"
    },
    {
      "anonymous": false,
      "inputs": [
        {
          "indexed": false,
          "internalType": "uint256",
          "name": "plantableMargin",
          "type": "uint256"
        }
      ],
      "name": "PlantableMarginUpdated",
      "type": "event"
    },
    {
      "anonymous": false,
      "inputs": [
        {
          "indexed": false,
          "internalType": "uint256",
          "name": "plantableThreshold",
          "type": "uint256"
        }
      ],
      "name": "PlantableThresholdUpdated",
      "type": "event"
    },
    {
      "anonymous": false,
      "inputs": [
        {
          "indexed": false,
          "internalType": "address",
          "name": "treasury",
          "type": "address"
        }
      ],
      "name": "RewardsUpdated",
      "type": "event"
    },
    {
      "anonymous": false,
      "inputs": [
        {
          "indexed": false,
          "internalType": "address",
          "name": "sentinel",
          "type": "address"
        }
      ],
      "name": "SentinelUpdated",
      "type": "event"
    },
    {
      "anonymous": false,
      "inputs": [
        {
          "indexed": false,
          "internalType": "address",
          "name": "claimant",
          "type": "address"
        },
        {
          "indexed": false,
          "internalType": "address",
          "name": "token",
          "type": "address"
        },
        {
          "indexed": false,
          "internalType": "uint256",
          "name": "amountClaimed",
          "type": "uint256"
        }
      ],
      "name": "TokenClaimed",
      "type": "event"
    },
    {
      "anonymous": false,
      "inputs": [
        {
          "indexed": false,
          "internalType": "address",
          "name": "transmutedTo",
          "type": "address"
        },
        {
          "indexed": false,
          "internalType": "uint256",
          "name": "amountTransmuted",
          "type": "uint256"
        }
      ],
      "name": "Transmutation",
      "type": "event"
    },
    {
      "anonymous": false,
      "inputs": [
        {
          "indexed": false,
          "internalType": "uint256",
          "name": "newTransmutationPeriod",
          "type": "uint256"
        }
      ],
      "name": "TransmuterPeriodUpdated",
      "type": "event"
    },
    {
      "anonymous": false,
      "inputs": [
        {
          "indexed": false,
          "internalType": "address",
          "name": "whitelisted",
          "type": "address"
        },
        {
          "indexed": false,
          "internalType": "bool",
          "name": "state",
          "type": "bool"
        }
      ],
      "name": "WhitelistSet",
      "type": "event"
    },
    {
      "inputs": [],
      "name": "ZERO_ADDRESS",
      "outputs": [
        {
          "internalType": "address",
          "name": "",
          "type": "address"
        }
      ],
      "stateMutability": "view",
      "type": "function"
    },
    {
      "inputs": [],
      "name": "acceptGovernance",
      "outputs": [],
      "stateMutability": "nonpayable",
      "type": "function"
    },
    {
      "inputs": [
        {
          "internalType": "contract YearnVaultAdapterWithIndirection",
          "name": "",
          "type": "address"
        }
      ],
      "name": "adapters",
      "outputs": [
        {
          "internalType": "bool",
          "name": "",
          "type": "bool"
        }
      ],
      "stateMutability": "view",
      "type": "function"
    },
    {
      "inputs": [],
      "name": "alToken",
      "outputs": [
        {
          "internalType": "address",
          "name": "",
          "type": "address"
        }
      ],
      "stateMutability": "view",
      "type": "function"
    },
    {
      "inputs": [],
      "name": "buffer",
      "outputs": [
        {
          "internalType": "uint256",
          "name": "",
          "type": "uint256"
        }
      ],
      "stateMutability": "view",
      "type": "function"
    },
    {
      "inputs": [],
      "name": "bufferInfo",
      "outputs": [
        {
          "internalType": "uint256",
          "name": "_toDistribute",
          "type": "uint256"
        },
        {
          "internalType": "uint256",
          "name": "_deltaBlocks",
          "type": "uint256"
        },
        {
          "internalType": "uint256",
          "name": "_buffer",
          "type": "uint256"
        }
      ],
      "stateMutability": "view",
      "type": "function"
    },
    {
      "inputs": [],
      "name": "claim",
      "outputs": [],
      "stateMutability": "nonpayable",
      "type": "function"
    },
    {
      "inputs": [
        {
          "internalType": "address",
          "name": "",
          "type": "address"
        }
      ],
      "name": "depositedAlTokens",
      "outputs": [
        {
          "internalType": "uint256",
          "name": "",
          "type": "uint256"
        }
      ],
      "stateMutability": "view",
      "type": "function"
    },
    {
      "inputs": [
        {
          "internalType": "address",
          "name": "origin",
          "type": "address"
        },
        {
          "internalType": "uint256",
          "name": "amount",
          "type": "uint256"
        }
      ],
      "name": "distribute",
      "outputs": [],
      "stateMutability": "nonpayable",
      "type": "function"
    },
    {
      "inputs": [
        {
          "internalType": "address",
          "name": "account",
          "type": "address"
        }
      ],
      "name": "dividendsOwing",
      "outputs": [
        {
          "internalType": "uint256",
          "name": "",
          "type": "uint256"
        }
      ],
      "stateMutability": "view",
      "type": "function"
    },
    {
      "inputs": [],
      "name": "exit",
      "outputs": [],
      "stateMutability": "nonpayable",
      "type": "function"
    },
    {
      "inputs": [
        {
          "internalType": "address",
          "name": "toTransmute",
          "type": "address"
        }
      ],
      "name": "forceTransmute",
      "outputs": [],
      "stateMutability": "nonpayable",
      "type": "function"
    },
    {
      "inputs": [
        {
          "internalType": "uint256",
          "name": "from",
          "type": "uint256"
        },
        {
          "internalType": "uint256",
          "name": "to",
          "type": "uint256"
        }
      ],
      "name": "getMultipleUserInfo",
      "outputs": [
        {
          "internalType": "address[]",
          "name": "theUserList",
          "type": "address[]"
        },
        {
          "internalType": "uint256[]",
          "name": "theUserData",
          "type": "uint256[]"
        }
      ],
      "stateMutability": "view",
      "type": "function"
    },
    {
      "inputs": [
        {
          "internalType": "uint256",
          "name": "_vaultId",
          "type": "uint256"
        }
      ],
      "name": "getVaultAdapter",
      "outputs": [
        {
          "internalType": "address",
          "name": "",
          "type": "address"
        }
      ],
      "stateMutability": "view",
      "type": "function"
    },
    {
      "inputs": [
        {
          "internalType": "uint256",
          "name": "_vaultId",
          "type": "uint256"
        }
      ],
      "name": "getVaultTotalDeposited",
      "outputs": [
        {
          "internalType": "uint256",
          "name": "",
          "type": "uint256"
        }
      ],
      "stateMutability": "view",
      "type": "function"
    },
    {
      "inputs": [],
      "name": "governance",
      "outputs": [
        {
          "internalType": "address",
          "name": "",
          "type": "address"
        }
      ],
      "stateMutability": "view",
      "type": "function"
    },
    {
      "inputs": [
        {
          "internalType": "uint256",
          "name": "_vaultId",
          "type": "uint256"
        }
      ],
      "name": "harvest",
      "outputs": [
        {
          "internalType": "uint256",
          "name": "",
          "type": "uint256"
        },
        {
          "internalType": "uint256",
          "name": "",
          "type": "uint256"
        }
      ],
      "stateMutability": "nonpayable",
      "type": "function"
    },
    {
      "inputs": [
        {
          "internalType": "contract YearnVaultAdapterWithIndirection",
          "name": "_adapter",
          "type": "address"
        }
      ],
      "name": "initialize",
      "outputs": [],
      "stateMutability": "nonpayable",
      "type": "function"
    },
    {
      "inputs": [],
      "name": "initialized",
      "outputs": [
        {
          "internalType": "bool",
          "name": "",
          "type": "bool"
        }
      ],
      "stateMutability": "view",
      "type": "function"
    },
    {
      "inputs": [
        {
          "internalType": "address",
          "name": "",
          "type": "address"
        }
      ],
      "name": "keepers",
      "outputs": [
        {
          "internalType": "bool",
          "name": "",
          "type": "bool"
        }
      ],
      "stateMutability": "view",
      "type": "function"
    },
    {
      "inputs": [],
      "name": "lastDepositBlock",
      "outputs": [
        {
          "internalType": "uint256",
          "name": "",
          "type": "uint256"
        }
      ],
      "stateMutability": "view",
      "type": "function"
    },
    {
      "inputs": [
        {
          "internalType": "address",
          "name": "",
          "type": "address"
        }
      ],
      "name": "lastDividendPoints",
      "outputs": [
        {
          "internalType": "uint256",
          "name": "",
          "type": "uint256"
        }
      ],
      "stateMutability": "view",
      "type": "function"
    },
    {
      "inputs": [
        {
          "internalType": "address",
          "name": "",
          "type": "address"
        }
      ],
      "name": "lastUserAction",
      "outputs": [
        {
          "internalType": "uint256",
          "name": "",
          "type": "uint256"
        }
      ],
      "stateMutability": "view",
      "type": "function"
    },
    {
      "inputs": [
        {
          "internalType": "contract YearnVaultAdapterWithIndirection",
          "name": "_adapter",
          "type": "address"
        }
      ],
      "name": "migrate",
      "outputs": [],
      "stateMutability": "nonpayable",
      "type": "function"
    },
    {
      "inputs": [
        {
          "internalType": "address",
          "name": "migrateTo",
          "type": "address"
        }
      ],
      "name": "migrateFunds",
      "outputs": [],
      "stateMutability": "nonpayable",
      "type": "function"
    },
    {
      "inputs": [],
      "name": "minUserActionDelay",
      "outputs": [
        {
          "internalType": "uint256",
          "name": "",
          "type": "uint256"
        }
      ],
      "stateMutability": "view",
      "type": "function"
    },
    {
      "inputs": [],
      "name": "nextUser",
      "outputs": [
        {
          "internalType": "uint256",
          "name": "",
          "type": "uint256"
        }
      ],
      "stateMutability": "view",
      "type": "function"
    },
    {
      "inputs": [],
      "name": "pause",
      "outputs": [
        {
          "internalType": "bool",
          "name": "",
          "type": "bool"
        }
      ],
      "stateMutability": "view",
      "type": "function"
    },
    {
      "inputs": [],
      "name": "pendingGovernance",
      "outputs": [
        {
          "internalType": "address",
          "name": "",
          "type": "address"
        }
      ],
      "stateMutability": "view",
      "type": "function"
    },
    {
      "inputs": [],
      "name": "plantableMargin",
      "outputs": [
        {
          "internalType": "uint256",
          "name": "",
          "type": "uint256"
        }
      ],
      "stateMutability": "view",
      "type": "function"
    },
    {
      "inputs": [],
      "name": "plantableThreshold",
      "outputs": [
        {
          "internalType": "uint256",
          "name": "",
          "type": "uint256"
        }
      ],
      "stateMutability": "view",
      "type": "function"
    },
    {
      "inputs": [],
      "name": "pointMultiplier",
      "outputs": [
        {
          "internalType": "uint256",
          "name": "",
          "type": "uint256"
        }
      ],
      "stateMutability": "view",
      "type": "function"
    },
    {
      "inputs": [
        {
          "internalType": "address",
          "name": "",
          "type": "address"
        }
      ],
      "name": "realisedTokens",
      "outputs": [
        {
          "internalType": "uint256",
          "name": "",
          "type": "uint256"
        }
      ],
      "stateMutability": "view",
      "type": "function"
    },
    {
      "inputs": [
        {
          "internalType": "uint256",
          "name": "_vaultId",
          "type": "uint256"
        }
      ],
      "name": "recallAllFundsFromVault",
      "outputs": [],
      "stateMutability": "nonpayable",
      "type": "function"
    },
    {
      "inputs": [
        {
          "internalType": "uint256",
          "name": "_vaultId",
          "type": "uint256"
        },
        {
          "internalType": "uint256",
          "name": "_amount",
          "type": "uint256"
        }
      ],
      "name": "recallFundsFromVault",
      "outputs": [],
      "stateMutability": "nonpayable",
      "type": "function"
    },
    {
      "inputs": [],
      "name": "rewards",
      "outputs": [
        {
          "internalType": "address",
          "name": "",
          "type": "address"
        }
      ],
      "stateMutability": "view",
      "type": "function"
    },
    {
      "inputs": [],
      "name": "sentinel",
      "outputs": [
        {
          "internalType": "address",
          "name": "",
          "type": "address"
        }
      ],
      "stateMutability": "view",
      "type": "function"
    },
    {
      "inputs": [
        {
          "internalType": "address[]",
          "name": "_keepers",
          "type": "address[]"
        },
        {
          "internalType": "bool[]",
          "name": "_states",
          "type": "bool[]"
        }
      ],
      "name": "setKeepers",
      "outputs": [],
      "stateMutability": "nonpayable",
      "type": "function"
    },
    {
      "inputs": [
        {
          "internalType": "uint256",
          "name": "_minUserActionDelay",
          "type": "uint256"
        }
      ],
      "name": "setMinUserActionDelay",
      "outputs": [],
      "stateMutability": "nonpayable",
      "type": "function"
    },
    {
      "inputs": [
        {
          "internalType": "bool",
          "name": "_pause",
          "type": "bool"
        }
      ],
      "name": "setPause",
      "outputs": [],
      "stateMutability": "nonpayable",
      "type": "function"
    },
    {
      "inputs": [
        {
          "internalType": "address",
          "name": "_pendingGovernance",
          "type": "address"
        }
      ],
      "name": "setPendingGovernance",
      "outputs": [],
      "stateMutability": "nonpayable",
      "type": "function"
    },
    {
      "inputs": [
        {
          "internalType": "uint256",
          "name": "_plantableMargin",
          "type": "uint256"
        }
      ],
      "name": "setPlantableMargin",
      "outputs": [],
      "stateMutability": "nonpayable",
      "type": "function"
    },
    {
      "inputs": [
        {
          "internalType": "uint256",
          "name": "_plantableThreshold",
          "type": "uint256"
        }
      ],
      "name": "setPlantableThreshold",
      "outputs": [],
      "stateMutability": "nonpayable",
      "type": "function"
    },
    {
      "inputs": [
        {
          "internalType": "address",
          "name": "_rewards",
          "type": "address"
        }
      ],
      "name": "setRewards",
      "outputs": [],
      "stateMutability": "nonpayable",
      "type": "function"
    },
    {
      "inputs": [
        {
          "internalType": "address",
          "name": "_sentinel",
          "type": "address"
        }
      ],
      "name": "setSentinel",
      "outputs": [],
      "stateMutability": "nonpayable",
      "type": "function"
    },
    {
      "inputs": [
        {
          "internalType": "uint256",
          "name": "newTransmutationPeriod",
          "type": "uint256"
        }
      ],
      "name": "setTransmutationPeriod",
      "outputs": [],
      "stateMutability": "nonpayable",
      "type": "function"
    },
    {
      "inputs": [
        {
          "internalType": "address",
          "name": "_toWhitelist",
          "type": "address"
        },
        {
          "internalType": "bool",
          "name": "_state",
          "type": "bool"
        }
      ],
      "name": "setWhitelist",
      "outputs": [],
      "stateMutability": "nonpayable",
      "type": "function"
    },
    {
      "inputs": [
        {
          "internalType": "uint256",
          "name": "amount",
          "type": "uint256"
        }
      ],
      "name": "stake",
      "outputs": [],
      "stateMutability": "nonpayable",
      "type": "function"
    },
    {
      "inputs": [],
      "name": "token",
      "outputs": [
        {
          "internalType": "address",
          "name": "",
          "type": "address"
        }
      ],
      "stateMutability": "view",
      "type": "function"
    },
    {
      "inputs": [
        {
          "internalType": "address",
          "name": "",
          "type": "address"
        }
      ],
      "name": "tokensInBucket",
      "outputs": [
        {
          "internalType": "uint256",
          "name": "",
          "type": "uint256"
        }
      ],
      "stateMutability": "view",
      "type": "function"
    },
    {
      "inputs": [],
      "name": "totalDividendPoints",
      "outputs": [
        {
          "internalType": "uint256",
          "name": "",
          "type": "uint256"
        }
      ],
      "stateMutability": "view",
      "type": "function"
    },
    {
      "inputs": [],
      "name": "totalSupplyAltokens",
      "outputs": [
        {
          "internalType": "uint256",
          "name": "",
          "type": "uint256"
        }
      ],
      "stateMutability": "view",
      "type": "function"
    },
    {
      "inputs": [],
      "name": "transmutationPeriod",
      "outputs": [
        {
          "internalType": "uint256",
          "name": "",
          "type": "uint256"
        }
      ],
      "stateMutability": "view",
      "type": "function"
    },
    {
      "inputs": [],
      "name": "transmute",
      "outputs": [],
      "stateMutability": "nonpayable",
      "type": "function"
    },
    {
      "inputs": [],
      "name": "transmuteAndClaim",
      "outputs": [],
      "stateMutability": "nonpayable",
      "type": "function"
    },
    {
      "inputs": [],
      "name": "transmuteClaimAndWithdraw",
      "outputs": [],
      "stateMutability": "nonpayable",
      "type": "function"
    },
    {
      "inputs": [],
      "name": "unclaimedDividends",
      "outputs": [
        {
          "internalType": "uint256",
          "name": "",
          "type": "uint256"
        }
      ],
      "stateMutability": "view",
      "type": "function"
    },
    {
      "inputs": [
        {
          "internalType": "uint256",
          "name": "amount",
          "type": "uint256"
        }
      ],
      "name": "unstake",
      "outputs": [],
      "stateMutability": "nonpayable",
      "type": "function"
    },
    {
      "inputs": [
        {
          "internalType": "address",
          "name": "user",
          "type": "address"
        }
      ],
      "name": "userInfo",
      "outputs": [
        {
          "internalType": "uint256",
          "name": "depositedAl",
          "type": "uint256"
        },
        {
          "internalType": "uint256",
          "name": "pendingdivs",
          "type": "uint256"
        },
        {
          "internalType": "uint256",
          "name": "inbucket",
          "type": "uint256"
        },
        {
          "internalType": "uint256",
          "name": "realised",
          "type": "uint256"
        }
      ],
      "stateMutability": "view",
      "type": "function"
    },
    {
      "inputs": [
        {
          "internalType": "address",
          "name": "",
          "type": "address"
        }
      ],
      "name": "userIsKnown",
      "outputs": [
        {
          "internalType": "bool",
          "name": "",
          "type": "bool"
        }
      ],
      "stateMutability": "view",
      "type": "function"
    },
    {
      "inputs": [
        {
          "internalType": "uint256",
          "name": "",
          "type": "uint256"
        }
      ],
      "name": "userList",
      "outputs": [
        {
          "internalType": "address",
          "name": "",
          "type": "address"
        }
      ],
      "stateMutability": "view",
      "type": "function"
    },
    {
      "inputs": [],
      "name": "vaultCount",
      "outputs": [
        {
          "internalType": "uint256",
          "name": "",
          "type": "uint256"
        }
      ],
      "stateMutability": "view",
      "type": "function"
    },
    {
      "inputs": [
        {
          "internalType": "address",
          "name": "",
          "type": "address"
        }
      ],
      "name": "whiteList",
      "outputs": [
        {
          "internalType": "bool",
          "name": "",
          "type": "bool"
        }
      ],
      "stateMutability": "view",
      "type": "function"
    }
  ],
  "transactionHash": "0x9e0ed509f84ff43ae274fd262c403b08e1698846119efa3adbf1a463a1ac1da6",
  "args": [
    "0xBC6DA0FE9aD5f3b0d58160288917AA56653660E9",
    "0x6B175474E89094C44Da98b954EedeAC495271d0F",
    "0x0e78588283aA9CcBeC277b40fB8eDfa8Cc2155a7"
  ],
  "solcInputHash": "ae80cdd1dd0b4804f0fd41aa15ceba80",
  "bytecode": "0x6080604052678ac7230489e80000600d556a0422ca8b0a00a42500000060125560056013553480156200003157600080fd5b50604051620055ff380380620055ff833981810160405260608110156200005757600080fd5b50805160208201516040909201519091906001600160a01b038116620000b8576040805162461bcd60e51b81526020600482015260116024820152702a3930b739b6baba32b91d10181033b7bb60791b604482015290519081900360640190fd5b601480546001600160a01b039283166001600160a01b03199182161790915560018054948316948216949094178455600280549390921692169190911790556207a120600055601c556016805460ff60a01b1916600160a01b1790556154db80620001246000396000f3fe608060405234801561001057600080fd5b50600436106103c55760003560e01c806381ac45fb116101ff578063c4d66de81161011a578063ec38a862116100ad578063f58c251c1161007c578063f58c251c14610be5578063f93f394c14610bed578063fb93210814610c20578063fc0c546a14610c59576103c5565b8063ec38a86214610b9a578063edaafe2014610bcd578063f1f7920014610bd5578063f39c38a014610bdd576103c5565b8063ddc63262116100e9578063ddc6326214610b21578063e044205e14610b57578063e5711ffc14610b5f578063e9fad8ee14610b92576103c5565b8063c4d66de814610a96578063ce5494bb14610ac9578063d2c2949214610afc578063d42c11e114610b19576103c5565b8063a694fc3a11610192578063b870d59811610161578063b870d598146109de578063bedb86fb14610a11578063bf51929f14610a30578063bff170b914610a63576103c5565b8063a694fc3a14610969578063a704e8ad14610986578063a7c6a100146109b9578063aaf16660146109c1576103c5565b80639ec5a894116101ce5780639ec5a8941461091f5780639f4216e814610927578063a02fbe2d14610944578063a196cf2e14610961576103c5565b806381ac45fb146108bf5780638391e45c146108c75780638456cb59146108fa57806394ff119914610902576103c5565b80632e17de78116102ef57806353d6fd59116102825780636a4f4b05116102515780636a4f4b051461077457806370460eb11461083657806379070a1214610859578063806985f71461088c576103c5565b806353d6fd59146107215780635aa6e6751461075c578063658b98a9146107645780636790fab31461076c576103c5565b80634bf04bd1116102be5780634bf04bd1146106d65780634e71d92d146106de57806352710007146106e6578063538ba4f914610719576103c5565b80632e17de781461064b578063372c12b1146106685780633bbd64bc1461069b5780633cb802b9146106ce576103c5565b80631959a00211610367578063238efcbc11610336578063238efcbc146105ed5780632670fdd8146105f55780632a03cf681461063b5780632a3d7c8114610643576103c5565b80631959a0021461056a5780631acce030146105c35780631aeb1986146105dd5780632113342d146105e5576103c5565b806309dac061116103a357806309dac061146104cb5780630abb6035146104fe5780631486bf6e14610531578063158ef93e1461054e576103c5565b806303036290146103ca57806305d2301d146104865780630668911e146104ac575b600080fd5b6103ed600480360360408110156103e057600080fd5b5080359060200135610c61565b604051808060200180602001838103835285818151815260200191508051906020019060200280838360005b83811015610431578181015183820152602001610419565b50505050905001838103825284818151815260200191508051906020019060200280838360005b83811015610470578181015183820152602001610458565b5050505090500194505050505060405180910390f35b61048e610ebe565b60408051938452602084019290925282820152519081900360600190f35b6104c9600480360360208110156104c257600080fd5b5035610ef8565b005b6104c9600480360360208110156104e157600080fd5b503573ffffffffffffffffffffffffffffffffffffffff16610fb9565b6104c96004803603602081101561051457600080fd5b503573ffffffffffffffffffffffffffffffffffffffff16611124565b6104c96004803603602081101561054757600080fd5b50356112a5565b610556611366565b604080519115158252519081900360200190f35b61059d6004803603602081101561058057600080fd5b503573ffffffffffffffffffffffffffffffffffffffff1661136f565b604080519485526020850193909352838301919091526060830152519081900360800190f35b6105cb611488565b60408051918252519081900360200190f35b6105cb61148e565b6105cb611494565b6104c961149a565b6106126004803603602081101561060b57600080fd5b503561159c565b6040805173ffffffffffffffffffffffffffffffffffffffff9092168252519081900360200190f35b6104c96115c8565b6105cb61165a565b6104c96004803603602081101561066157600080fd5b5035611660565b6105566004803603602081101561067e57600080fd5b503573ffffffffffffffffffffffffffffffffffffffff166118d0565b610556600480360360208110156106b157600080fd5b503573ffffffffffffffffffffffffffffffffffffffff166118e5565b6105cb6118fa565b6105cb611900565b6104c9611906565b6105cb600480360360208110156106fc57600080fd5b503573ffffffffffffffffffffffffffffffffffffffff16611a54565b610612611a66565b6104c96004803603604081101561073757600080fd5b5073ffffffffffffffffffffffffffffffffffffffff81351690602001351515611a6b565b610612611b80565b6105cb611b9c565b610612611ba2565b6104c96004803603604081101561078a57600080fd5b8101906020810181356401000000008111156107a557600080fd5b8201836020820111156107b757600080fd5b803590602001918460208302840111640100000000831117156107d957600080fd5b9193909290916020810190356401000000008111156107f757600080fd5b82018360208201111561080957600080fd5b8035906020019184602083028401116401000000008311171561082b57600080fd5b509092509050611bbe565b6104c96004803603604081101561084c57600080fd5b5080359060200135611db0565b6105566004803603602081101561086f57600080fd5b503573ffffffffffffffffffffffffffffffffffffffff16611e75565b6105cb600480360360208110156108a257600080fd5b503573ffffffffffffffffffffffffffffffffffffffff16611e8a565b6105cb611e9c565b6105cb600480360360208110156108dd57600080fd5b503573ffffffffffffffffffffffffffffffffffffffff16611ea2565b610556611f18565b6104c96004803603602081101561091857600080fd5b5035611f39565b610612611ffa565b6106126004803603602081101561093d57600080fd5b5035612016565b6104c96004803603602081101561095a57600080fd5b503561203e565b6105cb6120ff565b6104c96004803603602081101561097f57600080fd5b5035612105565b6105cb6004803603602081101561099c57600080fd5b503573ffffffffffffffffffffffffffffffffffffffff16612531565b6105cb612543565b6105cb600480360360208110156109d757600080fd5b5035612554565b6105cb600480360360208110156109f457600080fd5b503573ffffffffffffffffffffffffffffffffffffffff1661256d565b6104c960048036036020811015610a2757600080fd5b5035151561257f565b6104c960048036036020811015610a4657600080fd5b503573ffffffffffffffffffffffffffffffffffffffff166126a6565b6104c960048036036020811015610a7957600080fd5b503573ffffffffffffffffffffffffffffffffffffffff16612a79565b6104c960048036036020811015610aac57600080fd5b503573ffffffffffffffffffffffffffffffffffffffff166130c0565b6104c960048036036020811015610adf57600080fd5b503573ffffffffffffffffffffffffffffffffffffffff1661325d565b6104c960048036036020811015610b1257600080fd5b50356132ef565b6105cb6133af565b610b3e60048036036020811015610b3757600080fd5b50356133b5565b6040805192835260208301919091528051918290030190f35b6104c96134b8565b61055660048036036020811015610b7557600080fd5b503573ffffffffffffffffffffffffffffffffffffffff16613561565b6104c9613576565b6104c960048036036020811015610bb057600080fd5b503573ffffffffffffffffffffffffffffffffffffffff166135fe565b6105cb613769565b6104c961376f565b610612613c43565b610612613c5f565b6105cb60048036036020811015610c0357600080fd5b503573ffffffffffffffffffffffffffffffffffffffff16613c7b565b6104c960048036036040811015610c3657600080fd5b5073ffffffffffffffffffffffffffffffffffffffff8135169060200135613c8d565b610612613ea5565b60608083808403828167ffffffffffffffff81118015610c8057600080fd5b50604051908082528060200260200182016040528015610caa578160200160208202803683370190505b50905060608260020267ffffffffffffffff81118015610cc957600080fd5b50604051908082528060200260200182016040528015610cf3578160200160208202803683370190505b509050600080610d26600054610d20610d17600c5443613ec190919063ffffffff16565b600b5490613f3d565b90613fb0565b9050600054610d40600c5443613ec190919063ffffffff16565b1115610d4b5750600b545b60005b85811015610eab57600087815260086020526040902054855173ffffffffffffffffffffffffffffffffffffffff90911690869083908110610d8c57fe5b73ffffffffffffffffffffffffffffffffffffffff9283166020918202929092018101919091526000898152600882526040808220549093168152600390915220548451859085908110610ddc57fe5b602090810291909101810191909152600a5460008981526008835260408082205473ffffffffffffffffffffffffffffffffffffffff16825260039093529190912054610e7e91610e3291610d20908690613f3d565b60008981526008602081815260408084205473ffffffffffffffffffffffffffffffffffffffff168085526004835290842054938d9052919052610e7891908290611ea2565b90614031565b848460010181518110610e8d57fe5b60209081029190910101526001968701966002939093019201610d4e565b50929650909450505050505b9250929050565b6000806000610ed8600c5443613ec190919063ffffffff16565b600b546000549193509150610ef190610d208385613f3d565b9250909192565b60145473ffffffffffffffffffffffffffffffffffffffff163314610f7e57604080517f08c379a000000000000000000000000000000000000000000000000000000000815260206004820152601760248201527f5472616e736d757465723a2021676f7665726e616e6365000000000000000000604482015290519081900360640190fd5b60128190556040805182815290517fe77487d7758cc0f4820329f0d13f96448757377d4bf03ca31ce49cc9e151486f9181900360200190a150565b60145473ffffffffffffffffffffffffffffffffffffffff16331461103f57604080517f08c379a000000000000000000000000000000000000000000000000000000000815260206004820152601760248201527f5472616e736d757465723a2021676f7665726e616e6365000000000000000000604482015290519081900360640190fd5b73ffffffffffffffffffffffffffffffffffffffff81166110ab576040517f08c379a000000000000000000000000000000000000000000000000000000000815260040180806020018281038252602b81526020018061547b602b913960400191505060405180910390fd5b6016805473ffffffffffffffffffffffffffffffffffffffff83167fffffffffffffffffffffffff0000000000000000000000000000000000000000909116811790915560408051918252517fdc117600f93282860144d2cd2745f8e2e15c3ca2a32b4290c30f7cd1ae7ffcb99181900360200190a150565b60145473ffffffffffffffffffffffffffffffffffffffff1633146111aa57604080517f08c379a000000000000000000000000000000000000000000000000000000000815260206004820152601760248201527f5472616e736d757465723a2021676f7665726e616e6365000000000000000000604482015290519081900360640190fd5b73ffffffffffffffffffffffffffffffffffffffff811661122c57604080517f08c379a000000000000000000000000000000000000000000000000000000000815260206004820152601160248201527f5472616e736d757465723a203020676f76000000000000000000000000000000604482015290519081900360640190fd5b6015805473ffffffffffffffffffffffffffffffffffffffff83167fffffffffffffffffffffffff0000000000000000000000000000000000000000909116811790915560408051918252517fc9e2377236eab4280090ce8f2317332649736d92f00dcf20a8dd6684ec5e78399181900360200190a150565b60145473ffffffffffffffffffffffffffffffffffffffff16331461132b57604080517f08c379a000000000000000000000000000000000000000000000000000000000815260206004820152601760248201527f5472616e736d757465723a2021676f7665726e616e6365000000000000000000604482015290519081900360640190fd5b601c8190556040805182815290517f3bff5293be89c925015798c1dfc042b8a1108bad4eb02ba603aea7ed96ac0cfd9181900360200190a150565b601a5460ff1681565b73ffffffffffffffffffffffffffffffffffffffff81166000908152600360205260408120548154600c5483928392839283916113b591610d2090610d17904390613ec1565b90506000546113cf600c5443613ec190919063ffffffff16565b11156113da5750600b545b600a5473ffffffffffffffffffffffffffffffffffffffff8816600090815260036020526040812054909161141491610d20908590613f3d565b905060006114506114248a611ea2565b73ffffffffffffffffffffffffffffffffffffffff8b1660009081526004602052604090205490614031565b73ffffffffffffffffffffffffffffffffffffffff999099166000908152600560205260409020549399919897509295509350505050565b60135481565b60125481565b600e5481565b60155473ffffffffffffffffffffffffffffffffffffffff16331461152057604080517f08c379a000000000000000000000000000000000000000000000000000000000815260206004820152601260248201527f2170656e64696e67476f7665726e616e63650000000000000000000000000000604482015290519081900360640190fd5b601554601480547fffffffffffffffffffffffff00000000000000000000000000000000000000001673ffffffffffffffffffffffffffffffffffffffff90921691821790556040805182815290517f9d3e522e1e47a2f6009739342b9cc7b252a1888154e843ab55ee1c81745795ab9181900360200190a150565b6000806115aa6019846140a5565b5473ffffffffffffffffffffffffffffffffffffffff169392505050565b6115d1336140cc565b1580156115dd57503332145b61164857604080517f08c379a000000000000000000000000000000000000000000000000000000000815260206004820152601160248201527f6e6f20636f6e74726163742063616c6c73000000000000000000000000000000604482015290519081900360640190fd5b61165061376f565b611658611906565b565b600c5481565b611669336140cc565b15801561167557503332145b6116e057604080517f08c379a000000000000000000000000000000000000000000000000000000000815260206004820152601160248201527f6e6f20636f6e74726163742063616c6c73000000000000000000000000000000604482015290519081900360640190fd5b3360006116ec82611ea2565b9050801561175b57600f546117019082613ec1565b600f5573ffffffffffffffffffffffffffffffffffffffff82166000908152600460205260409020546117349082614031565b73ffffffffffffffffffffffffffffffffffffffff83166000908152600460205260409020555b600e5473ffffffffffffffffffffffffffffffffffffffff8316600090815260066020908152604080832093909355338083526003909152919020548411156117ef576040517f08c379a000000000000000000000000000000000000000000000000000000000815260040180806020018281038252603381526020018061539a6033913960400191505060405180910390fd5b73ffffffffffffffffffffffffffffffffffffffff811660009081526003602052604090205461181f9085613ec1565b73ffffffffffffffffffffffffffffffffffffffff8216600090815260036020526040902055600a546118529085613ec1565b600a556001546118799073ffffffffffffffffffffffffffffffffffffffff1682866140d2565b6040805173ffffffffffffffffffffffffffffffffffffffff831681526020810186905281517f51c9b122c2b81c914282042bf02d3a8965f5a0b1ad37b6dab1cb77bb343ce556929181900390910190a150505050565b60106020526000908152604090205460ff1681565b60116020526000908152604090205460ff1681565b600f5481565b600a5481565b61190f336140cc565b15801561191b57503332145b61198657604080517f08c379a000000000000000000000000000000000000000000000000000000000815260206004820152601160248201527f6e6f20636f6e74726163742063616c6c73000000000000000000000000000000604482015290519081900360640190fd5b3360008181526005602052604090205461199f57600080fd5b73ffffffffffffffffffffffffffffffffffffffff8116600090815260056020526040812080549190556119d281614164565b6002546119f69073ffffffffffffffffffffffffffffffffffffffff1683836140d2565b6002546040805173ffffffffffffffffffffffffffffffffffffffff80861682529092166020830152818101839052517f4831bdd9dcf3048a28319ce81d3cab7a15366bcf449bc7803a539107440809cc9181900360600190a15050565b60056020526000908152604090205481565b600081565b60145473ffffffffffffffffffffffffffffffffffffffff163314611af157604080517f08c379a000000000000000000000000000000000000000000000000000000000815260206004820152601760248201527f5472616e736d757465723a2021676f7665726e616e6365000000000000000000604482015290519081900360640190fd5b73ffffffffffffffffffffffffffffffffffffffff821660008181526010602090815260409182902080547fffffffffffffffffffffffffffffffffffffffffffffffffffffffffffffff001685151590811790915582519384529083015280517f0aa5ec5ffdc7f6f9c4d0dded489d7450297155cb2f71cb771e02427f7dff4f519281900390910190a15050565b60145473ffffffffffffffffffffffffffffffffffffffff1681565b600d5481565b60015473ffffffffffffffffffffffffffffffffffffffff1681565b60145473ffffffffffffffffffffffffffffffffffffffff163314611c4457604080517f08c379a000000000000000000000000000000000000000000000000000000000815260206004820152601760248201527f5472616e736d757465723a2021676f7665726e616e6365000000000000000000604482015290519081900360640190fd5b8260005b81811015611cd957838382818110611c5c57fe5b90506020020135151560116000888885818110611c7557fe5b6020908102929092013573ffffffffffffffffffffffffffffffffffffffff1683525081019190915260400160002080547fffffffffffffffffffffffffffffffffffffffffffffffffffffffffffffff0016911515919091179055600101611c48565b507fd1721b10ac5fe95d2627d512aa0f92c34ada0347c874adf414cf51af5760ff56858585856040518080602001806020018381038352878782818152602001925060200280828437600083820152601f017fffffffffffffffffffffffffffffffffffffffffffffffffffffffffffffffe0169091018481038352858152602090810191508690860280828437600083820152604051601f9091017fffffffffffffffffffffffffffffffffffffffffffffffffffffffffffffffe0169092018290039850909650505050505050a15050505050565b60165474010000000000000000000000000000000000000000900460ff168015611e12575060145473ffffffffffffffffffffffffffffffffffffffff16331480611e12575060165473ffffffffffffffffffffffffffffffffffffffff1633145b611e67576040517f08c379a00000000000000000000000000000000000000000000000000000000081526004018080602001828103825260358152602001806152b16035913960400191505060405180910390fd5b611e718282614225565b5050565b60076020526000908152604090205460ff1681565b60066020526000908152604090205481565b60005481565b73ffffffffffffffffffffffffffffffffffffffff8116600090815260066020526040812054600e548291611ed79190613ec1565b600d5473ffffffffffffffffffffffffffffffffffffffff8516600090815260036020526040902054919250611f1191610d209084613f3d565b9392505050565b60165474010000000000000000000000000000000000000000900460ff1681565b60145473ffffffffffffffffffffffffffffffffffffffff163314611fbf57604080517f08c379a000000000000000000000000000000000000000000000000000000000815260206004820152601760248201527f5472616e736d757465723a2021676f7665726e616e6365000000000000000000604482015290519081900360640190fd5b60138190556040805182815290517fcf837c6f8ba9f94fb0b21939d04aba4ae1cf50cbeca85513c218dfdc6666f1a99181900360200190a150565b60175473ffffffffffffffffffffffffffffffffffffffff1681565b60086020526000908152604090205473ffffffffffffffffffffffffffffffffffffffff1681565b60145473ffffffffffffffffffffffffffffffffffffffff1633146120c457604080517f08c379a000000000000000000000000000000000000000000000000000000000815260206004820152601760248201527f5472616e736d757465723a2021676f7665726e616e6365000000000000000000604482015290519081900360640190fd5b60008190556040805182815290517fc2965d898897107f6f1d0e43c043ca07b7a51d487acfac1decec2ec8405364409181900360200190a150565b60095481565b61210e336140cc565b15801561211a57503332145b61218557604080517f08c379a000000000000000000000000000000000000000000000000000000000815260206004820152601160248201527f6e6f20636f6e74726163742063616c6c73000000000000000000000000000000604482015290519081900360640190fd5b601c54336000908152601b60205260409020546121a3904390613ec1565b101561221057604080517f08c379a000000000000000000000000000000000000000000000000000000000815260206004820152601460248201527f616374696f6e2064656c6179206e6f74206d6574000000000000000000000000604482015290519081900360640190fd5b336000908152601b602052604081204390819055600c54600b54909290801561229757600061223f8486613ec1565b9050600054811061225257819250612279565b60005461225f8383613f3d565b11156122795760005461227690610d208484613f3d565b92505b8215612295576122898284613ec1565b600b556122958361428d565b505b600c8390553360006122a882611ea2565b9050801561231757600f546122bd9082613ec1565b600f5573ffffffffffffffffffffffffffffffffffffffff82166000908152600460205260409020546122f09082614031565b73ffffffffffffffffffffffffffffffffffffffff83166000908152600460205260409020555b600e5473ffffffffffffffffffffffffffffffffffffffff831660009081526006602090815260408083209390935533825260079052205460ff166123d15760098054600090815260086020908152604080832080547fffffffffffffffffffffffff0000000000000000000000000000000000000000163390811790915583526007909152902080547fffffffffffffffffffffffffffffffffffffffffffffffffffffffffffffff0016600190811790915581540190555b60165474010000000000000000000000000000000000000000900460ff161561245b57604080517f08c379a000000000000000000000000000000000000000000000000000000000815260206004820152601760248201527f656d657267656e637920706175736520656e61626c6564000000000000000000604482015290519081900360640190fd5b60015433906124829073ffffffffffffffffffffffffffffffffffffffff1682308b6142f6565b600a5461248f9089614031565b600a5573ffffffffffffffffffffffffffffffffffffffff81166000908152600360205260409020546124c29089614031565b73ffffffffffffffffffffffffffffffffffffffff82166000818152600360209081526040918290209390935580519182529181018a905281517fd2c11ddc796e75881f492256edb3cb3bf4c7a7761682320c5798a8dbb3662d88929181900390910190a15050505050505050565b601b6020526000908152604090205481565b600061254f6019614391565b905090565b6000806125626019846140a5565b600101549392505050565b60046020526000908152604090205481565b60145473ffffffffffffffffffffffffffffffffffffffff163314806125bc575060165473ffffffffffffffffffffffffffffffffffffffff1633145b61262757604080517f08c379a000000000000000000000000000000000000000000000000000000000815260206004820152601260248201527f2128676f76207c7c2073656e74696e656c290000000000000000000000000000604482015290519081900360640190fd5b601680548215157401000000000000000000000000000000000000000081027fffffffffffffffffffffff00ffffffffffffffffffffffffffffffffffffffff9092169190911790915560408051918252517f77860e247ab9186dbe64e5bd0e0b93273cc4273e01818420e788f500078886f59181900360200190a150565b60145473ffffffffffffffffffffffffffffffffffffffff16331461272c57604080517f08c379a000000000000000000000000000000000000000000000000000000000815260206004820152601760248201527f5472616e736d757465723a2021676f7665726e616e6365000000000000000000604482015290519081900360640190fd5b73ffffffffffffffffffffffffffffffffffffffff81166127ae57604080517f08c379a000000000000000000000000000000000000000000000000000000000815260206004820152601560248201527f63616e6e6f74206d69677261746520746f203078300000000000000000000000604482015290519081900360640190fd5b60165474010000000000000000000000000000000000000000900460ff16612821576040517f08c379a00000000000000000000000000000000000000000000000000000000081526004018080602001828103825260218152602001806153cd6021913960400191505060405180910390fd5b600254604080517f70a08231000000000000000000000000000000000000000000000000000000008152306004820152905160009273ffffffffffffffffffffffffffffffffffffffff16916370a08231916024808301926020929190829003018186803b15801561289257600080fd5b505afa1580156128a6573d6000803e3d6000fd5b505050506040513d60208110156128bc57600080fd5b5051600a54604080516060810190915260228082529293506000926128ed9291906152e66020830139849190614395565b600254604080517f095ea7b300000000000000000000000000000000000000000000000000000000815273ffffffffffffffffffffffffffffffffffffffff878116600483015260248201859052915193945091169163095ea7b3916044808201926020929091908290030181600087803b15801561296b57600080fd5b505af115801561297f573d6000803e3d6000fd5b505050506040513d602081101561299557600080fd5b5050604080517ffb93210800000000000000000000000000000000000000000000000000000000815230600482015260248101839052905173ffffffffffffffffffffffffffffffffffffffff85169163fb93210891604480830192600092919082900301818387803b158015612a0b57600080fd5b505af1158015612a1f573d6000803e3d6000fd5b50506040805173ffffffffffffffffffffffffffffffffffffffff871681526020810185905281517f491c0362a655f805cc3d5ab67c471c6b4e517051540c85134456449ce6c1a6799450908190039091019150a1505050565b612a82336140cc565b158015612a8e57503332145b612af957604080517f08c379a000000000000000000000000000000000000000000000000000000000815260206004820152601160248201527f6e6f20636f6e74726163742063616c6c73000000000000000000000000000000604482015290519081900360640190fd5b601c54336000908152601b6020526040902054612b17904390613ec1565b1015612b8457604080517f08c379a000000000000000000000000000000000000000000000000000000000815260206004820152601460248201527f616374696f6e2064656c6179206e6f74206d6574000000000000000000000000604482015290519081900360640190fd5b336000908152601b602052604081204390819055600c54600b549092908015612c0b576000612bb38486613ec1565b90506000548110612bc657819250612bed565b600054612bd38383613f3d565b1115612bed57600054612bea90610d208484613f3d565b92505b8215612c0957612bfd8284613ec1565b600b55612c098361428d565b505b600c839055336000612c1c82611ea2565b90508015612c8b57600f54612c319082613ec1565b600f5573ffffffffffffffffffffffffffffffffffffffff8216600090815260046020526040902054612c649082614031565b73ffffffffffffffffffffffffffffffffffffffff83166000908152600460205260409020555b600e5473ffffffffffffffffffffffffffffffffffffffff83166000908152600660205260408120919091558790612cc282611ea2565b90508015612d3157600f54612cd79082613ec1565b600f5573ffffffffffffffffffffffffffffffffffffffff8216600090815260046020526040902054612d0a9082614031565b73ffffffffffffffffffffffffffffffffffffffff83166000908152600460205260409020555b600e5473ffffffffffffffffffffffffffffffffffffffff831660009081526006602090815260408083209390935533825260079052205460ff16612deb5760098054600090815260086020908152604080832080547fffffffffffffffffffffffff0000000000000000000000000000000000000000163390811790915583526007909152902080547fffffffffffffffffffffffffffffffffffffffffffffffffffffffffffffff0016600190811790915581540190555b73ffffffffffffffffffffffffffffffffffffffff89166000908152600460209081526040808320546003909252909120543391908111612e8d57604080517f08c379a000000000000000000000000000000000000000000000000000000000815260206004820152601560248201527f5472616e736d757465723a20216f766572666c6f770000000000000000000000604482015290519081900360640190fd5b73ffffffffffffffffffffffffffffffffffffffff8b1660009081526004602090815260408083208390556003909152812054612ecb908390613ec1565b73ffffffffffffffffffffffffffffffffffffffff808e1660009081526003602052604080822080549083905560015482517f42966c6800000000000000000000000000000000000000000000000000000000815260048101839052925191975094955093909216926342966c6892602480820193929182900301818387803b158015612f5757600080fd5b505af1158015612f6b573d6000803e3d6000fd5b5050600a54612f7d9250905083613ec1565b600a5573ffffffffffffffffffffffffffffffffffffffff8316600090815260046020526040902054612fb09082614031565b73ffffffffffffffffffffffffffffffffffffffff808516600090815260046020908152604080832094909455918f16815260059091522054612ff39083614031565b73ffffffffffffffffffffffffffffffffffffffff8d16600090815260056020526040902081905561302481614164565b73ffffffffffffffffffffffffffffffffffffffff808e1660009081526005602052604081205560025461305a91168e836140d2565b6040805173ffffffffffffffffffffffffffffffffffffffff80871682528f16602082015280820183905290517fb1e35379b2ed6821c33158f59080978024478baafa855571cd84e46b9848b3ce9181900360600190a150505050505050505050505050565b60145473ffffffffffffffffffffffffffffffffffffffff16331461314657604080517f08c379a000000000000000000000000000000000000000000000000000000000815260206004820152601760248201527f5472616e736d757465723a2021676f7665726e616e6365000000000000000000604482015290519081900360640190fd5b601a5460ff16156131b857604080517f08c379a000000000000000000000000000000000000000000000000000000000815260206004820152601f60248201527f5472616e736d757465723a20616c726561647920696e697469616c697a656400604482015290519081900360640190fd5b60175473ffffffffffffffffffffffffffffffffffffffff16613226576040517f08c379a00000000000000000000000000000000000000000000000000000000081526004018080602001828103825260348152602001806153ee6034913960400191505060405180910390fd5b61322f81614446565b50601a80547fffffffffffffffffffffffffffffffffffffffffffffffffffffffffffffff00166001179055565b60145473ffffffffffffffffffffffffffffffffffffffff1633146132e357604080517f08c379a000000000000000000000000000000000000000000000000000000000815260206004820152601760248201527f5472616e736d757465723a2021676f7665726e616e6365000000000000000000604482015290519081900360640190fd5b6132ec81614446565b50565b60165474010000000000000000000000000000000000000000900460ff168015613351575060145473ffffffffffffffffffffffffffffffffffffffff16331480613351575060165473ffffffffffffffffffffffffffffffffffffffff1633145b6133a6576040517f08c379a00000000000000000000000000000000000000000000000000000000081526004018080602001828103825260358152602001806152b16035913960400191505060405180910390fd5b6132ec816146fb565b601c5481565b33600090815260116020526040812054819060ff1661343557604080517f08c379a000000000000000000000000000000000000000000000000000000000815260206004820152601360248201527f5472616e736d757465723a20216b656570657200000000000000000000000000604482015290519081900360640190fd5b60006134426019856140a5565b601754909150600090819061346e90849073ffffffffffffffffffffffffffffffffffffffff16614761565b604080518381526020810183905281519395509193507f11d2034f4471d11a13f0f1798ceaf0c9db2812d450a0681958ce7d4f2fb97f0992918290030190a1909350915050915091565b6134c1336140cc565b1580156134cd57503332145b61353857604080517f08c379a000000000000000000000000000000000000000000000000000000000815260206004820152601160248201527f6e6f20636f6e74726163742063616c6c73000000000000000000000000000000604482015290519081900360640190fd5b61354061376f565b613548611906565b336000908152600360205260409020546132ec81611660565b60186020526000908152604090205460ff1681565b61357f336140cc565b15801561358b57503332145b6135f657604080517f08c379a000000000000000000000000000000000000000000000000000000000815260206004820152601160248201527f6e6f20636f6e74726163742063616c6c73000000000000000000000000000000604482015290519081900360640190fd5b61354861376f565b60145473ffffffffffffffffffffffffffffffffffffffff16331461368457604080517f08c379a000000000000000000000000000000000000000000000000000000000815260206004820152601760248201527f5472616e736d757465723a2021676f7665726e616e6365000000000000000000604482015290519081900360640190fd5b73ffffffffffffffffffffffffffffffffffffffff81166136f0576040517f08c379a000000000000000000000000000000000000000000000000000000000815260040180806020018281038252602a81526020018061532e602a913960400191505060405180910390fd5b6017805473ffffffffffffffffffffffffffffffffffffffff83167fffffffffffffffffffffffff0000000000000000000000000000000000000000909116811790915560408051918252517f05f3326e0527f309d4015dee3bc3f36e650b53fc823bab69c99847814acfafdf9181900360200190a150565b600b5481565b613778336140cc565b15801561378457503332145b6137ef57604080517f08c379a000000000000000000000000000000000000000000000000000000000815260206004820152601160248201527f6e6f20636f6e74726163742063616c6c73000000000000000000000000000000604482015290519081900360640190fd5b601c54336000908152601b602052604090205461380d904390613ec1565b101561387a57604080517f08c379a000000000000000000000000000000000000000000000000000000000815260206004820152601460248201527f616374696f6e2064656c6179206e6f74206d6574000000000000000000000000604482015290519081900360640190fd5b336000908152601b602052604081204390819055600c54600b5490929080156139015760006138a98486613ec1565b905060005481106138bc578192506138e3565b6000546138c98383613f3d565b11156138e3576000546138e090610d208484613f3d565b92505b82156138ff576138f38284613ec1565b600b556138ff8361428d565b505b600c83905533600061391282611ea2565b9050801561398157600f546139279082613ec1565b600f5573ffffffffffffffffffffffffffffffffffffffff821660009081526004602052604090205461395a9082614031565b73ffffffffffffffffffffffffffffffffffffffff83166000908152600460205260409020555b600e5473ffffffffffffffffffffffffffffffffffffffff8316600090815260066020908152604080832093909355338083526004909152918120549081613a2a57604080517f08c379a000000000000000000000000000000000000000000000000000000000815260206004820152601e60248201527f6e65656420746f20686176652070656e64696e6720696e206275636b65740000604482015290519081900360640190fd5b73ffffffffffffffffffffffffffffffffffffffff831660009081526004602090815260408083208390556003909152902054821115613ac05773ffffffffffffffffffffffffffffffffffffffff8316600090815260036020526040902054613a95908390613ec1565b73ffffffffffffffffffffffffffffffffffffffff8416600090815260036020526040902054925090505b73ffffffffffffffffffffffffffffffffffffffff8316600090815260036020526040902054613af09083613ec1565b73ffffffffffffffffffffffffffffffffffffffff8085166000908152600360205260408082209390935560015483517f42966c680000000000000000000000000000000000000000000000000000000081526004810187905293519216926342966c68926024808301939282900301818387803b158015613b7157600080fd5b505af1158015613b85573d6000803e3d6000fd5b5050600a54613b979250905083613ec1565b600a55613ba38161428d565b73ffffffffffffffffffffffffffffffffffffffff8316600090815260056020526040902054613bd39083614031565b73ffffffffffffffffffffffffffffffffffffffff841660008181526005602090815260409182902093909355805191825291810184905281517fe6b1330a9c444712d3673f05900d736c42072653e56fb82b5951477832b8d576929181900390910190a1505050505050505050565b60155473ffffffffffffffffffffffffffffffffffffffff1681565b60165473ffffffffffffffffffffffffffffffffffffffff1681565b60036020526000908152604090205481565b3360009081526010602052604090205460ff16613d0b57604080517f08c379a000000000000000000000000000000000000000000000000000000000815260206004820152601860248201527f5472616e736d757465723a202177686974656c69737465640000000000000000604482015290519081900360640190fd5b600c54600b5443906000908015613d80576000613d288486613ec1565b90506000548110613d3b57819250613d62565b600054613d488383613f3d565b1115613d6257600054613d5f90610d208484613f3d565b92505b8215613d7e57613d728284613ec1565b600b55613d7e8361428d565b505b600c83905560165474010000000000000000000000000000000000000000900460ff1615613e0f57604080517f08c379a000000000000000000000000000000000000000000000000000000000815260206004820152601760248201527f656d657267656e637920706175736520656e61626c6564000000000000000000604482015290519081900360640190fd5b600254613e349073ffffffffffffffffffffffffffffffffffffffff168730886142f6565b600b54613e419086614031565b600b55613e4c6147b4565b6040805173ffffffffffffffffffffffffffffffffffffffff881681526020810187905281517f33ad5d6b2a46b5457e0d36286a2686a0390b0821dedbbdf8dcdcda64f4782c68929181900390910190a1505050505050565b60025473ffffffffffffffffffffffffffffffffffffffff1681565b600082821115613f3257604080517f08c379a000000000000000000000000000000000000000000000000000000000815260206004820152601e60248201527f536166654d6174683a207375627472616374696f6e206f766572666c6f770000604482015290519081900360640190fd5b508082035b92915050565b600082613f4c57506000613f37565b82820282848281613f5957fe5b0414611f11576040517f08c379a00000000000000000000000000000000000000000000000000000000081526004018080602001828103825260218152602001806153796021913960400191505060405180910390fd5b600080821161402057604080517f08c379a000000000000000000000000000000000000000000000000000000000815260206004820152601a60248201527f536166654d6174683a206469766973696f6e206279207a65726f000000000000604482015290519081900360640190fd5b81838161402957fe5b049392505050565b600082820183811015611f1157604080517f08c379a000000000000000000000000000000000000000000000000000000000815260206004820152601b60248201527f536166654d6174683a206164646974696f6e206f766572666c6f770000000000604482015290519081900360640190fd5b60008260000182815481106140b657fe5b9060005260206000209060020201905092915050565b3b151590565b6040805173ffffffffffffffffffffffffffffffffffffffff8416602482015260448082018490528251808303909101815260649091019091526020810180517bffffffffffffffffffffffffffffffffffffffffffffffffffffffff167fa9059cbb0000000000000000000000000000000000000000000000000000000017905261415f9084906148cc565b505050565b600254604080517f70a08231000000000000000000000000000000000000000000000000000000008152306004820152905160009273ffffffffffffffffffffffffffffffffffffffff16916370a08231916024808301926020929190829003018186803b1580156141d557600080fd5b505afa1580156141e9573d6000803e3d6000fd5b505050506040513d60208110156141ff57600080fd5b5051905081811015611e71576012548183039061415f906142209083614031565b6149a4565b60006142326019846140a5565b90506000806142428330866149da565b91509150847fccbd929f935422b28ee209a0db0556280b0a3d9bc4da58f1d3f0ab4f8a4996478383604051808381526020018281526020019250505060405180910390a25050505050565b6000600a5411801561429f5750600081115b156142e3576142cb6142c2600a54610d20600d5485613f3d90919063ffffffff16565b600e5490614031565b600e55600f546142db9082614031565b600f556132ec565b600b546142f09082614031565b600b5550565b6040805173ffffffffffffffffffffffffffffffffffffffff80861660248301528416604482015260648082018490528251808303909101815260849091019091526020810180517bffffffffffffffffffffffffffffffffffffffffffffffffffffffff167f23b872dd0000000000000000000000000000000000000000000000000000000017905261438b9085906148cc565b50505050565b5490565b6000818484111561443e576040517f08c379a00000000000000000000000000000000000000000000000000000000081526004018080602001828103825283818151815260200191508051906020019080838360005b838110156144035781810151838201526020016143eb565b50505050905090810190601f1680156144305780820380516001836020036101000a031916815260200191505b509250505060405180910390fd5b505050900390565b73ffffffffffffffffffffffffffffffffffffffff81166144b2576040517f08c379a000000000000000000000000000000000000000000000000000000000815260040180806020018281038252602f81526020018061544c602f913960400191505060405180910390fd5b600254604080517ffc0c546a000000000000000000000000000000000000000000000000000000008152905173ffffffffffffffffffffffffffffffffffffffff9283169284169163fc0c546a916004808301926020929190829003018186803b15801561451f57600080fd5b505afa158015614533573d6000803e3d6000fd5b505050506040513d602081101561454957600080fd5b505173ffffffffffffffffffffffffffffffffffffffff16146145b7576040517f08c379a00000000000000000000000000000000000000000000000000000000081526004018080602001828103825260218152602001806153586021913960400191505060405180910390fd5b73ffffffffffffffffffffffffffffffffffffffff811660009081526018602052604090205460ff161561464c57604080517f08c379a000000000000000000000000000000000000000000000000000000000815260206004820152601660248201527f4164617074657220616c726561647920696e2075736500000000000000000000604482015290519081900360640190fd5b73ffffffffffffffffffffffffffffffffffffffff8116600081815260186020908152604080832080547fffffffffffffffffffffffffffffffffffffffffffffffffffffffffffffff0016600117905580518082019091529283528201526146b790601990614a10565b60405173ffffffffffffffffffffffffffffffffffffffff8216907f0821015de34e20b0878a40f6f165801417f53b2017016d7321cacee989c8cfa790600090a250565b60006147086019836140a5565b90506000806147178330614a78565b91509150837fccbd929f935422b28ee209a0db0556280b0a3d9bc4da58f1d3f0ab4f8a4996478383604051808381526020018281526020019250505060405180910390a250505050565b600080836001015461477285614a9f565b1161478257506000905080610eb7565b600061479b856001015461479587614a9f565b90613ec1565b90506147a8858583614b3b565b92509250509250929050565b600254604080517f70a08231000000000000000000000000000000000000000000000000000000008152306004820152905160009273ffffffffffffffffffffffffffffffffffffffff16916370a08231916024808301926020929190829003018186803b15801561482557600080fd5b505afa158015614839573d6000803e3d6000fd5b505050506040513d602081101561484f57600080fd5b505160135460125491925060009161486d91606491610d2091613f3d565b60125490915061487d9082614031565b8211156148a957601254820360006148956019614d52565b90506148a18183614d7d565b505050611e71565b6012546148b69082613ec1565b821015611e715760125482900361415f816149a4565b606061492e826040518060400160405280602081526020017f5361666545524332303a206c6f772d6c6576656c2063616c6c206661696c65648152508573ffffffffffffffffffffffffffffffffffffffff16614e5a9092919063ffffffff16565b80519091501561415f5780806020019051602081101561494d57600080fd5b505161415f576040517f08c379a000000000000000000000000000000000000000000000000000000000815260040180806020018281038252602a815260200180615422602a913960400191505060405180910390fd5b60006149b06019614d52565b905060006149bd82614a9f565b9050828110156149cb578092505b821561415f5761415f83614e71565b60008080806149ea878787614e84565b600189015491935091506149fe9082613ec1565b60018801559092509050935093915050565b8154600180820184556000938452602093849020835160029093020180547fffffffffffffffffffffffff00000000000000000000000000000000000000001673ffffffffffffffffffffffffffffffffffffffff9093169290921782559190920151910155565b600080614a94838560010154866149da9092919063ffffffff16565b915091509250929050565b8054604080517fd4c3eea0000000000000000000000000000000000000000000000000000000008152905160009273ffffffffffffffffffffffffffffffffffffffff169163d4c3eea0916004808301926020929190829003018186803b158015614b0957600080fd5b505afa158015614b1d573d6000803e3d6000fd5b505050506040513d6020811015614b3357600080fd5b505192915050565b6000806000614b4986614fb2565b905060008173ffffffffffffffffffffffffffffffffffffffff166370a08231876040518263ffffffff1660e01b8152600401808273ffffffffffffffffffffffffffffffffffffffff16815260200191505060206040518083038186803b158015614bb457600080fd5b505afa158015614bc8573d6000803e3d6000fd5b505050506040513d6020811015614bde57600080fd5b505190506000614bed88614a9f565b8854604080517f594d4e3600000000000000000000000000000000000000000000000000000000815273ffffffffffffffffffffffffffffffffffffffff8b81166004830152602482018b9052915193945091169163594d4e369160448082019260009290919082900301818387803b158015614c6957600080fd5b505af1158015614c7d573d6000803e3d6000fd5b5050505060008373ffffffffffffffffffffffffffffffffffffffff166370a08231896040518263ffffffff1660e01b8152600401808273ffffffffffffffffffffffffffffffffffffffff16815260200191505060206040518083038186803b158015614cea57600080fd5b505afa158015614cfe573d6000803e3d6000fd5b505050506040513d6020811015614d1457600080fd5b505190506000614d248285613ec1565b90506000614d318b614a9f565b90506000614d3f8583613ec1565b929c929b50919950505050505050505050565b600081614d5e8161501c565b81548110614d6857fe5b90600052602060002090600202019050919050565b600080614d8984614fb2565b8454909150614db29073ffffffffffffffffffffffffffffffffffffffff8084169116856140d2565b8354604080517fb6b55f2500000000000000000000000000000000000000000000000000000000815260048101869052905173ffffffffffffffffffffffffffffffffffffffff9092169163b6b55f259160248082019260009290919082900301818387803b158015614e2457600080fd5b505af1158015614e38573d6000803e3d6000fd5b5050506001850154614e4b915084614031565b60018501555081905092915050565b6060614e698484600085615075565b949350505050565b6132ec614e7e601961501c565b82614225565b6000806000614e9286614fb2565b905060008173ffffffffffffffffffffffffffffffffffffffff166370a08231876040518263ffffffff1660e01b8152600401808273ffffffffffffffffffffffffffffffffffffffff16815260200191505060206040518083038186803b158015614efd57600080fd5b505afa158015614f11573d6000803e3d6000fd5b505050506040513d6020811015614f2757600080fd5b505190506000614f3688614a9f565b8854604080517ff3fef3a300000000000000000000000000000000000000000000000000000000815273ffffffffffffffffffffffffffffffffffffffff8b81166004830152602482018b9052915193945091169163f3fef3a39160448082019260009290919082900301818387803b158015614c6957600080fd5b8054604080517ffc0c546a000000000000000000000000000000000000000000000000000000008152905160009273ffffffffffffffffffffffffffffffffffffffff169163fc0c546a916004808301926020929190829003018186803b158015614b0957600080fd5b60008061502883614391565b9050611f1160016040518060400160405280601181526020017f5661756c742e4c6973743a20656d707479000000000000000000000000000000815250836143959092919063ffffffff16565b6060824710156150d0576040517f08c379a00000000000000000000000000000000000000000000000000000000081526004018080602001828103825260268152602001806153086026913960400191505060405180910390fd5b6150d9856140cc565b61514457604080517f08c379a000000000000000000000000000000000000000000000000000000000815260206004820152601d60248201527f416464726573733a2063616c6c20746f206e6f6e2d636f6e7472616374000000604482015290519081900360640190fd5b600060608673ffffffffffffffffffffffffffffffffffffffff1685876040518082805190602001908083835b602083106151ae57805182527fffffffffffffffffffffffffffffffffffffffffffffffffffffffffffffffe09092019160209182019101615171565b6001836020036101000a03801982511681845116808217855250505050505090500191505060006040518083038185875af1925050503d8060008114615210576040519150601f19603f3d011682016040523d82523d6000602084013e615215565b606091505b5091509150615225828286615230565b979650505050505050565b6060831561523f575081611f11565b82511561524f5782518084602001fd5b6040517f08c379a00000000000000000000000000000000000000000000000000000000081526020600482018181528451602484015284518593919283926044019190850190808383600083156144035781810151838201526020016143eb56fe5472616e736d757465723a206e6f74207061757365642c206f72206e6f7420676f7665726e616e6365206f722073656e74696e656c6e6f7420656e6f7567682066756e647320746f2073657276696365207374616b6573416464726573733a20696e73756666696369656e742062616c616e636520666f722063616c6c5472616e736d757465723a207265776172647320616464726573732063616e6e6f74206265203078302e5472616e736d757465722e7661756c743a20746f6b656e206d69736d617463682e536166654d6174683a206d756c7469706c69636174696f6e206f766572666c6f775472616e736d757465723a20756e7374616b6520616d6f756e742065786365656473206465706f736974656420616d6f756e746d6967726174653a2073657420656d657267656e637920657869742066697273745472616e736d757465723a2063616e6e6f7420696e697469616c697a652072657761726473206164647265737320746f203078305361666545524332303a204552433230206f7065726174696f6e20646964206e6f7420737563636565645472616e736d757465723a20616374697665207661756c7420616464726573732063616e6e6f74206265203078302e5472616e736d757465723a2073656e74696e656c20616464726573732063616e6e6f74206265203078302ea2646970667358221220812c9412a5b94a4601c37ff0e292b9dd11dfb026a3bdd30dab93fe4412f6bd0864736f6c634300060c0033",
  "devdoc": {
    "details": "Implementation of the {IERC20Burnable} interface. This implementation is agnostic to the way tokens are created. This means that a supply mechanism has to be added in a derived contract using {_mint}. For a generic mechanism see {ERC20PresetMinterPauser}. TIP: For a detailed writeup see our guide https://forum.zeppelin.solutions/t/how-to-implement-erc20-supply-mechanisms/226[How to implement supply mechanisms]. We have followed general OpenZeppelin guidelines: functions revert instead of returning `false` on failure. This behavior is nonetheless conventional and does not conflict with the expectations of ERC20 applications. Additionally, an {Approval} event is emitted on calls to {transferFrom}. This allows applications to reconstruct the allowance for all accounts just by listening to said events. Other implementations of the EIP may not emit these events, as it isn't required by the specification. Finally, the non-standard {decreaseAllowance} and {increaseAllowance} functions have been added to mitigate the well-known issues around setting allowances. See {IERC20Burnable-approve}.",
    "kind": "dev",
    "methods": {
      "acceptGovernance()": {
        "details": "Accepts the role as governance. This function reverts if the caller is not the new pending governance."
      },
      "bufferInfo()": {
        "details": "Gets info on the buffer This function is used to query the contract to get the latest state of the buffer",
        "returns": {
          "_buffer": "the amount in the buffer ",
          "_deltaBlocks": "the amount of time since the last phased distribution",
          "_toDistribute": "the amount ready to be distributed"
        }
      },
      "claim()": {
        "details": "claims the base token after it has been transmuted This function reverts if there is no realisedToken balance"
      },
      "distribute(address,uint256)": {
        "details": "Distributes the base token proportionally to all alToken stakers. This function is meant to be called by the Alchemist contract for when it is sending yield to the transmuter.  Anyone can call this and add funds, idk why they would do that though...",
        "params": {
          "amount": "the amount of base tokens to be distributed to the transmuter.",
          "origin": "the account that is sending the tokens to be distributed."
        }
      },
      "dividendsOwing(address)": {
        "returns": {
          "_0": "displays the user's share of the pooled alTokens."
        }
      },
      "exit()": {
        "details": "Transmutes and unstakes all alTokens This function combines the transmute and unstake functions for ease of use"
      },
      "forceTransmute(address)": {
        "details": "Executes transmute() on another account that has had more base tokens allocated to it than alTokens staked. The caller of this function will have the surlus base tokens credited to their tokensInBucket balance, rewarding them for performing this action This function reverts if the address to transmute is not over-filled.",
        "params": {
          "toTransmute": "address of the account you will force transmute."
        }
      },
      "getMultipleUserInfo(uint256,uint256)": {
        "details": "Gets the status of multiple users in one call This function is used to query the contract to check for accounts that have overfilled positions in order to check  who can be force transmuted.",
        "params": {
          "from": "the first index of the userList",
          "to": "the last index of the userList returns the userList with their staking status in paginated form. "
        }
      },
      "getVaultAdapter(uint256)": {
        "details": "Get the adapter of a vault.",
        "params": {
          "_vaultId": "the identifier of the vault."
        },
        "returns": {
          "_0": "the vault adapter."
        }
      },
      "getVaultTotalDeposited(uint256)": {
        "details": "Get the total amount of the parent asset that has been deposited into a vault.",
        "params": {
          "_vaultId": "the identifier of the vault."
        },
        "returns": {
          "_0": "the total amount of deposited tokens."
        }
      },
      "harvest(uint256)": {
        "details": "Harvests yield from a vault.",
        "params": {
          "_vaultId": "the identifier of the vault to harvest from."
        },
        "returns": {
          "_0": "the amount of funds that were harvested from the vault."
        }
      },
      "initialize(address)": {
        "details": "Initializes the contract. This function checks that the transmuter and rewards have been set and sets up the active vault.",
        "params": {
          "_adapter": "the vault adapter of the active vault."
        }
      },
      "migrateFunds(address)": {
        "details": "Migrates transmuter funds to a new transmuter",
        "params": {
          "migrateTo": "address of the new transmuter"
        }
      },
      "recallAllFundsFromVault(uint256)": {
        "details": "Recalls all planted funds from a target vault",
        "params": {
          "_vaultId": "the id of the vault from which to recall funds"
        }
      },
      "recallFundsFromVault(uint256,uint256)": {
        "details": "Recalls planted funds from a target vault",
        "params": {
          "_amount": "the amount of funds to recall",
          "_vaultId": "the id of the vault from which to recall funds"
        }
      },
      "setKeepers(address[],bool[])": {
        "details": "Sets the keeper list This function reverts if the caller is not governance",
        "params": {
          "_keepers": "the accounts to set states for.",
          "_states": "the accounts states."
        }
      },
      "setMinUserActionDelay(uint256)": {
        "details": "Sets the minUserActionDelay  This function reverts if the caller is not the current governance.",
        "params": {
          "_minUserActionDelay": "the new min user action delay."
        }
      },
      "setPause(bool)": {
        "details": "Sets if the contract should enter emergency exit mode. There are 2 main reasons to pause:     1. Need to shut down deposits in case of an emergency in one of the vaults     2. Need to migrate to a new transmuter While the transmuter is paused, deposit() and distribute() are disabled",
        "params": {
          "_pause": "if the contract should enter emergency exit mode."
        }
      },
      "setPendingGovernance(address)": {
        "details": "Sets the pending governance. This function reverts if the new pending governance is the zero address or the caller is not the current governance. This is to prevent the contract governance being set to the zero address which would deadlock privileged contract functionality.",
        "params": {
          "_pendingGovernance": "the new pending governance."
        }
      },
      "setPlantableMargin(uint256)": {
        "details": "Sets the plantableThreshold margin for triggering the planting or recalling of funds on harvest This function reverts if the caller is not the current governance.",
        "params": {
          "_plantableMargin": "the new plantable margin."
        }
      },
      "setPlantableThreshold(uint256)": {
        "details": "Sets the threshold of total held funds above which excess funds will be planted in yield farms. This function reverts if the caller is not the current governance.",
        "params": {
          "_plantableThreshold": "the new plantable threshold."
        }
      },
      "setRewards(address)": {
        "details": "Sets the rewards contract. This function reverts if the new rewards contract is the zero address or the caller is not the current governance.",
        "params": {
          "_rewards": "the new rewards contract."
        }
      },
      "setSentinel(address)": {
        "details": "Sets the address of the sentinel",
        "params": {
          "_sentinel": "address of the new sentinel"
        }
      },
      "setTransmutationPeriod(uint256)": {
        "details": "set the transmutationPeriod variable sets the length (in blocks) of one full distribution phase"
      },
      "setWhitelist(address,bool)": {
        "details": "Sets the whitelist This function reverts if the caller is not governance",
        "params": {
          "_state": "the whitelist state.",
          "_toWhitelist": "the address to alter whitelist permissions."
        }
      },
      "stake(uint256)": {
        "details": "Deposits alTokens into the transmuter ",
        "params": {
          "amount": "the amount of alTokens to stake"
        }
      },
      "transmute()": {
        "details": "Converts the staked alTokens to the base tokens in amount of the sum of pendingdivs and tokensInBucket once the alToken has been converted, it is burned, and the base token becomes realisedTokens which can be recieved using claim()     reverts if there are no pendingdivs or tokensInBucket"
      },
      "transmuteAndClaim()": {
        "details": "Transmutes and claims all converted base tokens. This function combines the transmute and claim functions while leaving your remaining alTokens staked."
      },
      "transmuteClaimAndWithdraw()": {
        "details": "Transmutes, claims base tokens, and withdraws alTokens. This function helps users to exit the transmuter contract completely after converting their alTokens to the base pair."
      },
      "unstake(uint256)": {
        "details": "Withdraws staked alTokens from the transmuter This function reverts if you try to draw more tokens than you deposited",
        "params": {
          "amount": "the amount of alTokens to unstake"
        }
      },
      "userInfo(address)": {
        "details": "Gets the status of a user's staking position. The total amount allocated to a user is the sum of pendingdivs and inbucket.",
        "params": {
          "user": "the address of the user you wish to query. returns user status"
        }
      },
      "vaultCount()": {
        "details": "Gets the number of vaults in the vault list.",
        "returns": {
          "_0": "the vault count."
        }
      }
    },
    "stateVariables": {
      "_vaults": {
        "details": "A list of all of the vaults. The last element of the list is the vault that is currently being used for deposits and withdraws. VaultWithIndirections before the last element are considered inactive and are expected to be cleared."
      },
      "adapters": {
        "details": "A mapping of adapter addresses to keep track of vault adapters that have already been added"
      },
      "governance": {
        "details": "The address of the account which currently has administrative capabilities over this contract."
      },
      "initialized": {
        "details": "make sure the contract is only initialized once."
      },
      "keepers": {
        "details": "addresses whitelisted to run keepr jobs (harvest)"
      },
      "lastUserAction": {
        "details": "mapping of user account to the last block they acted"
      },
      "minUserActionDelay": {
        "details": "number of blocks to delay between allowed user actions"
      },
      "pause": {
        "details": "A flag indicating if deposits and flushes should be halted and if all parties should be able to recall from the active vault."
      },
      "pendingGovernance": {
        "details": "The address of the pending governance."
      },
      "plantableMargin": {
        "details": "The % margin to trigger planting or recalling of funds"
      },
      "plantableThreshold": {
        "details": "The threshold above which excess funds will be deployed to yield farming activities"
      },
      "pointMultiplier": {
        "details": "values needed to calculate the distribution of base asset in proportion for alTokens staked"
      },
      "rewards": {
        "details": "The address of the contract which will receive fees."
      },
      "sentinel": {
        "details": "The address of the account which can perform emergency activities"
      },
      "whiteList": {
        "details": "alchemist addresses whitelisted"
      }
    },
    "version": 1
  },
  "userdoc": {
    "kind": "user",
    "methods": {},
    "version": 1
  },
  "storageLayout": {
    "storage": [
      {
        "astId": 11264,
        "contract": "contracts/TransmuterB.sol:TransmuterB",
        "label": "transmutationPeriod",
        "offset": 0,
        "slot": "0",
        "type": "t_uint256"
      },
      {
        "astId": 11266,
        "contract": "contracts/TransmuterB.sol:TransmuterB",
        "label": "alToken",
        "offset": 0,
        "slot": "1",
        "type": "t_address"
      },
      {
        "astId": 11268,
        "contract": "contracts/TransmuterB.sol:TransmuterB",
        "label": "token",
        "offset": 0,
        "slot": "2",
        "type": "t_address"
      },
      {
        "astId": 11272,
        "contract": "contracts/TransmuterB.sol:TransmuterB",
        "label": "depositedAlTokens",
        "offset": 0,
        "slot": "3",
        "type": "t_mapping(t_address,t_uint256)"
      },
      {
        "astId": 11276,
        "contract": "contracts/TransmuterB.sol:TransmuterB",
        "label": "tokensInBucket",
        "offset": 0,
        "slot": "4",
        "type": "t_mapping(t_address,t_uint256)"
      },
      {
        "astId": 11280,
        "contract": "contracts/TransmuterB.sol:TransmuterB",
        "label": "realisedTokens",
        "offset": 0,
        "slot": "5",
        "type": "t_mapping(t_address,t_uint256)"
      },
      {
        "astId": 11284,
        "contract": "contracts/TransmuterB.sol:TransmuterB",
        "label": "lastDividendPoints",
        "offset": 0,
        "slot": "6",
        "type": "t_mapping(t_address,t_uint256)"
      },
      {
        "astId": 11288,
        "contract": "contracts/TransmuterB.sol:TransmuterB",
        "label": "userIsKnown",
        "offset": 0,
        "slot": "7",
        "type": "t_mapping(t_address,t_bool)"
      },
      {
        "astId": 11292,
        "contract": "contracts/TransmuterB.sol:TransmuterB",
        "label": "userList",
        "offset": 0,
        "slot": "8",
        "type": "t_mapping(t_uint256,t_address)"
      },
      {
        "astId": 11294,
        "contract": "contracts/TransmuterB.sol:TransmuterB",
        "label": "nextUser",
        "offset": 0,
        "slot": "9",
        "type": "t_uint256"
      },
      {
        "astId": 11296,
        "contract": "contracts/TransmuterB.sol:TransmuterB",
        "label": "totalSupplyAltokens",
        "offset": 0,
        "slot": "10",
        "type": "t_uint256"
      },
      {
        "astId": 11298,
        "contract": "contracts/TransmuterB.sol:TransmuterB",
        "label": "buffer",
        "offset": 0,
        "slot": "11",
        "type": "t_uint256"
      },
      {
        "astId": 11300,
        "contract": "contracts/TransmuterB.sol:TransmuterB",
        "label": "lastDepositBlock",
        "offset": 0,
        "slot": "12",
        "type": "t_uint256"
      },
      {
        "astId": 11304,
        "contract": "contracts/TransmuterB.sol:TransmuterB",
        "label": "pointMultiplier",
        "offset": 0,
        "slot": "13",
        "type": "t_uint256"
      },
      {
        "astId": 11306,
        "contract": "contracts/TransmuterB.sol:TransmuterB",
        "label": "totalDividendPoints",
        "offset": 0,
        "slot": "14",
        "type": "t_uint256"
      },
      {
        "astId": 11308,
        "contract": "contracts/TransmuterB.sol:TransmuterB",
        "label": "unclaimedDividends",
        "offset": 0,
        "slot": "15",
        "type": "t_uint256"
      },
      {
        "astId": 11313,
        "contract": "contracts/TransmuterB.sol:TransmuterB",
        "label": "whiteList",
        "offset": 0,
        "slot": "16",
        "type": "t_mapping(t_address,t_bool)"
      },
      {
        "astId": 11318,
        "contract": "contracts/TransmuterB.sol:TransmuterB",
        "label": "keepers",
        "offset": 0,
        "slot": "17",
        "type": "t_mapping(t_address,t_bool)"
      },
      {
        "astId": 11322,
        "contract": "contracts/TransmuterB.sol:TransmuterB",
        "label": "plantableThreshold",
        "offset": 0,
        "slot": "18",
        "type": "t_uint256"
      },
      {
        "astId": 11326,
        "contract": "contracts/TransmuterB.sol:TransmuterB",
        "label": "plantableMargin",
        "offset": 0,
        "slot": "19",
        "type": "t_uint256"
      },
      {
        "astId": 11329,
        "contract": "contracts/TransmuterB.sol:TransmuterB",
        "label": "governance",
        "offset": 0,
        "slot": "20",
        "type": "t_address"
      },
      {
        "astId": 11332,
        "contract": "contracts/TransmuterB.sol:TransmuterB",
        "label": "pendingGovernance",
        "offset": 0,
        "slot": "21",
        "type": "t_address"
      },
      {
        "astId": 11335,
        "contract": "contracts/TransmuterB.sol:TransmuterB",
        "label": "sentinel",
        "offset": 0,
        "slot": "22",
        "type": "t_address"
      },
      {
        "astId": 11338,
        "contract": "contracts/TransmuterB.sol:TransmuterB",
        "label": "pause",
        "offset": 20,
        "slot": "22",
        "type": "t_bool"
      },
      {
        "astId": 11341,
        "contract": "contracts/TransmuterB.sol:TransmuterB",
        "label": "rewards",
        "offset": 0,
        "slot": "23",
        "type": "t_address"
      },
      {
        "astId": 11346,
        "contract": "contracts/TransmuterB.sol:TransmuterB",
        "label": "adapters",
        "offset": 0,
        "slot": "24",
        "type": "t_mapping(t_contract(YearnVaultAdapterWithIndirection)18390,t_bool)"
      },
      {
        "astId": 11349,
        "contract": "contracts/TransmuterB.sol:TransmuterB",
        "label": "_vaults",
        "offset": 0,
        "slot": "25",
        "type": "t_struct(List)20276_storage"
      },
      {
        "astId": 11352,
        "contract": "contracts/TransmuterB.sol:TransmuterB",
        "label": "initialized",
        "offset": 0,
        "slot": "26",
        "type": "t_bool"
      },
      {
        "astId": 11357,
        "contract": "contracts/TransmuterB.sol:TransmuterB",
        "label": "lastUserAction",
        "offset": 0,
        "slot": "27",
        "type": "t_mapping(t_address,t_uint256)"
      },
      {
        "astId": 11360,
        "contract": "contracts/TransmuterB.sol:TransmuterB",
        "label": "minUserActionDelay",
        "offset": 0,
        "slot": "28",
        "type": "t_uint256"
      }
    ],
    "types": {
      "t_address": {
        "encoding": "inplace",
        "label": "address",
        "numberOfBytes": "20"
      },
      "t_array(t_struct(Data)20272_storage)dyn_storage": {
        "base": "t_struct(Data)20272_storage",
        "encoding": "dynamic_array",
        "label": "struct VaultWithIndirection.Data[]",
        "numberOfBytes": "32"
      },
      "t_bool": {
        "encoding": "inplace",
        "label": "bool",
        "numberOfBytes": "1"
      },
      "t_contract(YearnVaultAdapterWithIndirection)18390": {
        "encoding": "inplace",
        "label": "contract YearnVaultAdapterWithIndirection",
        "numberOfBytes": "20"
      },
      "t_mapping(t_address,t_bool)": {
        "encoding": "mapping",
        "key": "t_address",
        "label": "mapping(address => bool)",
        "numberOfBytes": "32",
        "value": "t_bool"
      },
      "t_mapping(t_address,t_uint256)": {
        "encoding": "mapping",
        "key": "t_address",
        "label": "mapping(address => uint256)",
        "numberOfBytes": "32",
        "value": "t_uint256"
      },
      "t_mapping(t_contract(YearnVaultAdapterWithIndirection)18390,t_bool)": {
        "encoding": "mapping",
        "key": "t_contract(YearnVaultAdapterWithIndirection)18390",
        "label": "mapping(contract YearnVaultAdapterWithIndirection => bool)",
        "numberOfBytes": "32",
        "value": "t_bool"
      },
      "t_mapping(t_uint256,t_address)": {
        "encoding": "mapping",
        "key": "t_uint256",
        "label": "mapping(uint256 => address)",
        "numberOfBytes": "32",
        "value": "t_address"
      },
      "t_struct(Data)20272_storage": {
        "encoding": "inplace",
        "label": "struct VaultWithIndirection.Data",
        "members": [
          {
            "astId": 20269,
            "contract": "contracts/TransmuterB.sol:TransmuterB",
            "label": "adapter",
            "offset": 0,
            "slot": "0",
            "type": "t_contract(YearnVaultAdapterWithIndirection)18390"
          },
          {
            "astId": 20271,
            "contract": "contracts/TransmuterB.sol:TransmuterB",
            "label": "totalDeposited",
            "offset": 0,
            "slot": "1",
            "type": "t_uint256"
          }
        ],
        "numberOfBytes": "64"
      },
      "t_struct(List)20276_storage": {
        "encoding": "inplace",
        "label": "struct VaultWithIndirection.List",
        "members": [
          {
            "astId": 20275,
            "contract": "contracts/TransmuterB.sol:TransmuterB",
            "label": "elements",
            "offset": 0,
            "slot": "0",
            "type": "t_array(t_struct(Data)20272_storage)dyn_storage"
          }
        ],
        "numberOfBytes": "32"
      },
      "t_uint256": {
        "encoding": "inplace",
        "label": "uint256",
        "numberOfBytes": "32"
      }
    }
  }
}