{
  "address": "0xaB7A49B971AFdc7Ee26255038C82b4006D122086",
  "abi": [
    {
      "inputs": [
        {
          "internalType": "address",
          "name": "_AlToken",
          "type": "address"
        },
        {
          "internalType": "address",
          "name": "_Token",
          "type": "address"
        },
        {
          "internalType": "address",
          "name": "_governance",
          "type": "address"
        }
      ],
      "stateMutability": "nonpayable",
      "type": "constructor"
    },
    {
      "anonymous": false,
      "inputs": [
        {
          "indexed": false,
          "internalType": "address",
          "name": "governance",
          "type": "address"
        }
      ],
      "name": "GovernanceUpdated",
      "type": "event"
    },
    {
      "anonymous": false,
      "inputs": [
        {
          "indexed": false,
          "internalType": "address",
          "name": "pendingGovernance",
          "type": "address"
        }
      ],
      "name": "PendingGovernanceUpdated",
      "type": "event"
    },
    {
      "anonymous": false,
      "inputs": [
        {
          "indexed": false,
          "internalType": "uint256",
          "name": "newTransmutationPeriod",
          "type": "uint256"
        }
      ],
      "name": "TransmuterPeriodUpdated",
      "type": "event"
    },
    {
      "inputs": [],
      "name": "AlToken",
      "outputs": [
        {
          "internalType": "address",
          "name": "",
          "type": "address"
        }
      ],
      "stateMutability": "view",
      "type": "function"
    },
    {
      "inputs": [],
      "name": "TRANSMUTATION_PERIOD",
      "outputs": [
        {
          "internalType": "uint256",
          "name": "",
          "type": "uint256"
        }
      ],
      "stateMutability": "view",
      "type": "function"
    },
    {
      "inputs": [],
      "name": "Token",
      "outputs": [
        {
          "internalType": "address",
          "name": "",
          "type": "address"
        }
      ],
      "stateMutability": "view",
      "type": "function"
    },
    {
      "inputs": [],
      "name": "ZERO_ADDRESS",
      "outputs": [
        {
          "internalType": "address",
          "name": "",
          "type": "address"
        }
      ],
      "stateMutability": "view",
      "type": "function"
    },
    {
      "inputs": [],
      "name": "acceptGovernance",
      "outputs": [],
      "stateMutability": "nonpayable",
      "type": "function"
    },
    {
      "inputs": [],
      "name": "buffer",
      "outputs": [
        {
          "internalType": "uint256",
          "name": "",
          "type": "uint256"
        }
      ],
      "stateMutability": "view",
      "type": "function"
    },
    {
      "inputs": [],
      "name": "bufferInfo",
      "outputs": [
        {
          "internalType": "uint256",
          "name": "_toDistribute",
          "type": "uint256"
        },
        {
          "internalType": "uint256",
          "name": "_deltaBlocks",
          "type": "uint256"
        },
        {
          "internalType": "uint256",
          "name": "_buffer",
          "type": "uint256"
        }
      ],
      "stateMutability": "view",
      "type": "function"
    },
    {
      "inputs": [],
      "name": "claim",
      "outputs": [],
      "stateMutability": "nonpayable",
      "type": "function"
    },
    {
      "inputs": [
        {
          "internalType": "address",
          "name": "",
          "type": "address"
        }
      ],
      "name": "depositedAlTokens",
      "outputs": [
        {
          "internalType": "uint256",
          "name": "",
          "type": "uint256"
        }
      ],
      "stateMutability": "view",
      "type": "function"
    },
    {
      "inputs": [
        {
          "internalType": "address",
          "name": "origin",
          "type": "address"
        },
        {
          "internalType": "uint256",
          "name": "amount",
          "type": "uint256"
        }
      ],
      "name": "distribute",
      "outputs": [],
      "stateMutability": "nonpayable",
      "type": "function"
    },
    {
      "inputs": [
        {
          "internalType": "address",
          "name": "account",
          "type": "address"
        }
      ],
      "name": "dividendsOwing",
      "outputs": [
        {
          "internalType": "uint256",
          "name": "",
          "type": "uint256"
        }
      ],
      "stateMutability": "view",
      "type": "function"
    },
    {
      "inputs": [],
      "name": "exit",
      "outputs": [],
      "stateMutability": "nonpayable",
      "type": "function"
    },
    {
      "inputs": [
        {
          "internalType": "address",
          "name": "toTransmute",
          "type": "address"
        }
      ],
      "name": "forceTransmute",
      "outputs": [],
      "stateMutability": "nonpayable",
      "type": "function"
    },
    {
      "inputs": [
        {
          "internalType": "uint256",
          "name": "from",
          "type": "uint256"
        },
        {
          "internalType": "uint256",
          "name": "to",
          "type": "uint256"
        }
      ],
      "name": "getMultipleUserInfo",
      "outputs": [
        {
          "internalType": "address[]",
          "name": "theUserList",
          "type": "address[]"
        },
        {
          "internalType": "uint256[]",
          "name": "theUserData",
          "type": "uint256[]"
        }
      ],
      "stateMutability": "view",
      "type": "function"
    },
    {
      "inputs": [],
      "name": "governance",
      "outputs": [
        {
          "internalType": "address",
          "name": "",
          "type": "address"
        }
      ],
      "stateMutability": "view",
      "type": "function"
    },
    {
      "inputs": [],
      "name": "lastDepositBlock",
      "outputs": [
        {
          "internalType": "uint256",
          "name": "",
          "type": "uint256"
        }
      ],
      "stateMutability": "view",
      "type": "function"
    },
    {
      "inputs": [
        {
          "internalType": "address",
          "name": "",
          "type": "address"
        }
      ],
      "name": "lastDividendPoints",
      "outputs": [
        {
          "internalType": "uint256",
          "name": "",
          "type": "uint256"
        }
      ],
      "stateMutability": "view",
      "type": "function"
    },
    {
      "inputs": [],
      "name": "nextUser",
      "outputs": [
        {
          "internalType": "uint256",
          "name": "",
          "type": "uint256"
        }
      ],
      "stateMutability": "view",
      "type": "function"
    },
    {
      "inputs": [],
      "name": "pendingGovernance",
      "outputs": [
        {
          "internalType": "address",
          "name": "",
          "type": "address"
        }
      ],
      "stateMutability": "view",
      "type": "function"
    },
    {
      "inputs": [],
      "name": "pointMultiplier",
      "outputs": [
        {
          "internalType": "uint256",
          "name": "",
          "type": "uint256"
        }
      ],
      "stateMutability": "view",
      "type": "function"
    },
    {
      "inputs": [
        {
          "internalType": "address",
          "name": "",
          "type": "address"
        }
      ],
      "name": "realisedTokens",
      "outputs": [
        {
          "internalType": "uint256",
          "name": "",
          "type": "uint256"
        }
      ],
      "stateMutability": "view",
      "type": "function"
    },
    {
      "inputs": [
        {
          "internalType": "address",
          "name": "_pendingGovernance",
          "type": "address"
        }
      ],
      "name": "setPendingGovernance",
      "outputs": [],
      "stateMutability": "nonpayable",
      "type": "function"
    },
    {
      "inputs": [
        {
          "internalType": "uint256",
          "name": "newTransmutationPeriod",
          "type": "uint256"
        }
      ],
      "name": "setTransmutationPeriod",
      "outputs": [],
      "stateMutability": "nonpayable",
      "type": "function"
    },
    {
      "inputs": [
        {
          "internalType": "address",
          "name": "_toWhitelist",
          "type": "address"
        },
        {
          "internalType": "bool",
          "name": "_state",
          "type": "bool"
        }
      ],
      "name": "setWhitelist",
      "outputs": [],
      "stateMutability": "nonpayable",
      "type": "function"
    },
    {
      "inputs": [
        {
          "internalType": "uint256",
          "name": "amount",
          "type": "uint256"
        }
      ],
      "name": "stake",
      "outputs": [],
      "stateMutability": "nonpayable",
      "type": "function"
    },
    {
      "inputs": [
        {
          "internalType": "address",
          "name": "",
          "type": "address"
        }
      ],
      "name": "tokensInBucket",
      "outputs": [
        {
          "internalType": "uint256",
          "name": "",
          "type": "uint256"
        }
      ],
      "stateMutability": "view",
      "type": "function"
    },
    {
      "inputs": [],
      "name": "totalDividendPoints",
      "outputs": [
        {
          "internalType": "uint256",
          "name": "",
          "type": "uint256"
        }
      ],
      "stateMutability": "view",
      "type": "function"
    },
    {
      "inputs": [],
      "name": "totalSupplyAltokens",
      "outputs": [
        {
          "internalType": "uint256",
          "name": "",
          "type": "uint256"
        }
      ],
      "stateMutability": "view",
      "type": "function"
    },
    {
      "inputs": [],
      "name": "transmute",
      "outputs": [],
      "stateMutability": "nonpayable",
      "type": "function"
    },
    {
      "inputs": [],
      "name": "transmuteAndClaim",
      "outputs": [],
      "stateMutability": "nonpayable",
      "type": "function"
    },
    {
      "inputs": [],
      "name": "transmuteClaimAndWithdraw",
      "outputs": [],
      "stateMutability": "nonpayable",
      "type": "function"
    },
    {
      "inputs": [],
      "name": "unclaimedDividends",
      "outputs": [
        {
          "internalType": "uint256",
          "name": "",
          "type": "uint256"
        }
      ],
      "stateMutability": "view",
      "type": "function"
    },
    {
      "inputs": [
        {
          "internalType": "uint256",
          "name": "amount",
          "type": "uint256"
        }
      ],
      "name": "unstake",
      "outputs": [],
      "stateMutability": "nonpayable",
      "type": "function"
    },
    {
      "inputs": [
        {
          "internalType": "address",
          "name": "user",
          "type": "address"
        }
      ],
      "name": "userInfo",
      "outputs": [
        {
          "internalType": "uint256",
          "name": "depositedAl",
          "type": "uint256"
        },
        {
          "internalType": "uint256",
          "name": "pendingdivs",
          "type": "uint256"
        },
        {
          "internalType": "uint256",
          "name": "inbucket",
          "type": "uint256"
        },
        {
          "internalType": "uint256",
          "name": "realised",
          "type": "uint256"
        }
      ],
      "stateMutability": "view",
      "type": "function"
    },
    {
      "inputs": [
        {
          "internalType": "address",
          "name": "",
          "type": "address"
        }
      ],
      "name": "userIsKnown",
      "outputs": [
        {
          "internalType": "bool",
          "name": "",
          "type": "bool"
        }
      ],
      "stateMutability": "view",
      "type": "function"
    },
    {
      "inputs": [
        {
          "internalType": "uint256",
          "name": "",
          "type": "uint256"
        }
      ],
      "name": "userList",
      "outputs": [
        {
          "internalType": "address",
          "name": "",
          "type": "address"
        }
      ],
      "stateMutability": "view",
      "type": "function"
    },
    {
      "inputs": [
        {
          "internalType": "address",
          "name": "",
          "type": "address"
        }
      ],
      "name": "whiteList",
      "outputs": [
        {
          "internalType": "bool",
          "name": "",
          "type": "bool"
        }
      ],
      "stateMutability": "view",
      "type": "function"
    }
  ],
  "transactionHash": "0x333a37ed3898e8e2e99475486f0637ddb6e5345bac97befe6c3242312d4c476e",
  "args": [
    "0xBC6DA0FE9aD5f3b0d58160288917AA56653660E9",
    "0x6B175474E89094C44Da98b954EedeAC495271d0F",
    "0x51e029a5Ef288Fb87C5e8Dd46895c353ad9AaAeC"
  ],
  "solcInputHash": "a885e78562f5bae54a8e3e04018de494",
  "bytecode": "0x6080604052678ac7230489e80000600d5534801561001c57600080fd5b506040516126d63803806126d68339818101604052606081101561003f57600080fd5b50805160208201516040909201519091906001600160a01b03811661009f576040805162461bcd60e51b81526020600482015260116024820152702a3930b739b6baba32b91d10181033b7bb60791b604482015290519081900360640190fd5b601180546001600160a01b039283166001600160a01b031991821617909155600180549483169482169490941790935560028054929091169190921617905560326000556125e4806100f26000396000f3fe608060405234801561001057600080fd5b50600436106102775760003560e01c8063658b98a911610160578063bc0bc215116100d8578063edaafe201161008c578063f39c38a011610071578063f39c38a0146106df578063f93f394c146106e7578063fb9321081461071a57610277565b8063edaafe20146106cf578063f1f79200146106d757610277565b8063c2412676116100bd578063c2412676146106b7578063e044205e146106bf578063e9fad8ee146106c757610277565b8063bc0bc2151461067c578063bff170b91461068457610277565b80639f4216e81161012f578063a196cf2e11610114578063a196cf2e14610624578063a694fc3a1461062c578063b870d5981461064957610277565b80639f4216e8146105ea578063a02fbe2d1461060757610277565b8063658b98a91461054957806379070a1214610551578063806985f7146105845780638391e45c146105b757610277565b80632e17de78116101f35780634e71d92d116101c2578063538ba4f9116101a7578063538ba4f9146104d557806353d6fd59146105065780635aa6e6751461054157610277565b80634e71d92d1461049a57806352710007146104a257610277565b80632e17de7814610426578063372c12b1146104435780633cb802b91461048a5780634bf04bd11461049257610277565b80631959a0021161024a578063238efcbc1161022f578063238efcbc1461040e5780632a03cf68146104165780632a3d7c811461041e57610277565b80631959a002146103ad5780632113342d1461040657610277565b806301f50c861461027c578063030362901461029657806305d2301d146103525780630abb603514610378575b600080fd5b610284610753565b60408051918252519081900360200190f35b6102b9600480360360408110156102ac57600080fd5b5080359060200135610759565b604051808060200180602001838103835285818151815260200191508051906020019060200280838360005b838110156102fd5781810151838201526020016102e5565b50505050905001838103825284818151815260200191508051906020019060200280838360005b8381101561033c578181015183820152602001610324565b5050505090500194505050505060405180910390f35b61035a6109b4565b60408051938452602084019290925282820152519081900360600190f35b6103ab6004803603602081101561038e57600080fd5b503573ffffffffffffffffffffffffffffffffffffffff166109ee565b005b6103e0600480360360208110156103c357600080fd5b503573ffffffffffffffffffffffffffffffffffffffff16610b6f565b604080519485526020850193909352838301919091526060830152519081900360800190f35b610284610c88565b6103ab610c8e565b6103ab610d90565b610284610da2565b6103ab6004803603602081101561043c57600080fd5b5035610da8565b6104766004803603602081101561045957600080fd5b503573ffffffffffffffffffffffffffffffffffffffff16610f47565b604080519115158252519081900360200190f35b610284610f5c565b610284610f62565b6103ab610f68565b610284600480360360208110156104b857600080fd5b503573ffffffffffffffffffffffffffffffffffffffff16610fc1565b6104dd610fd3565b6040805173ffffffffffffffffffffffffffffffffffffffff9092168252519081900360200190f35b6103ab6004803603604081101561051c57600080fd5b5073ffffffffffffffffffffffffffffffffffffffff81351690602001351515610fd8565b6104dd6110b4565b6102846110d0565b6104766004803603602081101561056757600080fd5b503573ffffffffffffffffffffffffffffffffffffffff166110d6565b6102846004803603602081101561059a57600080fd5b503573ffffffffffffffffffffffffffffffffffffffff166110eb565b610284600480360360208110156105cd57600080fd5b503573ffffffffffffffffffffffffffffffffffffffff166110fd565b6104dd6004803603602081101561060057600080fd5b5035611173565b6103ab6004803603602081101561061d57600080fd5b503561119b565b61028461125c565b6103ab6004803603602081101561064257600080fd5b5035611262565b6102846004803603602081101561065f57600080fd5b503573ffffffffffffffffffffffffffffffffffffffff166114a8565b6104dd6114ba565b6103ab6004803603602081101561069a57600080fd5b503573ffffffffffffffffffffffffffffffffffffffff166114d6565b6104dd611907565b6103ab611923565b6103ab61194f565b610284611957565b6103ab61195d565b6104dd611cd8565b610284600480360360208110156106fd57600080fd5b503573ffffffffffffffffffffffffffffffffffffffff16611cf4565b6103ab6004803603604081101561073057600080fd5b5073ffffffffffffffffffffffffffffffffffffffff8135169060200135611d06565b60005481565b60608083808403828167ffffffffffffffff8111801561077857600080fd5b506040519080825280602002602001820160405280156107a2578160200160208202803683370190505b50905060608260020267ffffffffffffffff811180156107c157600080fd5b506040519080825280602002602001820160405280156107eb578160200160208202803683370190505b50905060008061081e60005461081861080f600c5443611e3b90919063ffffffff16565b600b5490611e86565b90611ef9565b9050600054610838600c5443611e3b90919063ffffffff16565b11156108435750600b545b60005b858110156109a357600087815260086020526040902054855173ffffffffffffffffffffffffffffffffffffffff9091169086908390811061088457fe5b73ffffffffffffffffffffffffffffffffffffffff92831660209182029290920181019190915260008981526008825260408082205490931681526003909152205484518590859081106108d457fe5b602090810291909101810191909152600a5460008981526008835260408082205473ffffffffffffffffffffffffffffffffffffffff168252600390935291909120546109769161092a91610818908690611e86565b60008981526008602081815260408084205473ffffffffffffffffffffffffffffffffffffffff168085526004835290842054938d9052919052610970919082906110fd565b90611f3b565b84846001018151811061098557fe5b60209081029190910101526001968701966002939093019201610846565b509299919850909650505050505050565b60008060006109ce600c5443611e3b90919063ffffffff16565b600b5460005491935091506109e7906108188385611e86565b9250909192565b60115473ffffffffffffffffffffffffffffffffffffffff163314610a7457604080517f08c379a000000000000000000000000000000000000000000000000000000000815260206004820152601760248201527f5472616e736d757465723a2021676f7665726e616e6365000000000000000000604482015290519081900360640190fd5b73ffffffffffffffffffffffffffffffffffffffff8116610af657604080517f08c379a000000000000000000000000000000000000000000000000000000000815260206004820152601160248201527f5472616e736d757465723a203020676f76000000000000000000000000000000604482015290519081900360640190fd5b6012805473ffffffffffffffffffffffffffffffffffffffff83167fffffffffffffffffffffffff0000000000000000000000000000000000000000909116811790915560408051918252517fc9e2377236eab4280090ce8f2317332649736d92f00dcf20a8dd6684ec5e78399181900360200190a150565b73ffffffffffffffffffffffffffffffffffffffff81166000908152600360205260408120548154600c548392839283928391610bb5916108189061080f904390611e3b565b9050600054610bcf600c5443611e3b90919063ffffffff16565b1115610bda5750600b545b600a5473ffffffffffffffffffffffffffffffffffffffff88166000908152600360205260408120549091610c1491610818908590611e86565b90506000610c50610c248a6110fd565b73ffffffffffffffffffffffffffffffffffffffff8b1660009081526004602052604090205490611f3b565b73ffffffffffffffffffffffffffffffffffffffff999099166000908152600560205260409020549399919897509295509350505050565b600e5481565b60125473ffffffffffffffffffffffffffffffffffffffff163314610d1457604080517f08c379a000000000000000000000000000000000000000000000000000000000815260206004820152601260248201527f2170656e64696e67476f7665726e616e63650000000000000000000000000000604482015290519081900360640190fd5b601254601180547fffffffffffffffffffffffff00000000000000000000000000000000000000001673ffffffffffffffffffffffffffffffffffffffff90921691821790556040805182815290517f9d3e522e1e47a2f6009739342b9cc7b252a1888154e843ab55ee1c81745795ab9181900360200190a150565b610d9861195d565b610da0610f68565b565b600c5481565b336000610db4826110fd565b90508015610e2357600f54610dc99082611e3b565b600f5573ffffffffffffffffffffffffffffffffffffffff8216600090815260046020526040902054610dfc9082611f3b565b73ffffffffffffffffffffffffffffffffffffffff83166000908152600460205260409020555b600e5473ffffffffffffffffffffffffffffffffffffffff831660009081526006602090815260408083209390935533808352600390915291902054841115610eb7576040517f08c379a00000000000000000000000000000000000000000000000000000000081526004018080602001828103825260338152602001806125526033913960400191505060405180910390fd5b73ffffffffffffffffffffffffffffffffffffffff8116600090815260036020526040902054610ee79085611e3b565b73ffffffffffffffffffffffffffffffffffffffff8216600090815260036020526040902055600a54610f1a9085611e3b565b600a55600154610f419073ffffffffffffffffffffffffffffffffffffffff168286611faf565b50505050565b60106020526000908152604090205460ff1681565b600f5481565b600a5481565b33600081815260056020526040902054610f8157600080fd5b73ffffffffffffffffffffffffffffffffffffffff808216600090815260056020526040812080549190556002549091610fbd91168383611faf565b5050565b60056020526000908152604090205481565b600081565b60115473ffffffffffffffffffffffffffffffffffffffff16331461105e57604080517f08c379a000000000000000000000000000000000000000000000000000000000815260206004820152601760248201527f5472616e736d757465723a2021676f7665726e616e6365000000000000000000604482015290519081900360640190fd5b73ffffffffffffffffffffffffffffffffffffffff91909116600090815260106020526040902080547fffffffffffffffffffffffffffffffffffffffffffffffffffffffffffffff0016911515919091179055565b60115473ffffffffffffffffffffffffffffffffffffffff1681565b600d5481565b60076020526000908152604090205460ff1681565b60066020526000908152604090205481565b73ffffffffffffffffffffffffffffffffffffffff8116600090815260066020526040812054600e5482916111329190611e3b565b600d5473ffffffffffffffffffffffffffffffffffffffff851660009081526003602052604090205491925061116c916108189084611e86565b9392505050565b60086020526000908152604090205473ffffffffffffffffffffffffffffffffffffffff1681565b60115473ffffffffffffffffffffffffffffffffffffffff16331461122157604080517f08c379a000000000000000000000000000000000000000000000000000000000815260206004820152601760248201527f5472616e736d757465723a2021676f7665726e616e6365000000000000000000604482015290519081900360640190fd5b60008190556040805182815290517fc2965d898897107f6f1d0e43c043ca07b7a51d487acfac1decec2ec8405364409181900360200190a150565b60095481565b600c54600b54439060009080156112d757600061127f8486611e3b565b90506000548110611292578192506112b9565b60005461129f8383611e86565b11156112b9576000546112b6906108188484611e86565b92505b82156112d5576112c98284611e3b565b600b556112d583612041565b505b600c8390553360006112e8826110fd565b9050801561135757600f546112fd9082611e3b565b600f5573ffffffffffffffffffffffffffffffffffffffff82166000908152600460205260409020546113309082611f3b565b73ffffffffffffffffffffffffffffffffffffffff83166000908152600460205260409020555b600e5473ffffffffffffffffffffffffffffffffffffffff831660009081526006602090815260408083209390935533825260079052205460ff166114115760098054600090815260086020908152604080832080547fffffffffffffffffffffffff0000000000000000000000000000000000000000163390811790915583526007909152902080547fffffffffffffffffffffffffffffffffffffffffffffffffffffffffffffff0016600190811790915581540190555b60015433906114389073ffffffffffffffffffffffffffffffffffffffff1682308b6120aa565b600a546114459089611f3b565b600a5573ffffffffffffffffffffffffffffffffffffffff81166000908152600360205260409020546114789089611f3b565b73ffffffffffffffffffffffffffffffffffffffff90911660009081526003602052604090205550505050505050565b60046020526000908152604090205481565b60015473ffffffffffffffffffffffffffffffffffffffff1681565b600c54600b544390600090801561154b5760006114f38486611e3b565b905060005481106115065781925061152d565b6000546115138383611e86565b111561152d5760005461152a906108188484611e86565b92505b82156115495761153d8284611e3b565b600b5561154983612041565b505b600c83905533600061155c826110fd565b905080156115cb57600f546115719082611e3b565b600f5573ffffffffffffffffffffffffffffffffffffffff82166000908152600460205260409020546115a49082611f3b565b73ffffffffffffffffffffffffffffffffffffffff83166000908152600460205260409020555b600e5473ffffffffffffffffffffffffffffffffffffffff83166000908152600660205260408120919091558790611602826110fd565b9050801561167157600f546116179082611e3b565b600f5573ffffffffffffffffffffffffffffffffffffffff821660009081526004602052604090205461164a9082611f3b565b73ffffffffffffffffffffffffffffffffffffffff83166000908152600460205260409020555b600e5473ffffffffffffffffffffffffffffffffffffffff808416600090815260066020908152604080832094909455918c168152600482528281205460039092529190912054339190811161172857604080517f08c379a000000000000000000000000000000000000000000000000000000000815260206004820152601560248201527f5472616e736d757465723a20216f766572666c6f770000000000000000000000604482015290519081900360640190fd5b73ffffffffffffffffffffffffffffffffffffffff8b1660009081526004602090815260408083208390556003909152812054611766908390611e3b565b73ffffffffffffffffffffffffffffffffffffffff808e1660009081526003602052604080822080549083905560015482517f42966c6800000000000000000000000000000000000000000000000000000000815260048101839052925191975094955093909216926342966c6892602480820193929182900301818387803b1580156117f257600080fd5b505af1158015611806573d6000803e3d6000fd5b5050600a546118189250905083611e3b565b600a5573ffffffffffffffffffffffffffffffffffffffff831660009081526004602052604090205461184b9082611f3b565b73ffffffffffffffffffffffffffffffffffffffff808516600090815260046020908152604080832094909455918f1681526005909152205461188e9083611f3b565b73ffffffffffffffffffffffffffffffffffffffff8d166000908152600560205260409020819055156118f95773ffffffffffffffffffffffffffffffffffffffff808d166000908152600560205260408120805491905560025490916118f791168e83611faf565b505b505050505050505050505050565b60025473ffffffffffffffffffffffffffffffffffffffff1681565b61192b61195d565b611933610f68565b3360009081526003602052604090205461194c81610da8565b50565b61193361195d565b600b5481565b600c54600b54439060009080156119d257600061197a8486611e3b565b9050600054811061198d578192506119b4565b60005461199a8383611e86565b11156119b4576000546119b1906108188484611e86565b92505b82156119d0576119c48284611e3b565b600b556119d083612041565b505b600c8390553360006119e3826110fd565b90508015611a5257600f546119f89082611e3b565b600f5573ffffffffffffffffffffffffffffffffffffffff8216600090815260046020526040902054611a2b9082611f3b565b73ffffffffffffffffffffffffffffffffffffffff83166000908152600460205260409020555b600e5473ffffffffffffffffffffffffffffffffffffffff8316600090815260066020908152604080832093909355338083526004909152918120549081611afb57604080517f08c379a000000000000000000000000000000000000000000000000000000000815260206004820152601e60248201527f6e65656420746f20686176652070656e64696e6720696e206275636b65740000604482015290519081900360640190fd5b73ffffffffffffffffffffffffffffffffffffffff831660009081526004602090815260408083208390556003909152902054821115611b915773ffffffffffffffffffffffffffffffffffffffff8316600090815260036020526040902054611b66908390611e3b565b73ffffffffffffffffffffffffffffffffffffffff8416600090815260036020526040902054925090505b73ffffffffffffffffffffffffffffffffffffffff8316600090815260036020526040902054611bc19083611e3b565b73ffffffffffffffffffffffffffffffffffffffff8085166000908152600360205260408082209390935560015483517f42966c680000000000000000000000000000000000000000000000000000000081526004810187905293519216926342966c68926024808301939282900301818387803b158015611c4257600080fd5b505af1158015611c56573d6000803e3d6000fd5b5050600a54611c689250905083611e3b565b600a55611c7481612041565b73ffffffffffffffffffffffffffffffffffffffff8316600090815260056020526040902054611ca49083611f3b565b73ffffffffffffffffffffffffffffffffffffffff9093166000908152600560205260409020929092555050505050505050565b60125473ffffffffffffffffffffffffffffffffffffffff1681565b60036020526000908152604090205481565b3360009081526010602052604090205460ff16611d8457604080517f08c379a000000000000000000000000000000000000000000000000000000000815260206004820152601860248201527f5472616e736d757465723a202177686974656c69737465640000000000000000604482015290519081900360640190fd5b600c54600b5443906000908015611df9576000611da18486611e3b565b90506000548110611db457819250611ddb565b600054611dc18383611e86565b1115611ddb57600054611dd8906108188484611e86565b92505b8215611df757611deb8284611e3b565b600b55611df783612041565b505b600c839055600254611e239073ffffffffffffffffffffffffffffffffffffffff168730886120aa565b600b54611e309086611f3b565b600b55505050505050565b6000611e7d83836040518060400160405280601e81526020017f536166654d6174683a207375627472616374696f6e206f766572666c6f77000081525061213f565b90505b92915050565b600082611e9557506000611e80565b82820282848281611ea257fe5b0414611e7d576040517f08c379a00000000000000000000000000000000000000000000000000000000081526004018080602001828103825260218152602001806125316021913960400191505060405180910390fd5b6000611e7d83836040518060400160405280601a81526020017f536166654d6174683a206469766973696f6e206279207a65726f0000000000008152506121f0565b600082820183811015611e7d57604080517f08c379a000000000000000000000000000000000000000000000000000000000815260206004820152601b60248201527f536166654d6174683a206164646974696f6e206f766572666c6f770000000000604482015290519081900360640190fd5b6040805173ffffffffffffffffffffffffffffffffffffffff8416602482015260448082018490528251808303909101815260649091019091526020810180517bffffffffffffffffffffffffffffffffffffffffffffffffffffffff167fa9059cbb0000000000000000000000000000000000000000000000000000000017905261203c90849061226f565b505050565b6000600a541180156120535750600081115b156120975761207f612076600a54610818600d5485611e8690919063ffffffff16565b600e5490611f3b565b600e55600f5461208f9082611f3b565b600f5561194c565b600b546120a49082611f3b565b600b5550565b6040805173ffffffffffffffffffffffffffffffffffffffff80861660248301528416604482015260648082018490528251808303909101815260849091019091526020810180517bffffffffffffffffffffffffffffffffffffffffffffffffffffffff167f23b872dd00000000000000000000000000000000000000000000000000000000179052610f4190859061226f565b600081848411156121e8576040517f08c379a00000000000000000000000000000000000000000000000000000000081526004018080602001828103825283818151815260200191508051906020019080838360005b838110156121ad578181015183820152602001612195565b50505050905090810190601f1680156121da5780820380516001836020036101000a031916815260200191505b509250505060405180910390fd5b505050900390565b60008183612259576040517f08c379a00000000000000000000000000000000000000000000000000000000081526020600482018181528351602484015283519092839260449091019190850190808383600083156121ad578181015183820152602001612195565b50600083858161226557fe5b0495945050505050565b60606122d1826040518060400160405280602081526020017f5361666545524332303a206c6f772d6c6576656c2063616c6c206661696c65648152508573ffffffffffffffffffffffffffffffffffffffff166123479092919063ffffffff16565b80519091501561203c578080602001905160208110156122f057600080fd5b505161203c576040517f08c379a000000000000000000000000000000000000000000000000000000000815260040180806020018281038252602a815260200180612585602a913960400191505060405180910390fd5b6060612356848460008561235e565b949350505050565b60606123698561252a565b6123d457604080517f08c379a000000000000000000000000000000000000000000000000000000000815260206004820152601d60248201527f416464726573733a2063616c6c20746f206e6f6e2d636f6e7472616374000000604482015290519081900360640190fd5b600060608673ffffffffffffffffffffffffffffffffffffffff1685876040518082805190602001908083835b6020831061243e57805182527fffffffffffffffffffffffffffffffffffffffffffffffffffffffffffffffe09092019160209182019101612401565b6001836020036101000a03801982511681845116808217855250505050505090500191505060006040518083038185875af1925050503d80600081146124a0576040519150601f19603f3d011682016040523d82523d6000602084013e6124a5565b606091505b509150915081156124b95791506123569050565b8051156124c95780518082602001fd5b6040517f08c379a00000000000000000000000000000000000000000000000000000000081526020600482018181528651602484015286518793919283926044019190850190808383600083156121ad578181015183820152602001612195565b3b15159056fe536166654d6174683a206d756c7469706c69636174696f6e206f766572666c6f775472616e736d757465723a20756e7374616b6520616d6f756e742065786365656473206465706f736974656420616d6f756e745361666545524332303a204552433230206f7065726174696f6e20646964206e6f742073756363656564a2646970667358221220439639b193e945e7880a93ac1840e7415ed37d56dc2da244d107fbe38674535664736f6c634300060c0033",
  "devdoc": {
    "details": "Implementation of the {IERC20Burnable} interface. This implementation is agnostic to the way tokens are created. This means that a supply mechanism has to be added in a derived contract using {_mint}. For a generic mechanism see {ERC20PresetMinterPauser}. TIP: For a detailed writeup see our guide https://forum.zeppelin.solutions/t/how-to-implement-erc20-supply-mechanisms/226[How to implement supply mechanisms]. We have followed general OpenZeppelin guidelines: functions revert instead of returning `false` on failure. This behavior is nonetheless conventional and does not conflict with the expectations of ERC20 applications. Additionally, an {Approval} event is emitted on calls to {transferFrom}. This allows applications to reconstruct the allowance for all accounts just by listening to said events. Other implementations of the EIP may not emit these events, as it isn't required by the specification. Finally, the non-standard {decreaseAllowance} and {increaseAllowance} functions have been added to mitigate the well-known issues around setting allowances. See {IERC20Burnable-approve}.",
    "kind": "dev",
    "methods": {
      "acceptGovernance()": {
        "details": "Accepts the role as governance. This function reverts if the caller is not the new pending governance."
      },
      "bufferInfo()": {
        "details": "Gets info on the buffer This function is used to query the contract to get the latest state of the buffer",
        "returns": {
          "_buffer": "the amount in the buffer ",
          "_deltaBlocks": "the amount of time since the last phased distribution",
          "_toDistribute": "the amount ready to be distributed"
        }
      },
      "claim()": {
        "details": "claims the base token after it has been transmuted This function reverts if there is no realisedToken balance"
      },
      "distribute(address,uint256)": {
        "details": "Distributes the base token proportionally to all alToken stakers. This function is meant to be called by the Alchemist contract for when it is sending yield to the transmuter.  Anyone can call this and add funds, idk why they would do that though...",
        "params": {
          "amount": "the amount of base tokens to be distributed to the transmuter.",
          "origin": "the account that is sending the tokens to be distributed."
        }
      },
      "dividendsOwing(address)": {
        "returns": {
          "_0": "displays the user's share of the pooled alTokens."
        }
      },
      "exit()": {
        "details": "Transmutes and unstakes all alTokens This function combines the transmute and unstake functions for ease of use"
      },
      "forceTransmute(address)": {
        "details": "Executes transmute() on another account that has had more base tokens allocated to it than alTokens staked. The caller of this function will have the surlus base tokens credited to their tokensInBucket balance, rewarding them for performing this action This function reverts if the address to transmute is not over-filled.",
        "params": {
          "toTransmute": "address of the account you will force transmute."
        }
      },
      "getMultipleUserInfo(uint256,uint256)": {
        "details": "Gets the status of multiple users in one call This function is used to query the contract to check for accounts that have overfilled positions in order to check  who can be force transmuted.",
        "params": {
          "from": "the first index of the userList",
          "to": "the last index of the userList returns the userList with their staking status in paginated form. "
        }
      },
      "setPendingGovernance(address)": {
        "details": "Sets the pending governance. This function reverts if the new pending governance is the zero address or the caller is not the current governance. This is to prevent the contract governance being set to the zero address which would deadlock privileged contract functionality.",
        "params": {
          "_pendingGovernance": "the new pending governance."
        }
      },
      "setTransmutationPeriod(uint256)": {
        "details": "set the TRANSMUTATION_PERIOD variable sets the length (in blocks) of one full distribution phase"
      },
      "setWhitelist(address,bool)": {
        "params": {
          "_state": "the whitelist state.",
          "_toWhitelist": "the account to mint tokens to."
        }
      },
      "stake(uint256)": {
        "details": "Deposits alTokens into the transmuter ",
        "params": {
          "amount": "the amount of alTokens to stake"
        }
      },
      "transmute()": {
        "details": "Converts the staked alTokens to the base tokens in amount of the sum of pendingdivs and tokensInBucket once the alToken has been converted, it is burned, and the base token becomes realisedTokens which can be recieved using claim()     reverts if there are no pendingdivs or tokensInBucket"
      },
      "transmuteAndClaim()": {
        "details": "Transmutes and claims all converted base tokens. This function combines the transmute and claim functions while leaving your remaining alTokens staked."
      },
      "transmuteClaimAndWithdraw()": {
        "details": "Transmutes, claims base tokens, and withdraws alTokens. This function helps users to exit the transmuter contract completely after converting their alTokens to the base pair."
      },
      "unstake(uint256)": {
        "details": "Withdraws staked alTokens from the transmuter This function reverts if you try to draw more tokens than you deposited",
        "params": {
          "amount": "the amount of alTokens to unstake"
        }
      },
      "userInfo(address)": {
        "details": "Gets the status of a user's staking position. The total amount allocated to a user is the sum of pendingdivs and inbucket.",
        "params": {
          "user": "the address of the user you wish to query. returns user status"
        }
      }
    },
    "stateVariables": {
      "governance": {
        "details": "The address of the account which currently has administrative capabilities over this contract."
      },
      "pendingGovernance": {
        "details": "The address of the pending governance."
      },
      "pointMultiplier": {
        "details": "values needed to calculate the distribution of base asset in proportion for alTokens staked"
      },
      "whiteList": {
        "details": "alchemist addresses whitelisted"
      }
    },
    "version": 1
  },
  "userdoc": {
    "kind": "user",
    "methods": {
      "setWhitelist(address,bool)": {
        "notice": "This function reverts if the caller is not governance"
      }
    },
    "version": 1
  },
  "storageLayout": {
    "storage": [
      {
        "astId": 6615,
        "contract": "contracts/Transmuter.sol:Transmuter",
        "label": "TRANSMUTATION_PERIOD",
        "offset": 0,
        "slot": "0",
        "type": "t_uint256"
      },
      {
        "astId": 6617,
        "contract": "contracts/Transmuter.sol:Transmuter",
        "label": "AlToken",
        "offset": 0,
        "slot": "1",
        "type": "t_address"
      },
      {
        "astId": 6619,
        "contract": "contracts/Transmuter.sol:Transmuter",
        "label": "Token",
        "offset": 0,
        "slot": "2",
        "type": "t_address"
      },
      {
        "astId": 6623,
        "contract": "contracts/Transmuter.sol:Transmuter",
        "label": "depositedAlTokens",
        "offset": 0,
        "slot": "3",
        "type": "t_mapping(t_address,t_uint256)"
      },
      {
        "astId": 6627,
        "contract": "contracts/Transmuter.sol:Transmuter",
        "label": "tokensInBucket",
        "offset": 0,
        "slot": "4",
        "type": "t_mapping(t_address,t_uint256)"
      },
      {
        "astId": 6631,
        "contract": "contracts/Transmuter.sol:Transmuter",
        "label": "realisedTokens",
        "offset": 0,
        "slot": "5",
        "type": "t_mapping(t_address,t_uint256)"
      },
      {
        "astId": 6635,
        "contract": "contracts/Transmuter.sol:Transmuter",
        "label": "lastDividendPoints",
        "offset": 0,
        "slot": "6",
        "type": "t_mapping(t_address,t_uint256)"
      },
      {
        "astId": 6639,
        "contract": "contracts/Transmuter.sol:Transmuter",
        "label": "userIsKnown",
        "offset": 0,
        "slot": "7",
        "type": "t_mapping(t_address,t_bool)"
      },
      {
        "astId": 6643,
        "contract": "contracts/Transmuter.sol:Transmuter",
        "label": "userList",
        "offset": 0,
        "slot": "8",
        "type": "t_mapping(t_uint256,t_address)"
      },
      {
        "astId": 6645,
        "contract": "contracts/Transmuter.sol:Transmuter",
        "label": "nextUser",
        "offset": 0,
        "slot": "9",
        "type": "t_uint256"
      },
      {
        "astId": 6647,
        "contract": "contracts/Transmuter.sol:Transmuter",
        "label": "totalSupplyAltokens",
        "offset": 0,
        "slot": "10",
        "type": "t_uint256"
      },
      {
        "astId": 6649,
        "contract": "contracts/Transmuter.sol:Transmuter",
        "label": "buffer",
        "offset": 0,
        "slot": "11",
        "type": "t_uint256"
      },
      {
        "astId": 6651,
        "contract": "contracts/Transmuter.sol:Transmuter",
        "label": "lastDepositBlock",
        "offset": 0,
        "slot": "12",
        "type": "t_uint256"
      },
      {
        "astId": 6655,
        "contract": "contracts/Transmuter.sol:Transmuter",
        "label": "pointMultiplier",
        "offset": 0,
        "slot": "13",
        "type": "t_uint256"
      },
      {
        "astId": 6657,
        "contract": "contracts/Transmuter.sol:Transmuter",
        "label": "totalDividendPoints",
        "offset": 0,
        "slot": "14",
        "type": "t_uint256"
      },
      {
        "astId": 6659,
        "contract": "contracts/Transmuter.sol:Transmuter",
        "label": "unclaimedDividends",
        "offset": 0,
        "slot": "15",
        "type": "t_uint256"
      },
      {
        "astId": 6664,
        "contract": "contracts/Transmuter.sol:Transmuter",
        "label": "whiteList",
        "offset": 0,
        "slot": "16",
        "type": "t_mapping(t_address,t_bool)"
      },
      {
        "astId": 6667,
        "contract": "contracts/Transmuter.sol:Transmuter",
        "label": "governance",
        "offset": 0,
        "slot": "17",
        "type": "t_address"
      },
      {
        "astId": 6670,
        "contract": "contracts/Transmuter.sol:Transmuter",
        "label": "pendingGovernance",
        "offset": 0,
        "slot": "18",
        "type": "t_address"
      }
    ],
    "types": {
      "t_address": {
        "encoding": "inplace",
        "label": "address",
        "numberOfBytes": "20"
      },
      "t_bool": {
        "encoding": "inplace",
        "label": "bool",
        "numberOfBytes": "1"
      },
      "t_mapping(t_address,t_bool)": {
        "encoding": "mapping",
        "key": "t_address",
        "label": "mapping(address => bool)",
        "numberOfBytes": "32",
        "value": "t_bool"
      },
      "t_mapping(t_address,t_uint256)": {
        "encoding": "mapping",
        "key": "t_address",
        "label": "mapping(address => uint256)",
        "numberOfBytes": "32",
        "value": "t_uint256"
      },
      "t_mapping(t_uint256,t_address)": {
        "encoding": "mapping",
        "key": "t_uint256",
        "label": "mapping(uint256 => address)",
        "numberOfBytes": "32",
        "value": "t_address"
      },
      "t_uint256": {
        "encoding": "inplace",
        "label": "uint256",
        "numberOfBytes": "32"
      }
    }
  }
}