{
  "address": "0x6Fe02BE0EC79dCF582cBDB936D7037d2eB17F661",
  "abi": [
    {
      "inputs": [
        {
          "internalType": "contract IyVaultV2",
          "name": "_vault",
          "type": "address"
        },
        {
          "internalType": "address",
          "name": "_admin",
          "type": "address"
        }
      ],
      "stateMutability": "nonpayable",
      "type": "constructor"
    },
    {
      "inputs": [],
      "name": "admin",
      "outputs": [
        {
          "internalType": "address",
          "name": "",
          "type": "address"
        }
      ],
      "stateMutability": "view",
      "type": "function"
    },
    {
      "inputs": [],
      "name": "decimals",
      "outputs": [
        {
          "internalType": "uint256",
          "name": "",
          "type": "uint256"
        }
      ],
      "stateMutability": "view",
      "type": "function"
    },
    {
      "inputs": [
        {
          "internalType": "uint256",
          "name": "_amount",
          "type": "uint256"
        }
      ],
      "name": "deposit",
      "outputs": [],
      "stateMutability": "nonpayable",
      "type": "function"
    },
    {
      "inputs": [
        {
          "internalType": "address",
          "name": "_recipient",
          "type": "address"
        },
        {
          "internalType": "uint256",
          "name": "_amount",
          "type": "uint256"
        }
      ],
      "name": "indirectWithdraw",
      "outputs": [],
      "stateMutability": "nonpayable",
      "type": "function"
    },
    {
      "inputs": [],
      "name": "token",
      "outputs": [
        {
          "internalType": "contract IDetailedERC20",
          "name": "",
          "type": "address"
        }
      ],
      "stateMutability": "view",
      "type": "function"
    },
    {
      "inputs": [],
      "name": "totalValue",
      "outputs": [
        {
          "internalType": "uint256",
          "name": "",
          "type": "uint256"
        }
      ],
      "stateMutability": "view",
      "type": "function"
    },
    {
      "inputs": [],
      "name": "updateApproval",
      "outputs": [],
      "stateMutability": "nonpayable",
      "type": "function"
    },
    {
      "inputs": [],
      "name": "vault",
      "outputs": [
        {
          "internalType": "contract IyVaultV2",
          "name": "",
          "type": "address"
        }
      ],
      "stateMutability": "view",
      "type": "function"
    },
    {
      "inputs": [
        {
          "internalType": "address",
          "name": "_recipient",
          "type": "address"
        },
        {
          "internalType": "uint256",
          "name": "_amount",
          "type": "uint256"
        }
      ],
      "name": "withdraw",
      "outputs": [],
      "stateMutability": "nonpayable",
      "type": "function"
    }
  ],
  "transactionHash": "0x690bde7aa32a740357fe9430277b0fb6dc94aa5b1d0e7e61c84d740ce28784d7",
  "args": [
    "0xdA816459F1AB5631232FE5e97a05BBBb94970c95",
    "0xeE69BD81Bd056339368c97c4B2837B4Dc4b796E7"
  ],
  "solcInputHash": "ae80cdd1dd0b4804f0fd41aa15ceba80",
  "bytecode": "0x60806040523480156200001157600080fd5b5060405162001723380380620017238339810160408190526200003491620004d1565b600080546001600160a01b038085166001600160a01b0319928316179092556001805492841692909116919091179055818162000070620000f3565b816001600160a01b031663313ce5676040518163ffffffff1660e01b815260040160206040518083038186803b158015620000aa57600080fd5b505afa158015620000bf573d6000803e3d6000fd5b505050506040513d601f19601f82011682018060405250810190620000e591906200050f565b600255506200071b92505050565b60008060009054906101000a90046001600160a01b03166001600160a01b031663fc0c546a6040518163ffffffff1660e01b815260040160206040518083038186803b1580156200014357600080fd5b505afa15801562000158573d6000803e3d6000fd5b505050506040513d601f19601f820116820180604052508101906200017e919062000490565b600054909150620001ab906001600160a01b038084169116600019620001ae602090811b620005d517901c565b50565b8015806200023d5750604051636eb1769f60e11b81526001600160a01b0384169063dd62ed3e90620001e7903090869060040162000546565b60206040518083038186803b1580156200020057600080fd5b505afa15801562000215573d6000803e3d6000fd5b505050506040513d601f19601f820116820180604052508101906200023b91906200050f565b155b620002655760405162461bcd60e51b81526004016200025c9062000675565b60405180910390fd5b620002c08363095ea7b360e01b84846040516024016200028792919062000560565b60408051808303601f190181529190526020810180516001600160e01b0319939093166001600160e01b0393841617905290620002c516565b505050565b606062000321826040518060400160405280602081526020017f5361666545524332303a206c6f772d6c6576656c2063616c6c206661696c6564815250856001600160a01b03166200036160201b6200075a179092919060201c565b805190915015620002c05780806020019051810190620003429190620004af565b620002c05760405162461bcd60e51b81526004016200025c906200062b565b60606200037284846000856200037c565b90505b9392505050565b606082471015620003a15760405162461bcd60e51b81526004016200025c90620005ae565b620003ac856200044c565b620003cb5760405162461bcd60e51b81526004016200025c90620005f4565b60006060866001600160a01b03168587604051620003ea919062000528565b60006040518083038185875af1925050503d806000811462000429576040519150601f19603f3d011682016040523d82523d6000602084013e6200042e565b606091505b5090925090506200044182828662000452565b979650505050505050565b3b151590565b606083156200046357508162000375565b825115620004745782518084602001fd5b8160405162461bcd60e51b81526004016200025c919062000579565b600060208284031215620004a2578081fd5b8151620003758162000705565b600060208284031215620004c1578081fd5b8151801515811462000375578182fd5b60008060408385031215620004e4578081fd5b8251620004f18162000705565b6020840151909250620005048162000705565b809150509250929050565b60006020828403121562000521578081fd5b5051919050565b600082516200053c818460208701620006d2565b9190910192915050565b6001600160a01b0392831681529116602082015260400190565b6001600160a01b03929092168252602082015260400190565b60006020825282518060208401526200059a816040850160208701620006d2565b601f01601f19169190910160400192915050565b60208082526026908201527f416464726573733a20696e73756666696369656e742062616c616e636520666f6040820152651c8818d85b1b60d21b606082015260800190565b6020808252601d908201527f416464726573733a2063616c6c20746f206e6f6e2d636f6e7472616374000000604082015260600190565b6020808252602a908201527f5361666545524332303a204552433230206f7065726174696f6e20646964206e6040820152691bdd081cdd58d8d9595960b21b606082015260800190565b60208082526036908201527f5361666545524332303a20617070726f76652066726f6d206e6f6e2d7a65726f60408201527f20746f206e6f6e2d7a65726f20616c6c6f77616e636500000000000000000000606082015260800190565b60005b83811015620006ef578181015183820152602001620006d5565b83811115620006ff576000848401525b50505050565b6001600160a01b0381168114620001ab57600080fd5b610ff8806200072b6000396000f3fe608060405234801561001057600080fd5b50600436106100a35760003560e01c8063f3fef3a311610076578063f926197e1161005b578063f926197e1461011e578063fbfa77cf14610126578063fc0c546a1461012e576100a3565b8063f3fef3a3146100f6578063f851a44014610109576100a3565b8063313ce567146100a8578063594d4e36146100c6578063b6b55f25146100db578063d4c3eea0146100ee575b600080fd5b6100b0610136565b6040516100bd9190610f43565b60405180910390f35b6100d96100d4366004610bd4565b61013c565b005b6100d96100e9366004610c1f565b6101c7565b6100b061026f565b6100d9610104366004610bd4565b610322565b61011161040e565b6040516100bd9190610c6b565b6100d961042a565b610111610518565b610111610534565b60025481565b60015473ffffffffffffffffffffffffffffffffffffffff163314610196576040517f08c379a000000000000000000000000000000000000000000000000000000000815260040161018d90610dbe565b60405180910390fd5b6101c3826101a383610773565b60005473ffffffffffffffffffffffffffffffffffffffff169190610835565b5050565b6000546040517fb6b55f2500000000000000000000000000000000000000000000000000000000815273ffffffffffffffffffffffffffffffffffffffff9091169063b6b55f259061021d908490600401610f43565b602060405180830381600087803b15801561023757600080fd5b505af115801561024b573d6000803e3d6000fd5b505050506040513d601f19601f820116820180604052508101906101c39190610c37565b600080546040517f70a0823100000000000000000000000000000000000000000000000000000000815261031d9173ffffffffffffffffffffffffffffffffffffffff16906370a08231906102c8903090600401610c6b565b60206040518083038186803b1580156102e057600080fd5b505afa1580156102f4573d6000803e3d6000fd5b505050506040513d601f19601f820116820180604052508101906103189190610c37565b610854565b905090565b60015473ffffffffffffffffffffffffffffffffffffffff163314610373576040517f08c379a000000000000000000000000000000000000000000000000000000000815260040161018d90610dbe565b60005473ffffffffffffffffffffffffffffffffffffffff1662f714ce61039983610773565b846040518363ffffffff1660e01b81526004016103b7929190610f4c565b602060405180830381600087803b1580156103d157600080fd5b505af11580156103e5573d6000803e3d6000fd5b505050506040513d601f19601f820116820180604052508101906104099190610c37565b505050565b60015473ffffffffffffffffffffffffffffffffffffffff1681565b60008060009054906101000a900473ffffffffffffffffffffffffffffffffffffffff1673ffffffffffffffffffffffffffffffffffffffff1663fc0c546a6040518163ffffffff1660e01b815260040160206040518083038186803b15801561049357600080fd5b505afa1580156104a7573d6000803e3d6000fd5b505050506040513d601f19601f820116820180604052508101906104cb9190610bb8565b6000549091506105159073ffffffffffffffffffffffffffffffffffffffff80841691167fffffffffffffffffffffffffffffffffffffffffffffffffffffffffffffffff6105d5565b50565b60005473ffffffffffffffffffffffffffffffffffffffff1681565b60008060009054906101000a900473ffffffffffffffffffffffffffffffffffffffff1673ffffffffffffffffffffffffffffffffffffffff1663fc0c546a6040518163ffffffff1660e01b815260040160206040518083038186803b15801561059d57600080fd5b505afa1580156105b1573d6000803e3d6000fd5b505050506040513d601f19601f8201168201806040525081019061031d9190610bb8565b80158061068357506040517fdd62ed3e00000000000000000000000000000000000000000000000000000000815273ffffffffffffffffffffffffffffffffffffffff84169063dd62ed3e906106319030908690600401610c8c565b60206040518083038186803b15801561064957600080fd5b505afa15801561065d573d6000803e3d6000fd5b505050506040513d601f19601f820116820180604052508101906106819190610c37565b155b6106b9576040517f08c379a000000000000000000000000000000000000000000000000000000000815260040161018d90610ee6565b6104098363095ea7b360e01b84846040516024016106d8929190610cb3565b604080517fffffffffffffffffffffffffffffffffffffffffffffffffffffffffffffffe08184030181529190526020810180517bffffffffffffffffffffffffffffffffffffffffffffffffffffffff167fffffffff0000000000000000000000000000000000000000000000000000000090931692909217909152610907565b606061076984846000856109bd565b90505b9392505050565b60008054604080517f99530b06000000000000000000000000000000000000000000000000000000008152905161082f9273ffffffffffffffffffffffffffffffffffffffff16916399530b06916004808301926020929190829003018186803b1580156107e057600080fd5b505afa1580156107f4573d6000803e3d6000fd5b505050506040513d601f19601f820116820180604052508101906108189190610c37565b600254610829908590600a0a610abf565b90610b13565b92915050565b6104098363a9059cbb60e01b84846040516024016106d8929190610cb3565b600061082f600254600a0a61082960008054906101000a900473ffffffffffffffffffffffffffffffffffffffff1673ffffffffffffffffffffffffffffffffffffffff166399530b066040518163ffffffff1660e01b815260040160206040518083038186803b1580156108c857600080fd5b505afa1580156108dc573d6000803e3d6000fd5b505050506040513d601f19601f820116820180604052508101906109009190610c37565b8590610abf565b6060610969826040518060400160405280602081526020017f5361666545524332303a206c6f772d6c6576656c2063616c6c206661696c65648152508573ffffffffffffffffffffffffffffffffffffffff1661075a9092919063ffffffff16565b80519091501561040957808060200190518101906109879190610bff565b610409576040517f08c379a000000000000000000000000000000000000000000000000000000000815260040161018d90610e89565b6060824710156109f9576040517f08c379a000000000000000000000000000000000000000000000000000000000815260040161018d90610d2a565b610a0285610b5f565b610a38576040517f08c379a000000000000000000000000000000000000000000000000000000000815260040161018d90610e52565b600060608673ffffffffffffffffffffffffffffffffffffffff168587604051610a629190610c4f565b60006040518083038185875af1925050503d8060008114610a9f576040519150601f19603f3d011682016040523d82523d6000602084013e610aa4565b606091505b5091509150610ab4828286610b65565b979650505050505050565b600082610ace5750600061082f565b82820282848281610adb57fe5b041461076c576040517f08c379a000000000000000000000000000000000000000000000000000000000815260040161018d90610df5565b6000808211610b4e576040517f08c379a000000000000000000000000000000000000000000000000000000000815260040161018d90610d87565b818381610b5757fe5b049392505050565b3b151590565b60608315610b7457508161076c565b825115610b845782518084602001fd5b816040517f08c379a000000000000000000000000000000000000000000000000000000000815260040161018d9190610cd9565b600060208284031215610bc9578081fd5b815161076c81610fa0565b60008060408385031215610be6578081fd5b8235610bf181610fa0565b946020939093013593505050565b600060208284031215610c10578081fd5b8151801515811461076c578182fd5b600060208284031215610c30578081fd5b5035919050565b600060208284031215610c48578081fd5b5051919050565b60008251610c61818460208701610f70565b9190910192915050565b73ffffffffffffffffffffffffffffffffffffffff91909116815260200190565b73ffffffffffffffffffffffffffffffffffffffff92831681529116602082015260400190565b73ffffffffffffffffffffffffffffffffffffffff929092168252602082015260400190565b6000602082528251806020840152610cf8816040850160208701610f70565b601f017fffffffffffffffffffffffffffffffffffffffffffffffffffffffffffffffe0169190910160400192915050565b60208082526026908201527f416464726573733a20696e73756666696369656e742062616c616e636520666f60408201527f722063616c6c0000000000000000000000000000000000000000000000000000606082015260800190565b6020808252601a908201527f536166654d6174683a206469766973696f6e206279207a65726f000000000000604082015260600190565b6020808252601d908201527f596561726e5661756c74416461707465723a206f6e6c792061646d696e000000604082015260600190565b60208082526021908201527f536166654d6174683a206d756c7469706c69636174696f6e206f766572666c6f60408201527f7700000000000000000000000000000000000000000000000000000000000000606082015260800190565b6020808252601d908201527f416464726573733a2063616c6c20746f206e6f6e2d636f6e7472616374000000604082015260600190565b6020808252602a908201527f5361666545524332303a204552433230206f7065726174696f6e20646964206e60408201527f6f74207375636365656400000000000000000000000000000000000000000000606082015260800190565b60208082526036908201527f5361666545524332303a20617070726f76652066726f6d206e6f6e2d7a65726f60408201527f20746f206e6f6e2d7a65726f20616c6c6f77616e636500000000000000000000606082015260800190565b90815260200190565b91825273ffffffffffffffffffffffffffffffffffffffff16602082015260400190565b60005b83811015610f8b578181015183820152602001610f73565b83811115610f9a576000848401525b50505050565b73ffffffffffffffffffffffffffffffffffffffff8116811461051557600080fdfea26469706673582212201aecbeb4d8fea9f10fde5db002a94ea8047cf34ff3bb13ad86f29485a88f913764736f6c634300060c0033",
  "devdoc": {
    "details": "A vault adapter implementation which wraps a yEarn vault.",
    "kind": "dev",
    "methods": {
      "deposit(uint256)": {
        "details": "Deposits tokens into the vault.",
        "params": {
          "_amount": "the amount of tokens to deposit into the vault."
        }
      },
      "indirectWithdraw(address,uint256)": {
        "details": "Sends vault tokens to the recipient This function reverts if the caller is not the admin.",
        "params": {
          "_amount": "the amount of tokens to send.",
          "_recipient": "the account to send the tokens to."
        }
      },
      "token()": {
        "details": "Gets the token that the vault accepts.",
        "returns": {
          "_0": "the accepted token."
        }
      },
      "totalValue()": {
        "details": "Gets the total value of the assets that the adapter holds in the vault.",
        "returns": {
          "_0": "the total assets."
        }
      },
      "updateApproval()": {
        "details": "Updates the vaults approval of the token to be the maximum value."
      },
      "withdraw(address,uint256)": {
        "details": "Withdraws tokens from the vault to the recipient. This function reverts if the caller is not the admin.",
        "params": {
          "_amount": "the amount of tokens to withdraw.",
          "_recipient": "the account to withdraw the tokes to."
        }
      }
    },
    "title": "YearnVaultAdapter",
    "version": 1
  },
  "userdoc": {
    "kind": "user",
    "methods": {},
    "version": 1
  },
  "storageLayout": {
    "storage": [
      {
        "astId": 17933,
        "contract": "contracts/adapters/YearnVaultAdapterWithIndirection.sol:YearnVaultAdapterWithIndirection",
        "label": "vault",
        "offset": 0,
        "slot": "0",
        "type": "t_contract(IyVaultV2)19025"
      },
      {
        "astId": 17936,
        "contract": "contracts/adapters/YearnVaultAdapterWithIndirection.sol:YearnVaultAdapterWithIndirection",
        "label": "admin",
        "offset": 0,
        "slot": "1",
        "type": "t_address"
      },
      {
        "astId": 17939,
        "contract": "contracts/adapters/YearnVaultAdapterWithIndirection.sol:YearnVaultAdapterWithIndirection",
        "label": "decimals",
        "offset": 0,
        "slot": "2",
        "type": "t_uint256"
      }
    ],
    "types": {
      "t_address": {
        "encoding": "inplace",
        "label": "address",
        "numberOfBytes": "20"
      },
      "t_contract(IyVaultV2)19025": {
        "encoding": "inplace",
        "label": "contract IyVaultV2",
        "numberOfBytes": "20"
      },
      "t_uint256": {
        "encoding": "inplace",
        "label": "uint256",
        "numberOfBytes": "32"
      }
    }
  }
}